S01600003378554152545F6F6E5F51465036342E7333370B
S113000000000820D5260000012700000127000079
S1130010012700000127000001270000012700003C
S1130020012700000127000001270000012700002C
S1130030012700000027000001270000012700001D
S1130040012700000127000001270000C12D000046
S113005001270000B14C0000995400000127000062
S113006001270000012700000127000001270000EC
S11300700127000001270000554E00000127000061
S113008001270000012700000127000001270000CC
S1130090012700003D5000000127000055520000D8
S11300A001270000012700000127000001270000AC
S11300B0012700000127000001270000012700009C
S11300C0012700000127000001270000012700008C
S11300D0012700000127000001270000012700007C
S11300E0012700000127000001270000012700006C
S11300F0012700000127000001270000012700005C
S1130100012700000127000001270000012700004B
S1130110012700000127000001270000012700003B
S1130120012700000127000001270000012700002B
S1130130012700000127000001270000012700001B
S1130140012700000127000001270000012700000B
S113015010B5054C237833B9044B13B10448AFF3FD
S113016000800123237010BD7C00002000000000EB
S1130170106B000008B5034B1BB103490348AFF3F0
S1130180008008BD0000000080000020106B00000B
S1130190154B002B08BF134B9D46A3F5803A002155
S11301A08B460F461348144A121A05F0DAFB0F4B1C
S11301B0002B00D098470E4B002B00D0984700200E
S11301C0002104000D000D48002802D00C48AFF3B4
S11301D0008005F097FB2000290002F0AFF805F03D
S11301E07DFB00BF000008000000082000000000A4
S11301F0000000007C0000207009002000000000C6
S11302000000000080B487B000AFF860B9607A6085
S1130210FB6803F10473DA00BB6813449B007B6141
S11302207B697A681A6000BF1C37BD465DF8047BA1
S1130230704780B485B000AF786039607B6803F1A3
S11302400473DA003B6813449B00FB60FB681B6883
S113025018461437BD465DF8047B704780B485B0FA
S113026000AF786039607B6803F1C063FB60FB68B2
S11302703A681A6000BF1437BD465DF8047B7047C6
S113028080B485B000AF786039607B6803F1806327
S1130290FB60FB683A681A6000BF1437BD465DF81E
S11302A0047B704780B483B000AF786001227B6820
S11302B002FA03F318460C37BD465DF8047B704719
S11302C080B485B000AF78607B68002B03D07B6876
S11302D0B3F5004F00BF7B68B3FA83F3DBB2C3F11D
S11302E01F03FB60FB6818461437BD465DF8047BAA
S11302F0704780B584B000AF78607B680133B3FA8F
S113030083F3DBB2C3F11F03FB60F868FFF7CAFF96
S1130310FB6818461037BD4680BD000080B400AFAE
S1130320064B1B6803F04003002B01D1012300E0BE
S113033000231846BD465DF8047B70473C300E40F0
S113034080B500AFFFF7EAFF034683F00103DBB299
S1130350002B08D100BF12210448FFF76AFF0346AF
S1130360002BF8D100E000BF80BD00BF04300E4078
S113037080B500AFFFF7E4FF034B5B681B0C03F091
S11303800303DBB2184680BD00300E4080B584B054
S113039000AF78600123FB607B68124A934204D863
S11303A00023FB600023BB6008E07B680E4A934295
S11303B002D80123BB6001E00223BB60FA6810216C
S11303C00A48FFF71FFF094BD3F8003123F04072AE
S11303D0BB681B0605491343C1F8003100BF103741
S11303E0BD4680BD0048E8010090D00300400E40A7
S11303F080B485B000AF786039604FF080435B68AB
S113040003F04073FB600023BB6012E01B4ABB682F
S1130410DB0013441A793B68DBB29A4206D1174ACF
S1130420BB6852F833307A689A4206D9BB68013304
S1130430BB60BB68062BE9D900E000BFBB68072B93
S113044002D10323FB6005E00C4ABB68DB001344C4
S11304505B79FB60FB681B06FB604FF080435B68C5
S113046023F040724FF08041FB6813434B6000BFA0
S11304701437BD465DF8047B704700BFDC630000A1
S113048080B582B000AF4FF080431B6C002B14BFCB
S113049001230023FB714FF0804341F671321A644B
S11304A002F050F9034600211846FFF7A1FFFB793B
S11304B0002B03D04FF0804300221A6400BF08379A
S11304C0BD4680BD80B584B000AF786039600C4B08
S11304D0FB603B68022B01D10A4BFB607A68FB6826
S11304E09A4204D908490948FFF7B8FE03E00649CF
S11304F00648FFF7C5FE00BF1037BD4680BD00BFEC
S113050080D543020024F4000202020000010040EE
S113051080B582B000AF786039607B680B4A934243
S113052009D93B68002B06D14FF480514FF080402D
S1130530FFF794FE05E04FF480514FF08040FFF741
S11305409FFE00BF0837BD4680BD00BF80F0FA02A1
S113055080B584B000AF786039604FF080431B6C85
S1130560002B14BF01230023FB734FF0804341F69B
S113057071321A6439687868FFF73AFF3968786825
S1130580FFF7A0FF39687868FFF7C2FFFB7B002BF9
S113059003D04FF0804300221A6400BF1037BD46D9
S11305A080BD000080B400AF044B5B6A1B0903F0FC
S11305B003031846BD465DF8047B704700400E40B7
S11305C080B483B000AF7860074B5B6A23F03002DD
S11305D07B681B01044913434B6200BF0C37BD46C3
S11305E05DF8047B704700BF00400E4080B483B0C8
S11305F000AF78600A4BD3F8443103F00103002BB9
S113060008D100BF064BD3F840217B681340002B70
S1130610F8D100E000BF0C37BD465DF8047B70479D
S113062000400E4080B500AF0321064800F01CF9DD
S11306300321054800F018F90321044800F014F9D7
S113064000BF80BD404105005041070060410900E2
S113065080B582B000AF02F07FF83860FFF788FE03
S11306600346022B1AD13A68224B1344224AA2FBB6
S11306700323DB0D7B607B68002B02D07B68013B8E
S11306807B6079681D4800F0EFF879681C4800F039
S1130690EBF879681B4800F0E7F827E03A681A4B52
S11306A013441A4AA2FB03231B0E7B607B68002BB6
S11306B002D07B68013B7B607968104800F0D4F875
S11306C07968104800F0D0F83A68114B1344114A85
S11306D0A2FB03239B0E7B607B68002B02D07B680C
S11306E0013B7B607968064800F0BEF800BF08371C
S11306F0BD4680BDFF2C31016BCA5F6B40410500D4
S113070050410700604109007FF0FA02893BE65539
S1130710FFA14A04B5FA9BEE80B586B000AF7860BD
S11307200B46FB7000233B617B681B0A03F00F033D
S1130730013B0E2B7CD801A252F823F0790700006C
S11307408507000031080000310800007F07000021
S1130750910700009B070000A5070000B1070000F7
S113076007080000BD070000DF0700003108000093
S11307708B070000010800002F4B7B6146E02F4BE4
S11307807B6143E02E4B7B6140E02E4B7B613DE07F
S11307902D4B7B6101233B6138E02C4B7B611023A3
S11307A03B6133E02A4B7B614FF480733B612DE066
S11307B0284B7B614FF480333B6127E0264B7B6100
S11307C0FB78002B14BF01230023DBB283F0010369
S11307D0DBB2FB70FB7803F00103FB7016E01F4BE8
S11307E07B61FB78002B14BF01230023DBB283F071
S11307F00103DBB2FB70FB7803F00103FB7005E03F
S1130800174B7B6102E0174B7B6100BF7B681B0BBE
S113081003F01F03FB603B69002B02D03869FFF72C
S1130820E5FEFB781A46F9687869FFF7EBFC00E00F
S113083000BF1837BD4680BD00400E40B0400E409A
S1130840C0400E40C4400E40E0400E40E8400E4020
S1130850EC400E40F0400E4060410E4064410E40BA
S1130860F0410E4050410E4080B584B000AF786036
S113087039607B681B0903F00F03FB60FB68013BD5
S11308800B2B00F2D58101A252F823F0BD08000021
S1130890070900001F0900003F0900005B09000070
S11308A07709000093090000C7090000D90A000075
S11308B0710B00009B0B0000150C0000FFF7E0FD1E
S11308C0BA48FFF763FDFFF7ADFEB94BD3F800312B
S11308D023F4F8523B681B02B5491343C1F80031B5
S11308E001F010FFB860FFF743FD03461946B868EE
S11308F0FFF72EFE01F030FF03461846FFF746FDD2
S1130900FFF7A6FE95E1AA4BD3F8143123F4F8526D
S11309103B681B02A6491343C1F8143189E13868C6
S1130920FFF7CEFC3860A24BD3F8003123F04072BD
S11309303B681B069E491343C1F8003179E19C4B87
S1130940D3F80C3123F4FF3323F480733A68120292
S113095097491343C1F80C316BE1954BD3F8183127
S113096023F4FF3323F480733A681202904913434B
S1130970C1F818315DE18E4BD3F81C3123F4FF33F9
S113098023F480733A68120289491343C1F81C3175
S11309904FE1FFF775FD864BD3F8083123F4FF339D
S11309A023F480733A68120281491343C1F8083171
S11309B001F0A8FEB860FFF7DBFC03461946B868EF
S11309C0FFF7C6FD35E17B687A4A93424AD0794AFB
S11309D0934209D8784A934223D0784A93422FD03D
S11309E0774A93420AD076E0764A934260D0764AB8
S11309F093424AD0754A93425AD06CE03868FFF764
S1130A0078FC38600420FFF7F1FD694BD3F82031FE
S1130A1023F470223B681B0465491343C1F8203159
S1130A2059E04FF48020FFF7E1FD614BD3F83031FA
S1130A3023F003025E493B681343C1F830314AE0B6
S1130A403868FFF756FC38600420FFF7CFFD584B99
S1130A50D3F8203123F00F0255493B681343C1F802
S1130A60203138E03868FFF744FC38600420FFF791
S1130A70BDFD4F4BD3F8203123F0F0023B681B013E
S1130A804B491343C1F8203125E03868FFF731FCA6
S1130A9038600420FFF7AAFD454BD3F8203123F436
S1130AA040723B681B0242491343C1F8203112E0F3
S1130AB03868FFF71EFC38600420FFF797FD3C4BB5
S1130AC0D3F8203123F4E0423B681B033849134335
S1130AD0C1F8203100BFACE07B683D4A934218D096
S1130AE03C4A934228D03C4A934200D03FE03868C5
S1130AF0FFF7FFFB38604020FFF778FD2C4BD3F85D
S1130B00283123F003022A493B681343C1F82831F2
S1130B102DE03868FFF7EDFB38604020FFF766FDF5
S1130B20234BD3F8283123F030023B681B012049C2
S1130B301343C1F828311AE03B687F2B02D83B6885
S1130B400E2B00BF3868FFF7D4FB0346043B3B6021
S1130B504020FFF74BFD164BD3F8283123F44052C5
S1130B603B681B0312491343C1F8283100BF60E0FE
S1130B707B68114A934200D00EE04FF48020FFF7C7
S1130B8035FD0B4BD3F8303123F0030208493B68A1
S1130B901343C1F8303100BF4BE07B680F4A9342E6
S1130BA020D00F4A934228D033E000BF0148E80127
S1130BB000400E4080161800A0091400800616009C
S1130BC08046120000362C0080262E0080002A0069
S1130BD090171C009037300090071A00B8003200BC
S1130BE0B9003400154BD3F85C3123F003021349E8
S1130BF03B681343C1F85C310BE0104BD3F85C3114
S1130C0023F440323B681B040C491343C1F85C31A4
S1130C1000BF0EE0094BD3F8043123F4FF3323F46F
S1130C2080733A68120205491343C1F8043100E0A5
S1130C3000BF00BF1037BD4680BD00BF00400E405E
S1130C4080B485B000AF78600123FB737B6803F048
S1130C500F03BB60BB68013B0B2B00F2748101A244
S1130C6052F823F0950C0000F10C0000210D000057
S1130C70990D0000690D0000C90D0000470F000028
S1130C80ED0D00002F0E0000730E0000B30E0000E7
S1130C90F30E0000B34BD3F8943003F00703023B88
S1130CA0052B21D801A252F823F000BFD10C00007B
S1130CB0CB0C0000C50C0000D70C0000E30C0000B6
S1130CC0DD0C00000223FB7311E00323FB730EE031
S1130CD00423FB730BE00D23FB7308E00E23FB736B
S1130CE005E00A23FB7302E00523FB7300BF32E136
S1130CF09C4BD3F8803003F00703022B06D0042B5F
S1130D0007D0012B08D10323FB7308E00223FB73F4
S1130D1005E00C23FB7302E00123FB7300BF1AE11F
S1130D20904BD3F8843003F00703013B032B17D80F
S1130D3001A252F823F000BF490D00004F0D00003E
S1130D405B0D0000550D00000323FB730BE0022331
S1130D50FB7308E00C23FB7305E00623FB7302E03E
S1130D600123FB7300BFF6E07E4BD3F8883003F019
S1130D700703022B06D0042B07D0012B08D1032331
S1130D80FB7308E00223FB7305E00C23FB7302E012
S1130D900123FB7300BFDEE0724BD3F88C3003F009
S1130DA00703022B06D0042B07D0012B08D1032301
S1130DB0FB7308E00223FB7305E00C23FB7302E0E2
S1130DC00123FB7300BFC6E0664B1B6F03F00303F4
S1130DD0002B04D0012B05D10923FB7305E0072365
S1130DE0FB7302E00123FB7300BFB4E05D4BD3F857
S1130DF05C3103F03003102B0CD0102B02D8002BE5
S1130E0005D010E0202B08D0302B09D00BE00123B3
S1130E10FB730BE00723FB7308E00423FB7305E07B
S1130E200823FB7302E00123FB7300BF93E04D4BE7
S1130E30D3F85C3103F44013B3F5801F0FD0B3F53E
S1130E40801F02D8002B07D085E0B3F5001F09D01E
S1130E50B3F5401F09D07EE00123FB7308E00723AC
S1130E60FB7305E00423FB7302E00823FB7300BF5C
S1130E7071E03C4BD3F8603103F00303032B65D8D6
S1130E8001A252F823F000BF990E00009F0E00004B
S1130E90A50E0000AB0E00000523FB7308E004233D
S1130EA0FB7305E00723FB7302E00A23FB7300BF17
S1130EB04CE02C4BD3F8643103F00303032B47D8E5
S1130EC001A252F823F000BFD90E0000DF0E00008B
S1130ED0E50E0000EB0E00000523FB7308E004237D
S1130EE0FB7305E00723FB7302E00A23FB7300BFD7
S1130EF02EE01C4BD3F8F03103F00703052B29D85F
S1130F0001A252F823F000BF210F0000270F0000B8
S1130F102D0F0000330F0000390F00003F0F0000B9
S1130F200A23FB730EE00423FB730BE00B23FB7318
S1130F3008E00523FB7305E00223FB7302E00323AF
S1130F40FB7300BF06E00023FB7304E000BF02E074
S1130F5000BF00E000BFFB7B18461437BD465DF8B8
S1130F60047B704700400E4080B58AB000AF7860C3
S1130F700B46FB7003237B62032387F82330002393
S1130F80BB6100237B617B68112B19D1FB78042B97
S1130F9003D101F05BFC78610BE0FB78052B08D1F1
S1130FA000F028FC0246C44B9A4202D900F022FC0D
S1130FB078617B69002B03D00021786901F0C8FCBB
S1130FC07B6803F00F033B613B69013B0B2B00F291
S1130FD0748201A252F823F0091000000F110000DE
S1130FE02F1100001311000021110000CD11000089
S1130FF0BB140000EB11000061120000F7120000A6
S11310007B130000FF130000FB78023B0C2B00F263
S1131010568201A252F823F04D100000591000002E
S11310206510000077100000BF140000BF1400001A
S1131030BF140000BF140000A1100000BF14000082
S1131040BF140000891000009510000004237B6287
S1131050002387F8233029E003237B62012387F8E8
S1131060233023E002237B62022387F82330934852
S1131070FFF78CF91AE001237B62032387F82330FE
S11310808E48FFF783F911E005237B62032387F879
S113109023300BE007237B62072387F8233005E026
S11310A006237B62052387F8233000BF97F823309B
S11310B0072B06D097F8233001220121184600F0AF
S11310C00BFCFFF7DDF9FFF7ADFA7B69002B01D0CC
S11310D0FFF736F97A4A7B6A536701F013FBF8602D
S11310E001F03AFB03461846FFF750F9FFF740F9C1
S11310F003461946F868FFF72BFA7B69002B03D1E6
S11311000121002001F024FCFFF7A2FAE4E16D4B79
S1131110BB61BB69002B01D0BB6900E06A4BBB61BA
S1131120BB69002B01D0BB6900E0684BBB61BB69A4
S1131130002B01D0BB6900E0654BBB61FB78013B30
S11311400B2B00F2BE8101A252F823F07D110000A6
S11311508311000093110000C3140000C3140000A5
S1131160A3110000C3140000C3140000C314000042
S1131170C3140000C3140000BF1100000023FB616E
S113118020E001220121002000F0A6FB0223FB61E4
S113119018E001220121012000F09EFB0123FB61E4
S11311A010E001F0D9FA03461846FFF7EFF80122E0
S11311B000214848FFF726F80323FB6102E00423DB
S11311C0FB6100BFBB69FA691A6085E1FB78072BF4
S11311D002D0092B04D07FE1394B00221A6703E0C7
S11311E0374B01221A6700BF76E1FB78013B072BDE
S11311F000F2698101A252F823F000BF1D12000021
S1131200C7140000C714000033120000C714000004
S1131210C714000023120000431200000023FB61E6
S113122012E001220121042000F056FB0123FB619E
S11312300AE001220121022000F04EFB0223FB619F
S113124002E00323FB6100BF1D4BD3F85C3123F0A4
S11312503002FB691B011A491343C1F85C313BE1BD
S1131260FB78013B072B00F2308101A252F823F0F6
S113127091120000CB140000CB140000A712000050
S1131280CB140000CB14000097120000D912000008
S11312900023FB6123E001220121042000F01CFB58
S11312A00123FB611BE001220121022000F014FB59
S11312B00223FB6113E000BF002D31010148E80166
S11312C000400E4080400E408C400E4088400E404E
S11312D084400E40B0400E400323FB6100BF804BAE
S11312E0D3F85C3123F44012FB691B057C4913439A
S11312F0C1F85C31F0E0FB78043B062B00F2E78098
S113130001A252F823F000BF35130000251300009A
S1131310CF14000045130000CF140000CF140000C8
S11313205513000001220121032000F0D5FA002307
S1131330FB6117E001220121022000F0CDFA012314
S1131340FB610FE001220121042000F0C5FA022311
S1131350FB6107E001220121052000F0BDFA03230F
S1131360FB6100BF5E4BD3F8603123F003025C499C
S1131370FB691343C1F86031AEE0FB78043B062BF4
S113138000F2A78001A252F823F000BFB9130000B5
S1131390A9130000D3140000C9130000D3140000E3
S11313A0D3140000D913000001220121032000F00E
S11313B093FA0023FB6117E001220121022000F0CF
S11313C08BFA0123FB610FE001220121042000F0CC
S11313D083FA0223FB6107E001220121052000F0CA
S11313E07BFA0323FB6100BF3D4BD3F8643123F048
S11313F003023B49FB691343C1F864316CE0FB7899
S1131400023B092B67D801A252F823F0851400008F
S1131410951400004514000075140000D714000052
S1131420D7140000D7140000D714000035140000AE
S11314305514000001220121052000F04DFA00237B
S1131440FB612FE001220121022000F045FA012373
S1131450FB6127E001F0FAF9214B5B6A204A43F073
S11314600803536201220121022000F035FA02230D
S1131470FB6117E001220121032000F02DFA032370
S1131480FB610FE001220121002000F025FA042372
S1131490FB6107E001220121012000F01DFA052370
S11314A0FB6100BF0E4BD3F8F03123F007020C4967
S11314B0FB691343C1F8F0310EE000BF0CE000BF3C
S11314C00AE000BF08E000BF06E000BF04E000BF80
S11314D002E000BF00E000BF2837BD4680BD00BF6A
S11314E000400E4080B58AB000AF786000237B6274
S11314F00023FB77FEF73CFF0346022B06D17B68F3
S11315001B686F4A934201D90023D5E000233B6254
S113151018E07B681A686B493B6A1B010B441B6823
S11315209A420CD37B681A6866493B6A1B010B44D8
S113153004331B689A4202D83B6A7B6205E03B6A2B
S113154001333B623B6A172BE3D97B6A182B01D129
S11315500023B1E05B4A7B6A1B01134408331B6818
S1131560BB61584A7B6A1B0113440C331B68002B74
S113157019D0544A7B6A1B0113440C331B68184668
S113158000F0A6F8034603F07F037B617B69092B17
S113159003D97B69093B7B6101E000237B61BA6964
S11315A07B691343BB617B681B68474A1360112046
S11315B0FFF746FB0346052B01D1FEF761FF11201F
S11315C0FFF73EFB0346052B09D17B681B681846D1
S11315D0FEF7DCFE0123FB773C4B05225A673B4BAD
S11315E04FF400521A6600BF384BD3F8903003F41E
S11315F04053002BF8D1354B4FF46032C3F8A82088
S11316007B689B881B047A68D28811462F4A0B4357
S113161053642E4ABB6913617B689B7ADB007A684A
S1131620527B002A01D0042200E000221A437B6886
S1131630DB7A5B0013437A68127B1146234A0B431F
S11316401364224B4FF480521A6600BF1F4BD3F829
S1131650A03003F460333B613B69002BF6D01120CA
S1131660FFF7EEFA03460D2B05D1FB7F002B02D0CA
S1131670164B01225A671120FFF7E2FA0346052BA5
S113168009D101F03FF8F860FEF772FE03461946EF
S1131690F868FEF75DFF01F05FF803461846FEF7B1
S11316A075FE0121002001F053F93B69B3F5004FA9
S11316B001D1012300E0002318462837BD4680BD30
S11316C0002D31015C6200000C00002000400E403F
S11316D080B483B000AF78607B68374A934243D0CC
S11316E0354A934216D8354A93422DD0334A934211
S11316F006D8334A934227D0324A934224D053E047
S1131700314A934228D0314A934229D0304A9342F5
S11317101ED049E02F4A934236D02E4A934209D82C
S11317202D4A934228D02D4A934229D02C4A9342E1
S11317301ED039E02B4A93422ED02B4A93422FD00D
S11317402A4A934224D02FE0294BD3F880302CE04E
S1131750274BD3F88C3028E0254BD3F8983024E07D
S1131760234BD3F89C3020E0214BD3F8A0301CE06D
S11317701F4BD3F8A83018E01D4BD3F8AC3014E05D
S11317801B4BD3F8B03010E0194BD3F8B4300CE055
S1131790174BD3F8B83008E0154BD3F8BC3004E04D
S11317A0134BD3F8C03000E0002318460C37BD4675
S11317B05DF8047B704700BFC0EA210100093D00C9
S11317C040420F0080841E00405DC6000024F400E7
S11317D0C0CF6A00006CDC020048E80180D54302F7
S11317E080BA8C010090D00300A24A04007E560304
S11317F0B081E00F80B400AF034B1B681846BD46B0
S11318005DF8047B704700BF0C00002080B584B0F5
S113181000AF78601120FFF713FA012200210220A3
S113182000F05AF80023FB607B68DB7A012B0AD0B6
S1131830022B05D0002B00D008E00023FB6005E05C
S11318400323FB6002E00123FB6000BF204B5B6AC3
S113185023F003021E49FB6813434B620023FB6021
S113186000F0F4FF02461B4B9A4203D8FB6843F096
S11318700803FB60164B5B6A23F008021449FB68FB
S113188013434B627B681B88DB027A6892881A4395
S11318900F4BDA620E4B1B6B1B0D1B057A685288CB
S11318A0D20213437A68D2881146094A0B43136360
S11318B07B681B7A1A037B685B7A1B0113437A6883
S11318C0927A1A43024B5A6300BF1037BD4680BD5B
S11318D000400E4040787D0180B588B000AF0346DB
S11318E0FB710B46BB7113467B71FB79052B00F230
S11318F0BF8001A252F823F05919000047190000D3
S11319002319000011190000351900006F19000097
S113191001237B6102233B610123FB610023BB6143
S113192030E004237B6108233B610323FB61022332
S1131930BB6127E010237B6120233B610523FB610E
S11319400423BB611EE040237B6180233B610723AA
S1131950FB610623BB6115E04FF480737B614FF498
S113196000733B610923FB610823BB610AE04FF468
S113197080637B614FF400633B610B23FB610A23AB
S1131980BB6100BFBB79002B55D00023FB73FB79EF
S1131990022B11D1FEF706FE0346012B0CD1364B68
S11319A0DB6B0123FB73354B5B6A03F00303032BEF
S11319B002D10220FEF704FE304A7B69136600BFA1
S11319C0B9692F48FEF735FC0346002BF8D07B7924
S11319D0002B4ED000BFF9692948FEF72AFC0346C4
S11319E0002BF8D0FB79022B43D1FB7B002B40D09A
S11319F0224B5B6A03F00303032B03D00021022074
S1131A0000F0F2F8022000F03DF8B8600122002155
S1131A100220FFF761FFB968022000F06DF8174A51
S1131A207B69136600BFF9691548FEF702FC03469B
S1131A30002BF8D01DE0114A3B69136600BF0F4B21
S1131A40D3F890300121BA6901FA02F21340002B55
S1131A50F5D17B79002B0CD000BF084BD3F8903024
S1131A600121FA6901FA02F21340002BF5D100E0DA
S1131A7000BF2037BD4680BD00300E4000400E4000
S1131A8090400E4080B485B000AF0346FB71FB79F3
S1131A90013B042B24D801A252F823F0B11A000010
S1131AA0E11A0000BD1A0000D51A0000C91A00008E
S1131AB0104B1B6AC3F30803FB6014E00D4B1B6956
S1131AC003F07F03FB600EE00A4B9B6803F07F0387
S1131AD0FB6008E0074B9B6903F07F03FB6002E0B7
S1131AE00023FB6000BFFB6818461437BD465DF851
S1131AF0047B704700400E4080B582B000AF0346BF
S1131B003960FB71FB79013B042B63D801A252F8C5
S1131B1023F000BF291B0000D51B0000571B000049
S1131B20AB1B0000811B00003B68C3F308033B6050
S1131B3000BF1A212A48FEF77CFB0346002BF8D18C
S1131B40284B1B6A23F4FF7323F0010325493A68E9
S1131B5013430B623FE03B6803F07F033B6000BF2D
S1131B6018211F48FEF765FB0346002BF8D11D4BD7
S1131B701B6923F07F021B493B6813430B612AE076
S1131B803B6803F07F033B6000BF1E211448FEF74F
S1131B9050FB0346002BF8D1124B9B6823F07F02C5
S1131BA010493B6813438B6015E03B6803F07F03E7
S1131BB03B6000BF19210A48FEF73BFB0346002B9C
S1131BC0F8D1084B9B6923F07F0206493B68134315
S1131BD08B6100E000BF00BF0837BD4680BD00BF79
S1131BE040410E4000400E4080B584B000AF034633
S1131BF00A46FB711346BB71FEF7D4FC0346012B66
S1131C0003D14FF48003FB6009E0BB79002B03D1BF
S1131C104FF48003FB6002E0084BFB6000BF00BF91
S1131C20074BD3F89020FB681340FA689A42F7D127
S1131C30012318461037BD4680BD00BFFF3F473A19
S1131C4000400E4080B487B000AFF860B9607A609D
S1131C50FB6803F10473DA00BB6813449B007B61E7
S1131C607B697A681A6000BF1C37BD465DF8047B47
S1131C70704780B485B000AF786039607B6803F149
S1131C80C063FB60FB683A681A6000BF1437BD4646
S1131C905DF8047B704780B485B000AF786039602C
S1131CA07B6803F18063FB60FB683A681A6000BFDD
S1131CB01437BD465DF8047B704780B584B000AF2F
S1131CC0F860B9607A60B968F868FFF7E4FF79688A
S1131CD0F868FFF7CEFF00BF1037BD4680BD000097
S1131CE080B483B000AF7860044A7B68C2F82434BF
S1131CF000BF0C37BD465DF8047B70470080084088
S1131D0080B582B000AF03463960FB71FB79002BCC
S1131D1016D0FB79012B13D0FB79022B10D0FB7961
S1131D20032B0DD0FB79042B0AD0FB79052B07D0AC
S1131D30FB79062B04D0FB79072B01D0FB79082B08
S1131D40FA7913465B0013441B010C3303F18043FF
S1131D5003F5082301213A6801FA02F211461846F4
S1131D60FFF799FF00BF0837BD4680BD80B582B03C
S1131D7000AF03463960FB71FB79002B16D0FB7969
S1131D80012B13D0FB79022B10D0FB79032B0DD040
S1131D90FB79042B0AD0FB79052B07D0FB79062BA2
S1131DA004D0FB79072B01D0FB79082BFA79134671
S1131DB05B0013441B010C3303F1804303F5082338
S1131DC001213A6801FA02F211461846FFF751FF61
S1131DD000BF0837BD4680BD80B586B000AFB9608E
S1131DE07A601A460346FB731346BB7300237B6178
S1131DF0FB7B002B16D0FB7B012B13D0FB7B022B30
S1131E0010D0FB7B032B0DD0FB7B042B0AD0FB7B78
S1131E10052B07D0FB7B062B04D0FB7B072B01D0C3
S1131E20FB7B082B7B68072B0ED87B689B000F225B
S1131E3002FA03F1FA7B7B689B0002FA03F31A4669
S1131E402B48FFF73AFF10E07B68083B7B617B6916
S1131E509B000F2202FA03F1FA7B7B699B0002FAD2
S1131E6003F31A462348FFF728FF7B68072B10D893
S1131E707B689B00032202FA03F1BB6803F00302B0
S1131E807B689B0002FA03F31A461B48FFF715FF11
S1131E900FE07B699B00032202FA03F1BB6803F0A5
S1131EA003027B699B0002FA03F31A461348FFF707
S1131EB004FFBB7B1A4679681148FFF7C3FE97F805
S1131EC020301A4679680F48FFF7BCFE01227B6870
S1131ED002FA03F31846FFF703FF97F824301A4673
S1131EE079680948FFF7AEFE00BF1837BD4680BDCC
S1131EF00084084004840840088408400C84084096
S1131F0010840840148408402884084080B584B0B4
S1131F1000AFB9607B600346FB731346BB73FB7B66
S1131F20002B16D0FB7B012B13D0FB7B022B10D094
S1131F30FB7B032B0DD0FB7B042B0AD0FB7B052BF7
S1131F4007D0FB7B062B04D0FB7B072B01D0FB7B4C
S1131F50082BBB7B002B0DD07B68002B05D0FB7BB3
S1131F60B9681846FFF702FF04E0FB7BB96818461E
S1131F70FFF7C6FEBB68072B20D82E49FA7B134611
S1131F805B0013441B010B4404331A68BB689B00B9
S1131F900F2101FA03F3DB431340B97BBA689200C3
S1131FA001FA02F211462348FA7B194313465B00F7
S1131FB013441B0103440433196025E01D49FA7BD3
S1131FC013465B0013441B010B4408331A68BB68B7
S1131FD003F18043083B9B000F2101FA03F3DB4329
S1131FE002EA0301BA7BBB6803F18043083B9B0010
S1131FF002FA03F30F48FA7B194313465B001344B8
S11320001B01034408331960BB7B002B0DD17B6893
S1132010002B05D0FB7BB9681846FFF7A7FE04E048
S1132020FB7BB9681846FFF76BFE00BF1037BD464F
S113203080BD00BF0080084080B483B000AF7860EA
S113204000BF7B681B6903F08003002BF9D07B6819
S1132050DB69DBB218460C37BD465DF8047B70477C
S113206080B483B000AF78600B46FB7000BF7B6820
S11320701B6903F04003002BF9D0FA787B685A639C
S113208000BF0C37BD465DF8047B704780B485B053
S113209000AF786039607B6803F1C063FB60FB6864
S11320A03A681A6000BF1437BD465DF8047B704778
S11320B080B485B000AF786039607B6803F18063D9
S11320C0FB60FB683A681A6000BF1437BD465DF8D0
S11320D0047B704780B582B000AF03463960FB7162
S11320E0FB79002B16D0FB79012B13D0FB79022B43
S11320F010D0FB79032B0DD0FB79042B0AD0FB798C
S1132100052B07D0FB79062B04D0FB79072B01D0D4
S1132110FB79082BFA7913465B0013441B010C333B
S113212003F1804303F5082301213A6801FA02F21E
S113213011461846FFF7BCFF00BF0837BD4680BDF7
S113214080B582B000AF03463960FB71FB79002B88
S113215016D0FB79012B13D0FB79022B10D0FB791D
S1132160032B0DD0FB79042B0AD0FB79052B07D068
S1132170FB79062B04D0FB79072B01D0FB79082BC4
S1132180FA7913465B0013441B010C3303F18043BB
S113219003F5082301213A6801FA02F211461846B0
S11321A0FFF774FF00BF0837BD4680BD80B400AFA1
S11321B04FF0804301225A64184BD3F8B030174AC9
S11321C043F00103C2F8B030144BD3F8E030134AA3
S11321D043F00803C2F8E030114B1B68104A43F483
S11321E0805313600D4BD3F8E0300C4A23F00803FE
S11321F0C2F8E030094BD3F8B030084A23F00103A9
S1132200C2F8B030074B1B68064A43F4F843136026
S113221000BFBD465DF8047B704700BF00400E4020
S113222034400540A4310E4080B588B000AF224A46
S113223007F1140307CA83E807000023FB7707F1BB
S113224014031846FFF7E2FA012201210220FFF7E6
S113225043FB3B1D00221A605A609A60DA60174BF8
S11322607B6040F60F633B8140F6C3137B810423FC
S1132270BB7301237B743B1D1846FFF733F90346F8
S113228083F00103DBB2002B03D004211120FEF7FD
S11322906BFE0B4BD3F80C31094A23F4FF3323F4C0
S11322A08073C2F80C3101210648FEF735FA00BFED
S11322B02037BD4680BD00BF1464000000A24A045C
S11322C000400E404041050080B500AF01210D489B
S11322D0FEF722FA0023042201210020FFF716FE54
S11322E00023042202210020FFF710FE0023042211
S11322F004210320FFF70AFE02210020FFF720FF3C
S113230000BF80BD00550A0080B485B000AF78607E
S11323100023FB6004E0FB68FB60FB680133FB60A7
S11323207B6840F60B2202FB03F2FB689A42F2D868
S113233000BF1437BD465DF8047B704780B582B09A
S113234000AFFFF733FFFFF76FFF00F00FFDFFF75C
S1132350BBFF00F063FE03F03DF802F00BFE02F059
S113236001FF02F071FC02F029FD03F005F900F011
S113237083FE4FF49670FFF7C7FF00F085FE00F070
S113238093FE4FF49670FFF7BFFF00F095FE00F048
S1132390A3FE4FF49670FFF7B7FF00F0A5FE00F020
S11323A0B3FE4FF49670FFF7AFFF00F0B5FE00F0F8
S11323B0C3FE4FF49670FFF7A7FF00F0C5FE00F0D0
S11323C0D3FE4FF49670FFF79FFF00F0D5FE00F0A8
S11323D0E3FE01F0DBFA00237B6002E07B6801335B
S11323E07B607B689E4A9342F8DD04210320FFF75B
S11323F071FE9C4802F00AFE9B4803F035F89B48A6
S113240002F010FF9A4802F00DFF00F04DFF02F0B9
S113241037F8984B1B78002B00F00F81954B1B78F5
S1132420313B472B00F2028101A252F823F000BF96
S1132430AB250000B7250000C3250000CF25000010
S1132440DB250000E72500002D2600002D260000D6
S11324502D2600002D2600002D2600002D2600002C
S11324602D2600002D2600002D2600002D2600001C
S11324702D2600002D2600002D2600002D2600000C
S11324802D2600002D2600002D2600002D260000FC
S11324902D2600002D2600002D2600002D260000EC
S11324A02D2600002D2600002D2600002D260000DC
S11324B02D2600002D2600002D260000FF250000FB
S11324C02D2600002D2600002D2600002D260000BC
S11324D02D2600002D2600002D2600002D260000AC
S11324E02D2600002D2600002D2600002D2600009C
S11324F02D2600002D2600002D2600002D2600008C
S11325002D2600002D2600002D2600005125000058
S11325102D2600002D2600002D2600002D2600006B
S11325202D2600002D2600002D260000A5250000E4
S11325302D2600002D26000017260000F32500009C
S11325402D2600002D2600002D2600000B2600005D
S1132550494802F067FE494802F064FE484802F028
S113256061FE464802F05EFE464802F05BFE4648C5
S113257002F058FE454802F055FE454802F052FE6E
S1132580444802F04FFE444802F04CFE434802F037
S113259049FE3A4802F046FE01F0FAFC374802F0E0
S11325A041FE44E000F080FE41E000F075FD3C484F
S11325B002F038FE3BE000F087FD3A4802F032FEBC
S11325C035E000F099FD384802F02CFE2FE000F0D1
S11325D0ABFD364802F026FE29E000F0BDFD34488C
S11325E002F020FE23E000F0CFFD324802F01AFE94
S11325F01DE001F035FA304802F014FE17E002F055
S11326001DFC2E4802F00EFE11E02D4802F00AFED9
S113261000F02CFC0BE02B4B1B78002B0CBF012390
S11326200023DBB21A46274B1A7000E000BF26488D
S113263002F0F8FD0F4B00221A70244B1B78012B7B
S11326407FF4E5AE214B00221A7002F027FA1D4BED
S11326501B78012B7FF4DBAE1D4802F0E3FDD6E6C8
S11326609F8601002064000038640000506400006C
S1132670706400006808002098640000A0640000F2
S1132680C4640000D8640000FC6400001465000009
S11326903065000050650000686500008865000032
S11326A0A4650000AC650000B4650000BC650000D2
S11326B0C4650000CC650000D4650000E46500003A
S11326C0FC650000AC0000200C66000064060020DD
S11326D014660000064880470649074A074B9A4299
S11326E0BEBF51F8040B42F8040BF8E7FDF750FDA8
S11326F0652800001C6B0000000000207C00002006
S1132700FEE700BF80B582B000AF00F025F8786026
S11327100A4BD3F808311B0AC3F308033B603B6838
S113272001337A68B2FBF3F37B60054A7B6813607C
S11327307B6818460837BD4680BD00BF00400E4088
S11327400800002080B400AF024B1846BD465DF877
S1132750047B704700A24A0480B483B000AF334BBB
S1132760D3F8943003F00703023B042B49D801A2A9
S113277052F823F0992700009127000089270000D0
S1132780F9270000A1270000294B1B687B603CE06F
S11327904FF400437B6038E0264B1B687B6034E0D9
S11327A0224B9B681B0C03F01F03073B072B1FD80E
S11327B001A252F823F000BFD9270000F12700003E
S11327C0F1270000F1270000DF270000F1270000B7
S11327D0E5270000EB270000174B7B600BE0174B4D
S11327E07B6008E0164B7B6005E0164B7B6002E0E3
S11327F000237B6000BF08E0134B1B685B087B6011
S113280003E0114B1B687B6000BF084BD3F8003119
S11328101B0A03F01F0301337A68B2FBF3F3184673
S11328200C37BD465DF8047B704700BF00400E4086
S113283004000020000000200024F4000048E80107
S1132840006CDC0280F0FA020C00002080B400AFBF
S1132850034B1B681846BD465DF8047B704700BFF8
S11328600000002080B400AF074B084A9A60064B72
S1132870D3F88830044A43F47003C2F8883000BFA8
S1132880BD465DF8047B704700ED00E000000000E9
S113289080B485B000AF786039607B6803F104735D
S11328A0DA003B6813449B00FB60FB681B68184616
S11328B01437BD465DF8047B7047000080B400AF58
S11328C0064B1B6803F04003002B01D1012300E0F9
S11328D000231846BD465DF8047B70473C300E402B
S11328E080B500AFFFF7EAFF034683F00103DBB2D4
S11328F0002B08D100BF12210448FFF7C9FF03468B
S1132900002BF8D100E000BF80BD00BF04300E40B2
S113291080B500AFFFF7E4FF034B5B681B0C03F0CB
S11329200303DBB2184680BD00300E4080B483B090
S113293000AF0346FB71FB79C3F10203102202FAD4
S113294003F318460C37BD465DF8047B704700005E
S113295080B584B000AF78600B46FB70FFF7AEFF24
S1132960034683F00103DBB2002B28D17B68002BE4
S11329700FD1154BD3F800311B0A03F01F030133A9
S1132980BB60FFF7E9FE0246BB6802FB03F3FB6092
S113299001E07B68FB600D4B1B78002B09D0FB68C2
S11329A00B4A934205D8FB781946022000F012F82E
S11329B006E0FB781946002000F00CF800E000BFA8
S11329C01037BD4680BD00BF00400E409800002077
S11329D0002D310190B587B000AF03460A46FB7164
S11329E01346BB71FFF76AFF034683F00103DBB2B2
S11329F0002B31D1FFF78CFF03461A46FB79934233
S1132A002CD0184BD3F800311B0A03F01F030133F9
S1132A107B61FFF7A1FE38613B697A6902FB03F32E
S1132A20FB60FB79022B03D102213869FDF790FD8D
S1132A300D4CFB791846FFF779FF03462361BB79F8
S1132A40002B01D0FFF74CFFFB79002B07D10021AD
S1132A503869FDF77DFD02E000BF00E000BF1C37D0
S1132A60BD4690BD00400E4000300E4080B483B09F
S1132A7000AF78607B681B4A934227D07B681A4A70
S1132A80934223D07B68194A93421FD07B68184A2B
S1132A9093421BD07B68174A934217D07B68164A2F
S1132AA0934213D07B68154A93420FD07B68144A33
S1132AB093420BD07B68134A934207D07B68124A37
S1132AC0934203D07B68114A934201D1012300E071
S1132AD0002303F00103DBB218460C37BD465DF852
S1132AE0047B70470080014000840140008801405D
S1132AF0008C014000900140009401400098014086
S1132B0000A0014000A4014000A8014000AC014025
S1132B1080B584B000AF786039607868FFF7A6FFAD
S1132B200023FB603B681B7883F00103DBB2002BBE
S1132B3002D07B6802225A607B6800225A623B689A
S1132B409B781A063B68DB781B041A433B689B7925
S1132B509B021A433B68DB791B0213433A68127ADF
S1132B6013433A685278002A01D0402200E0002240
S1132B7013433A68527A002A01D0802200E00022EE
S1132B8013433A68927A002A01D0202200E00022FE
S1132B9013433A68D27A002A01D0102200E00022BE
S1132BA013433A68127B002A01D0082200E0002275
S1132BB01343FB603B681B79002B02D04FF4005297
S1132BC000E000223B685B79002B02D04FF0805379
S1132BD000E000231343FA681343FB607B68FA6840
S1132BE01A603B681B78002B02D07B6801225A6074
S1132BF000BF1037BD4680BD80B483B000AF03462C
S1132C00FB7197F90730002B0BDBFB7903F01F02F4
S1132C10074997F907305B09012000FA02F241F8ED
S1132C20232000BF0C37BD465DF8047B704700BF0E
S1132C3000E100E080B485B000AF786039607B6863
S1132C4003F10473DA003B6813449B00FB60FB68E8
S1132C501B6818461437BD465DF8047B70470000B6
S1132C6080B483B000AF7860044A7B68C2F824342F
S1132C7000BF0C37BD465DF8047B704700800840F8
S1132C8080B483B000AF7860074BD3F828247B6806
S1132C90DB4305491340C1F8283400BF0C37BD4657
S1132CA05DF8047B704700BF0080084080B483B0A7
S1132CB000AF7860064BD3F8282405497B6813439A
S1132CC0C1F8283400BF0C37BD465DF8047B70475B
S1132CD00080084080B400AF034BD3F81C3418467E
S1132CE0BD465DF8047B70470080084080B582B023
S1132CF000AF03463960FB71FB79002B16D0FB79DA
S1132D00012B13D0FB79022B10D0FB79032B0DD0B0
S1132D10FB79042B0AD0FB79052B07D0FB79062B12
S1132D2004D0FB79072B01D0FB79082BFA791346E1
S1132D305B0013441B011C3303F1804303F5082398
S1132D4039681846FFF776FF034618460837BD462C
S1132D5080BD80B483B000AF78607B685B6A18463E
S1132D600C37BD465DF8047B7047000080B500AFAA
S1132D7001210D48FDF7D0FC00230322002100208F
S1132D80FFF7C4F80023032203210020FFF7BEF855
S1132D900023032204210020FFF7B8F80320FFF7E3
S1132DA02BFF00BF80BD00BF00550A0080B500AFF7
S1132DB000210020FFF79AFF0346184680BD00005B
S1132DC080B582B000AFFFF785FF78607868FFF7C1
S1132DD047FF7B6803F00103002B35D01C4B1B78A5
S1132DE0002B0CD01B48FFF7B4FF02461A4B1A60A5
S1132DF0174B00221A70194B01221A8005E0174B59
S1132E001B8801339AB2154B1A80154B1B78002B83
S1132E1018D01048FFF79DFF0246124B1A60114B61
S1132E201A680D4B1B68D31A0C4A1288B3FBF2F3D1
S1132E300D4A13600A4B00221A700B4B1B6818468C
S1132E4002F014F800F0DEFD00BF0837BD4680BD77
S1132E509900002000A001409C000020A400002054
S1132E609A000020A0000020A800002080B500AF38
S1132E700120FFF7F5FE0120FFF718FF00BF80BD1A
S1132E8080B500AF0120FFF7FBFE00BF80BD80B41A
S1132E9085B000AF786039607B6803F1C063FB6084
S1132EA0FB683A681A6000BF1437BD465DF8047BBE
S1132EB0704780B485B000AF786039607B6803F1F7
S1132EC08063FB60FB683A681A6000BF1437BD4634
S1132ED05DF8047B704780B582B000AF034639606B
S1132EE0FB71FB79002B16D0FB79012B13D0FB79F6
S1132EF0022B10D0FB79032B0DD0FB79042B0AD0C5
S1132F00FB79052B07D0FB79062B04D0FB79072B23
S1132F1001D0FB79082BFA7913465B0013441B019B
S1132F200C3303F1804303F5082301213A6801FAC5
S1132F3002F211461846FFF7BCFF00BF0837BD4632
S1132F4080BD80B582B000AF03463960FB71FB7968
S1132F50002B16D0FB79012B13D0FB79022B10D058
S1132F60FB79032B0DD0FB79042B0AD0FB79052BBD
S1132F7007D0FB79062B04D0FB79072B01D0FB7912
S1132F80082BFA7913465B0013441B010C3303F13D
S1132F90804303F5082301213A6801FA02F211463D
S1132FA01846FFF774FF00BF0837BD4680BD000018
S1132FB080B483B000AF03463960FB71FB79002B0A
S1132FC016D0FB79012B13D0FB79022B10D0FB799F
S1132FD0032B0DD0FB79042B0AD0FB79052B07D0EA
S1132FE0FB79062B04D0FB79072B01D0FB79082B46
S1132FF001223B6802FA03F30749FA79184613469B
S11330005B0013441B010B441833186000BF0C37DA
S1133010BD465DF8047B70470080084080B500AF72
S113302001211448FDF778FB002304220821002025
S1133030FEF76CFF0023042205210320FEF766FF40
S11330400023042206210320FEF760FF002304224C
S113305008210320FEF75AFF002304220221032043
S1133060FEF754FF0023042203210320FEF74EFF42
S113307000BF80BD00550A0080B500AF08210020C4
S1133080FFF75FFF00BF80BD80B500AF08210020BF
S1133090FFF721FF00BF80BD80B500AF08210020ED
S11330A0FFF786FF00BF80BD80B500AF0521032078
S11330B0FFF747FF00BF80BD80B500AF05210320A7
S11330C0FFF709FF00BF80BD80B500AF05210320D5
S11330D0FFF76EFF00BF80BD80B500AF062103205F
S11330E0FFF72FFF00BF80BD80B500AF062103208E
S11330F0FFF7F1FE00BF80BD80B500AF06210320BD
S1133100FFF756FF00BF80BD80B500AF0821032044
S1133110FFF717FF00BF80BD80B500AF0821032073
S1133120FFF7D9FE00BF80BD80B500AF08210320A2
S1133130FFF73EFF00BF80BD80B500AF0221032032
S1133140FFF7FFFE00BF80BD80B500AF0221032062
S1133150FFF7C1FE00BF80BD80B500AF0221032090
S1133160FFF726FF00BF80BD80B500AF0321032019
S1133170FFF7E7FE00BF80BD80B500AF0321032049
S1133180FFF7A9FE00BF80BD80B500AF0321032077
S1133190FFF70EFF00BF80BD80B483B000AF414B8A
S11331A00F221A703F4B02225A703E4B01229A7032
S11331B03C4B0222DA703B4B00221A71394B00223D
S11331C05A71384B00229A710023FB7107E0FB7996
S11331D0344A13440022DA71FB790133FB71FB7921
S11331E00E2BF4D90023FB713EE0FA792D491346E6
S11331F05B0013445B000B44163300221A70FA7907
S1133200284913465B0013445B000B441733002228
S11332101A70FA79234913465B0013445B000B448C
S1133220183300221A70FA791E4913465B001344BE
S11332305B000B44193300221A70FA7919491346BA
S11332405B0013445B000B441A3300221A70FA79B2
S1133250144913465B0013445B000B441B330022E8
S11332601A70FB790133FB71FB79092BBDD90D4B26
S113327003225A750B4B0F229A750A4BFF22DA75FB
S1133280084BFF221A76074B02225A76054B02227C
S11332909A76044B0222DA7600BF0C37BD465DF8FD
S11332A0047B7047E000002080B5C0B000AF00236D
S11332B07B6007F10803F6220021184602F051FB57
S11332C0AE4801F0AFFFAE4B1B781A463B1DAD492B
S11332D0184602F04FFB3B1D184601F0A3FFA84B14
S11332E05B781A463B1DA849184602F043FB3B1D78
S11332F0184601F097FFA24B9B781A463B1DA34941
S1133300184602F037FB3B1D184601F08BFF9C4B1F
S1133310DB781A463B1D9E49184602F02BFB3B1DE9
S1133320184601F07FFF964B1B791A463B1D9949BD
S1133330184602F01FFB3B1D184601F073FF904B2B
S11333405B791A463B1D9449184602F013FB3B1D5A
S1133350184601F067FF8A4B9B791A463B1D8F493B
S1133360184602F007FB3B1D184601F05BFF8C4832
S113337001F058FF002387F8FF3010E097F8FF3082
S11333805A1C3B1D8749184602F0F4FA3B1D1846A7
S113339001F048FF97F8FF30013387F8FF3097F8C2
S11333A0FF300E2BEAD9804801F03CFF002387F858
S11333B0FF301EE097F8FF30714A1344DB79002B8D
S11333C00FD097F8FF306E4A1344DB791A463B1D41
S11333D07449184602F0CEFA3B1D184601F022FF4C
S11333E002E0724801F01EFF97F8FF30013387F8BE
S11333F0FF3097F8FF300E2BDCD96D4801F012FF37
S11334006C4801F00FFF002387F8FF309CE097F829
S1133410FF205B4913465B0013445B000B441633E7
S11334201B781A463B1D6449184602F0A3FA3B1D5B
S1133430184601F0F7FE97F8FF20514913465B0048
S113344013445B000B4417331B78FF2B03D15B48F9
S113345001F0E8FE13E097F8FF20494913465B00AA
S113346013445B000B4417331B781A463B1D544925
S1133470184602F07FFA3B1D184601F0D3FE97F878
S1133480FF203F4913465B0013445B000B44183391
S11334901B78FF2B03D1494801F0C4FE13E097F8D1
S11334A0FF20374913465B0013445B000B44183379
S11334B01B781A463B1D4249184602F05BFA3B1D35
S11334C0184601F0AFFE97F8FF202D4913465B0024
S11334D013445B000B4419331B781A463B1D3949CE
S11334E0184602F047FA3B1D184601F09BFE97F878
S11334F0FF20234913465B0013445B000B441A333B
S11335001B781A463B1D2E49184602F033FA3B1D20
S1133510184601F087FE97F8FF20194913465B000F
S113352013445B000B441B331B781A463B1D26498E
S1133530184602F01FFA3B1D184601F073FE97F877
S1133540FF30013387F8FF3097F8FF30092B0CD890
S113355097F8FF200A4913465B0013445B000B44B1
S113356017331B78002B7FF452AF184801F05AFE32
S113357000BF07F58077BD4680BD00BF1866000018
S1133580E0000020286600003C6600004C66000055
S11335905C6600006C6600007C6600008C660000BF
S11335A09C660000D4660000DC660000E46600004F
S11335B0E86600001C6700004467000050670000D4
S11335C058670000606700006C67000078670000BF
S11335D080B483B000AF0346FB710B46BB71134646
S11335E07B71074B04221A70054B04225A70044B5A
S11335F002229A7000BF0C37BD465DF8047B704709
S11336003401002080B483B000AF78607B680D4A39
S113361093420BD07B680C4A934207D07B680B4AD9
S1133620934203D07B680A4A934202D14FF0FF339E
S113363001E04FF6FF7318460C37BD465DF8047B76
S1133640704700BF00A0014000A4014000A8014051
S113365000AC014080B582B000AF78603960786812
S1133660FFF7D0FF7B683A685A6200BF0837BD464F
S113367080BD80B485B000AF786039607B6803F1A9
S1133680C063FB60FB683A681A6000BF1437BD462C
S11336905DF8047B704780B485B000AF7860396012
S11336A07B6803F18063FB60FB683A681A6000BFC3
S11336B01437BD465DF8047B7047000080B483B0C6
S11336C000AF7860044A7B68C2F8243400BF0C372A
S11336D0BD465DF8047B70470080084080B582B029
S11336E000AF03463960FB71FB79002B16D0FB79E0
S11336F0012B13D0FB79022B10D0FB79032B0DD0B7
S1133700FB79042B0AD0FB79052B07D0FB79062B18
S113371004D0FB79072B01D0FB79082BFA791346E7
S11337205B0013441B010C3303F1804303F50823AE
S113373001213A6801FA02F211461846FFF7ABFF7D
S113374000BF0837BD4680BD80B582B000AF0346D8
S11337503960FB71FB79002B16D0FB79012B13D058
S1133760FB79022B10D0FB79032B0DD0FB79042BB2
S11337700AD0FB79052B07D0FB79062B04D0FB7903
S1133780072B01D0FB79082BFA7913465B0013440D
S11337901B010C3303F1804303F5082301213A682C
S11337A001FA02F211461846FFF763FF00BF08371B
S11337B0BD4680BD80B483B000AF03463960FB7161
S11337C0FB79002B16D0FB79012B13D0FB79022B4C
S11337D010D0FB79032B0DD0FB79042B0AD0FB7995
S11337E0052B07D0FB79062B04D0FB79072B01D0DE
S11337F0FB79082B01223B6802FA03F30749FA79A3
S1133800184613465B0013441B010B44183318601D
S113381000BF0C37BD465DF8047B7047008008404C
S113382080B485B000AF78600B46FB70FB78002B4A
S113383002D0FB78202B01D900230DE0FB78013B5B
S1133840FB73FB7B7A6822FA03F303F00103002B7A
S113385001D0012300E0002318461437BD465DF86B
S1133860047B704780B487B000AF78607B6823F036
S113387001037B61124BFB6000233B6113E03B6956
S1133880C3F11F037A6922FA03F303F00103002B47
S113389006D0FA683B6922FA03F37A6953407B61E4
S11338A03B6901333B613B69142BE8DD7A6940F2E3
S11338B0FE73134018461C37BD465DF8047B704701
S11338C0000020ED80B485B000AF78600023FB6079
S11338D00023BB600DE07A68BB6822FA03F303F0AF
S11338E00103002B02D0FB680133FB60BB6801338A
S11338F0BB60BB681F2BEEDDFB6803F00103002BEC
S11339000CBF01230023DBB218461437BD465DF813
S1133910047B704780B584B000AF786039603B6841
S113392000221A707868FFF79DFF0346002B07D129
S11339307868FFF7C7FF0346002B01D07B6821E0BE
S11339400023FB601AE00122FB6802FA03F37A68A1
S11339505340BB60B868FFF785FF0346002B0AD1CC
S1133960B868FFF7AFFF0346002B04D03B68012281
S11339701A70BB6806E0FB680133FB60FB681F2B11
S1133980E1DD7B6818461037BD4680BD80B582B046
S113399002AF164B00221A70154B002283F88222C4
S11339A0134B0022A3F88022124B00221A70124BF0
S11339B000221A60114B00221A70114B00221A7057
S11339C001230193012300930123002200210020FD
S11339D0FEF702FA0120FFF771FEFFF747FA01F044
S11339E0EDF901F015FA00BFBD4680BDAD00002021
S11339F0CC030020BD000020B0000020990000206E
S1133A009A00002080B400AF044BDB69034A5B08D2
S1133A10536200BFBD465DF8047B704700840140DB
S1133A2080B582B000AF0346FB71FB79012B07D14F
S1133A3001210020FFF788FE074801F0F3FB06E0B0
S1133A4001210020FFF74AFE044801F0EBFB00BF10
S1133A500837BD4680BD00BFAC670000B0670000FA
S1133A6090B5ABB002AFFFF71FFB01F0E7F9FFF72A
S1133A7007FA364B04221A70354801F0D3FB354857
S1133A8001F0D0FB344B93F88C32012B03D1334833
S1133A9001F0C8FB02E0324801F0C4FB2E4B93F85E
S1133AA0863219462C4B93F889321C462A4B93F8DC
S1133AB088321A46284B93F88A323846019300928A
S1133AC023460A46274901F055FF3B46184601F0B4
S1133AD0A9FB214B93F887321A461F4B93F8853282
S1133AE019461D4B93F88B32384600930B461E49FA
S1133AF001F040FF3B46184601F094FB1B4B1B783A
S1133B001A461A4B5B781946184B9B783846009333
S1133B100B46174901F02EFF3B46184601F082FB85
S1133B20144B01221A70144B00221A800121002028
S1133B30FFF7D4FD02210020FFF7D0FD01F0B0F91A
S1133B4001F066F900BFA437BD4690BDAD0000206A
S1133B50B4670000DC67000038010020E46700005F
S1133B60EC670000F46700001868000034010020CE
S1133B7038680000BD000020BE00002080B500AF02
S1133B80084B00221A7002210020FFF7DDFDFFF729
S1133B9093FAFFF7A9FAFFF7F9FE034B00221A7014
S1133BA000BF80BDBD000020AD00002080B500AF87
S1133BB0574B1B78032B00F2A88001A252F823F084
S1133BC0FD3C0000D13B00000F3C0000593C0000CC
S1133BD0504B1B889BB201339AB24E4B1A80012181
S1133BE00020FFF7E7FD4B4B1B889BB2B3F5107F1A
S1133BF040F08680474B00221A80474B00221A80EF
S1133C00434B02221A70454801F00CFB78E0414B0B
S1133C101B889BB201339AB23E4B1A803D4B1B88E2
S1133C209BB2DBB2C3F12103DBB219463C48FFF778
S1133C30F7FD03461846FFF7F3FE364B1B889BB28D
S1133C40202B5FD1334B00221A80314B03221A7090
S1133C50324801F0E7FA55E02E4B1B889BB2013342
S1133C609AB22C4B1A802C4B1B889BB21A462D4BB4
S1133C7053F82220274B1B889BB2DBB2C3F12103EC
S1133C80DBB219461046FFF7CBFD03461846FFF793
S1133C90C7FE204B1B889BB2202B35D11D4B002225
S1133CA01A801D4B1B889BB201339AB21A4B1A809F
S1133CB01A4801F0B7FA1B4BB3F88022164B1B8845
S1133CC09BB29A4208D8FFF759FF174801F0AAFAA5
S1133CD0164801F0A7FA17E00F4B1B889BB203F0BC
S1133CE00F039BB2002B0FD10A4B00221A80084B02
S1133CF002221A70094801F095FA05E000BF04E0B9
S1133D0000BF02E000BF00E000BF00BF80BD00BFF5
S1133D10BD000020BE000020C00000205C68000040
S1133D20D815D27C38010020606800008468000047
S1133D3080B5AAB000AFFFF739F80346002B14BFD3
S1133D4001230023DBB287F8A730854B1B685A0098
S1133D5097F8A7301343824A1360824B1B78DBB277
S1133D60042B00F2FA8001A252F823F0813D0000F6
S1133D70C53D0000FF3D0000533E0000453F0000EC
S1133D80FFF78AF9764B1B68B3F1AA3F05D0744B51
S1133D901B68B3F1553F40F0D980724B01221A7071
S1133DA001F07EF8704B00221A8000216F48FFF763
S1133DB051FC6F4B00221A806E4B01221A70FFF7E0
S1133DC05BF9C3E0684B1B889BB201339AB2664B24
S1133DD01A80634B1B68B3F1AA3F00F0B980604BB3
S1133DE01B68B3F1553F00F0B3805E4B02221A709A
S1133DF0614B01221A705C4B00221A80A8E0584BD8
S1133E001B685E4A93420FD1564B03221A70564BDD
S1133E1000221A805A4B01221A705A4B0022A3F82E
S1133E208022FFF72DF895E04F4B1B889BB201339E
S1133E309AB24D4B1A804C4B1B889BB21F2B40F2FD
S1133E40898001F02DF8FFF711F8464B00221A7013
S1133E5080E0454B1B889BB201339AB2424B1A80D7
S1133E60474B1B78002B09D13F4B1B889BB2012B7E
S1133E7004D1FEF7FBFF444B00225A62404B1B78EF
S1133E80002B06D1384B1B889BB2022B01D1FEF7C5
S1133E90F7FF354B1B889BB21F2B5DD9324B002299
S1133EA01A80374B1B78002B1BD12D4B1B68334AD0
S1133EB0934229D0334B012283F88222294B0022DA
S1133EC01A70314BDA693B1D3049184601F052FD36
S1133ED03B1D184601F0A6F900F0E2FFFEF7C6FF0D
S1133EE03BE0284BB3F880329F2B0DD8254BB3F819
S1133EF080325A1C91B2234AA2F880121946184BF8
S1133F001B68204A42F821301D4B1B780133DAB27A
S1133F101B4B1A701A4B1B78102B02D9184B00221A
S1133F201A70184BB3F880329F2B15D9154B012208
S1133F3083F882220B4B00221A7000F0B1FFFEF7C7
S1133F4095FF09E0FFF732FE00BF06E000BF04E082
S1133F5000BF02E000BF00E000BFA837BD4680BD3F
S1133F60B0000020AD000020B400002000A00140FB
S1133F70A4000020990000209A000020D815D27CCB
S1133F80CC000020CC030020008401408C68000099
S1133F9080B500AF194801F045F9194B1B78DBB225
S1133FA0042B21D801A252F823F000BFC13F000026
S1133FB0C93F0000D13F0000D93F0000E13F0000AD
S1133FC0104801F02FF913E00F4801F02BF90FE02E
S1133FD00E4801F027F90BE00D4801F023F907E042
S1133FE00C4801F01FF903E00B4801F01BF900BF76
S1133FF00A4801F017F900BF80BD00BFA0680000A7
S1134000AD000020AC680000BC680000CC68000073
S1134010DC680000EC68000000690000086900002A
S113402080B588B000AF786039607B68DB0AC3F381
S113403013033B610023FB6160E0344B1B685B00AE
S1134040324A1360FB69C3F113033A6922FA03F39A
S113405003F00103002B05D02C4B1B6843F0010334
S11340602A4A13602A4B1B780133DAB2284B1A70A0
S1134070274B1B78072B3ED10023FB7600237B6163
S113408018E001227B6902FA03F31A461F4B1B68EE
S11340901340002B0BD07B69C3F10603012202FA03
S11340A003F35AB297F91B3013435BB2FB767B6977
S11340B001337B617B69062BE3DDFB7E1F2B14D967
S11340C0FB7E7E2B11D8386801F074FCF860FB6825
S11340D0772B0AD83A68FB681344FA7E1A70FB6897
S11340E001333A68134400221A70084B00221A6004
S11340F0074B00221A70FB690133FB61FB69132B28
S11341009BDD00BF2037BD4680BD00BFB800002046
S1134110BC00002080B48DB000AF78607B68002BB9
S113412063D040F269737B610023FB6255E07B68D6
S1134130FA6A53F822303B613B692F4A934248D0D4
S11341403B69DB0AFB60FB689B02BB6214237B6256
S113415011E07B6A0A3301229A40BB6A1340002BA8
S113416006D07A697B6A02FA03F3BA6A5340BB62E7
S11341707B6A013B7B627B6A002BEADAFB68DA022A
S1134180BB6A590040F2FE730B4013433B623B6A27
S1134190FB610023FB760CE0FB695BB203F00103D7
S11341A05AB297F91B3053405BB2FB76FB695B084C
S11341B0FB61FB69002BEFD1FB7E002B03D03B6A34
S11341C043F001033B627B68FA6A396A43F82210C0
S11341D000E000BFFB6A0133FB627B68B3F8803206
S11341E01A46FB6A9342A2DB00E000BF3437BD46A7
S11341F05DF8047B704700BF97C1897A80B483B0AF
S113420000AF78607B68002B78D07B689B681B0CC0
S1134210DBB203F01F03DAB27B6883F887227B6882
S11342205B685B0EDBB203F03F03DAB27B6883F8B2
S113423085227B681B681B0EDBB203F00F03DAB226
S11342407B6883F886227B681B681B0CDBB203F057
S11342501F03DAB27B6883F888227B689B689B0E15
S1134260DBB203F01F03DAB27B6883F889227B6830
S11342701B681B0BDBB203F00F03DAB27B6883F815
S11342808A227B685B681B0CDBB203F01F03DAB283
S11342907B6883F88B227B681B685B0DDBB203F0C1
S11342A00703DAB27B6883F88C227B681B681B0FD8
S11342B0DBB203F00303DAB27B6883F88D227B68F8
S11342C09B685B0DDBB203F01F03DAB27B6883F8F3
S11342D08E227B685B68DB0ADBB203F01F03DAB271
S11342E07B6883F88F227B685B685B0DDBB203F02D
S11342F00F03DAB27B6883F8902200E000BF0C372A
S1134300BD465DF8047B704780B586B000AF786029
S11343107B68002B00F0B0807B681B687B617B6945
S113432023F040537B617B6923F070637B617B697D
S113433023F460037B617B6923F4F8137B617B695D
S113434023F470437B617B6893F88D321B0703F081
S113435040537A6913437B617B6893F886321B066A
S113436003F070637A6913437B617B6893F88C3242
S11343705B0503F460037A6913437B617B6893F8FC
S113438088321B0403F4F8137A6913437B617B6856
S113439093F88A321B039BB27A6913437B617B686F
S11343A07A691A607B685B683B613B6923F0FC4374
S11343B03B613B6923F0F0733B613B6923F4F813E1
S11343C03B613B6923F478433B617B6893F8853216
S11343D05B0603F0FC433A6913433B617B6893F843
S11343E090325B0503F0F0733A6913433B617B68D9
S11343F093F88B321B0403F4F8133A6913433B61BB
S11344007B6893F88F32DB029BB23A6913433B61BA
S11344107B683A695A607B689B68FB60FB6823F0A1
S1134420F843FB60FB6823F07873FB60FB6823F4BC
S1134430F813FB607B6893F889329B0603F0F8431A
S1134440FA681343FB607B6893F88E325B0503F0D4
S11344507873FA681343FB607B6893F887321B0414
S113446003F4F813FA681343FB607B68FA689A60F4
S11344707868FFF74FFE00E000BF1837BD4680BDE7
S113448090B5D7B002AFB64B93F88232DBB283F06B
S11344900103DBB2002B40F0D6823B1D184680237B
S11344A01A46002101F05DFAAE4B00221A60AE4BB1
S11344B000221A70AD4800F0B5FEA94B012283F822
S11344C083220023A7F84E3181E0B7F84E31A44A85
S11344D052F82330C7F82C31D7F82C31A44A934230
S11344E00ED1B7F84E315A1C07F18403A14918467E
S11344F001F040FA07F18403184600F093FE61E0EE
S1134500FB1C00221A70FB1C1946D7F82C01FFF77C
S113451001FAC7F82801D7F82801FFF7A3F90346E1
S1134520002B08D1D7F82801FFF7CCF90346002B5C
S113453001D0012300E0002387F8273197F82731C1
S113454003F0010387F8273197F82731002B07D0B0
S1134550B7F84E318249D7F8282141F8232003E0E7
S11345607F4B002283F88322B7F84E31591CB7F8E9
S11345704E317B4A52F8234097F82731002B01D063
S11345807D4B00E07D4BFA1C1278002A01D07C4A56
S113459000E07C4A07F184000192009323460A4616
S11345A0794901F0E7F907F18403184600F03AFE6F
S11345B0B7F84E31022B05D1694B93F88322684B2F
S11345C083F88422B7F84E310133A7F84E31644B97
S11345D0B3F88032B7F84E219A42FFF476AF6048C0
S11345E0FFF70CFE5E4B93F88332002B0ED05C4B2E
S11345F093F885321B015A4AB2F8802293420CBFC9
S113460001230023DAB2564B83F88322544B93F8E8
S11346108332002B05D05D4800F004FEFEF75CFDFC
S113462010E05B4800F0FEFD4D4B93F88432002B04
S113463005D0584800F0F6FDFEF74EFD02E056485E
S113464000F0F0FD464B93F88C32012B04D0022B82
S11346500AD0002B04D00BE0504800F0E3FD07E043
S11346604F4800F0DFFD03E04E4800F0DBFD00BFE3
S11346703B4B93F886321946394B93F889321C46E2
S1134680374B93F888321A46354B93F88A3207F140
S113469084000193009223460A46434901F06AF9D3
S11346A007F18403184600F0BDFD2D4B93F88732C3
S11346B01A462B4B93F885321946294B93F88B32C3
S11346C007F1840000930B46384901F053F907F1D0
S11346D08403184600F0A6FD354B1B684FF0000418
S11346E01A4623461CA1D1E9000100F077FF0346D6
S11346F00C46C7F84831D7F848312E4AA2FB0323A9
S11347009C09D7F848212B4BA3FB02139B094FF4B8
S11347107A7101FB03F3D31A07F184002246264978
S113472001F028F907F18403184600F07BFD2348C3
S113473000F078FD0A4B93F88D32012B44D0022B04
S113474005D0002B44D11E4800F06CFD40E01D480C
S113475000F068FD3CE000BF00D088C310000000FA
S1134760CC030020B8000020BC0000200C6900002D
S113477097C1897A2469000034690000386900000F
S11347803C69000044690000486900005C6900005D
S1134790686900007469000080690000E467000033
S11347A0EC6700008C690000F46700009869000061
S11347B0A8000020D34D6210B8690000C869000049
S11347C0D4690000DC690000A14800F02BFD00BFA3
S11347D0A04B93F88E321A469E4B93F88F321946AB
S11347E09C4B93F8903207F1840000930B469A494E
S11347F001F0C0F807F18403184600F013FD954B4F
S113480093F88332002B00F08980924B93F88C321A
S1134810002B40F083800323A7F84C3177E0B7F8EE
S11348204C318C4A52F82330C7F84431D7F844311C
S11348308A4A934263D0BB1C00221A70BB1C1946DF
S1134840D7F84401FFF766F8C7F84001D7F84001EC
S1134850FFF708F80346002B53D1D7F84001FFF7C0
S113486031F8034683F00103DBB2002B49D1D7F8BA
S11348704031002B3CDBB7F84C31DBB203F00F03C3
S113488087F83F3197F83F315B0887F83E31D7F816
S113489040315B0BC3F31103C7F83831D7F8383113
S11348A0DA0097F83E3103F007031343C7F83431B5
S11348B0D7F84031DB0ADBB203F0030387F8333166
S11348C097F8333107F18400D7F83421644901F0B3
S11348D051F807F18403184600F0A4FC3B1D0022A4
S11348E01A70604B00221A605F4B00221A7009E0B4
S11348F03B1D1946D7F84001FFF792FB02E000BFC9
S113490000E000BFB7F84C310133A7F84C31514BEC
S1134910B3F88032B7F84C219A4280D33B1D1B7800
S1134920002B09D0514800F07DFC3B1D184600F0D7
S113493079FC4F4800F076FC4E4800F073FC454B80
S1134940002283F88222434B93F88C32022B6FD0DF
S1134950404B93F88332002B72D03E4B93F888225D
S11349603C4B93F88632013B43490B44DB799A4232
S11349703AD1384B93F88602364B93F88A12354B6A
S113498093F889321A46FEF723FE3C4A314B10460F
S113499019464FF425731A4600F0D8FF384B1A789D
S11349A0364B83F888222B4B93F88632013B324AEC
S11349B01344DA79314B83F889223048FFF7A4FC99
S11349C0304B01221A702C4B9B7801331A462E4B24
S11349D01A60294B5B7801331A462C4B1A60FEF798
S11349E093FBFFF73DF82BE0294800F01BFC254B17
S11349F01B78012B03D0234B1B78022B20D1154BA2
S1134A0093F886221D4B93F886329A4218D1114BA3
S1134A1093F88922194B93F888329A4210D1194B92
S1134A2000221A70FEF778FB1A4800F0FBFB07E03F
S1134A30084B93F88432002B02D0174800F0F2FBA5
S1134A40FEF752FB00E000BF07F5AA77BD4690BD14
S1134A50E4690000CC030020F069000097C1897A62
S1134A601C6A0000B8000020BC000020346A00006A
S1134A70086900003C6A0000E000002038010020C2
S1134A8034010020C2000020C4000020C80000201F
S1134A904C6A0000586A00006C6A000080B500AFE0
S1134AA0404B1B78DBB2002B7AD13F4B1B78012B98
S1134AB003D0022B3CD0002B72E03C4B1B68013B23
S1134AC03A4A1360394B1B68002B66D1384B1B687C
S1134AD0013B374A1360364B1B68002B1CD1324B09
S1134AE002221A70334B5A78334B83F88822334BA3
S1134AF0DB7801331A462E4B1A60304B5B78013356
S1134B001A462A4B1A602C48FFF7FEFB2C4800F08B
S1134B1089FBFEF7A5FF40E0284B5B7801331A467A
S1134B20224B1A60274800F07DFBFEF799FF34E022
S1134B301E4B1B68013B1D4A13601C4B1B68002B5A
S1134B402DD11B4B1B68013B194A1360184B1B6882
S1134B50002B16D1144B00221A70164B9A78164B60
S1134B6083F88822124B00221A60104B00221A602C
S1134B701148FFF7C9FB144800F054FBFEF770FF1F
S1134B800DE00E4B5B7801331A46084B1A600F4850
S1134B9000F048FBFEF764FF01E000BF00E000BF47
S1134BA000BF80BDAD000020C2000020C80000206E
S1134BB0C40000203401002038010020E00000205F
S1134BC0906A0000A06A0000AC6A0000B86A0000A5
S1134BD080B483B000AF0346FB7197F90730002B14
S1134BE00BDBFB7903F01F02074997F907305B09D8
S1134BF0012000FA02F241F8232000BF0C37BD4621
S1134C005DF8047B704700BF00E100E080B483B02E
S1134C1000AF0346FB7197F90730002B0CDBFB79DF
S1134C2003F01F02074997F907305B09012000FAD6
S1134C3002F2603341F8232000BF0C37BD465DF813
S1134C40047B704700E100E080B500AF0121144807
S1134C50FBF762FD134B00221A60124B00225A62CA
S1134C60104B42F25422DA610E4B4FF020621A606C
S1134C700C4B40F6F7725A610A4B01229A610520E7
S1134C80FFF7C4FF0520FFF7A3FF064B01225A607C
S1134C90054B00221A70054B00221A6000BF80BD2C
S1134CA00002060000800140640600206006002027
S1134CB080B400AF0E4B01225A610E4B1B78DBB25D
S1134CC00133DBB20B4A19461170072B0AD9094B81
S1134CD000221A70084B01221A70084B1B6801331A
S1134CE0064A136000BFBD465DF8047B704700BFF1
S1134CF000800140CD0000206406002060060020F2
S1134D0080B483B000AF0346FB7197F90730002BE2
S1134D100BDBFB7903F01F02074997F907305B09A6
S1134D20012000FA02F241F8232000BF0C37BD46EF
S1134D305DF8047B704700BF00E100E080B483B0FD
S1134D4000AF0346FB7197F90730002B10DBFB79AA
S1134D5003F01F02094997F907305B09012000FAA3
S1134D6002F2203341F82320BFF34F8FBFF36F8F3C
S1134D7000BF0C37BD465DF8047B704700E100E0DE
S1134D8080B483B000AF0346FB7197F90730002B62
S1134D900CDBFB7903F01F02074997F907305B0925
S1134DA0012000FA02F2603341F8232000BF0C37DF
S1134DB0BD465DF8047B704700E100E080B500AFBC
S1134DC001211148FBF7A8FC104B00221A600F4B7D
S1134DD000225A620D4B4EF65F22DA610B4B002221
S1134DE01A600A4B40F6F7725A61084B01229A6125
S1134DF00E20FFF7C5FF0E20FFF782FF034B0222B0
S1134E005A6000BF80BD00BF00120400008401404E
S1134E1080B500AF084B00225A62074B40F6F77288
S1134E205A610E20FFF7ACFF0E20FFF769FF024B1B
S1134E3001225A6000BF80BD0084014080B500AFEC
S1134E40034B02225A600E20FFF778FF00BF80BD9B
S1134E500084014080B500AF034B01225A61FEF784
S1134E6067FF00BF80BD00BF0084014080B483B0F1
S1134E7000AF78607B684EF2C752934208D97B68D2
S1134E804EF6F862934203D8044A7B68013BD3612F
S1134E9000BF0C37BD465DF8047B704700840140B9
S1134EA080B400AF044B4EF65F22DA6100BFBD460A
S1134EB05DF8047B704700BF0084014080B483B078
S1134EC000AF0346FB7197F90730002B0BDBFB792E
S1134ED003F01F02074997F907305B09012000FA24
S1134EE002F241F8232000BF0C37BD465DF8047B75
S1134EF0704700BF00E100E080B483B000AF034618
S1134F00FB7197F90730002B0CDBFB7903F01F02D0
S1134F10074997F907305B09012000FA02F2603370
S1134F2041F8232000BF0C37BD465DF8047B704771
S1134F3000E100E080B483B000AF786039607B6842
S1134F403A689A6400BF0C37BD465DF8047B70472D
S1134F5080B483B000AF786039607B68DA6C3B68FA
S1134F601A437B68DA6400BF0C37BD465DF8047BE6
S1134F707047000080B500AF01211F48FBF7CCFB50
S1134F8001211E48FBF7C8FB01230422042102204F
S1134F90FCF7BCFF0023012205210220FCF7B6FF29
S1134FA0174B40F6AA62DA60154B00221A60144BC4
S1134FB041F205025A60134A4FF41651104800F0AA
S1134FC0ECF90F4B03225A670D4B40F204429A67E7
S1134FD00B4B0522DA600C490948FFF7ABFF0421AB
S1134FE00748FFF7B5FF1520FFF786FF1520FFF7E9
S1134FF065FF00BF80BD00BF004E040000550A00DD
S11350000040014000A24A04FFFF010080B582B0C5
S113501000AF786007E07B685A1C7A601B781946F9
S11350200548FDF71DF87B681B78002BF3D100BF02
S11350300837BD4680BD00BF0040014080B582B046
S113504000AF1648FCF7F8FF0346FB71FB790D2B04
S113505010D1134B1B889BB21A46124B0021995452
S11350601048FFF7D3FF1048FFF7D0FF0C4B002286
S11350701A800FE00A4B1B889BB2FE2B0AD8084B00
S11350801B889BB25A1C91B2054A11801946054AE5
S1135090FB79535400BF0837BD4680BD0040014032
S11350A0CE00002068060020C86A000080B483B0E7
S11350B000AF0346FB7197F90730002B0BDBFB793C
S11350C003F01F02074997F907305B09012000FA32
S11350D002F241F8232000BF0C37BD465DF8047B83
S11350E0704700BF00E100E080B483B000AF034626
S11350F0FB7197F90730002B0CDBFB7903F01F02DF
S1135100074997F907305B09012000FA02F260337E
S113511041F8232000BF0C37BD465DF8047B70477F
S113512000E100E080B483B000AF786039607B6850
S11351303A689A6400BF0C37BD465DF8047B70473B
S113514080B483B000AF786039607B68DA6C3B6808
S11351501A437B68DA6400BF0C37BD465DF8047BF4
S11351607047000080B500AF01212048FBF7D4FA56
S113517001211F48FBF7D0FA012304220C2104204B
S1135180FCF7C4FE002301220D210420FCF7BEFE1F
S1135190184B40F6AA62DA60164B00221A60154BCF
S11351A041F205025A60144A4FF4E131114800F00B
S11351B0F4F8104B03225A670E4B40F204429A67EC
S11351C00C4B0522DA600D490A48FFF7ABFF0421B6
S11351D00848FFF7B5FF1720FFF786FF1720FFF7F2
S11351E065FF074B00221A7000BF80BD005E0400FB
S11351F000550A000044014000A24A04FFFF0100D8
S11352006808002080B582B000AF0346FB71FB79CB
S113521019460348FCF724FF00BF0837BD4680BD8C
S11352200044014080B582B000AF786007E07B683D
S11352305A1C7A601B7819460548FCF711FF7B68F5
S11352401B78002BF3D100BF0837BD4680BD00BFDB
S11352500044014080B582B000AF1D48FCF7ECFE6D
S11352600346FB71FB790D2B1AD11A4B1B889BB299
S11352701A46194B002199541848FFF7D3FF154BD0
S11352801B889BB2FE2B07D8124B1B889BB2013B99
S1135290114AD25C124B1A700E4B00221A8013E092
S11352A0FB791846FFF7AEFF0A4B1B889BB2FE2B17
S11352B00AD8084B1B889BB25A1C91B2054A11802C
S11352C01946054AFB79535400BF0837BD4680BDD3
S11352D000440140D000002068070020CC6A000090
S11352E06808002080B483B000AF0346FB7197F9CF
S11352F00730002B0BDBFB7903F01F02074997F9FA
S113530007305B09012000FA02F241F8232000BFB4
S11353100C37BD465DF8047B704700BF00E100E038
S113532080B483B000AF0346FB7197F90730002BBC
S11353300CDBFB7903F01F02074997F907305B097F
S1135340012000FA02F2603341F8232000BF0C3739
S1135350BD465DF8047B704700E100E080B483B093
S113536000AF786039607B683A689A6400BF0C3794
S1135370BD465DF8047B704780B483B000AF7860AD
S113538039607B68DA6C3B681A437B68DA6400BF77
S11353900C37BD465DF8047B704780B487B000AF1E
S11353A0F860B9607A6010237B617B689A00BB68FF
S11353B0796901FB03F3B2FBF3F3043B9B013B610B
S11353C0FB683A695A6100BF1C37BD465DF8047B2F
S11353D07047000080B500AF01211E48FBF79CF91F
S11353E001211D48FBF798F9012304220A21042016
S11353F0FCF78CFD002301220B210420FCF786FD21
S1135400164B40F6AA62DA60144B00221A60134B62
S113541041F205025A60124A4FF4E1310F48FFF796
S1135420BCFF0E4B03225A670C4B00229A670B4BAE
S11354300522DA600B490948FFF790FF0421074869
S1135440FFF79AFF0620FFF76BFF0620FFF74AFFDE
S113545000BF80BD0072040000550A000000014036
S113546000A24A04FFFF010080B582B000AF78605B
S113547007E07B685A1C7A601B7819460548FCF7DC
S1135480EFFD7B681B78002BF3D100BF0837BD46C6
S113549080BD00BF0000014080B582B000AF164857
S11354A0FCF7CAFD0346FB71FB790D2B10D1134B9E
S11354B01B889BB21A46124B002199541048FFF7DF
S11354C0D3FF1048FFF7D0FF0C4B00221A800FE0E7
S11354D00A4B1B889BB2FE2B0AD8084B1B889BB235
S11354E05A1C91B2054A11801946054AFB79535456
S11354F000BF0837BD4680BD00000140D200002037
S11355006C080020D46A000080B483B000AF7860D7
S11355107B680D4A93420BD07B680C4A934207D0B8
S11355207B680B4A934203D07B680A4A934202D1B8
S11355304FF0FF3301E04FF6FF7318460C37BD46BA
S11355405DF8047B704700BF00A0014000A4014047
S113555000A8014000AC014080B582B000AF786083
S113556039607868FFF7D0FF7B683A68DA6100BF7A
S11355700837BD4680BD000080B584B000AF00216F
S11355801348FBF771F901211248FBF7C5F83B46B4
S113559000221A605A609A601A7301233B70012337
S11355A03B700023BB700023FB7000233B7100237E
S11355B07B703B4619460848FDF7AAFA4FF0FF31C5
S11355C00548FFF7C9FF00BF1037BD4680BD00BFC7
S11355D060410900000E040000A0014053B94AB91B
S11355E0002908BF00281CBF4FF0FF314FF0FF30E7
S11355F000F072B9ADF1080C6DE904CE00F006F8C4
S1135600DDF804E0DDE9022304B070472DE9F0473A
S1135610089E04468846002B4BD18A42154667D91A
S1135620B2FA82F24AB1C2F1200701FA02F320FA77
S113563007F7954047EA030894404FEA154E230CB8
S1135640B8FBFEF71FFA85FC0EFB178843EA0843F4
S113565007FB0CF1994209D9EB1807F1FF3080F0F0
S11356601B81994240F21881023F2B445B1AA4B279
S1135670B3FBFEF00EFB103344EA034400FB0CFCC6
S1135680A44509D92C1900F1FF3380F00781A44502
S113569040F2048102382C4440EA0740A4EB0C0495
S11356A000271EB1D4400023C6E900433946BDE8B3
S11356B0F0878B4209D9002E00F0EB800027C6E961
S11356C0000138463946BDE8F087B3FA83F7002F66
S11356D047D18B4202D3824200F2FA80841A61EBF2
S11356E0030301209846002EE0D0C6E90048DDE718
S11356F002B9FFDEB2FA82F2002A40F08F80491B21
S11357004FEA154E1FFA85F80127B1FBFEFC230C66
S11357100EFB1C1143EA014308FB0CF1994207D923
S1135720EB180CF1FF3002D2994200F2CD8084468E
S1135730591AA3B2B1FBFEF00EFB101443EA044461
S113574008FB00F8A04507D92C1900F1FF3302D259
S1135750A04500F2B6801846A4EB080440EA0C40C9
S11357609FE7C7F1200CBB4022FA0CFE4EEA030E61
S113577001FA07F420FA0CF521FA0CF34FEA1E485B
S11357802543B3FBF8F92C0C08FB19331FFA8EFAE6
S113579044EA034309FB0AF49C4202FA07F200FAC2
S11357A007F10BD91EEB030309F1FF3080F087806A
S11357B09C4240F28480A9F1020973441B1BADB2E0
S11357C0B3FBF8F008FB103345EA034400FB0AFA84
S11357D0A24508D91EEB040400F1FF336BD2A245A5
S11357E069D90238744440EA0940A0FB0289A4EB59
S11357F00A044C45C2464B4654D351D0002E69D0BE
S1135800B1EB0A0564EB030404FA0CFCFD40FC4014
S11358104CEA0505C6E90054002747E7C2F1200316
S113582020FA03F7954001FA02F021FA03F34FEA54
S1135830154E3843010CB3FBFEF71FFA85F80EFB37
S1135840173341EA034107FB08F38B4204FA02F4DD
S113585007D9691807F1FF3C2FD28B422DD9023F9B
S11358602944CB1A81B2B3FBFEF00EFB103341EA9C
S1135870034100FB08F38B4207D9691800F1FF3C90
S113588017D28B4215D902382944C91A40EA07476E
S11358903BE73746304609E70746E7E61846FBE6A6
S11358A04145ABD2B8EB020A69EB0E02013813464C
S11358B0A4E76046E9E7184695E76746D1E78146DD
S11358C07CE702382C4447E7ACF1020C2B442FE769
S11358D0384608E73746E9E6704700BF08B5074B86
S11358E0044613B10021AFF30080054B1868836AA6
S11358F003B19847204600F0A3FC00BF000000005D
S1135900D86A000070B50D4E0D4CA41BA4100025E0
S1135910A54209D10B4E0C4C00F094FCA41BA4101E
S11359200025A54205D170BD56F8253098470135AC
S1135930EEE756F8253098470135F2E77400002069
S113594074000020740000207800002010B5431E6D
S11359500A44914200D110BD11F8014B03F8014FE4
S1135960F7E702440346934200D1704703F8011B52
S1135970F9E700000EB400B59CB01DAB0290069090
S11359806FF00041094807910491094953F8042B29
S113599005910068019302A900F06EF8029B0022B1
S11359A01A701CB05DF804EB03B0704710000020BF
S11359B00802FFFF034613F8012B002AFBD1181A33
S11359C0013870472DE9F0478E689E4282460C46A6
S11359D09046994637D88A8912F4906F31D0256859
S11359E009696F1A6569022305EB450595FBF3F513
S11359F009F101033B449D4238BF1D46530530D590
S1135A00294600F075FB064650B90C23CAF800304D
S1135A10A38943F04003A3814FF0FF30BDE8F08732
S1135A203A462169FFF792FFA38923F4906343F078
S1135A308003A381266165613E44ED1B2660A56059
S1135A404E464E4500D94E4632464146206800F047
S1135A50E7FAA3689B1BA36023681E44266000200A
S1135A60DCE72A4600F09EFB06460028E2D12169C5
S1135A70504600F0EFFAC8E72DE9F04F9DB080469C
S1135A8003938B891D060C4616460FD50B696BB91B
S1135A90402100F02DFB2060206128B90C23C8F8B8
S1135AA000304FF0FF30C7E04023636100230993C7
S1135AB020238DF8293030238DF82A304FF0010B44
S1135AC037463D4615F8013B0BB1252B3ED1B7EBCC
S1135AD0060A0BD05346324621464046FFF772FF72
S1135AE0013000F0A480099B534409933B78002BB8
S1135AF000F09D8000234FF0FF32CDE9052304938D
S1135B0007938DF853301A932F46052217F8011B7B
S1135B104F4800F035FA049BD0B9D90644BF20227F
S1135B208DF853201A0744BF2B228DF853202A786E
S1135B302A2A15D0079A2F4600200A25394611F83B
S1135B40013B303B092B4DD9B8B10FE02F46B8E7E4
S1135B503F4A801A0BFA00F0184304903D46D3E7FD
S1135B60039A111D12680391002A01DB079204E0D5
S1135B70524243F00203079204933B782E2B0CD13C
S1135B807B782A2B33D1039B1A1D1B680392002BAD
S1135B90B8BF4FF0FF33023705932E4D39780322F7
S1135BA0284600F0EDF938B14023401B03FA00F019
S1135BB0049B034301370493397827488DF8281050
S1135BC006227E1C00F0DCF9002838D0234B13BBDE
S1135BD0039B073323F0070308330393099B4B44C8
S1135BE009936DE705FB023201200F46A6E7002367
S1135BF00137059319460A25384610F8012B303A27
S1135C00092A03D9002BC8D00591C6E705FB012159
S1135C1001230746F0E703AB00932246104B04A987
S1135C204046AFF30080B0F1FF3F8146D6D1A3894F
S1135C305B063FF536AF09981DB0BDE8F08F03ABA6
S1135C4000932246064B04A9404600F081F8EAE797
S1135C50DC6A0000E26A0000E66A0000000000005E
S1135C60C55900002DE9F04791461F468A680B6923
S1135C70DDF820809342B8BF1346C9F8003091F88C
S1135C80432006460C4612B10133C9F8003023689C
S1135C90990642BFD9F800300233C9F800302568AC
S1135CA015F0060507D104F1190AE368D9F80020B4
S1135CB09B1AAB4228DC94F843302268003318BFA7
S1135CC0012392062DD404F1430239463046C047DD
S1135CD0013020D02368E568D9F8002003F00603DA
S1135CE0042B08BFAD1AA36822690CBF25EAE57529
