S01600003378554152545F6F6E5F51465036342E7333370B
S1130000000008200D2900003929000039290000CA
S11300103929000039290000392900003929000054
S11300203929000039290000392900003929000044
S11300303929000038290000392900003929000035
S1130040392900003929000039290000F53400005D
S11300503929000005720000697C0000392900007C
S11300603929000039290000392900003929000004
S11300703929000039290000A9730000392900003A
S113008039290000392900003929000039290000E4
S11300903929000091750000392900005D770000BE
S11300A039290000392900003929000039290000C4
S11300B039290000392900003929000039290000B4
S11300C039290000392900003929000039290000A4
S11300D03929000039290000392900003929000094
S11300E03929000039290000392900003929000084
S11300F03929000039290000392900003929000074
S11301003929000039290000392900003929000063
S11301103929000039290000392900003929000053
S11301203929000039290000392900003929000043
S11301303929000039290000392900003929000033
S11301403929000039290000392900003929000023
S113015010B5054C237833B9044B13B10448AFF3FD
S113016000800123237010BD8000002000000000E7
S1130170209D000008B5034B1BB103490348AFF3AE
S1130180008008BD0000000084000020209D0000C5
S1130190154B002B08BF134B9D46A3F5803A002155
S11301A08B460F461348144A121A08F040F80F4BB6
S11301B0002B00D098470E4B002B00D0984700200E
S11301C0002104000D000D48002802D00C48AFF3B4
S11301D0008007F0FDFF2000290002F0D9F807F0A5
S11301E0E3FF00BF0000080000000820000000003A
S11301F00000000080000020D80D00200000000056
S11302000000000080B487B000AFF860B9607A6085
S1130210FB6803F10473DA00BB6813449B007B6141
S11302207B697A681A6000BF1C37BD465DF8047BA1
S1130230704780B485B000AF786039607B6803F1A3
S11302400473DA003B6813449B00FB60FB681B6883
S113025018461437BD465DF8047B704780B485B0FA
S113026000AF786039607B6803F1C063FB60FB68B2
S11302703A681A6000BF1437BD465DF8047B7047C6
S113028080B485B000AF786039607B6803F1806327
S1130290FB60FB683A681A6000BF1437BD465DF81E
S11302A0047B704780B483B000AF786001227B6820
S11302B002FA03F318460C37BD465DF8047B704719
S11302C080B485B000AF78607B68002B03D07B6876
S11302D0B3F5004F00BF7B68B3FA83F3DBB2C3F11D
S11302E01F03FB60FB6818461437BD465DF8047BAA
S11302F0704780B584B000AF78607B680133B3FA8F
S113030083F3DBB2C3F11F03FB60F868FFF7CAFF96
S1130310FB6818461037BD4680BD000080B400AFAE
S1130320064B1B6803F04003002B01D1012300E0BE
S113033000231846BD465DF8047B70473C300E40F0
S113034080B500AFFFF7EAFF034683F00103DBB299
S1130350002B08D100BF12210448FFF76AFF0346AF
S1130360002BF8D100E000BF80BD00BF04300E4078
S113037080B500AFFFF7E4FF034B5B681B0C03F091
S11303800303DBB2184680BD00300E4080B584B054
S113039000AF78600123FB607B68124A934204D863
S11303A00023FB600023BB6008E07B680E4A934295
S11303B002D80123BB6001E00223BB60FA6810216C
S11303C00A48FFF71FFF094BD3F8003123F04072AE
S11303D0BB681B0605491343C1F8003100BF103741
S11303E0BD4680BD0048E8010090D00300400E40A7
S11303F080B485B000AF786039604FF080435B68AB
S113040003F04073FB600023BB6012E01B4ABB682F
S1130410DB0013441A793B68DBB29A4206D1174ACF
S1130420BB6852F833307A689A4206D9BB68013304
S1130430BB60BB68062BE9D900E000BFBB68072B93
S113044002D10323FB6005E00C4ABB68DB001344C4
S11304505B79FB60FB681B06FB604FF080435B68C5
S113046023F040724FF08041FB6813434B6000BFA0
S11304701437BD465DF8047B704700BF9C8C0000B8
S113048080B582B000AF4FF080431B6C002B14BFCB
S113049001230023FB714FF0804341F671321A644B
S11304A002F06CFA034600211846FFF7A1FFFB791E
S11304B0002B03D04FF0804300221A6400BF08379A
S11304C0BD4680BD80B584B000AF786039600C4B08
S11304D0FB603B68022B01D10A4BFB607A68FB6826
S11304E09A4204D908490948FFF7B8FE03E00649CF
S11304F00648FFF7C5FE00BF1037BD4680BD00BFEC
S113050080D543020024F4000202020000010040EE
S113051080B582B000AF786039607B680B4A934243
S113052009D93B68002B06D14FF480514FF080402D
S1130530FFF794FE05E04FF480514FF08040FFF741
S11305409FFE00BF0837BD4680BD00BF80F0FA02A1
S113055080B584B000AF786039604FF080431B6C85
S1130560002B14BF01230023FB734FF0804341F69B
S113057071321A6439687868FFF73AFF3968786825
S1130580FFF7A0FF39687868FFF7C2FFFB7B002BF9
S113059003D04FF0804300221A6400BF1037BD46D9
S11305A080BD000080B400AF044B5B6A1B0903F0FC
S11305B003031846BD465DF8047B704700400E40B7
S11305C080B483B000AF7860074B5B6A23F03002DD
S11305D07B681B01044913434B6200BF0C37BD46C3
S11305E05DF8047B704700BF00400E4080B483B0C8
S11305F000AF78600A4BD3F8443103F00103002BB9
S113060008D100BF064BD3F840217B681340002B70
S1130610F8D100E000BF0C37BD465DF8047B70479D
S113062000400E4080B500AF0321064800F01CF9DD
S11306300321054800F018F90321044800F014F9D7
S113064000BF80BD404105005041070060410900E2
S113065080B582B000AF02F09BF93860FFF788FEE6
S11306600346022B1AD13A68224B1344224AA2FBB6
S11306700323DB0D7B607B68002B02D07B68013B8E
S11306807B6079681D4800F0EFF879681C4800F039
S1130690EBF879681B4800F0E7F827E03A681A4B52
S11306A013441A4AA2FB03231B0E7B607B68002BB6
S11306B002D07B68013B7B607968104800F0D4F875
S11306C07968104800F0D0F83A68114B1344114A85
S11306D0A2FB03239B0E7B607B68002B02D07B680C
S11306E0013B7B607968064800F0BEF800BF08371C
S11306F0BD4680BDFF2C31016BCA5F6B40410500D4
S113070050410700604109007FF0FA02893BE65539
S1130710FFA14A04B5FA9BEE80B586B000AF7860BD
S11307200B46FB7000233B617B681B0A03F00F033D
S1130730013B0E2B7CD801A252F823F0790700006C
S11307408507000031080000310800007F07000021
S1130750910700009B070000A5070000B1070000F7
S113076007080000BD070000DF0700003108000093
S11307708B070000010800002F4B7B6146E02F4BE4
S11307807B6143E02E4B7B6140E02E4B7B613DE07F
S11307902D4B7B6101233B6138E02C4B7B611023A3
S11307A03B6133E02A4B7B614FF480733B612DE066
S11307B0284B7B614FF480333B6127E0264B7B6100
S11307C0FB78002B14BF01230023DBB283F0010369
S11307D0DBB2FB70FB7803F00103FB7016E01F4BE8
S11307E07B61FB78002B14BF01230023DBB283F071
S11307F00103DBB2FB70FB7803F00103FB7005E03F
S1130800174B7B6102E0174B7B6100BF7B681B0BBE
S113081003F01F03FB603B69002B02D03869FFF72C
S1130820E5FEFB781A46F9687869FFF7EBFC00E00F
S113083000BF1837BD4680BD00400E40B0400E409A
S1130840C0400E40C4400E40E0400E40E8400E4020
S1130850EC400E40F0400E4060410E4064410E40BA
S1130860F0410E4050410E4080B584B000AF786036
S113087039607B681B0903F00F03FB60FB68013BD5
S11308800B2B00F2D58101A252F823F0BD08000021
S1130890070900001F0900003F0900005B09000070
S11308A07709000093090000C7090000D90A000075
S11308B0710B00009B0B0000150C0000FFF7E0FD1E
S11308C0BA48FFF763FDFFF7ADFEB94BD3F800312B
S11308D023F4F8523B681B02B5491343C1F80031B5
S11308E002F02CF8B860FFF743FD03461946B868D8
S11308F0FFF72EFE02F04CF803461846FFF746FDBC
S1130900FFF7A6FE95E1AA4BD3F8143123F4F8526D
S11309103B681B02A6491343C1F8143189E13868C6
S1130920FFF7CEFC3860A24BD3F8003123F04072BD
S11309303B681B069E491343C1F8003179E19C4B87
S1130940D3F80C3123F4FF3323F480733A68120292
S113095097491343C1F80C316BE1954BD3F8183127
S113096023F4FF3323F480733A681202904913434B
S1130970C1F818315DE18E4BD3F81C3123F4FF33F9
S113098023F480733A68120289491343C1F81C3175
S11309904FE1FFF775FD864BD3F8083123F4FF339D
S11309A023F480733A68120281491343C1F8083171
S11309B001F0C4FFB860FFF7DBFC03461946B868D2
S11309C0FFF7C6FD35E17B687A4A93424AD0794AFB
S11309D0934209D8784A934223D0784A93422FD03D
S11309E0774A93420AD076E0764A934260D0764AB8
S11309F093424AD0754A93425AD06CE03868FFF764
S1130A0078FC38600420FFF7F1FD694BD3F82031FE
S1130A1023F470223B681B0465491343C1F8203159
S1130A2059E04FF48020FFF7E1FD614BD3F83031FA
S1130A3023F003025E493B681343C1F830314AE0B6
S1130A403868FFF756FC38600420FFF7CFFD584B99
S1130A50D3F8203123F00F0255493B681343C1F802
S1130A60203138E03868FFF744FC38600420FFF791
S1130A70BDFD4F4BD3F8203123F0F0023B681B013E
S1130A804B491343C1F8203125E03868FFF731FCA6
S1130A9038600420FFF7AAFD454BD3F8203123F436
S1130AA040723B681B0242491343C1F8203112E0F3
S1130AB03868FFF71EFC38600420FFF797FD3C4BB5
S1130AC0D3F8203123F4E0423B681B033849134335
S1130AD0C1F8203100BFACE07B683D4A934218D096
S1130AE03C4A934228D03C4A934200D03FE03868C5
S1130AF0FFF7FFFB38604020FFF778FD2C4BD3F85D
S1130B00283123F003022A493B681343C1F82831F2
S1130B102DE03868FFF7EDFB38604020FFF766FDF5
S1130B20234BD3F8283123F030023B681B012049C2
S1130B301343C1F828311AE03B687F2B02D83B6885
S1130B400E2B00BF3868FFF7D4FB0346043B3B6021
S1130B504020FFF74BFD164BD3F8283123F44052C5
S1130B603B681B0312491343C1F8283100BF60E0FE
S1130B707B68114A934200D00EE04FF48020FFF7C7
S1130B8035FD0B4BD3F8303123F0030208493B68A1
S1130B901343C1F8303100BF4BE07B680F4A9342E6
S1130BA020D00F4A934228D033E000BF0148E80127
S1130BB000400E4080161800A0091400800616009C
S1130BC08046120000362C0080262E0080002A0069
S1130BD090171C009037300090071A00B8003200BC
S1130BE0B9003400154BD3F85C3123F003021349E8
S1130BF03B681343C1F85C310BE0104BD3F85C3114
S1130C0023F440323B681B040C491343C1F85C31A4
S1130C1000BF0EE0094BD3F8043123F4FF3323F46F
S1130C2080733A68120205491343C1F8043100E0A5
S1130C3000BF00BF1037BD4680BD00BF00400E405E
S1130C4080B485B000AF78600123FB737B6803F048
S1130C500F03BB60BB68013B0B2B00F2748101A244
S1130C6052F823F0950C0000F10C0000210D000057
S1130C70990D0000690D0000C90D0000470F000028
S1130C80ED0D00002F0E0000730E0000B30E0000E7
S1130C90F30E0000B34BD3F8943003F00703023B88
S1130CA0052B21D801A252F823F000BFD10C00007B
S1130CB0CB0C0000C50C0000D70C0000E30C0000B6
S1130CC0DD0C00000223FB7311E00323FB730EE031
S1130CD00423FB730BE00D23FB7308E00E23FB736B
S1130CE005E00A23FB7302E00523FB7300BF32E136
S1130CF09C4BD3F8803003F00703022B06D0042B5F
S1130D0007D0012B08D10323FB7308E00223FB73F4
S1130D1005E00C23FB7302E00123FB7300BF1AE11F
S1130D20904BD3F8843003F00703013B032B17D80F
S1130D3001A252F823F000BF490D00004F0D00003E
S1130D405B0D0000550D00000323FB730BE0022331
S1130D50FB7308E00C23FB7305E00623FB7302E03E
S1130D600123FB7300BFF6E07E4BD3F8883003F019
S1130D700703022B06D0042B07D0012B08D1032331
S1130D80FB7308E00223FB7305E00C23FB7302E012
S1130D900123FB7300BFDEE0724BD3F88C3003F009
S1130DA00703022B06D0042B07D0012B08D1032301
S1130DB0FB7308E00223FB7305E00C23FB7302E0E2
S1130DC00123FB7300BFC6E0664B1B6F03F00303F4
S1130DD0002B04D0012B05D10923FB7305E0072365
S1130DE0FB7302E00123FB7300BFB4E05D4BD3F857
S1130DF05C3103F03003102B0CD0102B02D8002BE5
S1130E0005D010E0202B08D0302B09D00BE00123B3
S1130E10FB730BE00723FB7308E00423FB7305E07B
S1130E200823FB7302E00123FB7300BF93E04D4BE7
S1130E30D3F85C3103F44013B3F5801F0FD0B3F53E
S1130E40801F02D8002B07D085E0B3F5001F09D01E
S1130E50B3F5401F09D07EE00123FB7308E00723AC
S1130E60FB7305E00423FB7302E00823FB7300BF5C
S1130E7071E03C4BD3F8603103F00303032B65D8D6
S1130E8001A252F823F000BF990E00009F0E00004B
S1130E90A50E0000AB0E00000523FB7308E004233D
S1130EA0FB7305E00723FB7302E00A23FB7300BF17
S1130EB04CE02C4BD3F8643103F00303032B47D8E5
S1130EC001A252F823F000BFD90E0000DF0E00008B
S1130ED0E50E0000EB0E00000523FB7308E004237D
S1130EE0FB7305E00723FB7302E00A23FB7300BFD7
S1130EF02EE01C4BD3F8F03103F00703052B29D85F
S1130F0001A252F823F000BF210F0000270F0000B8
S1130F102D0F0000330F0000390F00003F0F0000B9
S1130F200A23FB730EE00423FB730BE00B23FB7318
S1130F3008E00523FB7305E00223FB7302E00323AF
S1130F40FB7300BF06E00023FB7304E000BF02E074
S1130F5000BF00E000BFFB7B18461437BD465DF8B8
S1130F60047B704700400E4080B58AB000AF7860C3
S1130F700B46FB7003237B62032387F82330002393
S1130F80BB6100237B617B68112B19D1FB78042B97
S1130F9003D101F077FD78610BE0FB78052B08D1D4
S1130FA000F028FC0246C44B9A4202D900F022FC0D
S1130FB078617B69002B03D00021786901F0E4FD9E
S1130FC07B6803F00F033B613B69013B0B2B00F291
S1130FD0748201A252F823F0091000000F110000DE
S1130FE02F1100001311000021110000CD11000089
S1130FF0BB140000EB11000061120000F7120000A6
S11310007B130000FF130000FB78023B0C2B00F263
S1131010568201A252F823F04D100000591000002E
S11310206510000077100000BF140000BF1400001A
S1131030BF140000BF140000A1100000BF14000082
S1131040BF140000891000009510000004237B6287
S1131050002387F8233029E003237B62012387F8E8
S1131060233023E002237B62022387F82330934852
S1131070FFF78CF91AE001237B62032387F82330FE
S11310808E48FFF783F911E005237B62032387F879
S113109023300BE007237B62072387F8233005E026
S11310A006237B62052387F8233000BF97F823309B
S11310B0072B06D097F8233001220121184600F0AF
S11310C00BFCFFF7DDF9FFF7ADFA7B69002B01D0CC
S11310D0FFF736F97A4A7B6A536701F02FFCF86010
S11310E001F056FC03461846FFF750F9FFF740F9A4
S11310F003461946F868FFF72BFA7B69002B03D1E6
S11311000121002001F040FDFFF7A2FAE4E16D4B5C
S1131110BB61BB69002B01D0BB6900E06A4BBB61BA
S1131120BB69002B01D0BB6900E0684BBB61BB69A4
S1131130002B01D0BB6900E0654BBB61FB78013B30
S11311400B2B00F2BE8101A252F823F07D110000A6
S11311508311000093110000C3140000C3140000A5
S1131160A3110000C3140000C3140000C314000042
S1131170C3140000C3140000BF1100000023FB616E
S113118020E001220121002000F0A6FB0223FB61E4
S113119018E001220121012000F09EFB0123FB61E4
S11311A010E001F0F5FB03461846FFF7EFF80122C3
S11311B000214848FFF726F80323FB6102E00423DB
S11311C0FB6100BFBB69FA691A6085E1FB78072BF4
S11311D002D0092B04D07FE1394B00221A6703E0C7
S11311E0374B01221A6700BF76E1FB78013B072BDE
S11311F000F2698101A252F823F000BF1D12000021
S1131200C7140000C714000033120000C714000004
S1131210C714000023120000431200000023FB61E6
S113122012E001220121042000F056FB0123FB619E
S11312300AE001220121022000F04EFB0223FB619F
S113124002E00323FB6100BF1D4BD3F85C3123F0A4
S11312503002FB691B011A491343C1F85C313BE1BD
S1131260FB78013B072B00F2308101A252F823F0F6
S113127091120000CB140000CB140000A712000050
S1131280CB140000CB14000097120000D912000008
S11312900023FB6123E001220121042000F01CFB58
S11312A00123FB611BE001220121022000F014FB59
S11312B00223FB6113E000BF002D31010148E80166
S11312C000400E4080400E408C400E4088400E404E
S11312D084400E40B0400E400323FB6100BF804BAE
S11312E0D3F85C3123F44012FB691B057C4913439A
S11312F0C1F85C31F0E0FB78043B062B00F2E78098
S113130001A252F823F000BF35130000251300009A
S1131310CF14000045130000CF140000CF140000C8
S11313205513000001220121032000F0D5FA002307
S1131330FB6117E001220121022000F0CDFA012314
S1131340FB610FE001220121042000F0C5FA022311
S1131350FB6107E001220121052000F0BDFA03230F
S1131360FB6100BF5E4BD3F8603123F003025C499C
S1131370FB691343C1F86031AEE0FB78043B062BF4
S113138000F2A78001A252F823F000BFB9130000B5
S1131390A9130000D3140000C9130000D3140000E3
S11313A0D3140000D913000001220121032000F00E
S11313B093FA0023FB6117E001220121022000F0CF
S11313C08BFA0123FB610FE001220121042000F0CC
S11313D083FA0223FB6107E001220121052000F0CA
S11313E07BFA0323FB6100BF3D4BD3F8643123F048
S11313F003023B49FB691343C1F864316CE0FB7899
S1131400023B092B67D801A252F823F0851400008F
S1131410951400004514000075140000D714000052
S1131420D7140000D7140000D714000035140000AE
S11314305514000001220121052000F04DFA00237B
S1131440FB612FE001220121022000F045FA012373
S1131450FB6127E001F016FB214B5B6A204A43F055
S11314600803536201220121022000F035FA02230D
S1131470FB6117E001220121032000F02DFA032370
S1131480FB610FE001220121002000F025FA042372
S1131490FB6107E001220121012000F01DFA052370
S11314A0FB6100BF0E4BD3F8F03123F007020C4967
S11314B0FB691343C1F8F0310EE000BF0CE000BF3C
S11314C00AE000BF08E000BF06E000BF04E000BF80
S11314D002E000BF00E000BF2837BD4680BD00BF6A
S11314E000400E4080B58AB000AF786000237B6274
S11314F00023FB77FEF73CFF0346022B06D17B68F3
S11315001B686F4A934201D90023D5E000233B6254
S113151018E07B681A686B493B6A1B010B441B6823
S11315209A420CD37B681A6866493B6A1B010B44D8
S113153004331B689A4202D83B6A7B6205E03B6A2B
S113154001333B623B6A172BE3D97B6A182B01D129
S11315500023B1E05B4A7B6A1B01134408331B6818
S1131560BB61584A7B6A1B0113440C331B68002B74
S113157019D0544A7B6A1B0113440C331B68184668
S113158000F0A6F8034603F07F037B617B69092B17
S113159003D97B69093B7B6101E000237B61BA6964
S11315A07B691343BB617B681B68474A1360112046
S11315B0FFF746FB0346052B01D1FEF761FF11201F
S11315C0FFF73EFB0346052B09D17B681B681846D1
S11315D0FEF7DCFE0123FB773C4B05225A673B4BAD
S11315E04FF400521A6600BF384BD3F8903003F41E
S11315F04053002BF8D1354B4FF46032C3F8A82088
S11316007B689B881B047A68D28811462F4A0B4357
S113161053642E4ABB6913617B689B7ADB007A684A
S1131620527B002A01D0042200E000221A437B6886
S1131630DB7A5B0013437A68127B1146234A0B431F
S11316401364224B4FF480521A6600BF1F4BD3F829
S1131650A03003F460333B613B69002BF6D01120CA
S1131660FFF7EEFA03460D2B05D1FB7F002B02D0CA
S1131670164B01225A671120FFF7E2FA0346052BA5
S113168009D101F05BF9F860FEF772FE03461946D2
S1131690F868FEF75DFF01F07BF903461846FEF794
S11316A075FE0121002001F06FFA3B69B3F5004F8C
S11316B001D1012300E0002318462837BD4680BD30
S11316C0002D31011C8B00000C00002000400E4056
S11316D080B483B000AF78607B68374A934243D0CC
S11316E0354A934216D8354A93422DD0334A934211
S11316F006D8334A934227D0324A934224D053E047
S1131700314A934228D0314A934229D0304A9342F5
S11317101ED049E02F4A934236D02E4A934209D82C
S11317202D4A934228D02D4A934229D02C4A9342E1
S11317301ED039E02B4A93422ED02B4A93422FD00D
S11317402A4A934224D02FE0294BD3F880302CE04E
S1131750274BD3F88C3028E0254BD3F8983024E07D
S1131760234BD3F89C3020E0214BD3F8A0301CE06D
S11317701F4BD3F8A83018E01D4BD3F8AC3014E05D
S11317801B4BD3F8B03010E0194BD3F8B4300CE055
S1131790174BD3F8B83008E0154BD3F8BC3004E04D
S11317A0134BD3F8C03000E0002318460C37BD4675
S11317B05DF8047B704700BFC0EA210100093D00C9
S11317C040420F0080841E00405DC6000024F400E7
S11317D0C0CF6A00006CDC020048E80180D54302F7
S11317E080BA8C010090D00300A24A04007E560304
S11317F0B081E00F80B400AF034B1B681846BD46B0
S11318005DF8047B704700BF0C00002080B584B0F5
S113181000AF78601120FFF713FA012200210220A3
S113182000F05AF80023FB607B68DB7A012B0AD0B6
S1131830022B05D0002B00D008E00023FB6005E05C
S11318400323FB6002E00123FB6000BF204B5B6AC3
S113185023F003021E49FB6813434B620023FB6021
S113186001F010F902461B4B9A4203D8FB6843F07F
S11318700803FB60164B5B6A23F008021449FB68FB
S113188013434B627B681B88DB027A6892881A4395
S11318900F4BDA620E4B1B6B1B0D1B057A685288CB
S11318A0D20213437A68D2881146094A0B43136360
S11318B07B681B7A1A037B685B7A1B0113437A6883
S11318C0927A1A43024B5A6300BF1037BD4680BD5B
S11318D000400E4040787D0180B588B000AF0346DB
S11318E0FB710B46BB7113467B71FB79052B00F230
S11318F0BF8001A252F823F05919000047190000D3
S11319002319000011190000351900006F19000097
S113191001237B6102233B610123FB610023BB6143
S113192030E004237B6108233B610323FB61022332
S1131930BB6127E010237B6120233B610523FB610E
S11319400423BB611EE040237B6180233B610723AA
S1131950FB610623BB6115E04FF480737B614FF498
S113196000733B610923FB610823BB610AE04FF468
S113197080637B614FF400633B610B23FB610A23AB
S1131980BB6100BFBB79002B55D00023FB73FB79EF
S1131990022B11D1FEF706FE0346012B0CD1364B68
S11319A0DB6B0123FB73354B5B6A03F00303032BEF
S11319B002D10220FEF704FE304A7B69136600BFA1
S11319C0B9692F48FEF735FC0346002BF8D07B7924
S11319D0002B4ED000BFF9692948FEF72AFC0346C4
S11319E0002BF8D0FB79022B43D1FB7B002B40D09A
S11319F0224B5B6A03F00303032B03D00021022074
S1131A0000F0F2F8022000F03DF8B8600122002155
S1131A100220FFF761FFB968022000F06DF8174A51
S1131A207B69136600BFF9691548FEF702FC03469B
S1131A30002BF8D01DE0114A3B69136600BF0F4B21
S1131A40D3F890300121BA6901FA02F21340002B55
S1131A50F5D17B79002B0CD000BF084BD3F8903024
S1131A600121FA6901FA02F21340002BF5D100E0DA
S1131A7000BF2037BD4680BD00300E4000400E4000
S1131A8090400E4080B485B000AF0346FB71FB79F3
S1131A90013B042B24D801A252F823F0B11A000010
S1131AA0E11A0000BD1A0000D51A0000C91A00008E
S1131AB0104B1B6AC3F30803FB6014E00D4B1B6956
S1131AC003F07F03FB600EE00A4B9B6803F07F0387
S1131AD0FB6008E0074B9B6903F07F03FB6002E0B7
S1131AE00023FB6000BFFB6818461437BD465DF851
S1131AF0047B704700400E4080B582B000AF0346BF
S1131B003960FB71FB79013B042B63D801A252F8C5
S1131B1023F000BF291B0000D51B0000571B000049
S1131B20AB1B0000811B00003B68C3F308033B6050
S1131B3000BF1A212A48FEF77CFB0346002BF8D18C
S1131B40284B1B6A23F4FF7323F0010325493A68E9
S1131B5013430B623FE03B6803F07F033B6000BF2D
S1131B6018211F48FEF765FB0346002BF8D11D4BD7
S1131B701B6923F07F021B493B6813430B612AE076
S1131B803B6803F07F033B6000BF1E211448FEF74F
S1131B9050FB0346002BF8D1124B9B6823F07F02C5
S1131BA010493B6813438B6015E03B6803F07F03E7
S1131BB03B6000BF19210A48FEF73BFB0346002B9C
S1131BC0F8D1084B9B6923F07F0206493B68134315
S1131BD08B6100E000BF00BF0837BD4680BD00BF79
S1131BE040410E4000400E4080B584B000AF034633
S1131BF00A46FB711346BB71FEF7D4FC0346012B66
S1131C0003D14FF48003FB6009E0BB79002B03D1BF
S1131C104FF48003FB6002E0084BFB6000BF00BF91
S1131C20074BD3F89020FB681340FA689A42F7D127
S1131C30012318461037BD4680BD00BFFF3F473A19
S1131C4000400E4080B487B000AFF860B9607A609D
S1131C50FB6803F10473DA00BB6813449B007B61E7
S1131C607B697A681A6000BF1C37BD465DF8047B47
S1131C70704780B485B000AF786039607B6803F149
S1131C80C063FB60FB683A681A6000BF1437BD4646
S1131C905DF8047B704780B485B000AF786039602C
S1131CA07B6803F18063FB60FB683A681A6000BFDD
S1131CB01437BD465DF8047B704780B584B000AF2F
S1131CC0F860B9607A60B968F868FFF7E4FF79688A
S1131CD0F868FFF7CEFF00BF1037BD4680BD000097
S1131CE080B483B000AF7860044A7B68C2F82434BF
S1131CF000BF0C37BD465DF8047B70470080084088
S1131D0080B582B000AF03463960FB71FB79002BCC
S1131D1016D0FB79012B13D0FB79022B10D0FB7961
S1131D20032B0DD0FB79042B0AD0FB79052B07D0AC
S1131D30FB79062B04D0FB79072B01D0FB79082B08
S1131D40FA7913465B0013441B010C3303F18043FF
S1131D5003F5082301213A6801FA02F211461846F4
S1131D60FFF799FF00BF0837BD4680BD80B582B03C
S1131D7000AF03463960FB71FB79002B16D0FB7969
S1131D80012B13D0FB79022B10D0FB79032B0DD040
S1131D90FB79042B0AD0FB79052B07D0FB79062BA2
S1131DA004D0FB79072B01D0FB79082BFA79134671
S1131DB05B0013441B010C3303F1804303F5082338
S1131DC001213A6801FA02F211461846FFF751FF61
S1131DD000BF0837BD4680BD80B586B000AFB9608E
S1131DE07A601A460346FB731346BB7300237B6178
S1131DF0FB7B002B16D0FB7B012B13D0FB7B022B30
S1131E0010D0FB7B032B0DD0FB7B042B0AD0FB7B78
S1131E10052B07D0FB7B062B04D0FB7B072B01D0C3
S1131E20FB7B082B7B68072B0ED87B689B000F225B
S1131E3002FA03F1FA7B7B689B0002FA03F31A4669
S1131E402B48FFF73AFF10E07B68083B7B617B6916
S1131E509B000F2202FA03F1FA7B7B699B0002FAD2
S1131E6003F31A462348FFF728FF7B68072B10D893
S1131E707B689B00032202FA03F1BB6803F00302B0
S1131E807B689B0002FA03F31A461B48FFF715FF11
S1131E900FE07B699B00032202FA03F1BB6803F0A5
S1131EA003027B699B0002FA03F31A461348FFF707
S1131EB004FFBB7B1A4679681148FFF7C3FE97F805
S1131EC020301A4679680F48FFF7BCFE01227B6870
S1131ED002FA03F31846FFF703FF97F824301A4673
S1131EE079680948FFF7AEFE00BF1837BD4680BDCC
S1131EF00084084004840840088408400C84084096
S1131F0010840840148408402884084080B584B0B4
S1131F1000AFB9607B600346FB731346BB73FB7B66
S1131F20002B16D0FB7B012B13D0FB7B022B10D094
S1131F30FB7B032B0DD0FB7B042B0AD0FB7B052BF7
S1131F4007D0FB7B062B04D0FB7B072B01D0FB7B4C
S1131F50082BBB7B002B0DD07B68002B05D0FB7BB3
S1131F60B9681846FFF702FF04E0FB7BB96818461E
S1131F70FFF7C6FEBB68072B20D82E49FA7B134611
S1131F805B0013441B010B4404331A68BB689B00B9
S1131F900F2101FA03F3DB431340B97BBA689200C3
S1131FA001FA02F211462348FA7B194313465B00F7
S1131FB013441B0103440433196025E01D49FA7BD3
S1131FC013465B0013441B010B4408331A68BB68B7
S1131FD003F18043083B9B000F2101FA03F3DB4329
S1131FE002EA0301BA7BBB6803F18043083B9B0010
S1131FF002FA03F30F48FA7B194313465B001344B8
S11320001B01034408331960BB7B002B0DD17B6893
S1132010002B05D0FB7BB9681846FFF7A7FE04E048
S1132020FB7BB9681846FFF76BFE00BF1037BD464F
S113203080BD00BF0080084080B483B000AF7860EA
S113204000BF7B681B6903F08003002BF9D07B6819
S1132050DB69DBB218460C37BD465DF8047B70477C
S113206080B483B000AF78600B46FB7000BF7B6820
S11320701B6903F04003002BF9D0FA787B685A639C
S113208000BF0C37BD465DF8047B704780B483B055
S113209000AF03463960FB7197F90730002B0ADB68
S11320A03B68DAB20C4997F907305201D2B20B44BB
S11320B083F800230AE03B68DAB20849FB7903F0AD
S11320C00F03043B5201D2B20B441A7600BF0C3703
S11320D0BD465DF8047B704700E100E000ED00E0E0
S11320E080B485B000AF786039607B6803F1C06369
S11320F0FB60FB683A681A6000BF1437BD465DF8A0
S1132100047B704780B485B000AF786039607B6829
S113211003F18063FB60FB683A681A6000BF143700
S1132120BD465DF8047B704780B582B000AF0346BE
S11321303960FB71FB79002B16D0FB79012B13D08E
S1132140FB79022B10D0FB79032B0DD0FB79042BE8
S11321500AD0FB79052B07D0FB79062B04D0FB7939
S1132160072B01D0FB79082BFA7913465B00134443
S11321701B010C3303F1804303F5082301213A6862
S113218001FA02F211461846FFF7BCFF00BF0837F8
S1132190BD4680BD80B582B000AF03463960FB7197
S11321A0FB79002B16D0FB79012B13D0FB79022B82
S11321B010D0FB79032B0DD0FB79042B0AD0FB79CB
S11321C0052B07D0FB79062B04D0FB79072B01D014
S11321D0FB79082BFA7913465B0013441B010C337B
S11321E003F1804303F5082301213A6801FA02F25E
S11321F011461846FFF774FF00BF0837BD4680BD7F
S113220080B400AF4FF0804301225A64184BD3F8D6
S1132210B030174A43F00103C2F8B030144BD3F87E
S1132220E030134A43F00803C2F8E030114B1B6856
S1132230104A43F4805313600D4BD3F8E0300C4A3A
S113224023F00803C2F8E030094BD3F8B030084A51
S113225023F00103C2F8B030074B1B68064A43F46D
S1132260F843136000BFBD465DF8047B704700BFB0
S113227000400E4034400540A4310E4080B588B083
S113228000AF224A07F1140307CA83E807000023BA
S1132290FB7707F114031846FFF7B8FA012201216E
S11322A00220FFF719FB3B1D00221A605A609A6056
S11322B0DA60174B7B6040F60F633B8140F6C31333
S11322C07B810423BB7301237B743B1D1846FFF7FA
S11322D009F9034683F00103DBB2002B03D0042188
S11322E01120FEF741FE0B4BD3F80C31094A23F4BD
S11322F0FF3323F48073C2F80C3101210648FEF742
S11323000BFA00BF2037BD4680BD00BFD48C00004F
S113231000A24A0400400E404041050080B500AFD1
S113232001210D48FEF7F8F90023042201210020C1
S1132330FFF7ECFD0023042202210020FFF7E6FD55
S11323400023042204210320FFF7E0FD02210020E2
S1132350FFF720FF00BF80BD00550A0080B485B0A0
S113236000AF78600023FB6004E0FB68FB60FB685F
S11323700133FB607B6840F60B2202FB03F2FB682F
S11323809A42F2D800BF1437BD465DF8047B70470B
S113239080B5C0B000AFFFF733FF00210320FFF783
S11323A075FE01210E20FFF771FE02211520FFF7B3
S11323B06DFE03210620FFF769FE04211720FFF7B5
S11323C065FE05210520FFF761FEFFF757FF01F0C9
S11323D053F8FFF7A3FF01F0D7FA05F0A1FA05F0CF
S11323E073F805F043F904F0D9FE04F091FF05F009
S11323F029FD01F0E7F801F053F904F0CDFC01F0F8
S1132400F1FA4FF49670FFF7A9FF01F0F3FA01F027
S113241001FB4FF49670FFF7A1FF01F003FB01F0FD
S113242011FB4FF49670FFF799FF01F013FB01F0D5
S113243021FB4FF49670FFF791FF01F023FB01F0AD
S113244031FB4FF49670FFF789FF01F033FB01F085
S113245041FB4FF49670FFF781FF01F043FB01F05D
S113246019FD01F0E3FC03F0C3F83B4600221A60B7
S113247004E03B461B685A1C3B461A603B461B68FB
S1132480C74A9342F5DD04210320FFF74DFEC548FA
S113249005F066F8C44805F08DFAC44805F046F91D
S11324A0C34805F043F901F02FFE01F055FB03F09A
S11324B0CFFE04F049FBBF4B1B78002B00F0C98111
S11324C0BC4B1B78313B462B00F2688101A252F8C9
S11324D023F000BFA3260000AF260000BB260000A7
S11324E0C7260000D3260000DF2600009D27000039
S11324F09D2700009D2700009D2700009D270000C8
S11325009D2700009D2700009D2700009D270000B7
S11325109D2700009D2700009D2700009D270000A7
S11325209D2700009D2700009D2700009D27000097
S11325309D2700009D2700009D2700009D27000087
S11325409D2700009D2700009D2700009D27000077
S11325509D2700009D2700009D2700009D27000067
S1132560EB2600009D2700009D2700009D2700000A
S11325709D2700009D2700009D2700009D27000047
S11325809D2700009D2700009D2700009D27000037
S11325909D2700006B2700009D2700009126000066
S11325A0F12600009D2700009D2700009D270000C4
S11325B0F1250000332700009D2700009D2700001F
S11325C07B2600009D270000492700009D2700006E
S11325D09D2600009D270000972700008B26000001
S11325E01D2700009D2700009D2700006F26000086
S11325F0714805F09BF8714805F098F8704805F0AB
S113260095F86E4805F092F86E4805F08FF86E481C
S113261005F08CF86D4805F089F86D4805F086F8EA
S11326206C4805F083F86C4805F080F86B4805F0B9
S11326307DF86B4805F07AF86A4805F077F86A483F
S113264005F074F8694805F071F8694805F06EF80A
S1132650684805F06BF8684805F068F8574805F0D5
S113266065F803F039FA554805F060F8EBE0634883
S113267005F05CF801F054FBE5E0614805F056F81C
S113268001F0D4FB01F040FDDDE001F079FADAE07D
S113269001F062FA5B4805F049F8D4E001F034FD3A
S11326A0D1E001F0AFF9584805F040F8CBE001F073
S11326B0C1F9564805F03AF8C5E001F0D3F9544899
S11326C005F034F8BFE001F0E5F9524805F02EF8C2
S11326D0B9E001F0F7F9504805F028F8B3E001F04B
S11326E009FA4E4805F022F8ADE003F071FCAAE0C7
S11326F04B4B1B78002B0CBF01230023DBB21A4683
S1132700474B1A70464B1B78012B03D1454805F003
S11327100DF898E0444805F009F894E0434B1B7821
S1132720002B0CBF01230023DBB21A463F4B1A7067
S113273089E03F4B1B78002B0CBF01230023DBB245
S11327401A463B4B1A707EE03A4B1B78002B0CBFA9
S113275001230023DBB21A46364B1A70354B1B7823
S1132760002B6FD005F082F96CE0334804F0DEFFF3
S113277000F034FF0346184601F010F82F4804F027
S1132780D5FF00F099FF0346184601F007F82C48DE
S113279004F0CCFF57E004F099FC54E000BF52E091
S11327A09F860100E08C0000F88C0000108D000072
S11327B0308D0000D00B0020588D0000608D00008B
S11327C0848D0000988D0000B08D0000C88D00003D
S11327D0EC8D0000108E0000308E0000548E00003E
S11327E0748E0000848E0000A88E0000CC8E000041
S11327F0F08E0000088F00002C8F0000488F00002E
S1132800648F0000848F0000B48F0000BC8F000030
S1132810C48F0000CC8F0000D48F0000DC8F000038
S113282010000020E48F0000F88F0000B1000020A9
S1132830B2000020B30000200C900000249000009F
S11328403090000000BF274804F070FF264B0022A0
S11328501A70264B1B78012B7FF429AE234B0022E0
S11328601A70234B1B680133214A1360204B1A68EA
S1132870204BA3FB02131B0B4FF4E15101FB03F3A9
S1132880D31A002B01D105F0F1F804F0B1F81A4B7A
S11328901B78012B02D1194804F048FF184B1B7810
S11328A0012B19D100F011FE03461A463B1D1549B0
S11328B0184605F0C5FC3B1D184604F037FF00F030
S11328C00EFE03461A463B1D0F49184605F0B8FC98
S11328D03B1D184604F02AFF00F09CFE00F008FFA0
S11328E0E5E500BF34900000D00B0020CC0A0020A6
S11328F090010020C5B3A291B10000203C900000DB
S1132900B200002040900000589000000648804724
S11329100649074A074B9A42BEBF51F8040B42F8D6
S1132920040BF8E7FDF734FC9D2A00002C9D000001
S11329300000002080000020FEE700BF80B582B0C8
S113294000AF00F025F878600A4BD3F808311B0A71
S1132950C3F308033B603B6801337A68B2FBF3F3CB
S11329607B60054A7B6813607B6818460837BD4660
S113297080BD00BF00400E400800002080B400AFBE
S1132980024B1846BD465DF8047B704700A24A041A
S113299080B483B000AF334BD3F8943003F0070313
S11329A0023B042B49D801A252F823F0D12900009C
S11329B0C9290000C1290000312A0000D9290000DA
S11329C0294B1B687B603CE04FF400437B6038E09C
S11329D0264B1B687B6034E0224B9B681B0C03F086
S11329E01F03073B072B1FD801A252F823F000BF97
S11329F0112A0000292A0000292A0000292A00009F
S1132A00172A0000292A00001D2A0000232A00009A
S1132A10174B7B600BE0174B7B6008E0164B7B6029
S1132A2005E0164B7B6002E000237B6000BF08E0FA
S1132A30134B1B685B087B6003E0114B1B687B60D6
S1132A4000BF084BD3F800311B0A03F01F03013306
S1132A507A68B2FBF3F318460C37BD465DF8047B85
S1132A60704700BF00400E4004000020000000201A
S1132A700024F4000048E801006CDC0280F0FA0253
S1132A800C00002080B400AF034B1B681846BD4601
S1132A905DF8047B704700BF0000002080B400AFE5
S1132AA0074B084A9A60064BD3F88830044A43F42B
S1132AB07003C2F8883000BFBD465DF8047B7047E0
S1132AC000ED00E00000000080B485B000AF786045
S1132AD039607B6803F10473DA003B6813449B009C
S1132AE0FB60FB681B6818461437BD465DF8047B21
S1132AF07047000080B400AF064B1B6803F040032E
S1132B00002B01D1012300E000231846BD465DF8E7
S1132B10047B70473C300E4080B500AFFFF7EAFFFE
S1132B20034683F00103DBB2002B08D100BF12215E
S1132B300448FFF7C9FF0346002BF8D100E000BFAB
S1132B4080BD00BF04300E4080B500AFFFF7E4FF46
S1132B50034B5B681B0C03F00303DBB2184680BD18
S1132B6000300E4080B483B000AF0346FB71FB79A4
S1132B70C3F10203102202FA03F318460C37BD46D0
S1132B805DF8047B7047000080B584B000AF7860C6
S1132B900B46FB70FFF7AEFF034683F00103DBB285
S1132BA0002B28D17B68002B0FD1154BD3F80031B3
S1132BB01B0A03F01F030133BB60FFF7E9FE024663
S1132BC0BB6802FB03F3FB6001E07B68FB600D4B19
S1132BD01B78002B09D0FB680B4A934205D8FB787D
S1132BE01946022000F012F806E0FB78194600208E
S1132BF000F00CF800E000BF1037BD4680BD00BFF8
S1132C0000400E409C000020002D310190B587B09B
S1132C1000AF03460A46FB711346BB71FFF76AFF18
S1132C20034683F00103DBB2002B31D1FFF78CFFA5
S1132C3003461A46FB7993422CD0184BD3F8003143
S1132C401B0A03F01F0301337B61FFF7A1FE386108
S1132C503B697A6902FB03F3FB60FB79022B03D126
S1132C6002213869FDF774FC0D4CFB791846FFF717
S1132C7079FF03462361BB79002B01D0FFF74CFF9A
S1132C80FB79002B07D100213869FDF761FC02E0D4
S1132C9000BF00E000BF1C37BD4690BD00400E40A1
S1132CA000300E4080B400AF0A4B5B68094B5B6890
S1132CB04FF0804341F671321A644FF080439B68B1
S1132CC04FF0804223F00103936000BFBD465DF8DE
S1132CD0047B704700300E4080B400AF4FF0804357
S1132CE09B684FF0804223F0010393604FF08043D0
S1132CF000221A6400BFBD465DF8047B70470000E3
S1132D0080B485B000AF7860174BFB6002E0FB68CD
S1132D10013BFB604FF08043DB6903F00103002BB0
S1132D2002D0FB68002BF2D1FB68002B02D16FF0BC
S1132D30020312E04FF080427B6813614FF080433E
S1132D400122DA604FF08043DB6903F00403002BB7
S1132D5002D04FF0FF3300E0002318461437BD467D
S1132D605DF8047B704700BF8096980080B487B0FC
S1132D7000AF786039600023BB730023FB733B68AA
S1132D80002B3AD000233B6133E0BB7B83F001038B
S1132D90DBB2002B0DD07B681A1D7A604FF08042A5
S1132DA01B6893613B6901333B614FF08043082208
S1132DB0DA60164B7B6102E07B69013B7B614FF07B
S1132DC08043DB6903F00103002B02D07B69002BF5
S1132DD0F2D17B69002B02D1FD23FB730DE04FF090
S1132DE08043DB6903F00203002B02D0FE23FB7354
S1132DF003E03A693B689A42C7D397F90F30184603
S1132E001C37BD465DF8047B704700BF8096980070
S1132E1080B58AB000AFF860B9607A600023FB76B1
S1132E204FF080431B6C9BB2002B14BF0123002383
S1132E30BB764FF0804341F671321A643A4B5B68BB
S1132E40394B5B684FF080439B684FF0804243F0FE
S1132E50010393607B689B087B6100237B62BB68F2
S1132E60FB6145E07B6A9B00FA6813441846FFF750
S1132E7047FF0346FB7697F91B30002B11D04FF028
S1132E8080439B684FF0804223F001039360BB7E34
S1132E90002B03D04FF0804300221A6497F91B30B3
S1132EA03DE07B6A9B00FA681344C3F30B03C3F54C
S1132EB080539B083B627A697B6AD31A3A6A9A42C6
S1132EC003D97A697B6AD31A3B62396AF869FFF7D6
S1132ED04DFF0346FB7697F91B30002B0DD17A6A20
S1132EE03B6A13447B623B6A9B00FA691344FB61AF
S1132EF07A6A7B699A42B5D300E000BF4FF0804301
S1132F009B684FF0804223F001039360BB7E002B4B
S1132F1003D04FF0804300221A6497F91B301846FF
S1132F202837BD4680BD00BF00300E4080B485B058
S1132F3000AF7860494BFB604FF080431B6C9BB241
S1132F40002B14BF01230023FB724FF0804341F692
S1132F5071321A64424B5B68414B5B684FF08043AB
S1132F609B684FF0804243F0010393604FF080422E
S1132F707B6813614FF080430122DA604FF0804395
S1132F80DB6903F00403002B11D04FF080439B68EE
S1132F904FF0804223F001039360FB7A002B03D0AF
S1132FA04FF0804300221A644FF0FF334FE04FF09C
S1132FB080430222DA6002E0FB68013BFB604FF0D1
S1132FC08043DB6903F00103002B02D0FB68002B74
S1132FD0F2D14FF08043DB6903F00203002B11D0E0
S1132FE04FF080439B684FF0804223F001039360CD
S1132FF0FB7A002B03D04FF0804300221A646FF059
S1133000010324E0FB68002B11D14FF080439B683F
S11330104FF0804223F001039360FB7A002B03D02E
S11330204FF0804300221A646FF002030FE04FF068
S113303080439B684FF0804223F001039360FB7A46
S1133040002B03D04FF0804300221A64002318465B
S11330501437BD465DF8047B704700BF8096980026
S113306000300E4080B584B000AFF860B9607A607B
S11330707A68B968F868FFF7CBFE0346184610373C
S1133080BD4680BD80B487B000AFF860B9607A6097
S1133090FB6803F10473DA00BB6813449B007B6193
S11330A07B697A681A6000BF1C37BD465DF8047BF3
S11330B07047000080B582B000AF0346FB71FB7916
S11330C01A4600210348FFF7DDFF00BF0837BD465D
S11330D080BD00BF0020064080B483B000AF78609C
S11330E07B681B78002B01D0012200E000227B6862
S11330F05B78002B01D0042300E0002313437A689B
S11331009278002A01D0102200E0002213437A684A
S1133110D278002A01D0202200E000221A437B68E2
S11331201B791B021A437B685B791B031A437B6878
S11331309B799B0313437A68D279002A02D04FF417
S1133140004200E000221A437B681B7A1B041343ED
S11331507A68527A002A02D04FF4003200E000224A
S1133160044913430B6000BF0C37BD465DF8047B74
S1133170704700BF0020064080B483B000AF786081
S11331807B681B4A934227D07B681A4A934223D018
S11331907B68194A93421FD07B68184A93421BD01C
S11331A07B68174A934217D07B68164A934213D020
S11331B07B68154A93420FD07B68144A93420BD024
S11331C07B68134A934207D07B68124A934203D028
S11331D07B68114A934201D1012300E0002303F0EC
S11331E00103DBB218460C37BD465DF8047B70471B
S11331F0008001400084014000880140008C0140AF
S113320000900140009401400098014000A001405A
S113321000A4014000A8014000AC014080B584B086
S113322000AF786039607868FFF7A6FF0023FB6081
S11332303B681B7883F00103DBB2002B02D07B6870
S113324002225A607B6800225A623B689B781A0605
S11332503B68DB781B041A433B689B799B021A4347
S11332603B68DB791B0213433A68127A13433A68CA
S11332705278002A01D0402200E0002213433A6829
S1133280527A002A01D0802200E0002213433A68D7
S1133290927A002A01D0202200E0002213433A68E7
S11332A0D27A002A01D0102200E0002213433A68A7
S11332B0127B002A01D0082200E000221343FB60A5
S11332C03B681B79002B02D04FF4005200E000222F
S11332D03B685B79002B02D04FF0805300E0002361
S11332E01343FA681343FB607B68FA681A603B680F
S11332F01B78002B02D07B6801225A6000BF103774
S1133300BD4680BD80B483B000AF0346FB7197F91E
S11333100730002B0BDBFB7903F01F02074997F9F9
S113332007305B09012000FA02F241F8232000BFB4
S11333300C37BD465DF8047B704700BF00E100E038
S113334080B485B000AF786039607B6803F10473A2
S1133350DA003B6813449B00FB60FB681B6818465B
S11333601437BD465DF8047B7047000080B483B019
S113337000AF7860044A7B68C2F8243400BF0C377D
S1133380BD465DF8047B70470080084080B483B07C
S113339000AF7860074BD3F828247B68DB430549EA
S11333A01340C1F8283400BF0C37BD465DF8047BD8
S11333B0704700BF0080084080B483B000AF7860DD
S11333C0064BD3F8282405497B681343C1F82834F5
S11333D000BF0C37BD465DF8047B70470080084091
S11333E080B400AF034BD3F81C341846BD465DF8D7
S11333F0047B70470080084080B582B000AF03466C
S11334003960FB71FB79002B16D0FB79012B13D0AB
S1133410FB79022B10D0FB79032B0DD0FB79042B05
S11334200AD0FB79052B07D0FB79062B04D0FB7956
S1133430072B01D0FB79082BFA7913465B00134460
S11334401B011C3303F1804303F508233968184634
S1133450FFF776FF034618460837BD4680BD80B4A3
S113346083B000AF78607B685B6A18460C37BD4652
S11334705DF8047B7047000080B500AF01210D4862
S1133480FDF74AF90023032200210020FEF73EFD48
S11334900023032203210020FEF738FD002303222A
S11334A004210020FEF732FD0320FFF72BFF00BFAD
S11334B080BD00BF00550A0080B500AF0021002088
S11334C0FFF79AFF0346184680BD80B500AF03217D
S11334D00020FFF791FF0346DBB2184680BD80B59C
S11334E000AF04210020FFF787FF0346DBB2184634
S11334F080BD000080B582B000AFFFF771FF786037
S11335007868FFF733FF7B6803F00103002B35D0A5
S11335101C4B1B78002B0CD01B48FFF7A0FF024666
S11335201A4B1A60174B00221A70194B01221A8089
S113353005E0174B1B8801339AB2154B1A80154BC3
S11335401B78002B18D01048FFF789FF0246124B56
S11335501A60114B1A680D4B1B68D31A0C4A128857
S1133560B3FBF2F30D4A13600A4B00221A700B4BA3
S11335701B68184603F024FF02F072F800BF0837F6
S1133580BD4680BD9D00002000A00140A000002099
S1133590A80000209E000020A4000020AC00002011
S11335A080B500AF0120FFF7E1FE0120FFF704FF23
S11335B000BF80BD80B500AF0120FFF7E7FE00BF6C
S11335C080BD000080B400AF034B00221A7000BF1E
S11335D0BD465DF8047B7047F800002080B400AF5E
S11335E0034B1B781846BD465DF8047B704700BF4B
S11335F0F800002080B483B000AF0346FB71044A96
S1133600FB79137000BF0C37BD465DF8047B70472F
S1133610F800002080B500AF1F4B1B78032B39D86E
S113362001A252F823F000BF3936000051360000E1
S11336306336000075360000FFF751FF0346012B87
S113364021D1154B01221A70144804F06FF81AE0C6
S1133650FFF745FF0346002B17D10F4B00221A70CA
S113366013E0FFF73CFF0346002B10D10A4B032263
S11336701A700CE0FFF733FF0346012B09D1064B08
S113368002221A7005E000BF04E000BF02E000BFA0
S113369000E000BF00BF80BDF80000206C90000077
S11336A080B400AF034B00221A7000BFBD465DF822
S11336B0047B7047F900002080B400AF034B1B78F3
S11336C01846BD465DF8047B704700BFF900002032
S11336D080B483B000AF0346FB71044AFB791370D6
S11336E000BF0C37BD465DF8047B7047F90000202D
S11336F080B500AF264B1B78032B46D801A252F8A5
S113370023F000BF15370000473700005937000089
S11337106B370000FFF7D9FE0346012B2ED11D4B5A
S11337201B780133DAB21B4B1A701A4B1B78EF2B40
S113373024D9174B01221A70164B00221A7016480E
S113374003F0F4FF1AE0FFF7C0FE0346002B17D185
S11337500F4B00221A7013E0FFF7B7FE0346002B4D
S113376010D10B4B03221A700CE0FFF7AEFE034698
S1133770012B09D1064B02221A7005E000BF04E0B8
S113378000BF02E000BF00E000BF00BF80BD00BF7B
S1133790F9000020B00000208490000080B582B0C1
S11337A000AF0346FB71FB79032B1BD801A252F82F
S11337B023F000BFC5370000CD370000D537000027
S11337C0DD370000094803F0B1FF0BE0084803F0BF
S11337D0ADFF07E0074803F0A9FF03E0064803F044
S11337E0A5FF00BF00BF0837BD4680BD9C90000008
S11337F0B0900000BC900000C890000080B485B078
S113380000AF786039607B6803F1C063FB60FB68DC
S11338103A681A6000BF1437BD465DF8047B7047F0
S113382080B485B000AF786039607B6803F1806351
S1133830FB60FB683A681A6000BF1437BD465DF848
S1133840047B704780B582B000AF03463960FB71DA
S1133850FB79002B16D0FB79012B13D0FB79022BBB
S113386010D0FB79032B0DD0FB79042B0AD0FB7904
S1133870052B07D0FB79062B04D0FB79072B01D04D
S1133880FB79082BFA7913465B0013441B010C33B4
S113389003F1804303F5082301213A6801FA02F297
S11338A011461846FFF7BCFF00BF0837BD4680BD70
S11338B080B582B000AF03463960FB71FB79002B01
S11338C016D0FB79012B13D0FB79022B10D0FB7996
S11338D0032B0DD0FB79042B0AD0FB79052B07D0E1
S11338E0FB79062B04D0FB79072B01D0FB79082B3D
S11338F0FA7913465B0013441B010C3303F1804334
S113390003F5082301213A6801FA02F21146184628
S1133910FFF774FF00BF0837BD4680BD80B483B095
S113392000AF03463960FB71FB79002B16D0FB799D
S1133930012B13D0FB79022B10D0FB79032B0DD074
S1133940FB79042B0AD0FB79052B07D0FB79062BD6
S113395004D0FB79072B01D0FB79082B01223B68AB
S113396002FA03F30749FA79184613465B00134435
S11339701B010B441833186000BF0C37BD465DF8BB
S1133980047B70470080084080B500AF01211448D3
S1133990FCF7C2FE0023042208210020FEF7B6FA39
S11339A00023042205210320FEF7B0FA0023042299
S11339B006210320FEF7AAFA00230422082103208B
S11339C0FEF7A4FA0023042202210320FEF79EFA44
S11339D00023042203210320FEF798FA00BF80BDD0
S11339E000550A0080B500AF08210020FFF760FFF2
S11339F000BF80BD80B500AF08210020FFF722FF83
S1133A0000BF80BD80B500AF08210020FFF786FF0E
S1133A1000BF80BD80B500AF05210320FFF748FF3C
S1133A2000BF80BD80B500AF05210320FFF70AFF6A
S1133A3000BF80BD80B500AF05210320FFF76EFFF6
S1133A4000BF80BD80B500AF06210320FFF730FF23
S1133A5000BF80BD80B500AF06210320FFF7F2FE52
S1133A6000BF80BD80B500AF06210320FFF756FFDD
S1133A7000BF80BD80B500AF08210320FFF718FF09
S1133A8000BF80BD80B500AF08210320FFF7DAFE38
S1133A9000BF80BD80B500AF08210320FFF73EFFC3
S1133AA000BF80BD80B500AF02210320FFF700FFF7
S1133AB000BF80BD80B500AF02210320FFF7C2FE26
S1133AC000BF80BD80B500AF02210320FFF726FFB1
S1133AD000BF80BD80B500AF03210320FFF7E8FEDF
S1133AE000BF80BD80B500AF03210320FFF7AAFE0D
S1133AF000BF80BD80B500AF03210320FFF70EFF98
S1133B0000BF80BD80B582B000AF124803F04EFA0A
S1133B100023FB7116E0FB790E4A0133002102F801
S1133B203310FB790B4A0133DB00134400225A7033
S1133B30FB79084A0133DB00134400225A60FB7905
S1133B400133FB71FB791D2BE5D900BF0837BD4656
S1133B5080BD00BF9401002080B500AF074B5B79A6
S1133B60002B09D1054B1B79002B05D1034BDB78C6
S1133B70002B01D1FFF7C6FF00BF80BD94010020D8
S1133B80F0B5D1B004AF354803F0D0FD344803F0AC
S1133B90CDFD344B5B791D46324B1B791E46314BB0
S1133BA0DB781A462F4B1B7819462E4B5B781C4644
S1133BB02C4B9B7838460393029401910092334630
S1133BC02A46294904F03CFB3B46184603F0AEFD67
S1133BD0264803F0ABFD264803F0A8FD002387F830
S1133BE02F312DE097F82F311E4A013312F833306C
S1133BF0002B2AD097F82F311A4A013312F83330A8
S1133C00194697F82F31174A0133DB0013445B78C8
S1133C101C4697F82F31134A0133DB0013445B68C9
S1133C203846009323460A46124904F009FB3B46F2
S1133C30184603F07BFD97F82F31013387F82F31B5
S1133C4097F82F311D2BCDD900E000BF074803F0B2
S1133C506DFD00BF07F59A77BD46F0BDD490000016
S1133C60F0900000940100200891000028910000C9
S1133C70409100005891000080B485B000AF034625
S1133C800A46FB711346BB710023FB733CE0FB7BCC
S1133C90224A013312F83330FA799A4215D1FB7B68
S1133CA01E4A0133DB0013445B78BA799A420CD183
S1133CB0FA7B1A49531CDB000B445B68591C1748F8
S1133CC0531CDB000344596021E0FB7B134A01339E
S1133CD012F83330002B14D1FB7B10490133FA79ED
S1133CE001F83320FB7B0D4A0133DB001344BA791E
S1133CF05A70FB7B094A0133DB00134401225A60EA
S1133D0005E0FB7B0133FB73FB7B1D2BBFD900BF9D
S1133D101437BD465DF8047B704700BF9401002052
S1133D20B0B586B000AF6B461D468F233B613B693F
S1133D3008337B617B6903F00303002B04D07B69A8
S1133D4023F0030304337B6178690346013BFB6082
S1133D5001464FF000024FF000034FF00004D4007E
S1133D6044EA5174CB0001464FF000024FF00003C7
S1133D704FF00004D40044EA5174CB00C31DDB08A7
S1133D80DB00ADEB030D6B460033BB60BB687A69A7
S1133D90FF21184604F04BFABB681F4A1A60BB683F
S1133DA004333A691A60BB6808338F221B491846EA
S1133DB004F032FAFEF776FF4FF07E60FFF7B6F8B4
S1133DC00346FB7197F90730002B06D0FEF784FFFA
S1133DD0134803F0ABFC012319E0BB687A69194668
S1133DE04FF07E60FFF73EF90346FB7197F9073009
S1133DF0002B06D0FEF770FF0A4803F097FC02235D
S1133E0005E0FEF769FF084803F090FC0023AD4687
S1133E1018461837BD46B0BD00494354FC00002085
S1133E207091000088910000A091000080B582B0DC
S1133E3000AF4FF07E637B607B681B68104A93423F
S1133E4004D0104803F072FC012315E07B685B6822
S1133E503B603B688F2B04D00B4803F067FC0223C4
S1133E600AE07B6808338F221946084804F0D4F925
S1133E70074803F05BFC002318460837BD4680BDA5
S1133E8000494354BC910000D4910000FC00002080
S1133E90FC91000080B483B000AF654B0F221A7010
S1133EA0634B03225A70624B01229A70604B0222C8
S1133EB0DA705F4B0A221A715D4B0B225A715C4B0C
S1133EC00C229A715A4B0122DA710023FB7107E02C
S1133ED0FB79574A134400221A72FB790133FB71B0
S1133EE0FB790E2BF4D90023FB713EE0FA7950499B
S1133EF013465B0013445B000B44173300221A7013
S1133F00FA794B4913465B0013445B000B441833A6
S1133F1000221A70FA79464913465B0013445B0089
S1133F200B44193300221A70FA79414913465B0095
S1133F3013445B000B441A3300221A70FA793C498B
S1133F4013465B0013445B000B441B3300221A70BE
S1133F50FA79374913465B0013445B000B441C3366
S1133F6000221A70FB790133FB71FB79132BBDD945
S1133F702F4B03229A752E4B0F22DA752C4BFF22FE
S1133F801A762B4BFF225A76294B04229A76284B19
S1133F900222DA76264B02221A77254B0F225A7711
S1133FA0234BFF229A77224B0222DA77204B0822F6
S1133FB083F820201E4B022283F821201C4B02226E
S1133FC083F822201A4B0F2283F82320184B0F2248
S1133FD083F82420164BFF2283F82520144B022259
S1133FE083F82620124B092283F82720104B022243
S1133FF083F828200E4B0F2283F829200C4B002233
S113400083F82A200A4B022283F82B20084B04222F
S113401083F82C20064B042283F82D20044B022223
S113402083F82E2000BF0C37BD465DF8047B704733
S1134030FC00002080B483B000AF0023FB7107E0D4
S1134040FB79084A134400221A72FB790133FB718D
S1134050FB790E2BF4D900BF0C37BD465DF8047B09
S1134060704700BFFC00002080B483B000AF002381
S1134070FB713EE0FA79234913465B0013445B006D
S11340800B44173300221A70FA791E4913465B0059
S113409013445B000B44183300221A70FA7919494F
S11340A013465B0013445B000B44193300221A705F
S11340B0FA79144913465B0013445B000B441A332A
S11340C000221A70FA790F4913465B0013445B000F
S11340D00B441B3300221A70FA790A4913465B0019
S11340E013445B000B441C3300221A70FB79013328
S11340F0FB71FB79132BBDD900BF0C37BD465DF8AE
S1134100047B7047FC00002080B5C0B000AF0023E2
S11341107B6007F10803F6220021184604F087F8B3
S1134120C44803F003FBC44803F000FBC34803F096
S1134130FDFAC34803F0FAFAC24803F0F7FAC24B97
S11341401B781A463B1DC149184604F079F83B1DFB
S1134150184603F0EBFABC4B5B781A463B1DBC498E
S1134160184604F06DF83B1D184603F0DFFAB64B11
S11341709B781A463B1DB749184604F061F83B1D6D
S1134180184603F0D3FAB04BDB781A463B1DB2490C
S1134190184604F055F83B1D184603F0C7FAAA4B1D
S11341A01B791A463B1DAD49184604F049F83B1DDE
S11341B0184603F0BBFAA44B5B791A463B1DA84989
S11341C0184604F03DF83B1D184603F0AFFA9E4B29
S11341D09B791A463B1DA349184604F031F83B1D50
S11341E0184603F0A3FA984BDB791A463B1D9E4907
S11341F0184604F025F83B1D184603F097FA9B482F
S113420003F094FA002387F8FF3010E097F8FF30AA
S11342105A1C3B1D9649184604F012F83B1D1846DB
S113422003F084FA97F8FF30013387F8FF3097F8EA
S1134230FF300E2BEAD98F4803F078FA002387F871
S1134240FF301EE097F8FF307F4A13441B7A002B9F
S11342500FD097F8FF307C4A13441B7A1A463B1D53
S11342608349184603F0ECFF3B1D184603F05EFA41
S113427002E0814803F05AFA97F8FF30013387F8D7
S1134280FF3097F8FF300E2BDCD97C4803F04EFA50
S11342907B4803F04BFA002387F8FF30002387F8AC
S11342A0FF30A9E097F8FF20674913465B001344E9
S11342B05B000B4417331B78002B00F0988097F8B1
S11342C0FF20614913465B0013445B000B44173322
S11342D01B781A463B1D6B49184603F0B1FF3B1D82
S11342E0184603F023FA97F8FF20574913465B005A
S11342F013445B000B4418331B78FF2B03D1624833
S113430003F014FA13E097F8FF204F4913465B00BB
S113431013445B000B4418331B781A463B1D5B495E
S1134320184603F08DFF3B1D184603F0FFF997F87C
S1134330FF20454913465B0013445B000B441933CB
S11343401B78FF2B03D1504803F0F0F913E097F8E2
S1134350FF203D4913465B0013445B000B441933B3
S11343601B781A463B1D4949184603F069FF3B1D5B
S1134370184603F0DBF997F8FF20334913465B0036
S113438013445B000B441A331B781A463B1D404907
S1134390184603F055FF3B1D184603F0C7F997F87C
S11343A0FF20294913465B0013445B000B441B3375
S11343B01B781A463B1D3549184603F041FF3B1D47
S11343C0184603F0B3F997F8FF201F4913465B0022
S11343D013445B000B441C331B781A463B1D2D49C8
S11343E0184603F02DFF3B1D184603F09FF997F87C
S11343F0FF30013387F8FF3097F8FF30132B7FF637
S113440051AF104803F092F9234B1A683B1D23491E
S1134410184603F015FF3B1D184603F087F902F018
S113442055FE084803F082F900BF07F58077BD46C2
S113443080BD00BF18920000509200005C92000002
S1134440609200007C920000FC000020B09200000A
S1134450C4920000D4920000E4920000F4920000A0
S1134460049300001493000024930000349300008C
S11344706C930000749300007C9300008093000010
S1134480B4930000DC930000E8930000F093000074
S1134490F8930000049400009001002010940000A0
S11344A090B48AB000AF0346FB710B46BB71134650
S11344B07B715D4B07F108040FCB84E80F000023E8
S11344C07B6259E059497A6A13465B0013445B00E6
S11344D00B4417331B78FA799A424AD153497A6AC2
S11344E013465B0013445B000B4418331B78FB76C4
S11344F04E497A6A13465B0013445B000B4419333C
S11345001B78BB76FB7EFF2B09D1BB7EFF2B06D12C
S1134510BB68B3F1FF3F2CD17B6ABB6029E0FB7E13
S1134520FF2B0AD1BA7E7B799A4206D1FB68B3F19C
S1134530FF3F1ED17B6AFB601BE0FA7EBB799A4287
S113454009D1BB7EFF2B06D13B69B3F1FF3F10D1EC
S11345507B6A3B610DE0FA7EBB799A4209D1BA7E4F
S11345607B799A4205D17B69B3F1FF3F01D17B6A24
S11345707B617B6A01337B627B6A132BA2DD4FF084
S1134580FF333B620323FB6115E0FB699B0007F1EA
S11345902802134453F8203CB3F1FF3F08D0FB69D1
S11345A09B0007F12802134453F8203C3B6205E0CA
S11345B0FB69013BFB61FB69002BE6DA3B6AB3F163
S11345C0FF3F0AD11A4B00221A70194B00225A706D
S11345D0174B00229A70012321E014493A6A1346CA
S11345E05B0013445B000B441A331A78104B1A70A7
S11345F00E493A6A13465B0013445B000B441B33B9
S11346001A780B4B5A7009493A6A13465B001344F3
S11346105B000B441C331A78054B9A700023184630
S11346202837BD4690BC704724940000FC0000204D
S11346308C01002080B400AFBFF34F8F054BDB68C3
S113464003F4E0620349044B1343CB60BFF34F8F81
S113465000BFFDE700ED00E00400FA0580B500AFFF
S1134660FFF7E8FF00BF80BD80B483B000AF002334
S1134670FB7106E0FB79084A0021D154FB79013330
S1134680FB7197F90730002BF4DA00BF0C37BD46F5
S11346905DF8047B704700BF8C02002090B5CFB05A
S11346A002AF314802F05CFF304B1B7819462F4BA8
S11346B01B78013B2D4A13441B7A1C462B4B1B7958
S11346C01A462A4B5B7938460193009223460A46E0
S11346D0274903F0B5FD3B46184602F041FF234B42
S11346E09B791A46214B5B783846224903F0A8FD92
S11346F03B46184602F034FF1C4B9B781A461B4B72
S1134700DB7838461C4903F09BFD3B46184602F013
S113471027FF1A4802F024FF194802F021FF002362
S113472087F82F3113E097F82F31104A13441B7A7E
S11347301A463B461349184603F082FD3B46184689
S113474002F00EFF97F82F31013387F82F3197F8D5
S11347502F310E2BE7D90C4802F002FF00BF07F5FA
S11347609A77BD4690BD00BF34940000FC00002041
S11347704894000060940000749400008894000041
S113478090940000F4940000FC940000F0B5D1B0C3
S113479004AF3A4802F0E4FE002387F82F315FE0CB
S11347A097F82F21364913465B0013445B000B44F2
S11347B017331B78002B58D097F82F213049134614
S11347C05B0013445B000B4417331B789C4697F83B
S11347D02F212B4913465B0013445B000B44183311
S11347E01B789E4697F82F21254913465B001344F6
S11347F05B000B4419331B781C4697F82F21204982
S113480013465B0013445B000B441A331B781D46AC
S113481097F82F211A4913465B0013445B000B449D
S11348201B331B781E4697F82F21154913465B004E
S113483013445B000B441C331B78384603930296E5
S113484001950094734662460E4903F0F9FC3B4619
S1134850184602F085FE97F82F31013387F82F317F
S113486097F82F31132B9BD900E000BF064802F0C4
S113487077FE00BF07F59A77BD46F0BD209600008D
S1134880FC000020249600004496000080B5CCB0C3
S113489000AF134802F04AFF002387F82F3112E0DB
S11348A097F82F310F4AD35C1A463B460E491846F7
S11348B003F0C6FC3B46184602F038FF97F82F3148
S11348C0013387F82F3197F92F31002BE8DA0748A5
S11348D002F02CFF00BF07F59877BD4680BD00BFEE
S11348E0489600008C020020F494000054960000C6
S11348F080B582B000AF244B1B78332B3FD1224BC1
S11349005B78CC2B3BD1214802F010FF1E4B1A7967
S11349101F4B1A701C4B9A791D4B1A711A4BDA797A
S11349201B4B5A71184B5A7A194B9A71164B9A7A37
S1134930174B5A70144B1A7B154B9A70124B5A7BB7
S1134940134BDA70104B1A7C114BDA71FFF772FBC0
S11349500023FB710CE0FB7903F12902FB790A497E
S1134960895C0B4A13440A461A72FB790133FB71C2
S1134970FB790E2BEFD9074802F0D8FE00E000BF08
S11349800837BD4680BD00BF8C0200205896000049
S1134990FC0000205496000080B5CEB000AF024663
S11349A0FB1D1A70FB1D1B78002B00F0A380FB1D60
S11349B01B78142B00F29E80514802F0B7FEFB1DB9
S11349C01A7807F108034F49184603F039FC07F138
S11349D00803184602F0AAFEFFF746FB002387F8F7
S11349E037317CE097F8372113465B0013445B00B2
S11349F0194697F83721444B585C444913465B00E9
S1134A0013445B000B44173302461A7097F837219E
S1134A1013465B0013445B00013397F837213A498E
S1134A20C85C3A4913465B0013445B000B441833DB
S1134A3002461A7097F8372113465B0013445B0053
S1134A40023397F837213049C85C304913465B007C
S1134A5013445B000B44193302461A7097F837214C
S1134A6013465B0013445B00033397F83721264950
S1134A70C85C264913465B0013445B000B441A339D
S1134A8002461A7097F8372113465B0013445B0003
S1134A90043397F837211C49C85C1C4913465B0052
S1134AA013445B000B441B3302461A7097F83721FA
S1134AB013465B0013445B00053397F83721124912
S1134AC0C85C124913465B0013445B000B441C335F
S1134AD002461A7097F83731013387F83731FB1DD6
S1134AE097F837211B789A42FFF47CAF084802F00C
S1134AF01DFE00E000BF07F59C77BD4680BD00BFEA
S1134B006C960000809600008C020020FC000020BF
S1134B108896000080B5B8B000AF0346FB71C54A63
S1134B2007F10C0392E80300186004331980C24BA8
S1134B301B780C2B00F2E78201A252F823F000BF8D
S1134B40754B0000854B00006B4F00008D4F00003B
S1134B50D14F00007B500000AF500000CD4D00004D
S1134B60E94D0000F94D0000094E0000194E000007
S1134B70814E0000FB793F2B40F0C982AE4B0122ED
S1134B801A70C4E2FB79303B202B00F2178101A29A
S1134B9052F823F0194C0000BD4D0000274C0000D2
S1134BA0C14C0000D54C0000BD4D0000854D0000F7
S1134BB0BD4D0000BD4D0000BD4D0000BD4D0000C9
S1134BC0BD4D0000BD4D0000BD4D0000BD4D0000B9
S1134BD0BD4D0000BD4D0000BD4D0000BD4D0000A9
S1134BE0BD4D0000BD4D0000BD4D0000BD4D000099
S1134BF0BD4D0000BD4D0000BD4D0000BD4D000089
S1134C00BD4D0000BD4D0000BD4D0000BD4D000078
S1134C10BD4D0000B54D0000884802F0A1FC864B54
S1134C2000221A70D1E0864B1B78052B00F2CA8053
S1134C3001A252F823F000BF514C0000594C00006F
S1134C40614C0000694C0000714C00009B4C00005A
S1134C507C4802F085FC32E07A4802F081FC2EE0C8
S1134C60794802F07DFC2AE0774802F079FC26E0DE
S1134C70764802F075FC764B93F8893219467548EC
S1134C80FDF7EEF9724B93F88D3219467148FDF732
S1134C90E7F96B4B05221A7011E06C4802F060FCD6
S1134CA06B4B93F8893219466A48FDF7D9F9684B7A
S1134CB093F88D3219466748FDF7D2F900BF81E0B9
S1134CC0654802F04DFC5E4B01221A705A4B0722D4
S1134CD01A707AE05A4B1B78052B75D15C4B93F80C
S1134CE084321A4607F114035C49184603F0A8FA03
S1134CF007F11403184602F033FC002387F8DF3071
S1134D0029E0002387F8DE3019E097F8DF30504AB5
S1134D1052F8232097F8DE304FF0004121FA03F3D4
S1134D201340002B03D14E4802F01AFC02E04D4818
S1134D3002F016FC97F8DE30013387F8DE3097F87E
S1134D40DE30142BE1D9484802F00AFC97F8DF3032
S1134D50013387F8DF303E4B93F8803297F8DF2039
S1134D609A42CED33A4B93F880321A4607F1140391
S1134D703E49184603F064FA07F11403184602F09A
S1134D80EFFB21E03A4B1B781946394B1B78013B6A
S1134D90374A13441B7A07F114000A46354903F0D5
S1134DA04FFA07F11403184602F0DAFB224B0022F3
S1134DB01A700AE0204B02221A7006E01E4B0022F1
S1134DC01A7002E000BFA7E100BFA5E1204AFB7909
S1134DD082F88432FB791B01DAB21D4B83F88022FE
S1134DE0154B08221A7097E1194AFB7982F8893227
S1134DF0114B09221A708FE1154AFB7982F881322E
S1134E000D4B0A221A7087E1114AFB7982F8863227
S1134E10094B0B221A707FE10D4AFB7982F88B3221
S1134E20154B00221A60154B00221A60024B0C220B
S1134E301A7071E10C980000B400002090960000F4
S1134E40E000002094960000A0960000A8960000C0
S1134E500C03002000400140AC960000B496000012
S1134E60C0960000C4960000C8960000CC960000CE
S1134E70FC000020D4960000B8000020BC000020F4
S1134E80FB79452B2AD1A64B93F884321A464FF46A
S1134E90A87303FB02F31A46A24B1B689A4209D17A
S1134EA0A14802F05DFBA14802F040FCA04B0222A5
S1134EB01A700FE09F4802F053FB9A4B1A6807F1EF
S1134EC014039D49184603F0BBF907F1140318466F
S1134ED002F02CFC994B00221A7039E0914B1B68AC
S1134EE00133904A1360964B1B685B00944A13602D
S1134EF0FB79312B04D1924B1B680133904A136028
S1134F00884B19688F4BA3FB0123CA1A5208134418
S1134F101A0913465B001344DA00D21A8A1A002ACB
S1134F2016D1874B1B68DB02854A13607D4B1A68D8
S1134F30844BA3FB0213D21A520813441B09013BEE
S1134F407F4A1268764941F823207D4B00221A607B
S1134F50744B1B68B3F5526F40F2DB807A4802F061
S1134F60E5FB764B00221A70D3E0FB79432B09D181
S1134F70764802F0F5FA714B03221A70694B00224D
S1134F801A60C9E06D4B00221A70C5E0654B1B68BE
S1134F9007F1E002134413F8D43CFA799A4210D191
S1134FA0604B1B6801335F4A13605E4B1B68052B23
S1134FB040F0B180664802F0D3FA604B04221A70C4
S1134FC0A9E05C4802F0CCFA5C4B00221A70A2E023
S1134FD0FB79652B0DD0652B04DC212B2DD03F2BC9
S1134FE034D037E0792B1CD07A2B0ED0702B06D01E
S1134FF030E0FFF753FB514B04221A7039E0FFF7FE
S1135000C5FB4E4B04221A7033E0524802F0A8FA52
S1135010444B00221A60FFF727FB484B05221A7005
S113502027E04D4802F09CFA3E4B00221A60FFF73D
S11350301BFB424B06221A701BE0484802F090FA10
S11350403E4B00221A70FFF709FB12E03B4B012292
S11350501A700EE0424802F083FAFB79194641487F
S1135060FCF7FEFF404802F07BFA404802F078FA71
S113507000BF3F4802F074FA4EE02A4B1B687F2BB6
S11350800AD8284B1B683B49FA79CA54254B1B683C
S11350900133244A13603FE0FFF7F8FBFFF728FCD5
S11350A0334802F05DFA254B04221A7034E0FB7990
S11350B0802B03D01B4B1B687A2B19D9194B1B6807
S11350C02C49FA79CA542C4802F04AFAFFF7DEFB5D
S11350D0144B1B68294AA2FB03239B08DBB2184626
S11350E0FFF75AFCFEF71CFE144B04221A7013E05F
S11350F00C4B1B681F49FA79CA540A4B1B680133CD
S1135100084A136008E00D4B00221A7004E000BF47
S113511002E000BF00E000BF00BFE037BD4680BD35
S11351200C030020B8000020DC960000E09600008C
S1135130E0000020FC96000004970000B40000206A
S1135140BC000020876118863C9700006C97000023
S113515098970000A0970000A4970000C89700004B
S1135160D097000000400140D4970000D897000079
S1135170E89700008C020020F0970000ABAAAAAACE
S113518080B483B000AF78607B680D4A93420BD043
S11351907B680C4A934207D07B680B4A934203D046
S11351A07B680A4A934202D14FF0FF3301E04FF685
S11351B0FF7318460C37BD465DF8047B704700BF8B
S11351C000A0014000A4014000A8014000AC01403F
S11351D080B582B000AF786039607868FFF7D0FF9F
S11351E07B683A685A6200BF0837BD4680BD80B408
S11351F085B000AF786039607B6803F1C063FB6001
S1135200FB683A681A6000BF1437BD465DF8047B3A
S1135210704780B485B000AF786039607B6803F173
S11352208063FB60FB683A681A6000BF1437BD46B0
S11352305DF8047B7047000080B483B000AF7860F1
S1135240044A7B68C2F8243400BF0C37BD465DF8BD
S1135250047B70470080084080B582B000AF0346ED
S11352603960FB71FB79002B16D0FB79012B13D02D
S1135270FB79022B10D0FB79032B0DD0FB79042B87
S11352800AD0FB79052B07D0FB79062B04D0FB79D8
S1135290072B01D0FB79082BFA7913465B001344E2
S11352A01B010C3303F1804303F5082301213A6801
S11352B001FA02F211461846FFF7ABFF00BF0837A8
S11352C0BD4680BD80B582B000AF03463960FB7136
S11352D0FB79002B16D0FB79012B13D0FB79022B21
S11352E010D0FB79032B0DD0FB79042B0AD0FB796A
S11352F0052B07D0FB79062B04D0FB79072B01D0B3
S1135300FB79082BFA7913465B0013441B010C3319
S113531003F1804303F5082301213A6801FA02F2FC
S113532011461846FFF763FF00BF0837BD4680BD2E
S113533080B483B000AF03463960FB71FB79002B66
S113534016D0FB79012B13D0FB79022B10D0FB79FB
S1135350032B0DD0FB79042B0AD0FB79052B07D046
S1135360FB79062B04D0FB79072B01D0FB79082BA2
S113537001223B6802FA03F30749FA7918461346F7
S11353805B0013441B010B441833186000BF0C3737
S1135390BD465DF8047B70470080084080B485B04A
S11353A000AF78600B46FB70FB78002B02D0FB78D3
S11353B0202B01D900230DE0FB78013BFB73FB7B21
S11353C07A6822FA03F303F00103002B01D00123CE
S11353D000E0002318461437BD465DF8047B70478F
S11353E080B487B000AF78607B6823F001037B61F1
S11353F0124BFB6000233B6113E03B69C3F11F03C5
S11354007A6922FA03F303F00103002B06D0FA6849
S11354103B6922FA03F37A6953407B613B690133A8
S11354203B613B69142BE8DD7A6940F2FE7313405B
S113543018461C37BD465DF8047B7047000020ED1C
S113544080B485B000AF78600023FB600023BB60AC
S11354500DE07A68BB6822FA03F303F00103002B22
S113546002D0FB680133FB60BB680133BB60BB68DF
S11354701F2BEEDDFB6803F00103002B0CBF01239F
S11354800023DBB218461437BD465DF8047B704731
S113549080B584B000AF786039603B6800221A7030
S11354A07868FFF79DFF0346002B07D17868FFF764
S11354B0C7FF0346002B01D07B6821E00023FB607B
S11354C01AE00122FB6802FA03F37A685340BB60D6
S11354D0B868FFF785FF0346002B0AD1B868FFF7C9
S11354E0AFFF0346002B04D03B6801221A70BB684F
S11354F006E0FB680133FB60FB681F2BE1DD7B6882
S113550018461037BD4680BD80B48DB000AF7860BA
S11355107B68002B63D040F269737B610023FB62DC
S113552055E07B68FA6A53F822303B613B692F4AA5
S1135530934248D03B69DB0AFB60FB689B02BB6279
S113554014237B6211E07B6A0A3301229A40BB6A0E
S11355501340002B06D07A697B6A02FA03F3BA6A15
S11355605340BB627B6A013B7B627B6A002BEADAB5
S1135570FB68DA02BB6A590040F2FE730B40134326
S11355803B623B6AFB610023FB760CE0FB695BB288
S113559003F001035AB297F91B3053405BB2FB7618
S11355A0FB695B08FB61FB69002BEFD1FB7E002BE1
S11355B003D03B6A43F001033B627B68FA6A396AB1
S11355C043F8221000E000BFFB6A0133FB627B68F2
S11355D093F880321A46FB6A9342A2DB00E000BFD4
S11355E03437BD465DF8047B704700BF97C1897AA4
S11355F080B582B002AF144B00221A70134B002204
S113560083F88022124B00221A70124B00221A6077
S1135610114B00221A70114B00221A7001230193BE
S1135620012300930123002200210020FCF7D4FB76
S11356300120FFF701FEFDF7B3FF01F069FE01F061
S113564091FE00BFBD4680BDC0000020340800208C
S1135650D1000020C40000209D0000209E000020F6
S113566080B400AF044BDB69034A5B08536200BF9C
S1135670BD465DF8047B70470084014080B500AFEF
S1135680084B00221A7002210020FFF71BFEFEF7D0
S1135690C9F9FEF7DFF9FFF7ABFF034B00221A70DD
S11356A000BF80BDD1000020C000002080B582B0C2
S11356B000AF0346FB71FB79012B0BD101210020C4
S11356C0FFF700FE0B4B1B78012B0ED10A4802F0AA
S11356D02DF80AE001210020FFF7BEFD054B1B78E1
S11356E0012B02D1054802F021F800BF0837BD465E
S11356F080BD00BF1000002014980000189800001E
S113570080B500AF5F4B1B78032B00F2B98001A278
S113571052F823F073580000255700006D5700001D
S1135720BF570000584B1B889BB201339AB2564BAB
S11357301A8001210020FFF7FBFD534B1B889BB20D
S1135740B3F5107F40F097804F4B00221A804F4BE7
S113575000221A804B4B02221A704D4B1B78012BEE
S113576040F089804B4801F0E1FF84E0464B1B8800
S11357709BB201339AB2444B1A80434B1B889BB2B1
S1135780DBB2C3F12103DBB219464348FFF706FE3F
S113579003461846FFF78AFF3B4B1B889BB2202B1E
S11357A06BD1394B00221A80364B03221A70384BC6
S11357B01B78012B61D1374801F0B8FF5DE0324B13
S11357C01B889BB201339AB22F4B1A802F4B1B8834
S11357D09BB21A46314B53F822202B4B1B889BB2A9
S11357E0DBB2C3F12103DBB219461046FFF7D6FD45
S11357F003461846FFF75AFF234B1B889BB2202B06
S11358003DD1214B00221A80204B1B889BB20133CF
S11358109AB21E4B1A801E4B1B78012B02D11D48D5
S113582001F084FF1D4B93F880329AB2174B1B880A
S11358309BB29A4207D8FFF721FF194801F076FF7F
S113584001F044FC1BE0114B1B889BB203F00F03D7
S11358509BB2002B13D10C4B00221A80094B02225D
S11358601A700B4B1B78012B09D10A4801F05EFF1B
S113587005E000BF04E000BF02E000BF00E000BF9D
S113588000BF80BDD1000020D2000020D400002041
S1135890100000201C980000D815D27CA005002020
S11358A02098000080B582B000AFFDF705FE0346E6
S11358B0002B14BF01230023DBB2FB717B4B1B685D
S11358C05A00FB791343794A1360794B1B78DBB296
S11358D0052B00F2E88001A252F823F0F5580000ED
S11358E03959000073590000C5590000A75A000037
S11358F0915A0000FEF786F86C4B1B68B3F1AA3F7F
S113590005D06A4B1B68B3F1553F40F0C580684B26
S113591001221A7001F06EFD664B00221A800021EC
S11359206548FFF755FC654B00221A80644B012241
S11359301A70FEF757F8AFE05E4B1B889BB2013339
S11359409AB25C4B1A80594B1B68B3F1AA3F00F022
S1135950A580564B1B68B3F1553F00F09F80544B14
S113596002221A70574B01221A70524B00221A80DD
S113597094E04E4B1B68544A93420FD14C4B032284
S11359801A704C4B00221A80504B01221A70504B53
S1135990002283F88022FDF70DFE81E0454B1B8831
S11359A09BB201339AB2434B1A80424B1B889BB281
S11359B01F2B75D901F01EFDFDF7F2FD3C4B0022B3
S11359C01A706DE03B4B1B889BB201339AB2394B82
S11359D01A803E4B1B78002B09D1364B1B889BB297
S11359E0012B04D1FDF7DCFD3A4B00225A62374B00
S11359F01B78002B06D12F4B1B889BB2022B01D1A5
S1135A00FDF7D8FD2B4B1B889BB21F2B4AD9294B82
S1135A1000221A802D4B1B78002B0CD1234B1B68C2
S1135A20294A93421AD0224B04221A7001F0E2FC54
S1135A30FDF7B6FD37E0264B93F880329F2B0DD847
S1135A40234B93F880325A1CD1B2214A82F8801237
S1135A501946164B1B681E4A42F821301B4B1B7813
S1135A600133DAB2194B1A70184B1B78102B02D978
S1135A70164B00221A70164B93F880329F2B11D9C3
S1135A800B4B04221A7001F0B5FCFDF789FD09E007
S1135A90FFF736FE00BF06E000BF04E000BF02E0EF
S1135AA000BF00E000BF0837BD4680BDC400002031
S1135AB0C0000020C800002000A00140A800002071
S1135AC09D0000209E000020D815D27CE10000201B
S1135AD0340800200084014080B500AF1C4801F068
S1135AE025FE1C4B1B78DBB2052B27D801A252F8EC
S1135AF023F000BF0D5B0000155B00001D5B000080
S1135B00255B00002D5B0000355B0000124801F0AE
S1135B100DFE17E0114801F009FE13E0104801F0F2
S1135B2005FE0FE00F4801F001FE0BE00E4801F006
S1135B30FDFD07E00D4801F0F9FD03E00C4801F01C
S1135B40F5FD00BF0B4801F0F1FD00BF80BD00BFB3
S1135B5034980000C00000204098000050980000D5
S1135B6060980000709800008098000090980000F1
S1135B70A4980000AC98000080B588B000AF7860AD
S1135B8039607B68DB0AC3F313033B610023FB61C9
S1135B9060E0344B1B685B00324A1360FB69C3F15D
S1135BA013033A6922FA03F303F00103002B05D02F
S1135BB02C4B1B6843F001032A4A13602A4B1B78C1
S1135BC00133DAB2284B1A70274B1B78072B3ED1CE
S1135BD00023FB7600237B6118E001227B6902FA33
S1135BE003F31A461F4B1B681340002B0BD07B6931
S1135BF0C3F10603012202FA03F35AB297F91B30E8
S1135C0013435BB2FB767B6901337B617B69062BB3
S1135C10E3DDFB7E1F2B14D9FB7E7E2B11D8386865
S1135C2002F02EFBF860FB68772B0AD83A68FB6811
S1135C301344FA7E1A70FB6801333A681344002255
S1135C401A70084B00221A60074B00221A70FB6975
S1135C500133FB61FB69132B9BDD00BF2037BD467D
S1135C6080BD00BFCC000020D000002080B483B0F1
S1135C7000AF78607B68002B78D07B689B681B0C36
S1135C80DBB203F01F03DAB27B6883F886227B68F9
S1135C905B685B0EDBB203F03F03DAB27B6883F828
S1135CA084227B681B681B0EDBB203F00F03DAB29D
S1135CB07B6883F885227B681B681B0CDBB203F0CE
S1135CC01F03DAB27B6883F887227B689B689B0E8C
S1135CD0DBB203F01F03DAB27B6883F888227B68A7
S1135CE01B681B0BDBB203F00F03DAB27B6883F88B
