S01600003378554152545F6F6E5F51465036342E7333370B
S1130000000008201D2700004927000049270000A0
S1130010492700004927000049270000492700001C
S1130020492700004927000049270000492700000C
S113003049270000482700004927000049270000FD
S1130040492700004927000049270000092E000025
S1130050492700008D4B0000ED53000049270000A4
S113006049270000492700004927000049270000CC
S113007049270000492700009D4D00004927000042
S113008049270000492700004927000049270000AC
S113009049270000914F000049270000A9510000A2
S11300A0492700004927000049270000492700008C
S11300B0492700004927000049270000492700007C
S11300C0492700004927000049270000492700006C
S11300D0492700004927000049270000492700005C
S11300E0492700004927000049270000492700004C
S11300F0492700004927000049270000492700003C
S1130100492700004927000049270000492700002B
S1130110492700004927000049270000492700001B
S1130120492700004927000049270000492700000B
S113013049270000492700004927000049270000FB
S113014049270000492700004927000049270000EB
S113015010B5054C237833B9044B13B10448AFF3FD
S113016000800123237010BD7C00002000000000EB
S11301709C69000008B5034B1BB103490348AFF366
S1130180008008BD00000000800000209C69000081
S1130190154B002B08BF134B9D46A3F5803A002155
S11301A08B460F461348144A121A05F084FB0F4B72
S11301B0002B00D098470E4B002B00D0984700200E
S11301C0002104000D000D48002802D00C48AFF3B4
S11301D0008005F041FB2000290002F0E5F805F05D
S11301E027FB00BF000008000000082000000000FA
S11301F0000000007C0000206009002000000000D6
S11302000000000080B487B000AFF860B9607A6085
S1130210FB6803F10473DA00BB6813449B007B6141
S11302207B697A681A6000BF1C37BD465DF8047BA1
S1130230704780B485B000AF786039607B6803F1A3
S11302400473DA003B6813449B00FB60FB681B6883
S113025018461437BD465DF8047B704780B485B0FA
S113026000AF786039607B6803F1C063FB60FB68B2
S11302703A681A6000BF1437BD465DF8047B7047C6
S113028080B485B000AF786039607B6803F1806327
S1130290FB60FB683A681A6000BF1437BD465DF81E
S11302A0047B704780B483B000AF786001227B6820
S11302B002FA03F318460C37BD465DF8047B704719
S11302C080B485B000AF78607B68002B03D07B6876
S11302D0B3F5004F00BF7B68B3FA83F3DBB2C3F11D
S11302E01F03FB60FB6818461437BD465DF8047BAA
S11302F0704780B584B000AF78607B680133B3FA8F
S113030083F3DBB2C3F11F03FB60F868FFF7CAFF96
S1130310FB6818461037BD4680BD000080B400AFAE
S1130320064B1B6803F04003002B01D1012300E0BE
S113033000231846BD465DF8047B70473C300E40F0
S113034080B500AFFFF7EAFF034683F00103DBB299
S1130350002B08D100BF12210448FFF76AFF0346AF
S1130360002BF8D100E000BF80BD00BF04300E4078
S113037080B500AFFFF7E4FF034B5B681B0C03F091
S11303800303DBB2184680BD00300E4080B584B054
S113039000AF78600123FB607B68124A934204D863
S11303A00023FB600023BB6008E07B680E4A934295
S11303B002D80123BB6001E00223BB60FA6810216C
S11303C00A48FFF71FFF094BD3F8003123F04072AE
S11303D0BB681B0605491343C1F8003100BF103741
S11303E0BD4680BD0048E8010090D00300400E40A7
S11303F080B485B000AF786039604FF080435B68AB
S113040003F04073FB600023BB6012E01B4ABB682F
S1130410DB0013441A793B68DBB29A4206D1174ACF
S1130420BB6852F833307A689A4206D9BB68013304
S1130430BB60BB68062BE9D900E000BFBB68072B93
S113044002D10323FB6005E00C4ABB68DB001344C4
S11304505B79FB60FB681B06FB604FF080435B68C5
S113046023F040724FF08041FB6813434B6000BFA0
S11304701437BD465DF8047B704700BF2C63000051
S113048080B582B000AF4FF080431B6C002B14BFCB
S113049001230023FB714FF0804341F671321A644B
S11304A002F074F9034600211846FFF7A1FFFB7917
S11304B0002B03D04FF0804300221A6400BF08379A
S11304C0BD4680BD80B584B000AF786039600C4B08
S11304D0FB603B68022B01D10A4BFB607A68FB6826
S11304E09A4204D908490948FFF7B8FE03E00649CF
S11304F00648FFF7C5FE00BF1037BD4680BD00BFEC
S113050080D543020024F4000202020000010040EE
S113051080B582B000AF786039607B680B4A934243
S113052009D93B68002B06D14FF480514FF080402D
S1130530FFF794FE05E04FF480514FF08040FFF741
S11305409FFE00BF0837BD4680BD00BF80F0FA02A1
S113055080B584B000AF786039604FF080431B6C85
S1130560002B14BF01230023FB734FF0804341F69B
S113057071321A6439687868FFF73AFF3968786825
S1130580FFF7A0FF39687868FFF7C2FFFB7B002BF9
S113059003D04FF0804300221A6400BF1037BD46D9
S11305A080BD000080B400AF044B5B6A1B0903F0FC
S11305B003031846BD465DF8047B704700400E40B7
S11305C080B483B000AF7860074B5B6A23F03002DD
S11305D07B681B01044913434B6200BF0C37BD46C3
S11305E05DF8047B704700BF00400E4080B483B0C8
S11305F000AF78600A4BD3F8443103F00103002BB9
S113060008D100BF064BD3F840217B681340002B70
S1130610F8D100E000BF0C37BD465DF8047B70479D
S113062000400E4080B500AF0321064800F01CF9DD
S11306300321054800F018F90321044800F014F9D7
S113064000BF80BD404105005041070060410900E2
S113065080B582B000AF02F0A3F83860FFF788FEDF
S11306600346022B1AD13A68224B1344224AA2FBB6
S11306700323DB0D7B607B68002B02D07B68013B8E
S11306807B6079681D4800F0EFF879681C4800F039
S1130690EBF879681B4800F0E7F827E03A681A4B52
S11306A013441A4AA2FB03231B0E7B607B68002BB6
S11306B002D07B68013B7B607968104800F0D4F875
S11306C07968104800F0D0F83A68114B1344114A85
S11306D0A2FB03239B0E7B607B68002B02D07B680C
S11306E0013B7B607968064800F0BEF800BF08371C
S11306F0BD4680BDFF2C31016BCA5F6B40410500D4
S113070050410700604109007FF0FA02893BE65539
S1130710FFA14A04B5FA9BEE80B586B000AF7860BD
S11307200B46FB7000233B617B681B0A03F00F033D
S1130730013B0E2B7CD801A252F823F0790700006C
S11307408507000031080000310800007F07000021
S1130750910700009B070000A5070000B1070000F7
S113076007080000BD070000DF0700003108000093
S11307708B070000010800002F4B7B6146E02F4BE4
S11307807B6143E02E4B7B6140E02E4B7B613DE07F
S11307902D4B7B6101233B6138E02C4B7B611023A3
S11307A03B6133E02A4B7B614FF480733B612DE066
S11307B0284B7B614FF480333B6127E0264B7B6100
S11307C0FB78002B14BF01230023DBB283F0010369
S11307D0DBB2FB70FB7803F00103FB7016E01F4BE8
S11307E07B61FB78002B14BF01230023DBB283F071
S11307F00103DBB2FB70FB7803F00103FB7005E03F
S1130800174B7B6102E0174B7B6100BF7B681B0BBE
S113081003F01F03FB603B69002B02D03869FFF72C
S1130820E5FEFB781A46F9687869FFF7EBFC00E00F
S113083000BF1837BD4680BD00400E40B0400E409A
S1130840C0400E40C4400E40E0400E40E8400E4020
S1130850EC400E40F0400E4060410E4064410E40BA
S1130860F0410E4050410E4080B584B000AF786036
S113087039607B681B0903F00F03FB60FB68013BD5
S11308800B2B00F2D58101A252F823F0BD08000021
S1130890070900001F0900003F0900005B09000070
S11308A07709000093090000C7090000D90A000075
S11308B0710B00009B0B0000150C0000FFF7E0FD1E
S11308C0BA48FFF763FDFFF7ADFEB94BD3F800312B
S11308D023F4F8523B681B02B5491343C1F80031B5
S11308E001F034FFB860FFF743FD03461946B868CA
S11308F0FFF72EFE01F054FF03461846FFF746FDAE
S1130900FFF7A6FE95E1AA4BD3F8143123F4F8526D
S11309103B681B02A6491343C1F8143189E13868C6
S1130920FFF7CEFC3860A24BD3F8003123F04072BD
S11309303B681B069E491343C1F8003179E19C4B87
S1130940D3F80C3123F4FF3323F480733A68120292
S113095097491343C1F80C316BE1954BD3F8183127
S113096023F4FF3323F480733A681202904913434B
S1130970C1F818315DE18E4BD3F81C3123F4FF33F9
S113098023F480733A68120289491343C1F81C3175
S11309904FE1FFF775FD864BD3F8083123F4FF339D
S11309A023F480733A68120281491343C1F8083171
S11309B001F0CCFEB860FFF7DBFC03461946B868CB
S11309C0FFF7C6FD35E17B687A4A93424AD0794AFB
S11309D0934209D8784A934223D0784A93422FD03D
S11309E0774A93420AD076E0764A934260D0764AB8
S11309F093424AD0754A93425AD06CE03868FFF764
S1130A0078FC38600420FFF7F1FD694BD3F82031FE
S1130A1023F470223B681B0465491343C1F8203159
S1130A2059E04FF48020FFF7E1FD614BD3F83031FA
S1130A3023F003025E493B681343C1F830314AE0B6
S1130A403868FFF756FC38600420FFF7CFFD584B99
S1130A50D3F8203123F00F0255493B681343C1F802
S1130A60203138E03868FFF744FC38600420FFF791
S1130A70BDFD4F4BD3F8203123F0F0023B681B013E
S1130A804B491343C1F8203125E03868FFF731FCA6
S1130A9038600420FFF7AAFD454BD3F8203123F436
S1130AA040723B681B0242491343C1F8203112E0F3
S1130AB03868FFF71EFC38600420FFF797FD3C4BB5
S1130AC0D3F8203123F4E0423B681B033849134335
S1130AD0C1F8203100BFACE07B683D4A934218D096
S1130AE03C4A934228D03C4A934200D03FE03868C5
S1130AF0FFF7FFFB38604020FFF778FD2C4BD3F85D
S1130B00283123F003022A493B681343C1F82831F2
S1130B102DE03868FFF7EDFB38604020FFF766FDF5
S1130B20234BD3F8283123F030023B681B012049C2
S1130B301343C1F828311AE03B687F2B02D83B6885
S1130B400E2B00BF3868FFF7D4FB0346043B3B6021
S1130B504020FFF74BFD164BD3F8283123F44052C5
S1130B603B681B0312491343C1F8283100BF60E0FE
S1130B707B68114A934200D00EE04FF48020FFF7C7
S1130B8035FD0B4BD3F8303123F0030208493B68A1
S1130B901343C1F8303100BF4BE07B680F4A9342E6
S1130BA020D00F4A934228D033E000BF0148E80127
S1130BB000400E4080161800A0091400800616009C
S1130BC08046120000362C0080262E0080002A0069
S1130BD090171C009037300090071A00B8003200BC
S1130BE0B9003400154BD3F85C3123F003021349E8
S1130BF03B681343C1F85C310BE0104BD3F85C3114
S1130C0023F440323B681B040C491343C1F85C31A4
S1130C1000BF0EE0094BD3F8043123F4FF3323F46F
S1130C2080733A68120205491343C1F8043100E0A5
S1130C3000BF00BF1037BD4680BD00BF00400E405E
S1130C4080B485B000AF78600123FB737B6803F048
S1130C500F03BB60BB68013B0B2B00F2748101A244
S1130C6052F823F0950C0000F10C0000210D000057
S1130C70990D0000690D0000C90D0000470F000028
S1130C80ED0D00002F0E0000730E0000B30E0000E7
S1130C90F30E0000B34BD3F8943003F00703023B88
S1130CA0052B21D801A252F823F000BFD10C00007B
S1130CB0CB0C0000C50C0000D70C0000E30C0000B6
S1130CC0DD0C00000223FB7311E00323FB730EE031
S1130CD00423FB730BE00D23FB7308E00E23FB736B
S1130CE005E00A23FB7302E00523FB7300BF32E136
S1130CF09C4BD3F8803003F00703022B06D0042B5F
S1130D0007D0012B08D10323FB7308E00223FB73F4
S1130D1005E00C23FB7302E00123FB7300BF1AE11F
S1130D20904BD3F8843003F00703013B032B17D80F
S1130D3001A252F823F000BF490D00004F0D00003E
S1130D405B0D0000550D00000323FB730BE0022331
S1130D50FB7308E00C23FB7305E00623FB7302E03E
S1130D600123FB7300BFF6E07E4BD3F8883003F019
S1130D700703022B06D0042B07D0012B08D1032331
S1130D80FB7308E00223FB7305E00C23FB7302E012
S1130D900123FB7300BFDEE0724BD3F88C3003F009
S1130DA00703022B06D0042B07D0012B08D1032301
S1130DB0FB7308E00223FB7305E00C23FB7302E0E2
S1130DC00123FB7300BFC6E0664B1B6F03F00303F4
S1130DD0002B04D0012B05D10923FB7305E0072365
S1130DE0FB7302E00123FB7300BFB4E05D4BD3F857
S1130DF05C3103F03003102B0CD0102B02D8002BE5
S1130E0005D010E0202B08D0302B09D00BE00123B3
S1130E10FB730BE00723FB7308E00423FB7305E07B
S1130E200823FB7302E00123FB7300BF93E04D4BE7
S1130E30D3F85C3103F44013B3F5801F0FD0B3F53E
S1130E40801F02D8002B07D085E0B3F5001F09D01E
S1130E50B3F5401F09D07EE00123FB7308E00723AC
S1130E60FB7305E00423FB7302E00823FB7300BF5C
S1130E7071E03C4BD3F8603103F00303032B65D8D6
S1130E8001A252F823F000BF990E00009F0E00004B
S1130E90A50E0000AB0E00000523FB7308E004233D
S1130EA0FB7305E00723FB7302E00A23FB7300BF17
S1130EB04CE02C4BD3F8643103F00303032B47D8E5
S1130EC001A252F823F000BFD90E0000DF0E00008B
S1130ED0E50E0000EB0E00000523FB7308E004237D
S1130EE0FB7305E00723FB7302E00A23FB7300BFD7
S1130EF02EE01C4BD3F8F03103F00703052B29D85F
S1130F0001A252F823F000BF210F0000270F0000B8
S1130F102D0F0000330F0000390F00003F0F0000B9
S1130F200A23FB730EE00423FB730BE00B23FB7318
S1130F3008E00523FB7305E00223FB7302E00323AF
S1130F40FB7300BF06E00023FB7304E000BF02E074
S1130F5000BF00E000BFFB7B18461437BD465DF8B8
S1130F60047B704700400E4080B58AB000AF7860C3
S1130F700B46FB7003237B62032387F82330002393
S1130F80BB6100237B617B68112B19D1FB78042B97
S1130F9003D101F07FFC78610BE0FB78052B08D1CD
S1130FA000F028FC0246C44B9A4202D900F022FC0D
S1130FB078617B69002B03D00021786901F0ECFC97
S1130FC07B6803F00F033B613B69013B0B2B00F291
S1130FD0748201A252F823F0091000000F110000DE
S1130FE02F1100001311000021110000CD11000089
S1130FF0BB140000EB11000061120000F7120000A6
S11310007B130000FF130000FB78023B0C2B00F263
S1131010568201A252F823F04D100000591000002E
S11310206510000077100000BF140000BF1400001A
S1131030BF140000BF140000A1100000BF14000082
S1131040BF140000891000009510000004237B6287
S1131050002387F8233029E003237B62012387F8E8
S1131060233023E002237B62022387F82330934852
S1131070FFF78CF91AE001237B62032387F82330FE
S11310808E48FFF783F911E005237B62032387F879
S113109023300BE007237B62072387F8233005E026
S11310A006237B62052387F8233000BF97F823309B
S11310B0072B06D097F8233001220121184600F0AF
S11310C00BFCFFF7DDF9FFF7ADFA7B69002B01D0CC
S11310D0FFF736F97A4A7B6A536701F037FBF86009
S11310E001F05EFB03461846FFF750F9FFF740F99D
S11310F003461946F868FFF72BFA7B69002B03D1E6
S11311000121002001F048FCFFF7A2FAE4E16D4B55
S1131110BB61BB69002B01D0BB6900E06A4BBB61BA
S1131120BB69002B01D0BB6900E0684BBB61BB69A4
S1131130002B01D0BB6900E0654BBB61FB78013B30
S11311400B2B00F2BE8101A252F823F07D110000A6
S11311508311000093110000C3140000C3140000A5
S1131160A3110000C3140000C3140000C314000042
S1131170C3140000C3140000BF1100000023FB616E
S113118020E001220121002000F0A6FB0223FB61E4
S113119018E001220121012000F09EFB0123FB61E4
S11311A010E001F0FDFA03461846FFF7EFF80122BC
S11311B000214848FFF726F80323FB6102E00423DB
S11311C0FB6100BFBB69FA691A6085E1FB78072BF4
S11311D002D0092B04D07FE1394B00221A6703E0C7
S11311E0374B01221A6700BF76E1FB78013B072BDE
S11311F000F2698101A252F823F000BF1D12000021
S1131200C7140000C714000033120000C714000004
S1131210C714000023120000431200000023FB61E6
S113122012E001220121042000F056FB0123FB619E
S11312300AE001220121022000F04EFB0223FB619F
S113124002E00323FB6100BF1D4BD3F85C3123F0A4
S11312503002FB691B011A491343C1F85C313BE1BD
S1131260FB78013B072B00F2308101A252F823F0F6
S113127091120000CB140000CB140000A712000050
S1131280CB140000CB14000097120000D912000008
S11312900023FB6123E001220121042000F01CFB58
S11312A00123FB611BE001220121022000F014FB59
S11312B00223FB6113E000BF002D31010148E80166
S11312C000400E4080400E408C400E4088400E404E
S11312D084400E40B0400E400323FB6100BF804BAE
S11312E0D3F85C3123F44012FB691B057C4913439A
S11312F0C1F85C31F0E0FB78043B062B00F2E78098
S113130001A252F823F000BF35130000251300009A
S1131310CF14000045130000CF140000CF140000C8
S11313205513000001220121032000F0D5FA002307
S1131330FB6117E001220121022000F0CDFA012314
S1131340FB610FE001220121042000F0C5FA022311
S1131350FB6107E001220121052000F0BDFA03230F
S1131360FB6100BF5E4BD3F8603123F003025C499C
S1131370FB691343C1F86031AEE0FB78043B062BF4
S113138000F2A78001A252F823F000BFB9130000B5
S1131390A9130000D3140000C9130000D3140000E3
S11313A0D3140000D913000001220121032000F00E
S11313B093FA0023FB6117E001220121022000F0CF
S11313C08BFA0123FB610FE001220121042000F0CC
S11313D083FA0223FB6107E001220121052000F0CA
S11313E07BFA0323FB6100BF3D4BD3F8643123F048
S11313F003023B49FB691343C1F864316CE0FB7899
S1131400023B092B67D801A252F823F0851400008F
S1131410951400004514000075140000D714000052
S1131420D7140000D7140000D714000035140000AE
S11314305514000001220121052000F04DFA00237B
S1131440FB612FE001220121022000F045FA012373
S1131450FB6127E001F01EFA214B5B6A204A43F04E
S11314600803536201220121022000F035FA02230D
S1131470FB6117E001220121032000F02DFA032370
S1131480FB610FE001220121002000F025FA042372
S1131490FB6107E001220121012000F01DFA052370
S11314A0FB6100BF0E4BD3F8F03123F007020C4967
S11314B0FB691343C1F8F0310EE000BF0CE000BF3C
S11314C00AE000BF08E000BF06E000BF04E000BF80
S11314D002E000BF00E000BF2837BD4680BD00BF6A
S11314E000400E4080B58AB000AF786000237B6274
S11314F00023FB77FEF73CFF0346022B06D17B68F3
S11315001B686F4A934201D90023D5E000233B6254
S113151018E07B681A686B493B6A1B010B441B6823
S11315209A420CD37B681A6866493B6A1B010B44D8
S113153004331B689A4202D83B6A7B6205E03B6A2B
S113154001333B623B6A172BE3D97B6A182B01D129
S11315500023B1E05B4A7B6A1B01134408331B6818
S1131560BB61584A7B6A1B0113440C331B68002B74
S113157019D0544A7B6A1B0113440C331B68184668
S113158000F0A6F8034603F07F037B617B69092B17
S113159003D97B69093B7B6101E000237B61BA6964
S11315A07B691343BB617B681B68474A1360112046
S11315B0FFF746FB0346052B01D1FEF761FF11201F
S11315C0FFF73EFB0346052B09D17B681B681846D1
S11315D0FEF7DCFE0123FB773C4B05225A673B4BAD
S11315E04FF400521A6600BF384BD3F8903003F41E
S11315F04053002BF8D1354B4FF46032C3F8A82088
S11316007B689B881B047A68D28811462F4A0B4357
S113161053642E4ABB6913617B689B7ADB007A684A
S1131620527B002A01D0042200E000221A437B6886
S1131630DB7A5B0013437A68127B1146234A0B431F
S11316401364224B4FF480521A6600BF1F4BD3F829
S1131650A03003F460333B613B69002BF6D01120CA
S1131660FFF7EEFA03460D2B05D1FB7F002B02D0CA
S1131670164B01225A671120FFF7E2FA0346052BA5
S113168009D101F063F8F860FEF772FE03461946CB
S1131690F868FEF75DFF01F083F803461846FEF78D
S11316A075FE0121002001F077F93B69B3F5004F85
S11316B001D1012300E0002318462837BD4680BD30
S11316C0002D3101AC6100000C00002000400E40F0
S11316D080B483B000AF78607B68374A934243D0CC
S11316E0354A934216D8354A93422DD0334A934211
S11316F006D8334A934227D0324A934224D053E047
S1131700314A934228D0314A934229D0304A9342F5
S11317101ED049E02F4A934236D02E4A934209D82C
S11317202D4A934228D02D4A934229D02C4A9342E1
S11317301ED039E02B4A93422ED02B4A93422FD00D
S11317402A4A934224D02FE0294BD3F880302CE04E
S1131750274BD3F88C3028E0254BD3F8983024E07D
S1131760234BD3F89C3020E0214BD3F8A0301CE06D
S11317701F4BD3F8A83018E01D4BD3F8AC3014E05D
S11317801B4BD3F8B03010E0194BD3F8B4300CE055
S1131790174BD3F8B83008E0154BD3F8BC3004E04D
S11317A0134BD3F8C03000E0002318460C37BD4675
S11317B05DF8047B704700BFC0EA210100093D00C9
S11317C040420F0080841E00405DC6000024F400E7
S11317D0C0CF6A00006CDC020048E80180D54302F7
S11317E080BA8C010090D00300A24A04007E560304
S11317F0B081E00F80B400AF034B1B681846BD46B0
S11318005DF8047B704700BF0C00002080B584B0F5
S113181000AF78601120FFF713FA012200210220A3
S113182000F05AF80023FB607B68DB7A012B0AD0B6
S1131830022B05D0002B00D008E00023FB6005E05C
S11318400323FB6002E00123FB6000BF204B5B6AC3
S113185023F003021E49FB6813434B620023FB6021
S113186001F018F802461B4B9A4203D8FB6843F078
S11318700803FB60164B5B6A23F008021449FB68FB
S113188013434B627B681B88DB027A6892881A4395
S11318900F4BDA620E4B1B6B1B0D1B057A685288CB
S11318A0D20213437A68D2881146094A0B43136360
S11318B07B681B7A1A037B685B7A1B0113437A6883
S11318C0927A1A43024B5A6300BF1037BD4680BD5B
S11318D000400E4040787D0180B588B000AF0346DB
S11318E0FB710B46BB7113467B71FB79052B00F230
S11318F0BF8001A252F823F05919000047190000D3
S11319002319000011190000351900006F19000097
S113191001237B6102233B610123FB610023BB6143
S113192030E004237B6108233B610323FB61022332
S1131930BB6127E010237B6120233B610523FB610E
S11319400423BB611EE040237B6180233B610723AA
S1131950FB610623BB6115E04FF480737B614FF498
S113196000733B610923FB610823BB610AE04FF468
S113197080637B614FF400633B610B23FB610A23AB
S1131980BB6100BFBB79002B55D00023FB73FB79EF
S1131990022B11D1FEF706FE0346012B0CD1364B68
S11319A0DB6B0123FB73354B5B6A03F00303032BEF
S11319B002D10220FEF704FE304A7B69136600BFA1
S11319C0B9692F48FEF735FC0346002BF8D07B7924
S11319D0002B4ED000BFF9692948FEF72AFC0346C4
S11319E0002BF8D0FB79022B43D1FB7B002B40D09A
S11319F0224B5B6A03F00303032B03D00021022074
S1131A0000F0F2F8022000F03DF8B8600122002155
S1131A100220FFF761FFB968022000F06DF8174A51
S1131A207B69136600BFF9691548FEF702FC03469B
S1131A30002BF8D01DE0114A3B69136600BF0F4B21
S1131A40D3F890300121BA6901FA02F21340002B55
S1131A50F5D17B79002B0CD000BF084BD3F8903024
S1131A600121FA6901FA02F21340002BF5D100E0DA
S1131A7000BF2037BD4680BD00300E4000400E4000
S1131A8090400E4080B485B000AF0346FB71FB79F3
S1131A90013B042B24D801A252F823F0B11A000010
S1131AA0E11A0000BD1A0000D51A0000C91A00008E
S1131AB0104B1B6AC3F30803FB6014E00D4B1B6956
S1131AC003F07F03FB600EE00A4B9B6803F07F0387
S1131AD0FB6008E0074B9B6903F07F03FB6002E0B7
S1131AE00023FB6000BFFB6818461437BD465DF851
S1131AF0047B704700400E4080B582B000AF0346BF
S1131B003960FB71FB79013B042B63D801A252F8C5
S1131B1023F000BF291B0000D51B0000571B000049
S1131B20AB1B0000811B00003B68C3F308033B6050
S1131B3000BF1A212A48FEF77CFB0346002BF8D18C
S1131B40284B1B6A23F4FF7323F0010325493A68E9
S1131B5013430B623FE03B6803F07F033B6000BF2D
S1131B6018211F48FEF765FB0346002BF8D11D4BD7
S1131B701B6923F07F021B493B6813430B612AE076
S1131B803B6803F07F033B6000BF1E211448FEF74F
S1131B9050FB0346002BF8D1124B9B6823F07F02C5
S1131BA010493B6813438B6015E03B6803F07F03E7
S1131BB03B6000BF19210A48FEF73BFB0346002B9C
S1131BC0F8D1084B9B6923F07F0206493B68134315
S1131BD08B6100E000BF00BF0837BD4680BD00BF79
S1131BE040410E4000400E4080B584B000AF034633
S1131BF00A46FB711346BB71FEF7D4FC0346012B66
S1131C0003D14FF48003FB6009E0BB79002B03D1BF
S1131C104FF48003FB6002E0084BFB6000BF00BF91
S1131C20074BD3F89020FB681340FA689A42F7D127
S1131C30012318461037BD4680BD00BFFF3F473A19
S1131C4000400E4080B487B000AFF860B9607A609D
S1131C50FB6803F10473DA00BB6813449B007B61E7
S1131C607B697A681A6000BF1C37BD465DF8047B47
S1131C70704780B485B000AF786039607B6803F149
S1131C80C063FB60FB683A681A6000BF1437BD4646
S1131C905DF8047B704780B485B000AF786039602C
S1131CA07B6803F18063FB60FB683A681A6000BFDD
S1131CB01437BD465DF8047B704780B584B000AF2F
S1131CC0F860B9607A60B968F868FFF7E4FF79688A
S1131CD0F868FFF7CEFF00BF1037BD4680BD000097
S1131CE080B483B000AF7860044A7B68C2F82434BF
S1131CF000BF0C37BD465DF8047B70470080084088
S1131D0080B582B000AF03463960FB71FB79002BCC
S1131D1016D0FB79012B13D0FB79022B10D0FB7961
S1131D20032B0DD0FB79042B0AD0FB79052B07D0AC
S1131D30FB79062B04D0FB79072B01D0FB79082B08
S1131D40FA7913465B0013441B010C3303F18043FF
S1131D5003F5082301213A6801FA02F211461846F4
S1131D60FFF799FF00BF0837BD4680BD80B582B03C
S1131D7000AF03463960FB71FB79002B16D0FB7969
S1131D80012B13D0FB79022B10D0FB79032B0DD040
S1131D90FB79042B0AD0FB79052B07D0FB79062BA2
S1131DA004D0FB79072B01D0FB79082BFA79134671
S1131DB05B0013441B010C3303F1804303F5082338
S1131DC001213A6801FA02F211461846FFF751FF61
S1131DD000BF0837BD4680BD80B586B000AFB9608E
S1131DE07A601A460346FB731346BB7300237B6178
S1131DF0FB7B002B16D0FB7B012B13D0FB7B022B30
S1131E0010D0FB7B032B0DD0FB7B042B0AD0FB7B78
S1131E10052B07D0FB7B062B04D0FB7B072B01D0C3
S1131E20FB7B082B7B68072B0ED87B689B000F225B
S1131E3002FA03F1FA7B7B689B0002FA03F31A4669
S1131E402B48FFF73AFF10E07B68083B7B617B6916
S1131E509B000F2202FA03F1FA7B7B699B0002FAD2
S1131E6003F31A462348FFF728FF7B68072B10D893
S1131E707B689B00032202FA03F1BB6803F00302B0
S1131E807B689B0002FA03F31A461B48FFF715FF11
S1131E900FE07B699B00032202FA03F1BB6803F0A5
S1131EA003027B699B0002FA03F31A461348FFF707
S1131EB004FFBB7B1A4679681148FFF7C3FE97F805
S1131EC020301A4679680F48FFF7BCFE01227B6870
S1131ED002FA03F31846FFF703FF97F824301A4673
S1131EE079680948FFF7AEFE00BF1837BD4680BDCC
S1131EF00084084004840840088408400C84084096
S1131F0010840840148408402884084080B584B0B4
S1131F1000AFB9607B600346FB731346BB73FB7B66
S1131F20002B16D0FB7B012B13D0FB7B022B10D094
S1131F30FB7B032B0DD0FB7B042B0AD0FB7B052BF7
S1131F4007D0FB7B062B04D0FB7B072B01D0FB7B4C
S1131F50082BBB7B002B0DD07B68002B05D0FB7BB3
S1131F60B9681846FFF702FF04E0FB7BB96818461E
S1131F70FFF7C6FEBB68072B20D82E49FA7B134611
S1131F805B0013441B010B4404331A68BB689B00B9
S1131F900F2101FA03F3DB431340B97BBA689200C3
S1131FA001FA02F211462348FA7B194313465B00F7
S1131FB013441B0103440433196025E01D49FA7BD3
S1131FC013465B0013441B010B4408331A68BB68B7
S1131FD003F18043083B9B000F2101FA03F3DB4329
S1131FE002EA0301BA7BBB6803F18043083B9B0010
S1131FF002FA03F30F48FA7B194313465B001344B8
S11320001B01034408331960BB7B002B0DD17B6893
S1132010002B05D0FB7BB9681846FFF7A7FE04E048
S1132020FB7BB9681846FFF76BFE00BF1037BD464F
S113203080BD00BF0080084080B483B000AF7860EA
S113204000BF7B681B6903F08003002BF9D07B6819
S1132050DB69DBB218460C37BD465DF8047B70477C
S113206080B483B000AF78600B46FB7000BF7B6820
S11320701B6903F04003002BF9D0FA787B685A639C
S113208000BF0C37BD465DF8047B704780B485B053
S113209000AF786039607B6803F1C063FB60FB6864
S11320A03A681A6000BF1437BD465DF8047B704778
S11320B080B485B000AF786039607B6803F18063D9
S11320C0FB60FB683A681A6000BF1437BD465DF8D0
S11320D0047B704780B582B000AF03463960FB7162
S11320E0FB79002B16D0FB79012B13D0FB79022B43
S11320F010D0FB79032B0DD0FB79042B0AD0FB798C
S1132100052B07D0FB79062B04D0FB79072B01D0D4
S1132110FB79082BFA7913465B0013441B010C333B
S113212003F1804303F5082301213A6801FA02F21E
S113213011461846FFF7BCFF00BF0837BD4680BDF7
S113214080B582B000AF03463960FB71FB79002B88
S113215016D0FB79012B13D0FB79022B10D0FB791D
S1132160032B0DD0FB79042B0AD0FB79052B07D068
S1132170FB79062B04D0FB79072B01D0FB79082BC4
S1132180FA7913465B0013441B010C3303F18043BB
S113219003F5082301213A6801FA02F211461846B0
S11321A0FFF774FF00BF0837BD4680BD80B483B01D
S11321B000AF03463960FB71FB79002B16D0FB7925
S11321C0012B13D0FB79022B10D0FB79032B0DD0FC
S11321D0FB79042B0AD0FB79052B07D0FB79062B5E
S11321E004D0FB79072B01D0FB79082B01223B6833
S11321F002FA03F30749FA79184613465B001344BD
S11322001B010B441833186000BF0C37BD465DF842
S1132210047B70470080084080B400AF4FF08043D7
S113222001225A64184BD3F8B030174A43F0010323
S1132230C2F8B030144BD3F8E030134A43F008032B
S1132240C2F8E030114B1B68104A43F4805313600A
S11322500D4BD3F8E0300C4A23F00803C2F8E03009
S1132260094BD3F8B030084A23F00103C2F8B03068
S1132270074B1B68064A43F4F843136000BFBD468E
S11322805DF8047B704700BF00400E4034400540B9
S1132290A4310E4080B588B000AF224A07F1140380
S11322A007CA83E807000023FB7707F114031846E5
S11322B0FFF7ACFA012201210220FFF70DFB3B1DC1
S11322C000221A605A609A60DA60174B7B6040F60D
S11322D00F633B8140F6C3137B810423BB7301234B
S11322E07B743B1D1846FFF7FDF8034683F001039A
S11322F0DBB2002B03D004211120FEF735FE0B4B7B
S1132300D3F80C31094A23F4FF3323F48073C2F861
S11323100C3101210648FEF7FFF900BF2037BD4606
S113232080BD00BF6463000000A24A0400400E4068
S11323304041050080B500AF01210D48FEF7ECF9DE
S11323400023042201210020FFF7E0FD00230422E2
S113235002210020FFF7DAFD0023042204210320D8
S1132360FFF7D4FD02210020FFF7EAFE00BF80BD85
S113237000550A0080B485B000AF78600023FB608C
S113238004E0FB68FB60FB680133FB607B6840F69C
S11323900B2202FB03F2FB689A42F2D800BF143707
S11323A0BD465DF8047B704780B582B000AFFFF78F
S11323B033FFFFF76FFF00F0FDFCFFF7BBFF00F0FA
S11323C051FE02F0B1FF02F07FFD02F075FE02F053
S11323D0A9FB02F097FC03F079F800F071FE4FF4CA
S11323E09670FFF7C7FF00F073FE00F081FE4FF414
S11323F09670FFF7BFFF00F083FE00F091FE4FF4EC
S11324009670FFF7B7FF00F093FE00F0A1FE4FF4C3
S11324109670FFF7AFFF00F0A3FE00F0B1FE4FF49B
S11324209670FFF7A7FF00F0B3FE00F0C1FE4FF473
S11324309670FFF79FFF00F0C3FE00F0D1FE01F09D
S1132440C9FA00237B6002E07B6801337B607B6810
S1132450974A9342F8DD04210320FFF73BFE954899
S113246002F07EFD944802F0A9FF944802F084FE35
S1132470934802F081FE00F03BFF01F0D5FF914B41
S11324801B78002B00F005818E4B1B78313B472BCA
S113249000F2F88001A252F823F000BF11260000D8
S11324A025260000312600003D26000049260000B4
S11324B0552600008526000085260000852600009C
S11324C0852600008526000085260000852600005C
S11324D0852600008526000085260000852600004C
S11324E0852600008526000085260000852600003C
S11324F0852600008526000085260000852600002C
S1132500852600008526000085260000852600001B
S1132510852600008526000085260000852600000B
S113252085260000852600006D2600008526000013
S113253085260000852600008526000085260000EB
S113254085260000852600008526000085260000DB
S113255085260000852600008526000085260000CB
S113256085260000852600008526000085260000BB
S11325708526000085260000BD2500008526000074
S1132580852600008526000085260000852600009B
S113259085260000852600000B2600008526000005
S11325A0852600008526000061260000852600009F
S11325B0852600008526000079260000424802F0A6
S11325C0DBFD424802F0D8FD414802F0D5FD3F480A
S11325D002F0D2FD3F4802F0CFFD3F4802F0CCFDAF
S11325E03E4802F0C9FD3E4802F0C6FD3D4802F0F7
S11325F0C3FD3D4802F0C0FD344802F0BDFD01F0CA
S1132600EFFC324802F0B8FD3DE000F071FE3AE024
S113261000F066FD04210320FFF7C8FD334802F0F3
S1132620ABFD30E000F074FD314802F0A5FD2AE076
S113263000F086FD2F4802F09FFD24E000F098FD95
S11326402D4802F099FD1EE000F0AAFD2B4802F08F
S113265093FD18E000F0BCFD294802F08DFD12E066
S113266001F022FA274802F087FD0CE002F08AFB11
S1132670254802F081FD06E0244802F07DFD00F0CB
S113268019FC00E000BF224802F076FD0D4B002249
S11326901A70204B1B78012B7FF4EFAE1D4B0022E8
S11326A01A7002F069F91C4802F066FDE5E600BF05
S11326B09F8601007063000088630000A06300002F
S11326C0C063000058080020E8630000F0630000C5
S11326D01464000028640000406400005864000092
S11326E07464000094640000AC640000C8640000DA
S11326F0D0640000D8640000E0640000E8640000D6
S1132700F0640000F8640000086500002065000023
S113271030650000540600203865000006488047F4
S11327200649074A074B9A42BEBF51F8040B42F8C8
S1132730040BF8E7FDF72CFDAD280000A8690000A4
S1132740000000207C000020FEE700BF80B582B0BE
S113275000AF00F025F878600A4BD3F808311B0A63
S1132760C3F308033B603B6801337A68B2FBF3F3BD
S11327707B60054A7B6813607B6818460837BD4652
S113278080BD00BF00400E400800002080B400AFB0
S1132790024B1846BD465DF8047B704700A24A040C
S11327A080B483B000AF334BD3F8943003F0070305
S11327B0023B042B49D801A252F823F0E127000080
S11327C0D9270000D127000041280000E927000094
S11327D0294B1B687B603CE04FF400437B6038E08E
S11327E0264B1B687B6034E0224B9B681B0C03F078
S11327F01F03073B072B1FD801A252F823F000BF89
S11328002128000039280000392800003928000058
S113281027280000392800002D2800003328000054
S1132820174B7B600BE0174B7B6008E0164B7B601B
S113283005E0164B7B6002E000237B6000BF08E0EC
S1132840134B1B685B087B6003E0114B1B687B60C8
S113285000BF084BD3F800311B0A03F01F030133F8
S11328607A68B2FBF3F318460C37BD465DF8047B77
S1132870704700BF00400E4004000020000000200C
S11328800024F4000048E801006CDC0280F0FA0245
S11328900C00002080B400AF034B1B681846BD46F3
S11328A05DF8047B704700BF0000002080B400AFD7
S11328B0074B084A9A60064BD3F88830044A43F41D
S11328C07003C2F8883000BFBD465DF8047B7047D2
S11328D000ED00E00000000080B485B000AF786037
S11328E039607B6803F10473DA003B6813449B008E
S11328F0FB60FB681B6818461437BD465DF8047B13
S11329007047000080B400AF064B1B6803F040031F
S1132910002B01D1012300E000231846BD465DF8D9
S1132920047B70473C300E4080B500AFFFF7EAFFF0
S1132930034683F00103DBB2002B08D100BF122150
S11329400448FFF7C9FF0346002BF8D100E000BF9D
S113295080BD00BF04300E4080B500AFFFF7E4FF38
S1132960034B5B681B0C03F00303DBB2184680BD0A
S113297000300E4080B483B000AF0346FB71FB7996
S1132980C3F10203102202FA03F318460C37BD46C2
S11329905DF8047B7047000080B584B000AF7860B8
S11329A00B46FB70FFF7AEFF034683F00103DBB277
S11329B0002B28D17B68002B0FD1154BD3F80031A5
S11329C01B0A03F01F030133BB60FFF7E9FE024655
S11329D0BB6802FB03F3FB6001E07B68FB600D4B0B
S11329E01B78002B09D0FB680B4A934205D8FB786F
S11329F01946022000F012F806E0FB781946002080
S1132A0000F00CF800E000BF1037BD4680BD00BFE9
S1132A1000400E4098000020002D310190B587B091
S1132A2000AF03460A46FB711346BB71FFF76AFF0A
S1132A30034683F00103DBB2002B31D1FFF78CFF97
S1132A4003461A46FB7993422CD0184BD3F8003135
S1132A501B0A03F01F0301337B61FFF7A1FE3861FA
S1132A603B697A6902FB03F3FB60FB79022B03D118
S1132A7002213869FDF76CFD0D4CFB791846FFF710
S1132A8079FF03462361BB79002B01D0FFF74CFF8C
S1132A90FB79002B07D100213869FDF759FD02E0CD
S1132AA000BF00E000BF1C37BD4690BD00400E4093
S1132AB000300E4080B483B000AF78607B681B4A5E
S1132AC0934227D07B681A4A934223D07B68194AE1
S1132AD093421FD07B68184A93421BD07B68174AE5
S1132AE0934217D07B68164A934213D07B68154AE9
S1132AF093420FD07B68144A93420BD07B68134AED
S1132B00934207D07B68124A934203D07B68114AF0
S1132B10934201D1012300E0002303F00103DBB25F
S1132B2018460C37BD465DF8047B704700800140B1
S1132B300084014000880140008C01400090014065
S1132B40009401400098014000A0014000A401400D
S1132B5000A8014000AC014080B584B000AF7860AB
S1132B6039607868FFF7A6FF0023FB603B681B7899
S1132B7083F00103DBB2002B02D07B6802225A608F
S1132B807B6800225A623B689B781A063B68DB78B4
S1132B901B041A433B689B799B021A433B68DB790D
S1132BA01B0213433A68127A13433A685278002A94
S1132BB001D0402200E0002213433A68527A002AEE
S1132BC001D0802200E0002213433A68927A002A5E
S1132BD001D0202200E0002213433A68D27A002A6E
S1132BE001D0102200E0002213433A68127B002A2D
S1132BF001D0082200E000221343FB603B681B79EC
S1132C00002B02D04FF4005200E000223B685B79B5
S1132C10002B02D04FF0805300E000231343FA68E6
S1132C201343FB607B68FA681A603B681B78002BCF
S1132C3002D07B6801225A6000BF1037BD4680BDB8
S1132C4080B483B000AF0346FB7197F90730002BC3
S1132C500BDBFB7903F01F02074997F907305B0987
S1132C60012000FA02F241F8232000BF0C37BD46D0
S1132C705DF8047B704700BF00E100E080B485B0DC
S1132C8000AF786039607B6803F10473DA003B6855
S1132C9013449B00FB60FB681B6818461437BD4651
S1132CA05DF8047B7047000080B483B000AF7860A7
S1132CB0044A7B68C2F8243400BF0C37BD465DF873
S1132CC0047B70470080084080B483B000AF786014
S1132CD0074BD3F828247B68DB4305491340C1F82C
S1132CE0283400BF0C37BD465DF8047B704700BF35
S1132CF00080084080B483B000AF7860064BD3F8FE
S1132D00282405497B681343C1F8283400BF0C37D5
S1132D10BD465DF8047B70470080084080B400AF76
S1132D20034BD3F81C341846BD465DF8047B70474A
S1132D300080084080B582B000AF03463960FB7163
S1132D40FB79002B16D0FB79012B13D0FB79022BD6
S1132D5010D0FB79032B0DD0FB79042B0AD0FB791F
S1132D60052B07D0FB79062B04D0FB79072B01D068
S1132D70FB79082BFA7913465B0013441B011C33BF
S1132D8003F1804303F5082339681846FFF776FFFB
S1132D90034618460837BD4680BD80B483B000AFF3
S1132DA078607B685B6A18460C37BD465DF8047B27
S1132DB07047000080B500AF01210D48FDF7ACFC61
S1132DC00023032200210020FFF7A0F800230322A0
S1132DD003210020FFF79AF8002303220421002096
S1132DE0FFF794F80320FFF72BFF00BF80BD00BF5F
S1132DF000550A0080B500AF00210020FFF79AFFBC
S1132E000346184680BD000080B582B000AFFFF7CE
S1132E1085FF78607868FFF747FF7B6803F001035C
S1132E20002B35D01C4B1B78002B0CD01B48FFF714
S1132E30B4FF02461A4B1A60174B00221A70194B42
S1132E4001221A8005E0174B1B8801339AB2154BF7
S1132E501A80154B1B78002B18D01048FFF79DFFE4
S1132E600246124B1A60114B1A680D4B1B68D31A99
S1132E700C4A1288B3FBF2F30D4A13600A4B00228A
S1132E801A700B4B1B68184601F09AFF00F0DEFD28
S1132E9000BF0837BD4680BD9900002000A0014056
S1132EA09C000020A40000209A000020A000002024
S1132EB0A800002080B500AF0120FFF7F5FE012037
S1132EC0FFF718FF00BF80BD80B500AF0120FFF7FA
S1132ED0FBFE00BF80BD80B485B000AF7860396070
S1132EE07B6803F1C063FB60FB683A681A6000BF4B
S1132EF01437BD465DF8047B704780B485B000AFDD
S1132F00786039607B6803F18063FB60FB683A6832
S1132F101A6000BF1437BD465DF8047B704780B566
S1132F2082B000AF03463960FB71FB79002B16D0E9
S1132F30FB79012B13D0FB79022B10D0FB79032BE7
S1132F400DD0FB79042B0AD0FB79052B07D0FB7934
S1132F50062B04D0FB79072B01D0FB79082BFA79D7
S1132F6013465B0013441B010C3303F1804303F548
S1132F70082301213A6801FA02F211461846FFF7C4
S1132F80BCFF00BF0837BD4680BD80B582B000AF2E
S1132F9003463960FB71FB79002B16D0FB79012BBA
S1132FA013D0FB79022B10D0FB79032B0DD0FB79C6
S1132FB0042B0AD0FB79052B07D0FB79062B04D010
S1132FC0FB79072B01D0FB79082BFA7913465B00B8
S1132FD013441B010C3303F1804303F5082301213F
S1132FE03A6801FA02F211461846FFF774FF00BF6F
S1132FF00837BD4680BD000080B483B000AF0346EF
S11330003960FB71FB79002B16D0FB79012B13D0AF
S1133010FB79022B10D0FB79032B0DD0FB79042B09
S11330200AD0FB79052B07D0FB79062B04D0FB795A
S1133030072B01D0FB79082B01223B6802FA03F32A
S11330400749FA79184613465B0013441B010B44E5
S11330501833186000BF0C37BD465DF8047B704719
S11330600080084080B500AF01211448FDF754FBEF
S11330700023042208210020FEF748FF0023042235
S113308005210320FEF742FF00230422062103202A
S1133090FEF73CFF0023042208210320FEF736FF3D
S11330A00023042202210320FEF730FF0023042220
S11330B003210320FEF72AFF00BF80BD00550A004C
S11330C080B500AF08210020FFF75FFF00BF80BD7F
S11330D080B500AF08210020FFF721FF00BF80BDAD
S11330E080B500AF08210020FFF786FF00BF80BD38
S11330F080B500AF05210320FFF747FF00BF80BD67
S113310080B500AF05210320FFF709FF00BF80BD94
S113311080B500AF05210320FFF76EFF00BF80BD1F
S113312080B500AF06210320FFF72FFF00BF80BD4D
S113313080B500AF06210320FFF7F1FE00BF80BD7C
S113314080B500AF06210320FFF756FF00BF80BD06
S113315080B500AF08210320FFF717FF00BF80BD33
S113316080B500AF08210320FFF7D9FE00BF80BD62
S113317080B500AF08210320FFF73EFF00BF80BDEC
S113318080B500AF02210320FFF7FFFE00BF80BD22
S113319080B500AF02210320FFF7C1FE00BF80BD50
S11331A080B500AF02210320FFF726FF00BF80BDDA
S11331B080B500AF03210320FFF7E7FE00BF80BD09
S11331C080B500AF03210320FFF7A9FE00BF80BD37
S11331D080B500AF03210320FFF70EFF00BF80BDC1
S11331E080B483B000AF414B0F221A703F4B0222D0
S11331F05A703E4B01229A703C4B0222DA703B4BD0
S113320000221A71394B00225A71384B00229A71EC
S11332100023FB7107E0FB79344A13440022DA717E
S1133220FB790133FB71FB790E2BF4D90023FB717D
S11332303EE0FA792D4913465B0013445B000B44CE
S1133240163300221A70FA79284913465B00134496
S11332505B000B44173300221A70FA792349134692
S11332605B0013445B000B44183300221A70FA7994
S11332701E4913465B0013445B000B4419330022C0
S11332801A70FA79194913465B0013445B000B4426
S11332901A3300221A70FA79144913465B00134456
S11332A05B000B441B3300221A70FB790133FB7162
S11332B0FB79092BBDD90D4B03225A750B4B0F22F9
S11332C09A750A4BFF22DA75084BFF221A76074BD0
S11332D002225A76054B02229A76044B0222DA76AF
S11332E000BF0C37BD465DF8047B7047E00000204A
S11332F080B5C0B000AF00237B6007F10803F6225D
S11333000021184602F0D7FAAE4801F035FFAE4B63
S11333101B781A463B1DAD49184602F0D5FA3B1DF1
S1133320184601F029FFA84B5B781A463B1DA849B3
S1133330184602F0C9FA3B1D184601F01DFFA24BC6
S11333409B781A463B1DA349184602F0BDFA3B1D63
S1133350184601F011FF9C4BDB781A463B1D9E4931
S1133360184602F0B1FA3B1D184601F005FF964BD2
S11333701B791A463B1D9949184602F0A5FA3B1DD4
S1133380184601F0F9FE904B5B791A463B1D9449AF
S1133390184602F099FA3B1D184601F0EDFE8A4BDF
S11333A09B791A463B1D8F49184602F08DFA3B1D46
S11333B0184601F0E1FE8C4801F0DEFE002387F898
S11333C0FF3010E097F8FF305A1C3B1D8749184620
S11333D002F07AFA3B1D184601F0CEFE97F8FF3052
S11333E0013387F8FF3097F8FF300E2BEAD9804875
S11333F001F0C2FE002387F8FF301EE097F8FF308B
S1133400714A1344DB79002B0FD097F8FF306E4AD2
S11334101344DB791A463B1D7449184602F054FAEA
S11334203B1D184601F0A8FE02E0724801F0A4FE1C
S113343097F8FF30013387F8FF3097F8FF300E2BF1
S1133440DCD96D4801F098FE6C4801F095FE00232C
S113345087F8FF309CE097F8FF205B4913465B0038
S113346013445B000B4416331B781A463B1D644916
S1133470184602F029FA3B1D184601F07DFE97F824
S1133480FF20514913465B0013445B000B44173380
S11334901B78FF2B03D15B4801F06EFE13E097F815
S11334A0FF20494913465B0013445B000B44173368
S11334B01B781A463B1D5449184602F005FA3B1D79
S11334C0184601F059FE97F8FF203F4913465B0068
S11334D013445B000B4418331B78FF2B03D149487A
S11334E001F04AFE13E097F8FF20374913465B00CA
S11334F013445B000B4418331B781A463B1D4249A6
S1133500184602F0E1F93B1D184601F035FE97F824
S1133510FF202D4913465B0013445B000B44193311
S11335201B781A463B1D3949184602F0CDF93B1D5C
S1133530184601F021FE97F8FF20234913465B004B
S113354013445B000B441A331B781A463B1D2E4967
S1133550184602F0B9F93B1D184601F00DFE97F824
S1133560FF20194913465B0013445B000B441B33D3
S11335701B781A463B1D2649184602F0A5F93B1D47
S1133580184601F0F9FD97F8FF30013387F8FF3052
S113359097F8FF30092B0CD897F8FF200A491346F7
S11335A05B0013445B000B4417331B78002B7FF440
S11335B052AF184801F0E0FD00BF07F58077BD4623
S11335C080BD00BF3C650000E00000204C650000A9
S11335D06065000070650000806500009065000073
S11335E0A0650000B0650000C0650000F86500003B
S11335F000660000086600000C66000040660000DB
S113360068660000746600007C6600008466000042
S1133610906600009C66000080B483B000AF03464F
S1133620FB710B46BB7113467B71074B04221A7066
S1133630054B04225A70044B02229A7000BF0C37C7
S1133640BD465DF8047B70473401002080B483B02C
S113365000AF78607B680D4A93420BD07B680C4ABC
S1133660934207D07B680B4A934203D07B680A4A93
S1133670934202D14FF0FF3301E04FF6FF73184637
S11336800C37BD465DF8047B704700BF00A00140C5
S113369000A4014000A8014000AC014080B582B004
S11336A000AF786039607868FFF7D0FF7B683A68CC
S11336B05A6200BF0837BD4680BD80B485B000AFF4
S11336C0786039607B6803F1C063FB60FB683A682B
S11336D01A6000BF1437BD465DF8047B704780B4A0
S11336E085B000AF786039607B6803F18063FB606C
S11336F0FB683A681A6000BF1437BD465DF8047B66
S11337007047000080B483B000AF7860044A7B68DF
S1133710C2F8243400BF0C37BD465DF8047B704703
S11337200080084080B582B000AF03463960FB7169
S1133730FB79002B16D0FB79012B13D0FB79022BDC
S113374010D0FB79032B0DD0FB79042B0AD0FB7925
S1133750052B07D0FB79062B04D0FB79072B01D06E
S1133760FB79082BFA7913465B0013441B010C33D5
S113377003F1804303F5082301213A6801FA02F2B8
S113378011461846FFF7ABFF00BF0837BD4680BDA2
S113379080B582B000AF03463960FB71FB79002B22
S11337A016D0FB79012B13D0FB79022B10D0FB79B7
S11337B0032B0DD0FB79042B0AD0FB79052B07D002
S11337C0FB79062B04D0FB79072B01D0FB79082B5E
S11337D0FA7913465B0013441B010C3303F1804355
S11337E003F5082301213A6801FA02F2114618464A
S11337F0FFF763FF00BF0837BD4680BD80B483B0C8
S113380000AF03463960FB71FB79002B16D0FB79BE
S1133810012B13D0FB79022B10D0FB79032B0DD095
S1133820FB79042B0AD0FB79052B07D0FB79062BF7
S113383004D0FB79072B01D0FB79082B01223B68CC
S113384002FA03F30749FA79184613465B00134456
S11338501B010B441833186000BF0C37BD465DF8DC
S1133860047B70470080084080B485B000AF786066
S11338700B46FB70FB78002B02D0FB78202B01D980
S113388000230DE0FB78013BFB73FB7B7A6822FA93
S113389003F303F00103002B01D0012300E0002314
S11338A018461437BD465DF8047B704780B487B072
S11338B000AF78607B6823F001037B61124BFB60EF
S11338C000233B6113E03B69C3F11F037A6922FAC9
S11338D003F303F00103002B06D0FA683B6922FAD4
S11338E003F37A6953407B613B6901333B613B6974
S11338F0142BE8DD7A6940F2FE73134018461C3736
S1133900BD465DF8047B7047000020ED80B485B0AF
S113391000AF78600023FB600023BB600DE07A6891
S1133920BB6822FA03F303F00103002B02D0FB6807
S11339300133FB60BB680133BB60BB681F2BEEDD4A
S1133940FB6803F00103002B0CBF01230023DBB24F
S113395018461437BD465DF8047B704780B584B0C3
S113396000AF786039603B6800221A707868FFF70E
S11339709DFF0346002B07D17868FFF7C7FF034676
S1133980002B01D07B6821E00023FB601AE00122B8
S1133990FB6802FA03F37A685340BB60B868FFF728
S11339A085FF0346002B0AD1B868FFF7AFFF034633
S11339B0002B04D03B6801221A70BB6806E0FB6848
S11339C00133FB60FB681F2BE1DD7B681846103771
S11339D0BD4680BD80B582B002AF164B00221A707E
S11339E0154B002283F88222134B0022A3F8802275
S11339F0124B00221A70124B00221A60114B002243
S1133A001A70114B00221A700123019301230093B1
S1133A100123002200210020FEF7DEF90120FFF738
S1133A2071FEFFF747FA01F06DF901F095F900BF57
S1133A30BD4680BDAC000020C4030020BD000020B2
S1133A40B0000020990000209A00002080B500AF4B
S1133A50044BDB69034A5B085362FFF799FB00BF21
S1133A6080BD00BF0084014080B582B000AF034632
S1133A70FB71FB79012B07D101210020FFF788FEA0
S1133A80074801F079FB06E001210020FFF74AFE18
S1133A90044801F071FB00BF0837BD4680BD00BF7C
S1133AA0D0660000D466000090B5ABB002AFFFF75B
S1133AB01FFB01F067F9FFF707FA364B04221A706F
S1133AC0354801F059FB354801F056FB344B93F867
S1133AD08B32012B03D1334801F04EFB02E0324814
S1133AE001F04AFB2E4B93F8853219462C4B93F880
S1133AF088321C462A4B93F887321A46284B93F88F
S1133B00893238460193009223460A46274901F038
S1133B10DBFE3B46184601F02FFB214B93F886321F
S1133B201A461F4B93F8843219461D4B93F88A3278
S1133B30384600930B461E4901F0C6FE3B46184624
S1133B4001F01AFB1B4B1B781A461A4B5B7819467B
S1133B50184B9B78384600930B46174901F0B4FE86
S1133B603B46184601F008FB144B01221A70144B13
S1133B7000221A8001210020FFF7D4FD0221002039
S1133B80FFF7D0FD01F036F901F0E6F800BFA437E5
S1133B90BD4690BDAC000020D86600000067000060
S1133BA03801002008670000106700001867000053
S1133BB03C670000340100205C670000BD00002069
S1133BC0BE00002080B500AF084B00221A7002210D
S1133BD00020FFF7DDFDFFF793FAFFF7A9FAFFF7DF
S1133BE0F9FE034B00221A7000BF80BDBD00002007
S1133BF0AC00002080B500AF574B1B78032B00F2BC
S1133C00A88001A252F823F0453D0000193C0000B1
S1133C10573C0000A13C0000504B1B889BB2013371
S1133C209AB24E4B1A8001210020FFF7E7FD4B4B5F
S1133C301B889BB2B3F5107F40F08680474B00226F
S1133C401A80474B00221A80434B02221A704548BF
S1133C5001F092FA78E0414B1B889BB201339AB28F
S1133C603E4B1A803D4B1B889BB2DBB2C3F1210350
S1133C70DBB219463C48FFF7F7FD03461846FFF749
S1133C80F3FE364B1B889BB2202B5FD1334B0022B3
S1133C901A80314B03221A70324801F06DFA55E054
S1133CA02E4B1B889BB201339AB22C4B1A802C4B9F
S1133CB01B889BB21A462D4B53F82220274B1B8896
S1133CC09BB2DBB2C3F12103DBB219461046FFF706
S1133CD0CBFD03461846FFF7C7FE204B1B889BB25B
S1133CE0202B35D11D4B00221A801D4B1B889BB203
S1133CF001339AB21A4B1A801A4801F03DFA1B4B51
S1133D00B3F88022164B1B889BB29A4208D8FFF75F
S1133D1059FF174801F030FA164801F02DFA17E060
S1133D200F4B1B889BB203F00F039BB2002B0FD1E8
S1133D300A4B00221A80084B02221A70094801F02B
S1133D401BFA05E000BF04E000BF02E000BF00E092
S1133D5000BF00BF80BD00BFBD000020BE0000202A
S1133D60C000002080670000D815D27C38010020F4
S1133D7084670000A867000080B5AAB000AFFFF711
S1133D8039F80346002B14BF01230023DBB287F864
S1133D90A730874B1B685A0097F8A7301343844A0F
S1133DA01360844B1B78DBB2042B00F2FD8001A26C
S1133DB052F823F0C93D00000D3E0000473E0000CC
S1133DC09B3E0000933F0000FFF78AF9784B1B6885
S1133DD0B3F1AA3F05D0764B1B68B3F1553F40F0D1
S1133DE0DC80744B01221A7001F004F8724B00223B
S1133DF01A8000217148FFF751FC714B00221A8090
S1133E00704B01221A70FFF75BF9C6E06A4B1B88FE
S1133E109BB201339AB2684B1A80654B1B68B3F1AD
S1133E20AA3F00F0BC80624B1B68B3F1553F00F021
S1133E30B680604B02221A70634B01221A705E4BEB
S1133E4000221A80ABE05A4B1B68604A93420FD1A0
S1133E50584B03221A70584B00221A805C4B0122E3
S1133E601A705C4B0022A3F88022FFF72DF898E02B
S1133E70514B1B889BB201339AB24F4B1A804E4B65
S1133E801B889BB21F2B40F28C8000F0B3FFFFF71E
S1133E9011F8484B00221A7083E0474B1B889BB2F1
S1133EA001339AB2444B1A80494B1B78002B0AD138
S1133EB0414B1B889BB2012B05D1FEF7FBFF00F0A1
S1133EC04BFFFFF75DF9424B1B78002B06D13A4BB1
S1133ED01B889BB2022B01D1FEF7F6FF364B1B88E1
S1133EE09BB21F2B5FD9344B00221A80FFF750F985
S1133EF0374B1B78002B1BD12D4B1B68334A934245
S1133F0029D0344B012283F882222A4B00221A70D2
S1133F10314BDA693B1D3149184601F0D5FC3B1D94
S1133F20184601F029F900F065FFFEF7C3FF3BE0F6
S1133F30284BB3F880329F2B0DD8264BB3F8803230
S1133F405A1C91B2234AA2F880121946184B1B68D6
S1133F50204A42F821301E4B1B780133DAB21C4B45
S1133F601A701B4B1B78102B02D9194B00221A70A4
S1133F70184BB3F880329F2B15D9164B012283F8C6
S1133F8082220C4B00221A7000F034FFFEF792FFDD
S1133F9009E0FFF72FFE00BF06E000BF04E000BF0A
S1133FA002E000BF00E000BFA837BD4680BD00BFEF
S1133FB0B0000020AC000020B400002000A00140AC
S1133FC0A4000020990000209A000020D815D27C7B
S1133FD0CC000020C403002000840140B06700002E
S1133FE080B500AF194801F0C7F8194B1B78DBB254
S1133FF0042B21D801A252F823F000BF1140000085
S11340001940000021400000294000003140000018
S1134010104801F0B1F813E00F4801F0ADF80FE0DB
S11340200E4801F0A9F80BE00D4801F0A5F807E0EF
S11340300C4801F0A1F803E00B4801F09DF800BF23
S11340400A4801F099F800BF80BD00BFC4670000B2
S1134050AC000020D0670000E0670000F0670000BB
S11340600068000010680000246800002C6800004C
S113407080B588B000AF786039607B68DB0AC3F331
S113408013033B610023FB6160E0344B1B685B005E
S1134090324A1360FB69C3F113033A6922FA03F34A
S11340A003F00103002B05D02C4B1B6843F00103E4
S11340B02A4A13602A4B1B780133DAB2284B1A7050
S11340C0274B1B78072B3ED10023FB7600237B6113
S11340D018E001227B6902FA03F31A461F4B1B689E
S11340E01340002B0BD07B69C3F10603012202FAB3
S11340F003F35AB297F91B3013435BB2FB767B6927
S113410001337B617B69062BE3DDFB7E1F2B14D916
S1134110FB7E7E2B11D8386801F0F6FBF860FB6853
S1134120772B0AD83A68FB681344FA7E1A70FB6846
S113413001333A68134400221A70084B00221A60B3
S1134140074B00221A70FB690133FB61FB69132BD7
S11341509BDD00BF2037BD4680BD00BFB8000020F6
S1134160BC00002080B48DB000AF78607B68002B69
S113417063D040F269737B610023FB6255E07B6886
S1134180FA6A53F822303B613B692F4A934248D084
S11341903B69DB0AFB60FB689B02BB6214237B6206
S11341A011E07B6A0A3301229A40BB6A1340002B58
S11341B006D07A697B6A02FA03F3BA6A5340BB6297
S11341C07B6A013B7B627B6A002BEADAFB68DA02DA
S11341D0BB6A590040F2FE730B4013433B623B6AD7
S11341E0FB610023FB760CE0FB695BB203F0010387
S11341F05AB297F91B3053405BB2FB76FB695B08FC
S1134200FB61FB69002BEFD1FB7E002B03D03B6AE3
S113421043F001033B627B68FA6A396A43F822106F
S113422000E000BFFB6A0133FB627B68B3F88032B5
S11342301A46FB6A9342A2DB00E000BF3437BD4656
S11342405DF8047B704700BF97C1897A80B483B05E
S113425000AF78607B68002B54D07B689B681B0C94
S1134260DBB203F01F03DAB27B6883F886227B6833
S11342705B685B0EDBB203F03F03DAB27B6883F862
S113428084227B681B681B0EDBB203F00F03DAB2D7
S11342907B6883F885227B681B681B0CDBB203F008
S11342A01F03DAB27B6883F887227B689B689B0EC6
S11342B0DBB203F01F03DAB27B6883F888227B68E1
S11342C01B681B0BDBB203F00F03DAB27B6883F8C5
S11342D089227B685B681B0CDBB203F01F03DAB234
S11342E07B6883F88A227B681B685B0D03F00703F5
S11342F0012B0CBF01230023DBB21A467B6883F831
S11343008B2200E000BF0C37BD465DF8047B70478C
S113431080B586B000AF78607B68002B7CD07B686A
S11343201B687B617B6923F070637B617B6923F489
S113433000137B617B6923F4F8137B617B6923F4AD
S113434070437B617B6893F885321B0603F07063CE
S11343507A6913437B617B6893F88B325B0503F4C2
S113436000137A6913437B617B6893F887321B04DB
S113437003F4F8137A6913437B617B6893F88932F9
S11343801B039BB27A6913437B617B687A691A6069
S11343907B685B683B613B6923F0FC433B613B69A1
S11343A023F4F8133B617B6893F884325B0603F0D3
S11343B0FC433A6913433B617B6893F88A321B04DC
S11343C003F4F8133A6913433B617B683A695A6012
S11343D07B689B68FB60FB6823F0F843FB60FB6829
S11343E023F4F813FB607B6893F888329B0603F090
S11343F0F843FA681343FB607B6893F886321B0426
S113440003F4F813FA681343FB607B68FA689A6054
S11344100348FFF7A7FE00E000BF1837BD4680BD84
S1134420380100200000000090B5D7B002AFA84BBF
S113443093F88232DBB283F00103DBB2002B40F04D
S113444075823B1D184680231A46002101F033FA79
S1134450A04B00221A60A04B00221A709F4800F063
S11344608BFE9B4B012283F883220023A7F84E3155
S113447077E0B7F84E31964A52F82330C7F82C311A
S1134480D7F82C31964A93420ED1B7F84E315A1CC4
S113449007F184039349184601F016FA07F18403DF
S11344A0184600F069FE57E0FB1C00221A70FB1C42
S11344B01946D7F82C01FFF751FAC7F82801D7F8A5
S11344C02801FFF7F3F90346002B08D1D7F8280198
S11344D0FFF71CFA0346002B01D0012300E0002360
S11344E087F8273197F8273103F0010387F827313C
S11344F097F82731002B07D0B7F84E317449D7F815
S1134500282141F8232003E0714B002283F8832201
S1134510B7F84E31591CB7F84E316D4A52F8234062
S113452097F82731002B01D06F4B00E06F4BFA1C3A
S11345301278002A01D06E4A00E06E4A07F1840026
S11345400192009323460A466B4901F0BDF907F135
S11345508403184600F010FEB7F84E310133A7F873
S11345604E315B4BB3F88032B7F84E219A4280D378
S11345705748FFF76BFE564B93F88332002B0ED04F
S1134580534B93F884321B01514AB2F88022934270
S11345900CBF01230023DAB24D4B83F883224C4B2A
S11345A093F88332002B08D007F18403534918464B
S11345B001F08AF9FEF7B4FD05E007F184035049E0
S11345C0184601F081F907F18403184600F0D4FD80
S11345D03F4B93F88B32012B03D14A4800F0CCFDBA
S11345E002E0494800F0C8FD394B93F8853219467A
S11345F0374B93F888321C46354B93F887321A466A
S1134600334B93F8893207F18400019300922346D7
S11346100A463E4901F058F907F18403184600F0B0
S1134620ABFD2B4B93F886321A46294B93F8843210
S11346301946274B93F88A3207F1840000930B46FE
S1134640334901F041F907F18403184600F094FD61
S1134650304B1B684FF000041A4623461AA1D1E9D7
S1134660000100F065FF03460C46C7F84831D7F84F
S11346704831294AA2FB03239C09D7F84821264B39
S1134680A3FB02139B094FF47A7101FB03F3D31AC2
S113469007F184002246214901F016F907F1840349
S11346A0184600F069FD0A4B93F88332002B00F0A2
S11346B0B680074B93F88B32002B40F0B080032375
S11346C0A7F84C31A4E000BF00D088C3100000005C
S11346D0C4030020B8000020BC00002030680000A3
S11346E097C1897A4C6800005C680000606800002B
S11346F0646800006C68000070680000886800004E
S11347009468000008670000106700001867000044
S1134710A0680000A8000020D34D6210C06800000B
S1134720B7F84C31844A52F82330C7F84431D7F8EB
S11347304431824A934263D0BB1C00221A70BB1CD2
S11347401946D7F84401FFF709F9C7F84001D7F82B
S11347504001FFF7ABF80346002B53D1D7F84001D3
S1134760FFF7D4F8034683F00103DBB2002B49D1F1
S1134770D7F84031002B3CDBB7F84C31DBB203F007
S11347800F0387F83F3197F83F315B0887F83E31D4
S1134790D7F840315B0BC3F31103C7F83831D7F8AE
S11347A03831DA0097F83E3103F007031343C7F8B2
S11347B03431D7F84031DB0ADBB203F0030387F866
S11347C0333197F8333107F18400D7F834215C4949
S11347D001F07AF807F18403184600F0CDFC3B1D84
S11347E000221A70574B00221A60574B00221A708D
S11347F009E03B1D1946D7F84001FFF739FC02E0F8
S113480000BF00E000BFB7F84C310133A7F84C31CA
S1134810494BB3F88032B7F84C219A4280D33B1D00
S11348201B78002B06D0494800F0A6FC3B1D184617
S113483000F0A2FC464800F09FFC464800F09CFCB7
S11348403D4B002283F882223B4B93F88332002BAA
S113485069D0394B93F88722374B93F88532013B63
S11348603D490B44DB799A423AD1334B93F88502A4
S1134870314B93F88912304B93F888321A46FEF77D
S1134880CBFE364A2C4B104619464FF423731A4676
S113489001F006F8324B1A78304B83F88722264B06
S11348A093F88532013B2C4A1344DA792B4B83F875
S11348B088222A48FFF72CFD2A4B01221A70264B26
S11348C09B7801331A46284B1A60234B5B780133DB
S11348D01A46264B1A60FEF73BFCFFF7E5F822E088
S11348E0234800F049FC1F4B1B78012B03D01D4BC0
S11348F01B78022B17D1104B93F88522174B93F892
S113490085329A420FD10C4B93F88822134B93F8BB
S113491087329A4207D1134B00221A70FEF720FC0B
S1134920144800F029FCFEF703FC00E000BF07F583
S1134930AA77BD4690BD00BFC403002097C1897A01
S1134940D0680000B8000020BC000020E46800002B
S11349502C680000EC680000E00000203801002012
S113496034010020C2000020C4000020C800002040
S1134970FC6800000869000080B500AF404B1B785C
S1134980DBB2002B7AD13F4B1B78012B03D0022BD7
S11349903CD0002B72E03C4B1B68013B3A4A13604D
S11349A0394B1B68002B66D1384B1B68013B374AD7
S11349B01360364B1B68002B1CD1324B02221A7039
S11349C0334B5A78334B83F88722334BDB780133EC
S11349D01A462E4B1A60304B5B7801331A462A4B29
S11349E01A602C48FFF794FC2C4800F0C5FBFFF735
S11349F05BF840E0284B5B7801331A46224B1A607F
S1134A00274800F0B9FBFFF74FF834E01E4B1B6852
S1134A10013B1D4A13601C4B1B68002B2DD11B4B03
S1134A201B68013B194A1360184B1B68002B16D1F5
S1134A30144B00221A70164B9A78164B83F887226F
S1134A40124B00221A60104B00221A601148FFF723
S1134A505FFC144800F090FBFFF726F80DE00E4BC6
S1134A605B7801331A46084B1A600F4800F084FB48
S1134A70FFF71AF801E000BF00E000BF00BF80BDEF
S1134A80AC000020C2000020C8000020C4000020A8
S1134A903401002038010020E00000201C690000DF
S1134AA02C690000386900004469000080B483B0B8
S1134AB000AF0346FB7197F90730002B0BDBFB7942
S1134AC003F01F02074997F907305B09012000FA38
S1134AD002F241F8232000BF0C37BD465DF8047B89
S1134AE0704700BF00E100E080B483B000AF03462C
S1134AF0FB7197F90730002B0CDBFB7903F01F02E5
S1134B00074997F907305B09012000FA02F2603384
S1134B1041F8232000BF0C37BD465DF8047B704785
S1134B2000E100E080B500AF01211448FBF7F4FD7B
S1134B30134B00221A60124B00225A62104B42F2AD
S1134B405422DA610E4B4FF020621A600C4B40F68F
S1134B50F7725A610A4B01229A610520FFF7C4FFDC
S1134B600520FFF7A3FF064B01225A60054B0022E4
S1134B701A70054B00221A6000BF80BD00020600B7
S1134B8000800140540600205006002080B400AF8D
S1134B900E4B01225A610E4B1B78DBB20133DBB2A0
S1134BA00B4A19461170072B0AD9094B00221A70B7
S1134BB0084B01221A70084B1B680133064A136024
S1134BC000BFBD465DF8047B704700BF0080014014
S1134BD0CD000020540600205006002080B483B08D
S1134BE000AF0346FB7197F90730002B0BDBFB7911
S1134BF003F01F02074997F907305B09012000FA07
S1134C0002F241F8232000BF0C37BD465DF8047B57
S1134C10704700BF00E100E080B483B000AF0346FA
S1134C20FB7197F90730002B10DBFB7903F01F02AF
S1134C30094997F907305B09012000FA02F2203391
S1134C4041F82320BFF34F8FBFF36F8F00BF0C37A2
S1134C50BD465DF8047B704700E100E080B483B09A
S1134C6000AF0346FB7197F90730002B0CDBFB798F
S1134C7003F01F02074997F907305B09012000FA86
S1134C8002F2603341F8232000BF0C37BD465DF8C3
S1134C90047B704700E100E080B483B000AF0346BA
S1134CA03960FB71FB79002B16D0FB79012B13D0F3
S1134CB0FB79022B10D0FB79032B0DD0FB79042B4D
S1134CC00AD0FB79052B07D0FB79062B04D0FB799E
S1134CD0072B01D0FB79082B01223B6802FA03F36E
S1134CE00749FA79184613465B0013441B010B4429
S1134CF01833186000BF0C37BD465DF8047B70475D
S1134D000080084080B500AF01211148FBF704FD85
S1134D10104B00221A600F4B00225A620D4B4EF6C4
S1134D205F22DA610B4B00221A600A4B40F6F772DD
S1134D305A61084B01229A610E20FFF78FFF0E2063
S1134D40FFF74CFF034B02225A6000BF80BD00BF37
S1134D50001204000084014080B500AF084B00221B
S1134D605A62074B40F6F7725A610E20FFF776FF3E
S1134D700E20FFF733FF024B01225A6000BF80BDB3
S1134D800084014080B500AF034B02225A600E201C
S1134D90FFF742FF00BF80BD0084014080B500AF33
S1134DA0064B01225A6104210320FFF775FFFEF729
S1134DB0AFF9FEF7E1FF00BF80BD00BF00840140F2
S1134DC080B483B000AF78607B684EF2C7529342E0
S1134DD008D97B684EF6F862934203D8044A7B688C
S1134DE0013BD36100BF0C37BD465DF8047B7047BF
S1134DF00084014080B400AF044B4EF65F22DA61B8
S1134E0000BFBD465DF8047B704700BF00840140CD
S1134E1080B483B000AF0346FB7197F90730002BD1
S1134E200BDBFB7903F01F02074997F907305B0995
S1134E30012000FA02F241F8232000BF0C37BD46DE
S1134E405DF8047B704700BF00E100E080B483B0EC
S1134E5000AF0346FB7197F90730002B0CDBFB799D
S1134E6003F01F02074997F907305B09012000FA94
S1134E7002F2603341F8232000BF0C37BD465DF8D1
S1134E80047B704700E100E080B483B000AF786039
S1134E9039607B683A689A6400BF0C37BD465DF898
S1134EA0047B704780B483B000AF786039607B685E
S1134EB0DA6C3B681A437B68DA6400BF0C37BD4682
S1134EC05DF8047B7047000080B500AF01211F48E6
S1134ED0FBF722FC01211E48FBF71EFC01230422E0
S1134EE004210220FDF712F80023012205210220EB
S1134EF0FDF70CF8174B40F6AA62DA60154B002256
S1134F001A60144B41F205025A60134A4FF41651C9
S1134F10104800F0ECF90F4B03225A670D4B40F296
S1134F2004429A670B4B0522DA600C490948FFF7E3
S1134F30ABFF04210748FFF7B5FF1520FFF786FFF5
S1134F401520FFF765FF00BF80BD00BF004E0400C1
S1134F5000550A000040014000A24A04FFFF01007E
S1134F6080B582B000AF786007E07B685A1C7A6035
S1134F701B7819460548FDF773F87B681B78002BEE
S1134F80F3D100BF0837BD4680BD00BF00400140DB
S1134F9080B582B000AF1648FDF74EF80346FB71AA
S1134FA0FB790D2B10D1134B1B889BB21A46124B65
S1134FB0002199541048FFF7D3FF1048FFF7D0FFA2
S1134FC00C4B00221A800FE00A4B1B889BB2FE2B6D
S1134FD00AD8084B1B889BB25A1C91B2054A11800F
S1134FE01946054AFB79535400BF0837BD4680BDB6
S1134FF000400140CE000020580600205469000003
S113500080B483B000AF0346FB7197F90730002BDF
S11350100BDBFB7903F01F02074997F907305B09A3
S1135020012000FA02F241F8232000BF0C37BD46EC
S11350305DF8047B704700BF00E100E080B483B0FA
S113504000AF0346FB7197F90730002B0CDBFB79AB
S113505003F01F02074997F907305B09012000FAA2
S113506002F2603341F8232000BF0C37BD465DF8DF
S1135070047B704700E100E080B483B000AF786047
S113508039607B683A689A6400BF0C37BD465DF8A6
S1135090047B704780B483B000AF786039607B686C
S11350A0DA6C3B681A437B68DA6400BF0C37BD4690
S11350B05DF8047B7047000080B500AF01212048F3
S11350C0FBF72AFB01211F48FBF726FB01230422DF
S11350D00C210420FCF71AFF002301220D210420D7
S11350E0FCF714FF184B40F6AA62DA60164B002254
S11350F01A60154B41F205025A60144A4FF4E1312B
S1135100114800F0F4F8104B03225A670E4B40F29A
S113511004429A670C4B0522DA600D490A48FFF7EE
S1135120ABFF04210848FFF7B5FF1720FFF786FF00
S11351301720FFF765FF074B00221A7000BF80BDE0
S1135140005E040000550A000044014000A24A0425
S1135150FFFF01005808002080B582B000AF03466D
S1135160FB71FB7919460348FCF77AFF00BF083747
S1135170BD4680BD0044014080B582B000AF786078
S113518007E07B685A1C7A601B7819460548FCF7CF
S113519067FF7B681B78002BF3D100BF0837BD463F
S11351A080BD00BF0044014080B582B000AF1D48FF
S11351B0FCF742FF0346FB71FB790D2B1AD11A4B06
S11351C01B889BB21A46194B002199541848FFF7C3
S11351D0D3FF154B1B889BB2FE2B07D8124B1B88A1
S11351E09BB2013B114AD25C124B1A700E4B002247
S11351F01A8013E0FB791846FFF7AEFF0A4B1B88B1
S11352009BB2FE2B0AD8084B1B889BB25A1C91B246
S1135210054A11801946054AFB79535400BF0837E3
S1135220BD4680BD00440140D00000205807002046
S1135230586900005808002080B483B000AF0346CA
S1135240FB7197F90730002B0BDBFB7903F01F028E
S1135250074997F907305B09012000FA02F241F887
S1135260232000BF0C37BD465DF8047B704700BFA8
S113527000E100E080B483B000AF0346FB7197F90E
S11352800730002B0CDBFB7903F01F02074997F969
S113529007305B09012000FA02F2603341F8232051
S11352A000BF0C37BD465DF8047B704700E100E0A9
S11352B080B483B000AF786039607B683A689A64E0
S11352C000BF0C37BD465DF8047B704780B483B0E3
S11352D000AF786039607B68DA6C3B681A437B689E
S11352E0DA6400BF0C37BD465DF8047B704780B4B8
S11352F087B000AFF860B9607A6010237B617B6887
S11353009A00BB68796901FB03F3B2FBF3F3043B36
S11353109B013B61FB683A695A6100BF1C37BD467B
S11353205DF8047B7047000080B500AF01211E4882
S1135330FBF7F2F901211D48FBF7EEF901230422E2
S11353400A210420FCF7E2FD002301220B210420A2
S1135350FCF7DCFD164B40F6AA62DA60144B00221F
S11353601A60134B41F205025A60124A4FF4E131BC
S11353700F48FFF7BCFF0E4B03225A670C4B002269
S11353809A670B4B0522DA600B490948FFF790FF37
S113539004210748FFF79AFF0620FFF76BFF06205A
S11353A0FFF74AFF00BF80BD0072040000550A00E9
S11353B00000014000A24A04FFFF010080B582B052
S11353C000AF786007E07B685A1C7A601B78194646
S11353D00548FCF745FE7B681B78002BF3D100BF22
S11353E00837BD4680BD00BF0000014080B582B0D3
S11353F000AF1648FCF720FE0346FB71FB790D2B2A
S113540010D1134B1B889BB21A46124B002199549E
S11354101048FFF7D3FF1048FFF7D0FF0C4B0022D2
S11354201A800FE00A4B1B889BB2FE2B0AD8084B4C
S11354301B889BB25A1C91B2054A11801946054A31
S1135440FB79535400BF0837BD4680BD00000140BE
S1135450D20000205C0800206069000080B483B0A2
S113546000AF78607B680D4A93420BD07B680C4A8E
S1135470934207D07B680B4A934203D07B680A4A65
S1135480934202D14FF0FF3301E04FF6FF73184609
S11354900C37BD465DF8047B704700BF00A0014097
S11354A000A4014000A8014000AC014080B582B0D6
S11354B000AF786039607868FFF7D0FF7B683A689E
S11354C0DA6100BF0837BD4680BD000080B584B0F6
S11354D000AF00211348FBF7C7F901211248FBF77D
S11354E01BF93B4600221A605A609A601A73012322
S11354F03B7001233B700023BB700023FB7000232F
S11355003B7100237B703B4619460848FDF724FB9A
S11355104FF0FF310548FFF7C9FF00BF1037BD4604
S113552080BD00BF60410900000E040000A00140DE
S113553053B94AB9002908BF00281CBF4FF0FF31F6
S11355404FF0FF3000F072B9ADF1080C6DE904CEF4
S113555000F006F8DDF804E0DDE9022304B070474A
S11355602DE9F047089E04468846002B4BD18A4219
S1135570154667D9B2FA82F24AB1C2F1200701FA9C
S113558002F320FA07F7954047EA030894404FEAEC
S1135590154E230CB8FBFEF71FFA85FC0EFB17888B
S11355A043EA084307FB0CF1994209D9EB1807F1C8
S11355B0FF3080F01B81994240F21881023F2B4456
S11355C05B1AA4B2B3FBFEF00EFB103344EA0344AF
S11355D000FB0CFCA44509D92C1900F1FF3380F021
S11355E00781A44540F2048102382C4440EA074074
S11355F0A4EB0C0400271EB1D4400023C6E90043E9
S11356003946BDE8F0878B4209D9002E00F0EB80C3
S11356100027C6E9000138463946BDE8F087B3FAE9
S113562083F7002F47D18B4202D3824200F2FA80E3
S1135630841A61EB030301209846002EE0D0C6E9EA
S11356400048DDE702B9FFDEB2FA82F2002A40F038
S11356508F80491B4FEA154E1FFA85F80127B1FBCD
S1135660FEFC230C0EFB1C1143EA014308FB0CF166
S1135670994207D9EB180CF1FF3002D2994200F29B
S1135680CD808446591AA3B2B1FBFEF00EFB101470
S113569043EA044408FB00F8A04507D92C1900F19B
S11356A0FF3302D2A04500F2B6801846A4EB0804EA
S11356B040EA0C409FE7C7F1200CBB4022FA0CFEE5
S11356C04EEA030E01FA07F420FA0CF521FA0CF362
S11356D04FEA1E482543B3FBF8F92C0C08FB193399
S11356E01FFA8EFA44EA034309FB0AF49C4202FAC5
S11356F007F200FA07F10BD91EEB030309F1FF309F
S113570080F087809C4240F28480A9F102097344AE
S11357101B1BADB2B3FBF8F008FB103345EA03449E
S113572000FB0AFAA24508D91EEB040400F1FF337A
S11357306BD2A24569D90238744440EA0940A0FBFF
S11357400289A4EB0A044C45C2464B4654D351D0BB
S1135750002E69D0B1EB0A0564EB030404FA0CFCD7
S1135760FD40FC404CEA0505C6E90054002747E724
S1135770C2F1200320FA03F7954001FA02F021FA5E
S113578003F34FEA154E3843010CB3FBFEF71FFA3F
S113579085F80EFB173341EA034107FB08F38B42FC
S11357A004FA02F407D9691807F1FF3C2FD28B429F
S11357B02DD9023F2944CB1A81B2B3FBFEF00EFB74
S11357C0103341EA034100FB08F38B4207D96918FF
S11357D000F1FF3C17D28B4215D902382944C91A6B
S11357E040EA07473BE73746304609E70746E7E61E
S11357F01846FBE64145ABD2B8EB020A69EB0E0250
S113580001381346A4E76046E9E7184695E767467A
S1135810D1E781467CE702382C4447E7ACF1020C1F
S11358202B442FE7384608E73746E9E6704700BFC0
S113583008B5074B044613B10021AFF30080054BB4
S11358401868836A03B19847204600F0A1FC00BFA2
S1135850000000006469000070B50D4E0D4CA41BDF
S1135860A4100025A54209D10B4E0C4C00F092FC6B
S1135870A41BA4100025A54205D170BD56F82530FF
S113588098470135EEE756F8253098470135F2E799
S113589074000020740000207400002078000020B0
S11358A010B5431E0A44914200D110BD11F8014BBA
S11358B003F8014FF7E702440346934200D17047CF
S11358C003F8011BF9E700000EB400B59CB01DAB52
S11358D0029006906FF0004109480791049109492C
S11358E053F8042B05910068019302A900F06EF8A7
S11358F0029B00221A701CB05DF804EB03B07047E1
S1135900100000200802FFFF034613F8012B002AB1
S1135910FBD1181A013870472DE9F0478E689E4272
S113592082460C469046994637D88A8912F4906F7D
S113593031D0256809696F1A6569022305EB4505AD
S113594095FBF3F509F101033B449D4238BF1D4625
S1135950530530D5294600F073FB064650B90C2395
S1135960CAF80030A38943F04003A3814FF0FF300D
S1135970BDE8F0873A462169FFF792FFA38923F433
S1135980906343F08003A381266165613E44ED1B6F
S11359902660A5604E464E4500D94E4632464146E5
S11359A0206800F0E5FAA3689B1BA36023681E44EB
S11359B026600020DCE72A4600F09CFB064600280F
S11359C0E2D12169504600F0EDFAC8E72DE9F04F25
S11359D09DB0804603938B891D060C4616460FD551
S11359E00B696BB9402100F02BFB2060206128B9C2
S11359F00C23C8F800304FF0FF30C7E04023636148
S1135A000023099320238DF8293030238DF82A3080
S1135A104FF0010B37463D4615F8013B0BB1252BE2
S1135A203ED1B7EB060A0BD05346324621464046D8
S1135A30FFF772FF013000F0A480099B53440993DF
S1135A403B78002B00F09D8000234FF0FF32CDE91E
S1135A500523049307938DF853301A932F46052298
S1135A6017F8011B4F4800F033FA049BD0B9D9064C
S1135A7044BF20228DF853201A0744BF2B228DF8EF
S1135A8053202A782A2A15D0079A2F4600200A255F
S1135A90394611F8013B303B092B4DD9B8B10FE021
S1135AA02F46B8E73F4A801A0BFA00F018430490D7
S1135AB03D46D3E7039A111D12680391002A01DBC6
S1135AC0079204E0524243F00203079204933B78A6
S1135AD02E2B0CD17B782A2B33D1039B1A1D1B68E8
S1135AE00392002BB8BF4FF0FF33023705932E4DBE
S1135AF039780322284600F0EBF938B14023401BE3
S1135B0003FA00F0049B03430137049339782748D0
S1135B108DF8281006227E1C00F0DAF9002838D00F
S1135B20234B13BB039B073323F00703083303936F
S1135B30099B4B4409936DE705FB023201200F4694
S1135B40A6E700230137059319460A25384610F8BD
S1135B50012B303A092A03D9002BC8D00591C6E796
S1135B6005FB012101230746F0E703AB009322461E
S1135B70104B04A94046AFF30080B0F1FF3F8146CB
S1135B80D6D1A3895B063FF536AF09981DB0BDE8B1
S1135B90F08F03AB00932246064B04A9404600F065
S1135BA081F8EAE7686900006E6900007269000024
S1135BB000000000195900002DE9F04791461F46E6
S1135BC08A680B69DDF820809342B8BF1346C9F890
S1135BD0003091F8432006460C4612B10133C9F84F
S1135BE000302368990642BFD9F800300233C9F85F
S1135BF00030256815F0060507D104F1190AE36899
S1135C00D9F800209B1AAB4228DC94F84330226870
S1135C10003318BF012392062DD404F14302394600
S1135C203046C047013020D02368E568D9F8002009
S1135C3003F00603042B08BFAD1AA36822690CBF46
S1135C4025EAE57500259342C4BF9B1AED184FF071
S1135C5000091A344D451AD1002008E001235246A8
S1135C6039463046C047013003D14FF0FF30BDE81C
S1135C70F0870135C3E7E1185A1C302081F843004E
S1135C80224494F8451082F843100233C5E70123F7
S1135C90224639463046C0470130E6D009F10109B1
S1135CA0D8E700002DE9F04301F1430C0C46097ECE
S1135CB085B06E291746064698460C9A00F0B380C4
S1135CC022D8632936D00AD8002900F0B98058298F
S1135CD000F0838004F1420584F8421032E0642924
S1135CE001D06929F6D120681368050603F104017F
