:1000000000000820092A0000352A0000352A0000D7
:10001000352A0000352A0000352A0000352A000064
:10002000352A0000352A0000352A0000352A000054
:10003000352A0000342A0000352A0000352A000045
:10004000352A0000352A0000352A0000F13500006D
:10005000352A000081760000E5800000352A000086
:10006000352A0000352A0000352A0000352A000014
:10007000352A0000352A000025780000352A0000C6
:10008000352A0000352A0000352A0000352A0000F4
:10009000352A00000D7A0000352A0000D97B0000C7
:1000A000352A0000352A0000352A0000352A0000D4
:1000B000352A0000352A0000352A0000352A0000C4
:1000C000352A0000352A0000352A0000352A0000B4
:1000D000352A0000352A0000352A0000352A0000A4
:1000E000352A0000352A0000352A0000352A000094
:1000F000352A0000352A0000352A0000352A000084
:10010000352A0000352A0000352A0000352A000073
:10011000352A0000352A0000352A0000352A000063
:10012000352A0000352A0000352A0000352A000053
:10013000352A0000352A0000352A0000352A000043
:10014000352A0000352A0000352A0000352A000033
:1001500010B5054C237833B9044B13B10448AFF301
:1001600000800123237010BD8000002000000000EB
:10017000ECA5000008B5034B1BB103490348AFF3DE
:10018000008008BD0000000084000020ECA50000F5
:10019000154B002B08BF134B9D46A3F5803A002159
:1001A0008B460F461348144A121A08F07EFA0F4B7A
:1001B000002B00D098470E4B002B00D09847002012
:1001C000002104000D000D48002802D00C48AFF3B8
:1001D000008008F03BFA2000290002F0D9F808F06E
:1001E00021FA00BF00000800000008200000000005
:1001F0000000000080000020DC0D00200000000056
:100200000000000080B487B000AFF860B9607A6089
:10021000FB6803F10473DA00BB6813449B007B6145
:100220007B697A681A6000BF1C37BD465DF8047BA5
:10023000704780B485B000AF786039607B6803F1A7
:100240000473DA003B6813449B00FB60FB681B6887
:1002500018461437BD465DF8047B704780B485B0FE
:1002600000AF786039607B6803F1C063FB60FB68B6
:100270003A681A6000BF1437BD465DF8047B7047CA
:1002800080B485B000AF786039607B6803F180632B
:10029000FB60FB683A681A6000BF1437BD465DF822
:1002A000047B704780B483B000AF786001227B6824
:1002B00002FA03F318460C37BD465DF8047B70471D
:1002C00080B485B000AF78607B68002B03D07B687A
:1002D000B3F5004F00BF7B68B3FA83F3DBB2C3F121
:1002E0001F03FB60FB6818461437BD465DF8047BAE
:1002F000704780B584B000AF78607B680133B3FA93
:1003000083F3DBB2C3F11F03FB60F868FFF7CAFF9A
:10031000FB6818461037BD4680BD000080B400AFB2
:10032000064B1B6803F04003002B01D1012300E0C2
:1003300000231846BD465DF8047B70473C300E40F4
:1003400080B500AFFFF7EAFF034683F00103DBB29D
:10035000002B08D100BF12210448FFF76AFF0346B3
:10036000002BF8D100E000BF80BD00BF04300E407C
:1003700080B500AFFFF7E4FF034B5B681B0C03F095
:100380000303DBB2184680BD00300E4080B584B058
:1003900000AF78600123FB607B68124A934204D867
:1003A0000023FB600023BB6008E07B680E4A934299
:1003B00002D80123BB6001E00223BB60FA68102170
:1003C0000A48FFF71FFF094BD3F8003123F04072B2
:1003D000BB681B0605491343C1F8003100BF103745
:1003E000BD4680BD0048E8010090D00300400E40AB
:1003F00080B485B000AF786039604FF080435B68AF
:1004000003F04073FB600023BB6012E01B4ABB6833
:10041000DB0013441A793B68DBB29A4206D1174AD3
:10042000BB6852F833307A689A4206D9BB68013308
:10043000BB60BB68062BE9D900E000BFBB68072B97
:1004400002D10323FB6005E00C4ABB68DB001344C8
:100450005B79FB60FB681B06FB604FF080435B68C9
:1004600023F040724FF08041FB6813434B6000BFA4
:100470001437BD465DF8047B704700BFDC93000075
:1004800080B582B000AF4FF080431B6C002B14BFCF
:1004900001230023FB714FF0804341F671321A644F
:1004A00002F0EAFA034600211846FFF7A1FFFB79A4
:1004B000002B03D04FF0804300221A6400BF08379E
:1004C000BD4680BD80B584B000AF786039600C4B0C
:1004D000FB603B68022B01D10A4BFB607A68FB682A
:1004E0009A4204D908490948FFF7B8FE03E00649D3
:1004F0000648FFF7C5FE00BF1037BD4680BD00BFF0
:1005000080D543020024F4000202020000010040F2
:1005100080B582B000AF786039607B680B4A934247
:1005200009D93B68002B06D14FF480514FF0804031
:10053000FFF794FE05E04FF480514FF08040FFF745
:100540009FFE00BF0837BD4680BD00BF80F0FA02A5
:1005500080B584B000AF786039604FF080431B6C89
:10056000002B14BF01230023FB734FF0804341F69F
:1005700071321A6439687868FFF73AFF3968786829
:10058000FFF7A0FF39687868FFF7C2FFFB7B002BFD
:1005900003D04FF0804300221A6400BF1037BD46DD
:1005A00080BD000080B400AF044B5B6A1B0903F000
:1005B00003031846BD465DF8047B704700400E40BB
:1005C00080B483B000AF7860074B5B6A23F03002E1
:1005D0007B681B01044913434B6200BF0C37BD46C7
:1005E0005DF8047B704700BF00400E4080B483B0CC
:1005F00000AF78600A4BD3F8443103F00103002BBD
:1006000008D100BF064BD3F840217B681340002B74
:10061000F8D100E000BF0C37BD465DF8047B7047A1
:1006200000400E4080B500AF0321064800F01CF9E1
:100630000321054800F018F90321044800F014F9DB
:1006400000BF80BD404105005041070060410900E6
:1006500080B582B000AF02F019FA3860FFF788FE6B
:100660000346022B1AD13A68224B1344224AA2FBBA
:100670000323DB0D7B607B68002B02D07B68013B92
:100680007B6079681D4800F0EFF879681C4800F03D
:10069000EBF879681B4800F0E7F827E03A681A4B56
:1006A00013441A4AA2FB03231B0E7B607B68002BBA
:1006B00002D07B68013B7B607968104800F0D4F879
:1006C0007968104800F0D0F83A68114B1344114A89
:1006D000A2FB03239B0E7B607B68002B02D07B6810
:1006E000013B7B607968064800F0BEF800BF083720
:1006F000BD4680BDFF2C31016BCA5F6B40410500D8
:1007000050410700604109007FF0FA02893BE6553D
:10071000FFA14A04B5FA9BEE80B586B000AF7860C1
:100720000B46FB7000233B617B681B0A03F00F0341
:10073000013B0E2B7CD801A252F823F07907000070
:100740008507000031080000310800007F07000025
:10075000910700009B070000A5070000B1070000FB
:1007600007080000BD070000DF0700003108000097
:100770008B070000010800002F4B7B6146E02F4BE8
:100780007B6143E02E4B7B6140E02E4B7B613DE083
:100790002D4B7B6101233B6138E02C4B7B611023A7
:1007A0003B6133E02A4B7B614FF480733B612DE06A
:1007B000284B7B614FF480333B6127E0264B7B6104
:1007C000FB78002B14BF01230023DBB283F001036D
:1007D000DBB2FB70FB7803F00103FB7016E01F4BEC
:1007E0007B61FB78002B14BF01230023DBB283F075
:1007F0000103DBB2FB70FB7803F00103FB7005E043
:10080000174B7B6102E0174B7B6100BF7B681B0BC2
:1008100003F01F03FB603B69002B02D03869FFF730
:10082000E5FEFB781A46F9687869FFF7EBFC00E013
:1008300000BF1837BD4680BD00400E40B0400E409E
:10084000C0400E40C4400E40E0400E40E8400E4024
:10085000EC400E40F0400E4060410E4064410E40BE
:10086000F0410E4050410E4080B584B000AF78603A
:1008700039607B681B0903F00F03FB60FB68013BD9
:100880000B2B00F2D58101A252F823F0BD08000025
:10089000070900001F0900003F0900005B09000074
:1008A0007709000093090000C7090000D90A000079
:1008B000710B00009B0B0000150C0000FFF7E0FD22
:1008C000BA48FFF763FDFFF7ADFEB94BD3F800312F
:1008D00023F4F8523B681B02B5491343C1F80031B9
:1008E00002F0AAF8B860FFF743FD03461946B8685E
:1008F000FFF72EFE02F0CAF803461846FFF746FD42
:10090000FFF7A6FE95E1AA4BD3F8143123F4F85271
:100910003B681B02A6491343C1F8143189E13868CA
:10092000FFF7CEFC3860A24BD3F8003123F04072C1
:100930003B681B069E491343C1F8003179E19C4B8B
:10094000D3F80C3123F4FF3323F480733A68120296
:1009500097491343C1F80C316BE1954BD3F818312B
:1009600023F4FF3323F480733A681202904913434F
:10097000C1F818315DE18E4BD3F81C3123F4FF33FD
:1009800023F480733A68120289491343C1F81C3179
:100990004FE1FFF775FD864BD3F8083123F4FF33A1
:1009A00023F480733A68120281491343C1F8083175
:1009B00002F042F8B860FFF7DBFC03461946B8685E
:1009C000FFF7C6FD35E17B687A4A93424AD0794AFF
:1009D000934209D8784A934223D0784A93422FD041
:1009E000774A93420AD076E0764A934260D0764ABC
:1009F00093424AD0754A93425AD06CE03868FFF768
:100A000078FC38600420FFF7F1FD694BD3F8203102
:100A100023F470223B681B0465491343C1F820315D
:100A200059E04FF48020FFF7E1FD614BD3F83031FE
:100A300023F003025E493B681343C1F830314AE0BA
:100A40003868FFF756FC38600420FFF7CFFD584B9D
:100A5000D3F8203123F00F0255493B681343C1F806
:100A6000203138E03868FFF744FC38600420FFF795
:100A7000BDFD4F4BD3F8203123F0F0023B681B0142
:100A80004B491343C1F8203125E03868FFF731FCAA
:100A900038600420FFF7AAFD454BD3F8203123F43A
:100AA00040723B681B0242491343C1F8203112E0F7
:100AB0003868FFF71EFC38600420FFF797FD3C4BB9
:100AC000D3F8203123F4E0423B681B033849134339
:100AD000C1F8203100BFACE07B683D4A934218D09A
:100AE0003C4A934228D03C4A934200D03FE03868C9
:100AF000FFF7FFFB38604020FFF778FD2C4BD3F861
:100B0000283123F003022A493B681343C1F82831F6
:100B10002DE03868FFF7EDFB38604020FFF766FDF9
:100B2000234BD3F8283123F030023B681B012049C6
:100B30001343C1F828311AE03B687F2B02D83B6889
:100B40000E2B00BF3868FFF7D4FB0346043B3B6025
:100B50004020FFF74BFD164BD3F8283123F44052C9
:100B60003B681B0312491343C1F8283100BF60E002
:100B70007B68114A934200D00EE04FF48020FFF7CB
:100B800035FD0B4BD3F8303123F0030208493B68A5
:100B90001343C1F8303100BF4BE07B680F4A9342EA
:100BA00020D00F4A934228D033E000BF0148E8012B
:100BB00000400E4080161800A009140080061600A0
:100BC0008046120000362C0080262E0080002A006D
:100BD00090171C009037300090071A00B8003200C0
:100BE000B9003400154BD3F85C3123F003021349EC
:100BF0003B681343C1F85C310BE0104BD3F85C3118
:100C000023F440323B681B040C491343C1F85C31A8
:100C100000BF0EE0094BD3F8043123F4FF3323F473
:100C200080733A68120205491343C1F8043100E0A9
:100C300000BF00BF1037BD4680BD00BF00400E4062
:100C400080B485B000AF78600123FB737B6803F04C
:100C50000F03BB60BB68013B0B2B00F2748101A248
:100C600052F823F0950C0000F10C0000210D00005B
:100C7000990D0000690D0000C90D0000470F00002C
:100C8000ED0D00002F0E0000730E0000B30E0000EB
:100C9000F30E0000B34BD3F8943003F00703023B8C
:100CA000052B21D801A252F823F000BFD10C00007F
:100CB000CB0C0000C50C0000D70C0000E30C0000BA
:100CC000DD0C00000223FB7311E00323FB730EE035
:100CD0000423FB730BE00D23FB7308E00E23FB736F
:100CE00005E00A23FB7302E00523FB7300BF32E13A
:100CF0009C4BD3F8803003F00703022B06D0042B63
:100D000007D0012B08D10323FB7308E00223FB73F8
:100D100005E00C23FB7302E00123FB7300BF1AE123
:100D2000904BD3F8843003F00703013B032B17D813
:100D300001A252F823F000BF490D00004F0D000042
:100D40005B0D0000550D00000323FB730BE0022335
:100D5000FB7308E00C23FB7305E00623FB7302E042
:100D60000123FB7300BFF6E07E4BD3F8883003F01D
:100D70000703022B06D0042B07D0012B08D1032335
:100D8000FB7308E00223FB7305E00C23FB7302E016
:100D90000123FB7300BFDEE0724BD3F88C3003F00D
:100DA0000703022B06D0042B07D0012B08D1032305
:100DB000FB7308E00223FB7305E00C23FB7302E0E6
:100DC0000123FB7300BFC6E0664B1B6F03F00303F8
:100DD000002B04D0012B05D10923FB7305E0072369
:100DE000FB7302E00123FB7300BFB4E05D4BD3F85B
:100DF0005C3103F03003102B0CD0102B02D8002BE9
:100E000005D010E0202B08D0302B09D00BE00123B7
:100E1000FB730BE00723FB7308E00423FB7305E07F
:100E20000823FB7302E00123FB7300BF93E04D4BEB
:100E3000D3F85C3103F44013B3F5801F0FD0B3F542
:100E4000801F02D8002B07D085E0B3F5001F09D022
:100E5000B3F5401F09D07EE00123FB7308E00723B0
:100E6000FB7305E00423FB7302E00823FB7300BF60
:100E700071E03C4BD3F8603103F00303032B65D8DA
:100E800001A252F823F000BF990E00009F0E00004F
:100E9000A50E0000AB0E00000523FB7308E0042341
:100EA000FB7305E00723FB7302E00A23FB7300BF1B
:100EB0004CE02C4BD3F8643103F00303032B47D8E9
:100EC00001A252F823F000BFD90E0000DF0E00008F
:100ED000E50E0000EB0E00000523FB7308E0042381
:100EE000FB7305E00723FB7302E00A23FB7300BFDB
:100EF0002EE01C4BD3F8F03103F00703052B29D863
:100F000001A252F823F000BF210F0000270F0000BC
:100F10002D0F0000330F0000390F00003F0F0000BD
:100F20000A23FB730EE00423FB730BE00B23FB731C
:100F300008E00523FB7305E00223FB7302E00323B3
:100F4000FB7300BF06E00023FB7304E000BF02E078
:100F500000BF00E000BFFB7B18461437BD465DF8BC
:100F6000047B704700400E4080B58AB000AF7860C7
:100F70000B46FB7003237B62032387F82330002397
:100F8000BB6100237B617B68112B19D1FB78042B9B
:100F900003D101F0F5FD78610BE0FB78052B08D15A
:100FA00000F028FC0246C44B9A4202D900F022FC11
:100FB00078617B69002B03D00021786901F062FE23
:100FC0007B6803F00F033B613B69013B0B2B00F295
:100FD000748201A252F823F0091000000F110000E2
:100FE0002F1100001311000021110000CD1100008D
:100FF000BB140000EB11000061120000F7120000AA
:101000007B130000FF130000FB78023B0C2B00F267
:10101000568201A252F823F04D1000005910000032
:101020006510000077100000BF140000BF1400001E
:10103000BF140000BF140000A1100000BF14000086
:10104000BF140000891000009510000004237B628B
:10105000002387F8233029E003237B62012387F8EC
:10106000233023E002237B62022387F82330934856
:10107000FFF78CF91AE001237B62032387F8233002
:101080008E48FFF783F911E005237B62032387F87D
:1010900023300BE007237B62072387F8233005E02A
:1010A00006237B62052387F8233000BF97F823309F
:1010B000072B06D097F8233001220121184600F0B3
:1010C0000BFCFFF7DDF9FFF7ADFA7B69002B01D0D0
:1010D000FFF736F97A4A7B6A536701F0ADFCF86096
:1010E00001F0D4FC03461846FFF750F9FFF740F92A
:1010F00003461946F868FFF72BFA7B69002B03D1EA
:101100000121002001F0BEFDFFF7A2FAE4E16D4BE2
:10111000BB61BB69002B01D0BB6900E06A4BBB61BE
:10112000BB69002B01D0BB6900E0684BBB61BB69A8
:10113000002B01D0BB6900E0654BBB61FB78013B34
:101140000B2B00F2BE8101A252F823F07D110000AA
:101150008311000093110000C3140000C3140000A9
:10116000A3110000C3140000C3140000C314000046
:10117000C3140000C3140000BF1100000023FB6172
:1011800020E001220121002000F0A6FB0223FB61E8
:1011900018E001220121012000F09EFB0123FB61E8
:1011A00010E001F073FC03461846FFF7EFF8012248
:1011B00000214848FFF726F80323FB6102E00423DF
:1011C000FB6100BFBB69FA691A6085E1FB78072BF8
:1011D00002D0092B04D07FE1394B00221A6703E0CB
:1011E000374B01221A6700BF76E1FB78013B072BE2
:1011F00000F2698101A252F823F000BF1D12000025
:10120000C7140000C714000033120000C714000008
:10121000C714000023120000431200000023FB61EA
:1012200012E001220121042000F056FB0123FB61A2
:101230000AE001220121022000F04EFB0223FB61A3
:1012400002E00323FB6100BF1D4BD3F85C3123F0A8
:101250003002FB691B011A491343C1F85C313BE1C1
:10126000FB78013B072B00F2308101A252F823F0FA
:1012700091120000CB140000CB140000A712000054
:10128000CB140000CB14000097120000D91200000C
:101290000023FB6123E001220121042000F01CFB5C
:1012A0000123FB611BE001220121022000F014FB5D
:1012B0000223FB6113E000BF002D31010148E8016A
:1012C00000400E4080400E408C400E4088400E4052
:1012D00084400E40B0400E400323FB6100BF804BB2
:1012E000D3F85C3123F44012FB691B057C4913439E
:1012F000C1F85C31F0E0FB78043B062B00F2E7809C
:1013000001A252F823F000BF35130000251300009E
:10131000CF14000045130000CF140000CF140000CC
:101320005513000001220121032000F0D5FA00230B
:10133000FB6117E001220121022000F0CDFA012318
:10134000FB610FE001220121042000F0C5FA022315
:10135000FB6107E001220121052000F0BDFA032313
:10136000FB6100BF5E4BD3F8603123F003025C49A0
:10137000FB691343C1F86031AEE0FB78043B062BF8
:1013800000F2A78001A252F823F000BFB9130000B9
:10139000A9130000D3140000C9130000D3140000E7
:1013A000D3140000D913000001220121032000F012
:1013B00093FA0023FB6117E001220121022000F0D3
:1013C0008BFA0123FB610FE001220121042000F0D0
:1013D00083FA0223FB6107E001220121052000F0CE
:1013E0007BFA0323FB6100BF3D4BD3F8643123F04C
:1013F00003023B49FB691343C1F864316CE0FB789D
:10140000023B092B67D801A252F823F08514000093
:10141000951400004514000075140000D714000056
:10142000D7140000D7140000D714000035140000B2
:101430005514000001220121052000F04DFA00237F
:10144000FB612FE001220121022000F045FA012377
:10145000FB6127E001F094FB214B5B6A204A43F0DB
:101460000803536201220121022000F035FA022311
:10147000FB6117E001220121032000F02DFA032374
:10148000FB610FE001220121002000F025FA042376
:10149000FB6107E001220121012000F01DFA052374
:1014A000FB6100BF0E4BD3F8F03123F007020C496B
:1014B000FB691343C1F8F0310EE000BF0CE000BF40
:1014C0000AE000BF08E000BF06E000BF04E000BF84
:1014D00002E000BF00E000BF2837BD4680BD00BF6E
:1014E00000400E4080B58AB000AF786000237B6278
:1014F0000023FB77FEF73CFF0346022B06D17B68F7
:101500001B686F4A934201D90023D5E000233B6258
:1015100018E07B681A686B493B6A1B010B441B6827
:101520009A420CD37B681A6866493B6A1B010B44DC
:1015300004331B689A4202D83B6A7B6205E03B6A2F
:1015400001333B623B6A172BE3D97B6A182B01D12D
:101550000023B1E05B4A7B6A1B01134408331B681C
:10156000BB61584A7B6A1B0113440C331B68002B78
:1015700019D0544A7B6A1B0113440C331B6818466C
:1015800000F0A6F8034603F07F037B617B69092B1B
:1015900003D97B69093B7B6101E000237B61BA6968
:1015A0007B691343BB617B681B68474A136011204A
:1015B000FFF746FB0346052B01D1FEF761FF112023
:1015C000FFF73EFB0346052B09D17B681B681846D5
:1015D000FEF7DCFE0123FB773C4B05225A673B4BB1
:1015E0004FF400521A6600BF384BD3F8903003F422
:1015F0004053002BF8D1354B4FF46032C3F8A8208C
:101600007B689B881B047A68D28811462F4A0B435B
:1016100053642E4ABB6913617B689B7ADB007A684E
:10162000527B002A01D0042200E000221A437B688A
:10163000DB7A5B0013437A68127B1146234A0B4323
:101640001364224B4FF480521A6600BF1F4BD3F82D
:10165000A03003F460333B613B69002BF6D01120CE
:10166000FFF7EEFA03460D2B05D1FB7F002B02D0CE
:10167000164B01225A671120FFF7E2FA0346052BA9
:1016800009D101F0D9F9F860FEF772FE0346194658
:10169000F868FEF75DFF01F0F9F903461846FEF71A
:1016A00075FE0121002001F0EDFA3B69B3F5004F12
:1016B00001D1012300E0002318462837BD4680BD34
:1016C000002D31015C9200000C00002000400E4013
:1016D00080B483B000AF78607B68374A934243D0D0
:1016E000354A934216D8354A93422DD0334A934215
:1016F00006D8334A934227D0324A934224D053E04B
:10170000314A934228D0314A934229D0304A9342F9
:101710001ED049E02F4A934236D02E4A934209D830
:101720002D4A934228D02D4A934229D02C4A9342E5
:101730001ED039E02B4A93422ED02B4A93422FD011
:101740002A4A934224D02FE0294BD3F880302CE052
:10175000274BD3F88C3028E0254BD3F8983024E081
:10176000234BD3F89C3020E0214BD3F8A0301CE071
:101770001F4BD3F8A83018E01D4BD3F8AC3014E061
:101780001B4BD3F8B03010E0194BD3F8B4300CE059
:10179000174BD3F8B83008E0154BD3F8BC3004E051
:1017A000134BD3F8C03000E0002318460C37BD4679
:1017B0005DF8047B704700BFC0EA210100093D00CD
:1017C00040420F0080841E00405DC6000024F400EB
:1017D000C0CF6A00006CDC020048E80180D54302FB
:1017E00080BA8C010090D00300A24A04007E560308
:1017F000B081E00F80B400AF034B1B681846BD46B4
:101800005DF8047B704700BF0C00002080B584B0F9
:1018100000AF78601120FFF713FA012200210220A7
:1018200000F05AF80023FB607B68DB7A012B0AD0BA
:10183000022B05D0002B00D008E00023FB6005E060
:101840000323FB6002E00123FB6000BF204B5B6AC7
:1018500023F003021E49FB6813434B620023FB6025
:1018600001F08EF902461B4B9A4203D8FB6843F005
:101870000803FB60164B5B6A23F008021449FB68FF
:1018800013434B627B681B88DB027A6892881A4399
:101890000F4BDA620E4B1B6B1B0D1B057A685288CF
:1018A000D20213437A68D2881146094A0B43136364
:1018B0007B681B7A1A037B685B7A1B0113437A6887
:1018C000927A1A43024B5A6300BF1037BD4680BD5F
:1018D00000400E4040787D0180B588B000AF0346DF
:1018E000FB710B46BB7113467B71FB79052B00F234
:1018F000BF8001A252F823F05919000047190000D7
:101900002319000011190000351900006F1900009B
:1019100001237B6102233B610123FB610023BB6147
:1019200030E004237B6108233B610323FB61022336
:10193000BB6127E010237B6120233B610523FB6112
:101940000423BB611EE040237B6180233B610723AE
:10195000FB610623BB6115E04FF480737B614FF49C
:1019600000733B610923FB610823BB610AE04FF46C
:1019700080637B614FF400633B610B23FB610A23AF
:10198000BB6100BFBB79002B55D00023FB73FB79F3
:10199000022B11D1FEF706FE0346012B0CD1364B6C
:1019A000DB6B0123FB73354B5B6A03F00303032BF3
:1019B00002D10220FEF704FE304A7B69136600BFA5
:1019C000B9692F48FEF735FC0346002BF8D07B7928
:1019D000002B4ED000BFF9692948FEF72AFC0346C8
:1019E000002BF8D0FB79022B43D1FB7B002B40D09E
:1019F000224B5B6A03F00303032B03D00021022078
:101A000000F0F2F8022000F03DF8B8600122002159
:101A10000220FFF761FFB968022000F06DF8174A55
:101A20007B69136600BFF9691548FEF702FC03469F
:101A3000002BF8D01DE0114A3B69136600BF0F4B25
:101A4000D3F890300121BA6901FA02F21340002B59
:101A5000F5D17B79002B0CD000BF084BD3F8903028
:101A60000121FA6901FA02F21340002BF5D100E0DE
:101A700000BF2037BD4680BD00300E4000400E4004
:101A800090400E4080B485B000AF0346FB71FB79F7
:101A9000013B042B24D801A252F823F0B11A000014
:101AA000E11A0000BD1A0000D51A0000C91A000092
:101AB000104B1B6AC3F30803FB6014E00D4B1B695A
:101AC00003F07F03FB600EE00A4B9B6803F07F038B
:101AD000FB6008E0074B9B6903F07F03FB6002E0BB
:101AE0000023FB6000BFFB6818461437BD465DF855
:101AF000047B704700400E4080B582B000AF0346C3
:101B00003960FB71FB79013B042B63D801A252F8C9
:101B100023F000BF291B0000D51B0000571B00004D
:101B2000AB1B0000811B00003B68C3F308033B6054
:101B300000BF1A212A48FEF77CFB0346002BF8D190
:101B4000284B1B6A23F4FF7323F0010325493A68ED
:101B500013430B623FE03B6803F07F033B6000BF31
:101B600018211F48FEF765FB0346002BF8D11D4BDB
:101B70001B6923F07F021B493B6813430B612AE07A
:101B80003B6803F07F033B6000BF1E211448FEF753
:101B900050FB0346002BF8D1124B9B6823F07F02C9
:101BA00010493B6813438B6015E03B6803F07F03EB
:101BB0003B6000BF19210A48FEF73BFB0346002BA0
:101BC000F8D1084B9B6923F07F0206493B68134319
:101BD0008B6100E000BF00BF0837BD4680BD00BF7D
:101BE00040410E4000400E4080B584B000AF034637
:101BF0000A46FB711346BB71FEF7D4FC0346012B6A
:101C000003D14FF48003FB6009E0BB79002B03D1C3
:101C10004FF48003FB6002E0084BFB6000BF00BF95
:101C2000074BD3F89020FB681340FA689A42F7D12B
:101C3000012318461037BD4680BD00BFFF3F473A1D
:101C400000400E4080B487B000AFF860B9607A60A1
:101C5000FB6803F10473DA00BB6813449B007B61EB
:101C60007B697A681A6000BF1C37BD465DF8047B4B
:101C7000704780B485B000AF786039607B6803F14D
:101C8000C063FB60FB683A681A6000BF1437BD464A
:101C90005DF8047B704780B485B000AF7860396030
:101CA0007B6803F18063FB60FB683A681A6000BFE1
:101CB0001437BD465DF8047B704780B584B000AF33
:101CC000F860B9607A60B968F868FFF7E4FF79688E
:101CD000F868FFF7CEFF00BF1037BD4680BD00009B
:101CE00080B483B000AF7860044A7B68C2F82434C3
:101CF00000BF0C37BD465DF8047B7047008008408C
:101D000080B582B000AF03463960FB71FB79002BD0
:101D100016D0FB79012B13D0FB79022B10D0FB7965
:101D2000032B0DD0FB79042B0AD0FB79052B07D0B0
:101D3000FB79062B04D0FB79072B01D0FB79082B0C
:101D4000FA7913465B0013441B010C3303F1804303
:101D500003F5082301213A6801FA02F211461846F8
:101D6000FFF799FF00BF0837BD4680BD80B582B040
:101D700000AF03463960FB71FB79002B16D0FB796D
:101D8000012B13D0FB79022B10D0FB79032B0DD044
:101D9000FB79042B0AD0FB79052B07D0FB79062BA6
:101DA00004D0FB79072B01D0FB79082BFA79134675
:101DB0005B0013441B010C3303F1804303F508233C
:101DC00001213A6801FA02F211461846FFF751FF65
:101DD00000BF0837BD4680BD80B586B000AFB96092
:101DE0007A601A460346FB731346BB7300237B617C
:101DF000FB7B002B16D0FB7B012B13D0FB7B022B34
:101E000010D0FB7B032B0DD0FB7B042B0AD0FB7B7C
:101E1000052B07D0FB7B062B04D0FB7B072B01D0C7
:101E2000FB7B082B7B68072B0ED87B689B000F225F
:101E300002FA03F1FA7B7B689B0002FA03F31A466D
:101E40002B48FFF73AFF10E07B68083B7B617B691A
:101E50009B000F2202FA03F1FA7B7B699B0002FAD6
:101E600003F31A462348FFF728FF7B68072B10D897
:101E70007B689B00032202FA03F1BB6803F00302B4
:101E80007B689B0002FA03F31A461B48FFF715FF15
:101E90000FE07B699B00032202FA03F1BB6803F0A9
:101EA00003027B699B0002FA03F31A461348FFF70B
:101EB00004FFBB7B1A4679681148FFF7C3FE97F809
:101EC00020301A4679680F48FFF7BCFE01227B6874
:101ED00002FA03F31846FFF703FF97F824301A4677
:101EE00079680948FFF7AEFE00BF1837BD4680BDD0
:101EF0000084084004840840088408400C8408409A
:101F000010840840148408402884084080B584B0B8
:101F100000AFB9607B600346FB731346BB73FB7B6A
:101F2000002B16D0FB7B012B13D0FB7B022B10D098
:101F3000FB7B032B0DD0FB7B042B0AD0FB7B052BFB
:101F400007D0FB7B062B04D0FB7B072B01D0FB7B50
:101F5000082BBB7B002B0DD07B68002B05D0FB7BB7
:101F6000B9681846FFF702FF04E0FB7BB968184622
:101F7000FFF7C6FEBB68072B20D82E49FA7B134615
:101F80005B0013441B010B4404331A68BB689B00BD
:101F90000F2101FA03F3DB431340B97BBA689200C7
:101FA00001FA02F211462348FA7B194313465B00FB
:101FB00013441B0103440433196025E01D49FA7BD7
:101FC00013465B0013441B010B4408331A68BB68BB
:101FD00003F18043083B9B000F2101FA03F3DB432D
:101FE00002EA0301BA7BBB6803F18043083B9B0014
:101FF00002FA03F30F48FA7B194313465B001344BC
:102000001B01034408331960BB7B002B0DD17B6897
:10201000002B05D0FB7BB9681846FFF7A7FE04E04C
:10202000FB7BB9681846FFF76BFE00BF1037BD4653
:1020300080BD00BF0080084080B483B000AF7860EE
:1020400000BF7B681B6903F08003002BF9D07B681D
:10205000DB69DBB218460C37BD465DF8047B704780
:1020600080B483B000AF78600B46FB7000BF7B6824
:102070001B6903F04003002BF9D0FA787B685A63A0
:1020800000BF0C37BD465DF8047B704780B483B059
:1020900000AF03463960FB7197F90730002B0ADB6C
:1020A0003B68DAB20C4997F907305201D2B20B44BF
:1020B00083F800230AE03B68DAB20849FB7903F0B1
:1020C0000F03043B5201D2B20B441A7600BF0C3707
:1020D000BD465DF8047B704700E100E000ED00E0E4
:1020E00080B485B000AF786039607B6803F1C0636D
:1020F000FB60FB683A681A6000BF1437BD465DF8A4
:10210000047B704780B485B000AF786039607B682D
:1021100003F18063FB60FB683A681A6000BF143704
:10212000BD465DF8047B704780B582B000AF0346C2
:102130003960FB71FB79002B16D0FB79012B13D092
:10214000FB79022B10D0FB79032B0DD0FB79042BEC
:102150000AD0FB79052B07D0FB79062B04D0FB793D
:10216000072B01D0FB79082BFA7913465B00134447
:102170001B010C3303F1804303F5082301213A6866
:1021800001FA02F211461846FFF7BCFF00BF0837FC
:10219000BD4680BD80B582B000AF03463960FB719B
:1021A000FB79002B16D0FB79012B13D0FB79022B86
:1021B00010D0FB79032B0DD0FB79042B0AD0FB79CF
:1021C000052B07D0FB79062B04D0FB79072B01D018
:1021D000FB79082BFA7913465B0013441B010C337F
:1021E00003F1804303F5082301213A6801FA02F262
:1021F00011461846FFF774FF00BF0837BD4680BD83
:1022000080B400AF4FF0804301225A64184BD3F8DA
:10221000B030174A43F00103C2F8B030144BD3F882
:10222000E030134A43F00803C2F8E030114B1B685A
:10223000104A43F4805313600D4BD3F8E0300C4A3E
:1022400023F00803C2F8E030094BD3F8B030084A55
:1022500023F00103C2F8B030074B1B68064A43F471
:10226000F843136000BFBD465DF8047B704700BFB4
:1022700000400E4034400540A4310E4080B588B087
:1022800000AF224A07F1140307CA83E807000023BE
:10229000FB7707F114031846FFF7B8FA0122012172
:1022A0000220FFF719FB3B1D00221A605A609A605A
:1022B000DA60174B7B6040F60F633B8140F6C31337
:1022C0007B810423BB7301237B743B1D1846FFF7FE
:1022D00009F9034683F00103DBB2002B03D004218C
:1022E0001120FEF741FE0B4BD3F80C31094A23F4C1
:1022F000FF3323F48073C2F80C3101210648FEF746
:102300000BFA00BF2037BD4680BD00BF149400000B
:1023100000A24A0400400E404041050080B500AFD5
:1023200001210D48FEF7F8F90023042201210020C5
:10233000FFF7ECFD0023042202210020FFF7E6FD59
:102340000023042204210320FFF7E0FD02210020E6
:10235000FFF720FF00BF80BD00550A0080B485B0A4
:1023600000AF78600023FB6004E0FB68FB60FB6863
:102370000133FB607B6840F60B2202FB03F2FB6833
:102380009A42F2D800BF1437BD465DF8047B70470F
:10239000F0B5C3B002AFFFF733FF00210320FFF712
:1023A00075FE01210E20FFF771FE02211520FFF7B7
:1023B0006DFE03210620FFF769FE04211720FFF7B9
:1023C00065FE05210520FFF761FEFFF757FF01F0CD
:1023D000D1F8FFF7A3FF01F055FB05F0DFFC05F096
:1023E000B1FA05F081FB05F017F905F0CFF905F01A
:1023F00067FF01F065F901F0D1F904F00BFF01F07E
:102400006FFB4FF49670FFF7A9FF01F071FB01F02D
:102410007FFB4FF49670FFF7A1FF01F081FB01F005
:102420008FFB4FF49670FFF799FF01F091FB01F0DD
:102430009FFB4FF49670FFF791FF01F0A1FB01F0B5
:10244000AFFB4FF49670FFF789FF01F0B1FB01F08D
:10245000BFFB4FF49670FFF781FF01F0C1FB01F065
:10246000DDFE01F0A7FE03F09DFA3B4600221A6054
:1024700004E03B461B685A1C3B461A603B461B68FF
:10248000C74A9342F5DD04210320FFF74DFEC548FE
:1024900005F0A4FAC44805F0CBFCC44805F084FB61
:1024A000C34805F081FB01F0F3FF01F0D7FB04F016
:1024B000AFF804F087FDBF4B1B78002B00F028829B
:1024C000BC4B1B78313B462B00F2158201A252F81F
:1024D00023F000BFD7260000E3260000EF2600000F
:1024E000FB2600000727000013270000F728000044
:1024F000F7280000F7280000F7280000F728000060
:10250000F7280000F7280000F7280000F72800004F
:10251000F7280000F7280000F7280000C526000073
:10252000F7280000F7280000F7280000F72800002F
:10253000F7280000F7280000F7280000F72800001F
:10254000B1260000F7280000F7280000F728000057
:10255000F7280000F7280000F72800009D2600005B
:102560001F270000F7280000F7280000F7280000C8
:10257000F7280000F7280000F7280000F7280000DF
:10258000F7280000F7280000F7280000F7280000CF
:10259000F728000049280000F7280000F72800006D
:1025A00025270000F7280000F7280000F728000082
:1025B000F125000067270000F7280000F728000039
:1025C00087260000F72800007D270000F72800007C
:1025D000D1260000F728000075280000972600008B
:1025E00051270000F7280000F72800007B26000094
:1025F000714805F0D9FA714805F0D6FA704805F02F
:10260000D3FA6E4805F0D0FA6E4805F0CDFA6E4860
:1026100005F0CAFA6D4805F0C7FA6D4805F0C4FA2E
:102620006C4805F0C1FA6C4805F0BEFA6B4805F03D
:10263000BBFA6B4805F0B8FA6A4805F0B5FA6A4883
:1026400005F0B2FA694805F0AFFA694805F0ACFA4E
:10265000684805F0A9FA684805F0A6FA674805F049
:10266000A3FA674805F0A0FA544805F09DFA03F074
:1026700011FC524805F098FA44E1624805F094FADA
:1026800001F012FD3EE1604805F08EFA01F092FD86
:1026900001F0FEFE36E101F029FB33E101F048FCD8
:1026A0000346002B40F02981584805F07DFA24E1CB
:1026B00001F0C4FC0346002B40F02181544805F092
:1026C00073FA1CE101F09CFA524805F06DFA19E129
:1026D00001F0DEFE16E101F013FA4F4805F064FA4E
:1026E00010E101F025FA4D4805F05EFA0AE101F02B
:1026F00037FA4B4805F058FA04E101F049FA494825
:1027000005F052FAFEE001F05BFA474805F04CFA9A
:10271000F8E001F06DFA454805F046FAF2E003F002
:1027200035FEEFE0424B1B78002B0CBF012300234A
:10273000DBB21A463E4B1A703D4B1B78012B03D17E
:102740003C4805F031FADDE03B4805F02DFAD9E0D0
:102750003A4B1B78002B0CBF01230023DBB21A4637
:10276000364B1A70CEE0364B1B78002B0CBF012382
:102770000023DBB21A46324B1A70C3E0314B1B7890
:10278000002B0CBF01230023DBB21A462D4B1A701D
:102790002C4B1B78002B00F0B48005F0A5FBB0E0BB
:1027A0009F8601002094000038940000509400009F
:1027B00070940000D40B002098940000A0940000B6
:1027C000C4940000D8940000F09400000895000024
:1027D0002C95000050950000709500009495000025
:1027E000B4950000C4950000E89500000C96000028
:1027F0003096000048960000689600008C96000015
:10280000B0960000CC960000E89600000897000003
:102810002497000040970000709700007897000010
:10282000809700008897000090970000989700001C
:1028300010000020A0970000B4970000B100002015
:10284000B2000020B30000205D4805F0ADF900F0B3
:1028500043FF0346184601F01FF85A4805F0A4F953
:1028600000F0A8FF0346184601F016F8564805F098
:102870009BF947E0544805F097F904F065FE534B87
:102880001B68534AA2FB03231D0C504B1A68504B84
:10289000A3FB02131B0C4F4901FB03F3D31A4E4A4F
:1028A000A2FB0323DE0A494B1A684C4BA3FB02131D
:1028B000DB0B48F6A04101FB03F3D31A484AA2FB05
:1028C00003235809414B1968454BA3FB01235A09BF
:1028D00013461B019B1A9B00CA1A3C1D01920090D3
:1028E00033462A463F49204606F046F83B1D184627
:1028F00005F05AF906E000BF04E000BF02E000BFA7
:1029000000E000BF384805F04FF9384B00221A703C
:10291000374B1B78012B7FF4CAAD354B00221A7060
:102920002A4B1B680133294A1360284B1A682A4B2B
:10293000A3FB02131B0B4FF4E15101FB03F3D31A6A
:10294000002B01D105F0D0FA204B1A68204BA3FBD5
:1029500002131B0C1F4901FB03F3D31A002B03D1F5
:1029600001F0E6FA04F0F0FD04F080FA214B1B7848
:10297000012B02D1204805F017F9204B1B78012BC1
:1029800019D100F020FE03461A463B1D1C4918468B
:1029900005F0F2FF3B1D184605F006F900F01DFE9C
:1029A00003461A463B1D1749184605F0E5FF3B1D37
:1029B000184605F0F9F800F0ABFE00F017FF76E5D9
:1029C000C8970000E0970000EC97000090010020FD
:1029D00007452EC280510100C5B3A291D55204E92A
:1029E00089888888F097000010980000D40B002098
:1029F000D00A0020B100002018980000B20000208A
:102A00001C98000034980000064880470649074A91
:102A1000074B9A42BEBF51F8040B42F8040BF8E78B
:102A2000FDF7B6FB992B0000F8A500000000002080
:102A300080000020FEE700BF80B582B000AF00F04C
:102A400025F878600A4BD3F808311B0AC3F3080352
:102A50003B603B6801337A68B2FBF3F37B60054A65
:102A60007B6813607B6818460837BD4680BD00BF91
:102A700000400E400800002080B400AF024B184612
:102A8000BD465DF8047B704700A24A0480B483B061
:102A900000AF334BD3F8943003F00703023B042B11
:102AA00049D801A252F823F0CD2A0000C52A00001F
:102AB000BD2A00002D2B0000D52A0000294B1B68E1
:102AC0007B603CE04FF400437B6038E0264B1B68A2
:102AD0007B6034E0224B9B681B0C03F01F03073B19
:102AE000072B1FD801A252F823F000BF0D2B0000C6
:102AF000252B0000252B0000252B0000132B0000A8
:102B0000252B0000192B00001F2B0000174B7B60AA
:102B10000BE0174B7B6008E0164B7B6005E0164B23
:102B20007B6002E000237B6000BF08E0134B1B6862
:102B30005B087B6003E0114B1B687B6000BF084BA8
:102B4000D3F800311B0A03F01F0301337A68B2FB8C
:102B5000F3F318460C37BD465DF8047B704700BFA1
:102B600000400E4004000020000000200024F4007B
:102B70000048E801006CDC0280F0FA020C00002042
:102B800080B400AF034B1B681846BD465DF8047B5C
:102B9000704700BF0000002080B400AF074B084A18
:102BA0009A60064BD3F88830044A43F47003C2F8A5
:102BB000883000BFBD465DF8047B704700ED00E043
:102BC0000000000080B485B000AF786039607B6899
:102BD00003F10473DA003B6813449B00FB60FB685D
:102BE0001B6818461437BD465DF8047B704700002B
:102BF00080B400AF064B1B6803F04003002B01D1EB
:102C0000012300E000231846BD465DF8047B7047B1
:102C10003C300E4080B500AFFFF7EAFF034683F07B
:102C20000103DBB2002B08D100BF12210448FFF7DB
:102C3000C9FF0346002BF8D100E000BF80BD00BFF4
:102C400004300E4080B500AFFFF7E4FF034B5B6834
:102C50001B0C03F00303DBB2184680BD00300E40AE
:102C600080B483B000AF0346FB71FB79C3F102036C
:102C7000102202FA03F318460C37BD465DF8047BB8
:102C80007047000080B584B000AF78600B46FB70E1
:102C9000FFF7AEFF034683F00103DBB2002B28D120
:102CA0007B68002B0FD1154BD3F800311B0A03F0C2
:102CB0001F030133BB60FFF7E9FE0246BB6802FB5E
:102CC00003F3FB6001E07B68FB600D4B1B78002B7E
:102CD00009D0FB680B4A934205D8FB7819460220BD
:102CE00000F012F806E0FB781946002000F00CF81E
:102CF00000E000BF1037BD4680BD00BF00400E4061
:102D00009C000020002D310190B587B000AF034634
:102D10000A46FB711346BB71FFF76AFF034683F057
:102D20000103DBB2002B31D1FFF78CFF03461A46BB
:102D3000FB7993422CD0184BD3F800311B0A03F0D7
:102D40001F0301337B61FFF7A1FE38613B697A699C
:102D500002FB03F3FB60FB79022B03D102213869EC
:102D6000FDF7F6FB0D4CFB791846FFF779FF03469C
:102D70002361BB79002B01D0FFF74CFFFB79002BBF
:102D800007D100213869FDF7E3FB02E000BF00E056
:102D900000BF1C37BD4690BD00400E4000300E40C5
:102DA00080B400AF0A4B5B68094B5B684FF080430F
:102DB00041F671321A644FF080439B684FF08042B5
:102DC00023F00103936000BFBD465DF8047B7047AC
:102DD00000300E4080B400AF4FF080439B684FF04E
:102DE000804223F0010393604FF0804300221A6475
:102DF00000BFBD465DF8047B7047000080B485B01D
:102E000000AF7860174BFB6002E0FB68013BFB60A2
:102E10004FF08043DB6903F00103002B02D0FB6815
:102E2000002BF2D1FB68002B02D16FF0020312E0FD
:102E30004FF080427B6813614FF080430122DA60DB
:102E40004FF08043DB6903F00403002B02D04FF006
:102E5000FF3300E0002318461437BD465DF8047BBD
:102E6000704700BF8096980080B487B000AF78604C
:102E700039600023BB730023FB733B68002B3AD0FF
:102E800000233B6133E0BB7B83F00103DBB2002B0B
:102E90000DD07B681A1D7A604FF080421B689361E9
:102EA0003B6901333B614FF080430822DA60164BE7
:102EB0007B6102E07B69013B7B614FF08043DB6912
:102EC00003F00103002B02D07B69002BF2D17B6958
:102ED000002B02D1FD23FB730DE04FF08043DB6933
:102EE00003F00203002B02D0FE23FB7303E03A69D8
:102EF0003B689A42C7D397F90F3018461C37BD4636
:102F00005DF8047B704700BF8096980080B58AB05A
:102F100000AFF860B9607A600023FB764FF0804321
:102F20001B6C9BB2002B14BF01230023BB764FF018
:102F3000804341F671321A643A4B5B68394B5B68E7
:102F40004FF080439B684FF0804243F00103936051
:102F50007B689B087B6100237B62BB68FB6145E06B
:102F60007B6A9B00FA6813441846FFF747FF034645
:102F7000FB7697F91B30002B11D04FF080439B68F4
:102F80004FF0804223F001039360BB7E002B03D0FF
:102F90004FF0804300221A6497F91B303DE07B6AB2
:102FA0009B00FA681344C3F30B03C3F580539B08DB
:102FB0003B627A697B6AD31A3A6A9A4203D97A6980
:102FC0007B6AD31A3B62396AF869FFF74DFF034603
:102FD000FB7697F91B30002B0DD17A6A3B6A1344BC
:102FE0007B623B6A9B00FA691344FB617A6A7B69E6
:102FF0009A42B5D300E000BF4FF080439B684FF08A
:10300000804223F001039360BB7E002B03D04FF07E
:10301000804300221A6497F91B3018462837BD46B2
:1030200080BD00BF00300E4080B485B000AF786036
:10303000494BFB604FF080431B6C9BB2002B14BFCD
:1030400001230023FB724FF0804341F671321A6472
:10305000424B5B68414B5B684FF080439B684FF08D
:10306000804243F0010393604FF080427B6813611C
:103070004FF080430122DA604FF08043DB6903F0B8
:103080000403002B11D04FF080439B684FF0804227
:1030900023F001039360FB7A002B03D04FF08043B1
:1030A00000221A644FF0FF334FE04FF080430222BA
:1030B000DA6002E0FB68013BFB604FF08043DB69B4
:1030C00003F00103002B02D0FB68002BF2D14FF07C
:1030D0008043DB6903F00203002B11D04FF08043E3
:1030E0009B684FF0804223F001039360FB7A002B32
:1030F00003D04FF0804300221A646FF0010324E0F4
:10310000FB68002B11D14FF080439B684FF0804249
:1031100023F001039360FB7A002B03D04FF0804330
:1031200000221A646FF002030FE04FF080439B68A7
:103130004FF0804223F001039360FB7A002B03D011
:103140004FF0804300221A64002318461437BD460E
:103150005DF8047B704700BF8096980000300E40F9
:1031600080B584B000AFF860B9607A607A68B968F9
:10317000F868FFF7CBFE034618461037BD4680BD02
:1031800080B487B000AFF860B9607A60FB6803F183
:103190000473DA00BB6813449B007B617B697A6827
:1031A0001A6000BF1C37BD465DF8047B7047000005
:1031B00080B582B000AF0346FB71FB791A4600214F
:1031C0000348FFF7DDFF00BF0837BD4680BD00BFE5
:1031D0000020064080B483B000AF78607B681B7825
:1031E000002B01D0012200E000227B685B78002BDD
:1031F00001D0042300E0002313437A689278002A68
:1032000001D0102200E0002213437A68D278002A0D
:1032100001D0202200E000221A437B681B791B02A8
:103220001A437B685B791B031A437B689B799B037A
:1032300013437A68D279002A02D04FF4004200E0AA
:1032400000221A437B681B7A1B0413437A68527A64
:10325000002A02D04FF4003200E000220449134358
:103260000B6000BF0C37BD465DF8047B704700BFA4
:103270000020064080B483B000AF78607B681B4AB2
:10328000934227D07B681A4A934223D07B68194A1D
:1032900093421FD07B68184A93421BD07B68174A21
:1032A000934217D07B68164A934213D07B68154A25
:1032B00093420FD07B68144A93420BD07B68134A29
:1032C000934207D07B68124A934203D07B68114A2D
:1032D000934201D1012300E0002303F00103DBB29C
:1032E00018460C37BD465DF8047B704700800140EE
:1032F0000084014000880140008C014000900140A2
:10330000009401400098014000A0014000A4014049
:1033100000A8014000AC014080B584B000AF7860E7
:1033200039607868FFF7A6FF0023FB603B681B78D5
:1033300083F00103DBB2002B02D07B6802225A60CB
:103340007B6800225A623B689B781A063B68DB78F0
:103350001B041A433B689B799B021A433B68DB7949
:103360001B0213433A68127A13433A685278002AD0
:1033700001D0402200E0002213433A68527A002A2A
:1033800001D0802200E0002213433A68927A002A9A
:1033900001D0202200E0002213433A68D27A002AAA
:1033A00001D0102200E0002213433A68127B002A69
:1033B00001D0082200E000221343FB603B681B7928
:1033C000002B02D04FF4005200E000223B685B79F2
:1033D000002B02D04FF0805300E000231343FA6823
:1033E0001343FB607B68FA681A603B681B78002B0C
:1033F00002D07B6801225A6000BF1037BD4680BDF5
:1034000080B483B000AF0346FB7197F90730002BFF
:103410000BDBFB7903F01F02074997F907305B09C3
:10342000012000FA02F241F8232000BF0C37BD460C
:103430005DF8047B704700BF00E100E080B485B018
:1034400000AF786039607B6803F10473DA003B6891
:1034500013449B00FB60FB681B6818461437BD468D
:103460005DF8047B7047000080B483B000AF7860E3
:10347000044A7B68C2F8243400BF0C37BD465DF8AF
:10348000047B70470080084080B483B000AF786050
:10349000074BD3F828247B68DB4305491340C1F868
:1034A000283400BF0C37BD465DF8047B704700BF71
:1034B0000080084080B483B000AF7860064BD3F83A
:1034C000282405497B681343C1F8283400BF0C3712
:1034D000BD465DF8047B70470080084080B400AFB3
:1034E000034BD3F81C341846BD465DF8047B704787
:1034F0000080084080B582B000AF03463960FB71A0
:10350000FB79002B16D0FB79012B13D0FB79022B12
:1035100010D0FB79032B0DD0FB79042B0AD0FB795B
:10352000052B07D0FB79062B04D0FB79072B01D0A4
:10353000FB79082BFA7913465B0013441B011C33FB
:1035400003F1804303F5082339681846FFF776FF37
:10355000034618460837BD4680BD80B483B000AF2F
:1035600078607B685B6A18460C37BD465DF8047B63
:103570007047000080B500AF01210D48FDF7CCF881
:103580000023032200210020FEF7C0FC00230322B9
:1035900003210020FEF7BAFC0023032204210020AF
:1035A000FEF7B4FC0320FFF72BFF00BF80BD00BF78
:1035B00000550A0080B500AF00210020FFF79AFFF8
:1035C0000346184680BD80B500AF03210020FFF7F9
:1035D00091FF0346DBB2184680BD80B500AF0421E1
:1035E0000020FFF787FF0346DBB2184680BD0000CE
:1035F00080B582B000AFFFF771FF78607868FFF7A1
:1036000033FF7B6803F00103002B35D01C4B1B7884
:10361000002B0CD01B48FFF7A0FF02461A4B1A6084
:10362000174B00221A70194B01221A8005E0174B24
:103630001B8801339AB2154B1A80154B1B78002B4F
:1036400018D01048FFF789FF0246124B1A60114B41
:103650001A680D4B1B68D31A0C4A1288B3FBF2F39D
:103660000D4A13600A4B00221A700B4B1B68184658
:1036700004F0E4F802F0CEF900BF0837BD4680BD83
:103680009D00002000A00140A0000020A800002014
:103690009E000020A4000020AC00002080B500AFF8
:1036A0000120FFF7E1FE0120FFF704FF00BF80BD0E
:1036B00080B500AF0120FFF7E7FE00BF80BD00002E
:1036C00080B400AF034B00221A7000BFBD465DF806
:1036D000047B7047F800002080B400AF034B1B78D8
:1036E0001846BD465DF8047B704700BFF800002017
:1036F00080B483B000AF0346FB71044AFB791370BA
:1037000000BF0C37BD465DF8047B7047F800002011
:1037100080B500AF1F4B1B78032B39D801A252F89C
:1037200023F000BF353700004D3700005F37000041
:1037300071370000FFF751FF0346012B21D1154BD4
:1037400001221A70144804F02FFA1AE0FFF745FF1F
:103750000346002B17D10F4B00221A7013E0FFF71E
:103760003CFF0346002B10D10A4B03221A700CE0D9
:10377000FFF733FF0346012B09D1064B02221A70D3
:1037800005E000BF04E000BF02E000BF00E000BFB2
:1037900000BF80BDF80000204898000080B400AF52
:1037A000034B00221A7000BFBD465DF8047B7047D2
:1037B000F900002080B400AF034B1B781846BD46CB
:1037C0005DF8047B704700BFF900002080B483B02F
:1037D00000AF0346FB71044AFB79137000BF0C373E
:1037E000BD465DF8047B7047F900002080B500AF4E
:1037F000264B1B78032B46D801A252F823F000BFBA
:1038000011380000433800005538000067380000C8
:10381000FFF7D9FE0346012B2ED11D4B1B78013338
:10382000DAB21B4B1A701A4B1B78EF2B24D9174BAB
:1038300001221A70164B00221A70164804F0B4F9CF
:103840001AE0FFF7C0FE0346002B17D10F4B0022F2
:103850001A7013E0FFF7B7FE0346002B10D10B4B95
:1038600003221A700CE0FFF7AEFE0346012B09D1CC
:10387000064B02221A7005E000BF04E000BF02E020
:1038800000BF00E000BF00BF80BD00BFF900002006
:10389000B00000206098000080B582B000AF034601
:1038A000FB71FB79032B1BD801A252F823F000BF58
:1038B000C1380000C9380000D1380000D9380000F4
:1038C000094804F071F90BE0084804F06DF907E0CD
:1038D000074804F069F903E0064804F065F900BF01
:1038E00000BF0837BD4680BD789800008C98000066
:1038F00098980000A498000080B485B000AF78606C
:1039000039607B6803F1C063FB60FB683A681A604A
:1039100000BF1437BD465DF8047B704780B485B0A6
:1039200000AF786039607B6803F18063FB60FB68FF
:103930003A681A6000BF1437BD465DF8047B7047D3
:1039400080B582B000AF03463960FB71FB79002B74
:1039500016D0FB79012B13D0FB79022B10D0FB7909
:10396000032B0DD0FB79042B0AD0FB79052B07D054
:10397000FB79062B04D0FB79072B01D0FB79082BB0
:10398000FA7913465B0013441B010C3303F18043A7
:1039900003F5082301213A6801FA02F2114618469C
:1039A000FFF7BCFF00BF0837BD4680BD80B582B0C1
:1039B00000AF03463960FB71FB79002B16D0FB7911
:1039C000012B13D0FB79022B10D0FB79032B0DD0E8
:1039D000FB79042B0AD0FB79052B07D0FB79062B4A
:1039E00004D0FB79072B01D0FB79082BFA79134619
:1039F0005B0013441B010C3303F1804303F50823E0
:103A000001213A6801FA02F211461846FFF774FFE5
:103A100000BF0837BD4680BD80B483B000AF034609
:103A20003960FB71FB79002B16D0FB79012B13D089
:103A3000FB79022B10D0FB79032B0DD0FB79042BE3
:103A40000AD0FB79052B07D0FB79062B04D0FB7934
:103A5000072B01D0FB79082B01223B6802FA03F304
:103A60000749FA79184613465B0013441B010B44BF
:103A70001833186000BF0C37BD465DF8047B7047F3
:103A80000080084080B500AF01211448FCF744FED7
:103A90000023042208210020FEF738FA0023042224
:103AA00005210320FEF732FA002304220621032019
:103AB000FEF72CFA0023042208210320FEF726FA41
:103AC0000023042202210320FEF720FA002304220F
:103AD00003210320FEF71AFA00BF80BD00550A003B
:103AE00080B500AF08210020FFF760FF00BF80BD58
:103AF00080B500AF08210020FFF722FF00BF80BD86
:103B000080B500AF08210020FFF786FF00BF80BD11
:103B100080B500AF05210320FFF748FF00BF80BD3F
:103B200080B500AF05210320FFF70AFF00BF80BD6D
:103B300080B500AF05210320FFF76EFF00BF80BDF9
:103B400080B500AF06210320FFF730FF00BF80BD26
:103B500080B500AF06210320FFF7F2FE00BF80BD55
:103B600080B500AF06210320FFF756FF00BF80BDE0
:103B700080B500AF08210320FFF718FF00BF80BD0C
:103B800080B500AF08210320FFF7DAFE00BF80BD3B
:103B900080B500AF08210320FFF73EFF00BF80BDC6
:103BA00080B500AF02210320FFF700FF00BF80BDFA
:103BB00080B500AF02210320FFF7C2FE00BF80BD29
:103BC00080B500AF02210320FFF726FF00BF80BDB4
:103BD00080B500AF03210320FFF7E8FE00BF80BDE2
:103BE00080B500AF03210320FFF7AAFE00BF80BD10
:103BF00080B500AF03210320FFF70EFF00BF80BD9B
:103C000080B582B000AF144803F00EFC0023FB71B6
:103C100016E0FB79104A0133002102F83310FB79DA
:103C20000D4A0133DB00134400225A70FB790A4A23
:103C30000133DB00134400225A60FB790133FB712E
:103C4000FB791D2BE5D9044B0022C3F8F82000BFF7
:103C50000837BD4680BD00BF9401002080B500AF8D
:103C600000F0ECF90346012B03D0022B06D0002B09
:103C700015E0FFF7C5FF00F05BF910E0094B5B7939
:103C8000002B09D1074B1B79002B05D1054BDB78A5
:103C9000002B01D1FFF7B4FF00F04AF900BF00BFCD
:103CA00080BD00BF9401002080B485B000AF786073
:103CB00039607B68FB603B68BB60FB685A68BB6827
:103CC0005B689A4201D2012309E0FB685A68BB682D
:103CD0005B689A4202D94FF0FF3300E00023184698
:103CE0001437BD465DF8047B70470000F0B5ADF5B4
:103CF0000F7D04AF3B1DF0225049184604F0CAFC6A
:103D0000381D4F4B08221E2104F00FFD4D4803F0D3
:103D10004BFF4D4803F048FF4C4B5B791D464B4B26
:103D20001B791E46494BDB781A46484B1B781946CF
:103D3000464B5B781C46454B9B7807F1F400039398
:103D400002940191009233462A46414904F014FE40
:103D500007F1F403184603F027FF3E4803F024FF61
:103D60003D4803F021FF0023C7F82032002387F8E5
:103D7000273239E097F827323A1DDB0013445B689D
:103D8000002B2BD097F827223B1D13F83230194611
:103D900097F827323A1DDB0013445B781C4697F8EE
:103DA00027323A1DDB0013445B6807F1F4000093EF
:103DB00023460A46294904F0DFFD07F1F4031846BB
:103DC00003F0F2FE97F827323A1DDB0013445B68DC
:103DD000D7F820221344C7F8203200E000BF97F83C
:103DE0002732013387F8273297F827321D2BC1D9A4
:103DF000184803F0D9FE07F1F403D7F82022184938
:103E0000184604F0B9FD07F1F403184603F0CCFEA0
:103E10000E4BD3F8F82007F1F4031249184604F0CA
:103E2000ABFD07F1F403184603F0BEFE094803F0AA
:103E3000BBFE00BF07F50B77BD46F0BD9C0100201F
:103E4000A93C0000B0980000CC980000940100202C
:103E5000E4980000049900001C99000034990000C7
:103E60004C9900006099000080B485B000AF034613
:103E70000A46FB711346BB710023FB733CE0FB7BDE
:103E8000224A013312F83330FA799A4215D1FB7B7A
:103E90001E4A0133DB0013445B78BA799A420CD195
:103EA000FA7B1A49531CDB000B445B68591C17480A
:103EB000531CDB000344596021E0FB7B134A0133B0
:103EC00012F83330002B14D1FB7B10490133FA79FF
:103ED00001F83320FB7B0D4A0133DB001344BA7930
:103EE0005A70FB7B094A0133DB00134401225A60FC
:103EF00005E0FB7B0133FB73FB7B1D2BBFD900BFB0
:103F00001437BD465DF8047B704700BF9401002064
:103F100080B400AF054BD3F8F8300133034AC2F840
:103F2000F83000BFBD465DF8047B70479401002067
:103F3000B0B586B000AF6B461D46FC233B613B69C4
:103F400008337B617B6903F00303002B04D07B699A
:103F500023F0030304337B6178690346013BFB6074
:103F600001464FF000024FF000034FF00004D40070
:103F700044EA5174CB0001464FF000024FF00003B9
:103F80004FF00004D40044EA5174CB00C31DDB0899
:103F9000DB00ADEB030D6B460033BB60BB687A6999
:103FA000FF21184604F081FBBB681E4A1A60BB68FB
:103FB00004333A691A60BB680833FC221A49184670
:103FC00004F068FBFEF7ECFE1848FFF72DF80346F7
:103FD000FB7197F90730002B06D0FEF7FBFE144863
:103FE00003F0E2FD012318E0BB687A6919460F4827
:103FF000FFF7B6F80346FB7197F90730002B06D0A0
:10400000FEF7E8FE0B4803F0CFFD022305E0FEF7C4
:10401000E1FE094803F0C8FD0023AD4618461837F5
:10402000BD46B0BD00415453940100200008E00F8C
:104030007499000090990000AC99000080B582B09E
:1040400000AF134B7B607B681B68124A934204D01D
:10405000114803F0A9FD012315E07B685B683B6014
:104060003B68FC2B04D00D4803F09EFD02230AE0C0
:104070007B680833FC221946094804F00BFB094809
:1040800003F092FD002318460837BD4680BD00BFEF
:104090000008E00F00415453C8990000E499000063
:1040A00094010020009A0000B0B586B000AF6B46C6
:1040B0001D468F233B613B6908337B617B6903F0BD
:1040C0000303002B04D07B6923F0030304337B61DB
:1040D00078690346013BFB6001464FF000024FF058
:1040E00000034FF00004D40044EA5174CB000146B1
:1040F0004FF000024FF000034FF00004D40044EAF8
:104100005174CB00C31DDB08DB00ADEB030D6B4628
:104110000033BB60BB687A69FF21184604F0C5FA1A
:10412000BB681F4A1A60BB6804333A691A60BB68EF
:1041300008338F221B49184604F0ACFAFEF730FE14
:104140004FF07E60FEF770FF0346FB7197F9073072
:10415000002B06D0FEF73EFE134803F025FD012399
:1041600019E0BB687A6919464FF07E60FEF7F8FFE8
:104170000346FB7197F90730002B06D0FEF72AFEA5
:104180000A4803F011FD022305E0FEF723FE08486C
:1041900003F00AFD0023AD4618461837BD46B0BDF2
:1041A00000494354FC0000201C9A0000349A00008F
:1041B0004C9A000080B582B000AF4FF07E637B6008
:1041C0007B681B68104A934204D0104803F0ECFC53
:1041D000012315E07B685B683B603B688F2B04D054
:1041E0000B4803F0E1FC02230AE07B6808338F22CE
:1041F0001946084804F04EFA074803F0D5FC00239E
:1042000018460837BD4680BD00494354689A0000EF
:10421000809A0000FC000020A89A000080B483B0BF
:1042200000AF654B0F221A70634B03225A70624B2A
:1042300001229A70604B0222DA705F4B0A221A71D7
:104240005D4B0B225A715C4B0C229A715A4B012226
:10425000DA710023FB7107E0FB79574A134400220F
:104260001A72FB790133FB71FB790E2BF4D9002311
:10427000FB713EE0FA79504913465B0013445B0042
:104280000B44173300221A70FA794B4913465B002E
:1042900013445B000B44183300221A70FA79464924
:1042A00013465B0013445B000B44193300221A7061
:1042B000FA79414913465B0013445B000B441A33FF
:1042C00000221A70FA793C4913465B0013445B00E4
:1042D0000B441B3300221A70FA79374913465B00EE
:1042E00013445B000B441C3300221A70FB7901332A
:1042F000FB71FB79132BBDD92F4B03229A752E4BE3
:104300000F22DA752C4BFF221A762B4BFF225A769E
:10431000294B04229A76284B0222DA76264B022277
:104320001A77254B0F225A77234BFF229A77224B7D
:104330000222DA77204B082283F820201E4B02222B
:1043400083F821201C4B022283F822201A4B0F22D3
:1043500083F82320184B0F2283F82420164BFF22CA
:1043600083F82520144B022283F82620124B0922C1
:1043700083F82720104B022283F828200E4B0F22AF
:1043800083F829200C4B002283F82A200A4B0222B2
:1043900083F82B20084B042283F82C20064B0422A0
:1043A00083F82D20044B022283F82E2000BF0C3707
:1043B000BD465DF8047B7047FC00002080B483B0EC
:1043C00000AF0023FB7107E0FB79084A1344002289
:1043D0001A72FB790133FB71FB790E2BF4D900BF04
:1043E0000C37BD465DF8047B704700BFFC00002021
:1043F00080B483B000AF0023FB713EE0FA7923491B
:1044000013465B0013445B000B44173300221A7001
:10441000FA791E4913465B0013445B000B441833C2
:1044200000221A70FA79194913465B0013445B00A5
:104430000B44193300221A70FA79144913465B00B1
:1044400013445B000B441A3300221A70FA790F49A7
:1044500013465B0013445B000B441B3300221A70AD
:10446000FA790A4913465B0013445B000B441C3382
:1044700000221A70FB790133FB71FB79132BBDD934
:1044800000BF0C37BD465DF8047B7047FC00002080
:1044900080B5C0B000AF00237B6007F10803F622AF
:1044A0000021184604F001F9C44803F07DFBC4481C
:1044B00003F07AFBC34803F077FBC34803F074FBB7
:1044C000C24803F071FBC24B1B781A463B1DC14921
:1044D000184604F051FA3B1D184603F065FBBC4B2F
:1044E0005B781A463B1DBC49184604F045FA3B1D53
:1044F000184603F059FBB64B9B781A463B1DB7494B
:10450000184604F039FA3B1D184603F04DFBB04B3A
:10451000DB781A463B1DB249184604F02DFA3B1DC4
:10452000184603F041FBAA4B1B791A463B1DAD49C7
:10453000184604F021FA3B1D184603F035FBA44B46
:104540005B791A463B1DA849184604F015FA3B1D35
:10455000184603F029FB9E4B9B791A463B1DA34945
:10456000184604F009FA3B1D184603F01DFB984B52
:10457000DB791A463B1D9E49184604F0FDF93B1DA8
:10458000184603F011FB9B4803F00EFB002387F84D
:10459000FF3010E097F8FF305A1C3B1D9649184633
:1045A00004F0EAF93B1D184603F0FEFA97F8FF30D5
:1045B000013387F8FF3097F8FF300E2BEAD98F4888
:1045C00003F0F2FA002387F8FF301EE097F8FF307F
:1045D0007F4A13441B7A002B0FD097F8FF307C4A98
:1045E00013441B7A1A463B1D8349184604F0C4F94C
:1045F0003B1D184603F0D8FA02E0814803F0D4FAD4
:1046000097F8FF30013387F8FF3097F8FF300E2B13
:10461000DCD97C4803F0C8FA7B4803F0C5FA0023D4
:1046200087F8FF30002387F8FF30A9E097F8FF20D4
:10463000674913465B0013445B000B4417331B7838
:10464000002B00F0988097F8FF20614913465B002B
:1046500013445B000B4417331B781A463B1D6B4910
:10466000184604F089F93B1D184603F09DFA97F8A7
:10467000FF20574913465B0013445B000B4418337B
:104680001B78FF2B03D1624803F08EFA13E097F8F2
:10469000FF204F4913465B0013445B000B44183363
:1046A0001B781A463B1D5B49184604F065F93B1D13
:1046B000184603F079FA97F8FF20454913465B0046
:1046C00013445B000B4419331B78FF2B03D1504874
:1046D00003F06AFA13E097F8FF203D4913465B00A8
:1046E00013445B000B4419331B781A463B1D4949A0
:1046F000184604F041F93B1D184603F055FA97F8A7
:10470000FF20334913465B0013445B000B441A330C
:104710001B781A463B1D4049184604F02DF93B1DF5
:10472000184603F041FA97F8FF20294913465B0029
:1047300013445B000B441B331B781A463B1D354961
:10474000184604F019F93B1D184603F02DFA97F8A6
:10475000FF201F4913465B0013445B000B441C33CE
:104760001B781A463B1D2D49184604F005F93B1DE0
:10477000184603F019FA97F8FF30013387F8FF3035
:1047800097F8FF30132B7FF651AF104803F00CFA67
:10479000234B1A683B1D2349184604F0EDF83B1DD6
:1047A000184603F001FA02F0CFFE084803F0FCF9C6
:1047B00000BF07F58077BD4680BD00BFC49A0000EA
:1047C000FC9A0000089B00000C9B0000289B000046
:1047D000FC0000205C9B0000709B0000809B0000A0
:1047E000909B0000A09B0000B09B0000C09B0000BD
:1047F000D09B0000E09B0000189C0000209C000063
:10480000289C00002C9C0000609C0000889C0000FC
:10481000949C00009C9C0000A49C0000B09C0000A4
:1048200090010020BC9C000090B48AB000AF034609
:10483000FB710B46BB7113467B715D4B07F108049E
:104840000FCB84E80F0000237B6259E059497A6A54
:1048500013465B0013445B000B4417331B78FA7953
:104860009A424AD153497A6A13465B0013445B006B
:104870000B4418331B78FB764E497A6A13465B006B
:1048800013445B000B4419331B78BB76FB7EFF2B74
:1048900009D1BB7EFF2B06D1BB68B3F1FF3F2CD102
:1048A0007B6ABB6029E0FB7EFF2B0AD1BA7E7B7955
:1048B0009A4206D1FB68B3F1FF3F1ED17B6AFB60D1
:1048C0001BE0FA7EBB799A4209D1BB7EFF2B06D151
:1048D0003B69B3F1FF3F10D17B6A3B610DE0FA7E8B
:1048E000BB799A4209D1BA7E7B799A4205D17B691C
:1048F000B3F1FF3F01D17B6A7B617B6A01337B624D
:104900007B6A132BA2DD4FF0FF333B620323FB6175
:1049100015E0FB699B0007F12802134453F8203C83
:10492000B3F1FF3F08D0FB699B0007F12802134455
:1049300053F8203C3B6205E0FB69013BFB61FB69EE
:10494000002BE6DA3B6AB3F1FF3F0AD11A4B002293
:104950001A70194B00225A70174B00229A700123CB
:1049600021E014493A6A13465B0013445B000B4490
:104970001A331A78104B1A700E493A6A13465B00C4
:1049800013445B000B441B331A780B4B5A700949D4
:104990003A6A13465B0013445B000B441C331A78DD
:1049A000054B9A70002318462837BD4690BC7047C7
:1049B000D09C0000FC0000208C01002080B400AFDF
:1049C000BFF34F8F054BDB6803F4E0620349044BF0
:1049D0001343CB60BFF34F8F00BFFDE700ED00E056
:1049E0000400FA0580B500AFFFF7E8FF00BF80BD07
:1049F00080B483B000AF0023FB7106E0FB79084A66
:104A00000021D154FB790133FB7197F90730002B5A
:104A1000F4DA00BF0C37BD465DF8047B704700BF79
:104A20009002002090B5CFB002AF314802F0D6FF1F
:104A3000304B1B7819462F4B1B78013B2D4A1344F2
:104A40001B7A1C462B4B1B791A462A4B5B7938463E
:104A50000193009223460A46274903F08DFF3B4607
:104A6000184602F0BBFF234B9B791A46214B5B781B
:104A70003846224903F080FF3B46184602F0AEFF5D
:104A80001C4B9B781A461B4BDB7838461C4903F0BD
:104A900073FF3B46184602F0A1FF1A4802F09EFF42
:104AA000194802F09BFF002387F82F3113E097F895
:104AB0002F31104A13441B7A1A463B4613491846B5
:104AC00003F05AFF3B46184602F088FF97F82F3153
:104AD000013387F82F3197F82F310E2BE7D90C4887
:104AE00002F07CFF00BF07F59A77BD4690BD00BF7E
:104AF000E09C0000FC000020F49C00000C9D0000E5
:104B0000209D0000349D00003C9D0000A09D000001
:104B1000A89D0000F0B5D1B004AF3A4802F05EFFA6
:104B2000002387F82F315FE097F82F21364913468D
:104B30005B0013445B000B4417331B78002B58D0E9
:104B400097F82F21304913465B0013445B000B4458
:104B500017331B789C4697F82F212B4913465B008F
:104B600013445B000B4418331B789E4697F82F21A3
:104B7000254913465B0013445B000B4419331B7833
:104B80001C4697F82F21204913465B0013445B0015
:104B90000B441A331B781D4697F82F211A491346E8
:104BA0005B0013445B000B441B331B781E4697F8D5
:104BB0002F21154913465B0013445B000B441C3343
:104BC0001B7838460393029601950094734662461B
:104BD0000E4903F0D1FE3B46184602F0FFFE97F85F
:104BE0002F31013387F82F3197F82F31132B9BD9B1
:104BF00000E000BF064802F0F1FE00BF07F59A771B
:104C0000BD46F0BDCC9E0000FC000020D09E000000
:104C1000F09E000080B5CCB000AF134802F0C4FF96
:104C2000002387F82F3112E097F82F310F4AD35C19
:104C30001A463B460E49184603F09EFE3B46184670
:104C400002F0B2FF97F82F31013387F82F3197F92F
:104C50002F31002BE8DA074802F0A6FF00BF07F566
:104C60009877BD4680BD00BFF49E000090020020F2
:104C7000A09D0000009F000080B582B000AF244BD3
:104C80001B78332B3FD1224B5B78CC2B3BD1214877
:104C900002F08AFF1E4B1A791F4B1A701C4B9A792F
:104CA0001D4B1A711A4BDA791B4B5A71184B5A7AF1
:104CB000194B9A71164B9A7A174B5A70144B1A7BF0
:104CC000154B9A70124B5A7B134BDA70104B1A7CAF
:104CD000114BDA71FFF772FB0023FB710CE0FB79DB
:104CE00003F12902FB790A49895C0B4A13440A46FD
:104CF0001A72FB790133FB71FB790E2BEFD9074850
:104D000002F052FF00E000BF0837BD4680BD00BF83
:104D100090020020049F0000FC000020009F000083
:104D200080B5CEB000AF0246FB1D1A70FB1D1B788C
:104D3000002B00F0A380FB1D1B78142B00F29E803B
:104D4000514802F031FFFB1D1A7807F108034F4963
:104D5000184603F011FE07F10803184602F024FF7D
:104D6000FFF746FB002387F837317CE097F83721BF
:104D700013465B0013445B00194697F83721444BF8
:104D8000585C444913465B0013445B000B441733E3
:104D900002461A7097F8372113465B0013445B00F4
:104DA000013397F837213A49C85C3A4913465B000A
:104DB00013445B000B44183302461A7097F83721EE
:104DC00013465B0013445B00023397F837213049E8
:104DD000C85C304913465B0013445B000B44193335
:104DE00002461A7097F8372113465B0013445B00A4
:104DF000033397F837212649C85C264913465B00E0
:104E000013445B000B441A3302461A7097F837219B
:104E100013465B0013445B00043397F837211C49A9
:104E2000C85C1C4913465B0013445B000B441B33F6
:104E300002461A7097F8372113465B0013445B0053
:104E4000053397F837211249C85C124913465B00B5
:104E500013445B000B441C3302461A7097F8373139
:104E6000013387F83731FB1D97F837211B789A42B9
:104E7000FFF47CAF084802F097FE00E000BF07F5A2
:104E80009C77BD4680BD00BF189F00002C9F00008E
:104E900090020020FC000020349F000080B5B8B0D4
:104EA00000AF0346FB71C34A07F10C0392E803000D
:104EB000186004331980C04B1B78002B03D0BE4B05
:104EC0001B78052B01D1FEF73BFEBC4B1B780C2B4E
:104ED00000F2E58201A252F823F000BF114F00005A
:104EE000214F0000035300002553000069530000C8
:104EF0001354000047540000695100008551000020
:104F000095510000A5510000F95100001552000014
:104F1000FB793F2B40F0C782A84B01221A70C2E2F6
:104F2000FB79303B202B00F2178101A252F823F0CD
:104F3000B54F000059510000C34F00005D50000004
:104F400071500000595100002151000059510000DA
:104F500059510000595100005951000059510000A9
:104F60005951000059510000595100005951000099
:104F70005951000059510000595100005951000089
:104F80005951000059510000595100005951000079
:104F90005951000059510000595100005951000069
:104FA0005951000059510000595100005951000059
:104FB00051510000824802F011FD804B00221A700E
:104FC000D1E07D4B1B78052B00F2CA8001A252F87C
:104FD00023F000BFED4F0000F54F0000FD4F000033
:104FE000055000000D50000037500000754802F0D9
:104FF000F5FC32E0734802F0F1FC2EE0724802F05A
:10500000EDFC2AE0704802F0E9FC26E06F4802F06F
:10501000E5FC6F4B93F8893219466E48FDF720F88E
:105020006B4B93F88D3219466A48FDF719F8624BBD
:1050300005221A7011E0654802F0D0FC644B93F829
:10504000893219466348FDF70BF8614B93F88D32AE
:1050500019466048FDF704F800BF81E05E4802F0A1
:10506000BDFC554B01221A70544B07221A707AE08E
:10507000514B1B78052B75D1554B93F884321A464A
:1050800007F114035549184603F076FC07F11403A1
:10509000184602F0A3FC002387F8DF3029E0002344
:1050A00087F8DE3019E097F8DF30494A52F82320BC
:1050B00097F8DE304FF0004121FA03F31340002B44
:1050C00003D1474802F08AFC02E0464802F086FC21
:1050D00097F8DE30013387F8DE3097F8DE30142B96
:1050E000E1D9414802F07AFC97F8DF30013387F8C4
:1050F000DF30374B93F8803297F8DF209A42CED3D7
:10510000334B93F880321A4607F114033749184697
:1051100003F032FC07F11403184602F05FFC21E0B3
:10512000334B1B781946324B1B78013B304A1344F2
:105130001B7A07F114000A462E4903F01DFC07F103
:105140001403184602F04AFC1C4B00221A700AE0B5
:105150001A4B02221A7006E0184B00221A7002E065
:1051600000BFD6E100BFD4E1194AFB7982F884324E
:10517000FB791B01DAB2164B83F880220F4B082211
:105180001A70C6E1124AFB7982F889320B4B092268
:105190001A70BEE10E4AFB7982F88132074B0A226F
:1051A0001A70B6E10A4AFB7982F88632034B0B2269
:1051B0001A70AEE1B8A00000E0000020B4000020AA
:1051C0003C9F0000409F00004C9F0000549F000047
:1051D0001003002000400140589F0000609F000025
:1051E0006C9F0000709F0000749F0000789F00007B
:1051F000FC000020809F0000AD4AFB7982F88B32D2
:10520000AC4B00221A60AC4B00221A60AB4B0C2254
:105210001A707EE1FB79452B2CD1A54B93F8843293
:105220001A464FF4A87303FB02F31A46A14B1B68FE
:105230009A420BD1A24802F0D1FBA24802F0B4FC82
:10524000A14B02221A70FEF77BFC0FE09F4802F090
:10525000C5FB984B1A6807F114039D49184603F0E3
:105260008BFB07F11403184602F09EFC934B0022BF
:105270001A7039E08F4B1B6801338E4A13608E4BD6
:105280001B685B008C4A1360FB79312B04D18A4B7D
:105290001B680133884A1360864B19688D4BA3FB4A
:1052A0000123CA1A520813441A0913465B00134417
:1052B000DA00D21A8A1A002A16D17F4B1B68DB0249
:1052C0007D4A13607B4B1A68824BA3FB0213D21AF0
:1052D000520813441B09013B774A1268744941F88C
:1052E0002320754B00221A60724B1B68B3F5526F76
:1052F00040F2DB80784802F057FC704B00221A70B5
:10530000D3E0FB79432B09D1744802F067FB6B4B68
:1053100003221A70674B00221A60FAE0674B0022E2
:105320001A70F6E0634B1B6807F1E002134413F8B0
:10533000D43CFA799A4210D15E4B1B6801335D4A26
:1053400013605C4B1B68052B40F0E280644802F060
:1053500045FB5A4B04221A70DAE05C4802F03EFB2F
:10536000564B00221A70D3E0FB79652B0DD0652BCC
:1053700004DC212B2DD03F2B34D037E0792B1CD0EF
:105380007A2B0ED0702B06D030E0FFF74BFB4B4B47
:1053900004221A7039E0FFF7BDFB484B04221A7053
:1053A00033E0504802F01AFB424B00221A60FFF72C
:1053B0001FFB424B05221A7027E04B4802F00EFB00
:1053C0003C4B00221A60FFF713FB3C4B06221A707D
:1053D0001BE0464802F002FB384B00221A70FFF730
:1053E00001FB12E0354B01221A700EE0404802F03A
:1053F000F5FAFB7919463F48FCF732FE3E4802F0C9
:10540000EDFA3E4802F0EAFA00BF3D4802F0E6FA43
:105410007FE0284B1B687F2B0AD8264B1B68394935
:10542000FA79CA54234B1B680133224A136070E097
:10543000FFF7F0FBFFF720FC314802F0CFFA1F4BDB
:1054400004221A7065E0FB79802B03D0194B1B688E
:105450007A2B19D9174B1B682A49FA79CA542A485A
:1054600002F0BCFAFFF7D6FB124B1B68274AA2FBDF
:1054700003239B08DBB21846FFF752FCFEF714FE2D
:105480000E4B04221A7044E00A4B1B681D49FA793E
:10549000CA54084B1B680133064A136039E0074BB6
:1054A00000221A7035E000BF33E000BF31E000BFDA
:1054B00010030020B8000020BC000020B400002031
:1054C000889F00008C9F0000E0000020A89F000043
:1054D000B09F000087611886E89F000018A00000B8
:1054E00044A000004CA0000050A0000074A00000E8
:1054F0007CA000000040014080A0000084A00000CB
:1055000094A00000900200209CA00000ABAAAAAAD0
:1055100000BF074B1B78002B03D0054B1B78052BD6
:1055200001D1FEF715FB00BFE037BD4680BD00BFCF
:10553000E000002080B483B000AF78607B680D4A43
:1055400093420BD07B680C4A934207D07B680B4A8E
:10555000934203D07B680A4A934202D14FF0FF3353
:1055600001E04FF6FF7318460C37BD465DF8047B2B
:10557000704700BF00A0014000A4014000A8014006
:1055800000AC014080B582B000AF786039607868C7
:10559000FFF7D0FF7B683A685A6200BF0837BD4604
:1055A00080BD80B485B000AF786039607B6803F15E
:1055B000C063FB60FB683A681A6000BF1437BD46E1
:1055C0005DF8047B704780B485B000AF78603960C7
:1055D0007B6803F18063FB60FB683A681A6000BF78
:1055E0001437BD465DF8047B7047000080B483B07B
:1055F00000AF7860044A7B68C2F8243400BF0C37DF
:10560000BD465DF8047B70470080084080B582B0DD
:1056100000AF03463960FB71FB79002B16D0FB7994
:10562000012B13D0FB79022B10D0FB79032B0DD06B
:10563000FB79042B0AD0FB79052B07D0FB79062BCD
:1056400004D0FB79072B01D0FB79082BFA7913469C
:105650005B0013441B010C3303F1804303F5082363
:1056600001213A6801FA02F211461846FFF7ABFF32
:1056700000BF0837BD4680BD80B582B000AF03468D
:105680003960FB71FB79002B16D0FB79012B13D00D
:10569000FB79022B10D0FB79032B0DD0FB79042B67
:1056A0000AD0FB79052B07D0FB79062B04D0FB79B8
:1056B000072B01D0FB79082BFA7913465B001344C2
:1056C0001B010C3303F1804303F5082301213A68E1
:1056D00001FA02F211461846FFF763FF00BF0837D0
:1056E000BD4680BD80B483B000AF03463960FB7116
:1056F000FB79002B16D0FB79012B13D0FB79022B01
:1057000010D0FB79032B0DD0FB79042B0AD0FB7949
:10571000052B07D0FB79062B04D0FB79072B01D092
:10572000FB79082B01223B6802FA03F30749FA7957
:10573000184613465B0013441B010B4418331860D2
:1057400000BF0C37BD465DF8047B70470080084001
:1057500080B485B000AF78600B46FB70FB78002BFF
:1057600002D0FB78202B01D900230DE0FB78013B10
:10577000FB73FB7B7A6822FA03F303F00103002B2F
:1057800001D0012300E0002318461437BD465DF820
:10579000047B704780B487B000AF78607B6823F0EB
:1057A00001037B61124BFB6000233B6113E03B690B
:1057B000C3F11F037A6922FA03F303F00103002BFC
:1057C00006D0FA683B6922FA03F37A6953407B6199
:1057D0003B6901333B613B69142BE8DD7A6940F298
:1057E000FE73134018461C37BD465DF8047B7047B6
:1057F000000020ED80B485B000AF78600023FB602E
:105800000023BB600DE07A68BB6822FA03F303F063
:105810000103002B02D0FB680133FB60BB6801333E
:10582000BB60BB681F2BEEDDFB6803F00103002BA0
:105830000CBF01230023DBB218461437BD465DF8C8
:10584000047B704780B584B000AF786039603B68F6
:1058500000221A707868FFF79DFF0346002B07D1DE
:105860007868FFF7C7FF0346002B01D07B6821E073
:105870000023FB601AE00122FB6802FA03F37A6856
:105880005340BB60B868FFF785FF0346002B0AD181
:10589000B868FFF7AFFF0346002B04D03B68012236
:1058A0001A70BB6806E0FB680133FB60FB681F2BC6
:1058B000E1DD7B6818461037BD4680BD80B48DB0F1
:1058C00000AF78607B68002B63D040F269737B6126
:1058D0000023FB6255E07B68FA6A53F822303B6193
:1058E0003B692F4A934248D03B69DB0AFB60FB6867
:1058F0009B02BB6214237B6211E07B6A0A330122A4
:105900009A40BB6A1340002B06D07A697B6A02FA80
:1059100003F3BA6A5340BB627B6A013B7B627B6ADA
:10592000002BEADAFB68DA02BB6A590040F2FE7328
:105930000B4013433B623B6AFB610023FB760CE0A8
:10594000FB695BB203F001035AB297F91B30534075
:105950005BB2FB76FB695B08FB61FB69002BEFD157
:10596000FB7E002B03D03B6A43F001033B627B6864
:10597000FA6A396A43F8221000E000BFFB6A01337B
:10598000FB627B6893F880321A46FB6A9342A2DB83
:1059900000E000BF3437BD465DF8047B704700BFB0
:1059A00097C1897A80B582B002AF144B00221A7079
:1059B000134B002283F88022124B00221A70124BE4
:1059C00000221A60114B00221A70114B00221A702B
:1059D00001230193012300930123002200210020D1
:1059E000FCF7FAF90120FFF701FEFDF757FE01F081
:1059F000CDFE01F0F5FE00BFBD4680BDC000002019
:105A000038080020D1000020C40000209D000020A4
:105A10009E00002080B400AF044BDB69034A5B08A2
:105A2000536200BFBD465DF8047B704700840140AF
:105A300080B500AF074B00221A7002210020FFF74B
:105A40001BFEFEF79DF8FFF7ADFF034B00221A7017
:105A500000BF80BDD1000020C000002080B582B012
:105A600000AF0346FB71FB79012B0BD10121002014
:105A7000FFF702FE0B4B1B78012B0ED10A4802F0F8
:105A800093F80AE001210020FFF7C0FD054B1B78C9
:105A9000012B02D1054802F087F800BF0837BD4648
:105AA00080BD00BF10000020C0A00000C4A0000006
:105AB00080B500AF5F4B1B78032B00F2B98001A2C9
:105AC00052F823F0235C0000D55A00001D5B000053
:105AD0006F5B0000584B1B889BB201339AB2564B48
