:10000000000008201D2800004928000049280000A1
:10001000492800004928000049280000492800001C
:10002000492800004928000049280000492800000C
:1000300049280000482800004928000049280000FD
:100040004928000049280000492800002530000008
:1000500049280000B15E0000156900004928000031
:1000600049280000492800004928000049280000CC
:100070004928000049280000556000004928000078
:1000800049280000492800004928000049280000AC
:10009000492800003D620000492800000964000072
:1000A000492800004928000049280000492800008C
:1000B000492800004928000049280000492800007C
:1000C000492800004928000049280000492800006C
:1000D000492800004928000049280000492800005C
:1000E000492800004928000049280000492800004C
:1000F000492800004928000049280000492800003C
:10010000492800004928000049280000492800002B
:10011000492800004928000049280000492800001B
:10012000492800004928000049280000492800000B
:1001300049280000492800004928000049280000FB
:1001400049280000492800004928000049280000EB
:1001500010B5054C237833B9044B13B10448AFF301
:1001600000800123237010BD7C00002000000000EF
:100170004086000008B5034B1BB103490348AFF3A9
:10018000008008BD000000008000002040860000C4
:10019000154B002B08BF134B9D46A3F5803A002159
:1001A0008B460F461348144A121A06F096FE0F4B60
:1001B000002B00D098470E4B002B00D09847002012
:1001C000002104000D000D48002802D00C48AFF3B8
:1001D000008006F053FE2000290002F0AFF806F080
:1001E00039FE00BF000008000000082000000000E9
:1001F000000000007C0000207C09002000000000BE
:100200000000000080B487B000AFF860B9607A6089
:10021000FB6803F10473DA00BB6813449B007B6145
:100220007B697A681A6000BF1C37BD465DF8047BA5
:10023000704780B485B000AF786039607B6803F1A7
:100240000473DA003B6813449B00FB60FB681B6887
:1002500018461437BD465DF8047B704780B485B0FE
:1002600000AF786039607B6803F1C063FB60FB68B6
:100270003A681A6000BF1437BD465DF8047B7047CA
:1002800080B485B000AF786039607B6803F180632B
:10029000FB60FB683A681A6000BF1437BD465DF822
:1002A000047B704780B483B000AF786001227B6824
:1002B00002FA03F318460C37BD465DF8047B70471D
:1002C00080B485B000AF78607B68002B03D07B687A
:1002D000B3F5004F00BF7B68B3FA83F3DBB2C3F121
:1002E0001F03FB60FB6818461437BD465DF8047BAE
:1002F000704780B584B000AF78607B680133B3FA93
:1003000083F3DBB2C3F11F03FB60F868FFF7CAFF9A
:10031000FB6818461037BD4680BD000080B400AFB2
:10032000064B1B6803F04003002B01D1012300E0C2
:1003300000231846BD465DF8047B70473C300E40F4
:1003400080B500AFFFF7EAFF034683F00103DBB29D
:10035000002B08D100BF12210448FFF76AFF0346B3
:10036000002BF8D100E000BF80BD00BF04300E407C
:1003700080B500AFFFF7E4FF034B5B681B0C03F095
:100380000303DBB2184680BD00300E4080B584B058
:1003900000AF78600123FB607B68124A934204D867
:1003A0000023FB600023BB6008E07B680E4A934299
:1003B00002D80123BB6001E00223BB60FA68102170
:1003C0000A48FFF71FFF094BD3F8003123F04072B2
:1003D000BB681B0605491343C1F8003100BF103745
:1003E000BD4680BD0048E8010090D00300400E40AB
:1003F00080B485B000AF786039604FF080435B68AF
:1004000003F04073FB600023BB6012E01B4ABB6833
:10041000DB0013441A793B68DBB29A4206D1174AD3
:10042000BB6852F833307A689A4206D9BB68013308
:10043000BB60BB68062BE9D900E000BFBB68072B97
:1004400002D10323FB6005E00C4ABB68DB001344C8
:100450005B79FB60FB681B06FB604FF080435B68C9
:1004600023F040724FF08041FB6813434B6000BFA4
:100470001437BD465DF8047B704700BF4C7900001F
:1004800080B582B000AF4FF080431B6C002B14BFCF
:1004900001230023FB714FF0804341F671321A644F
:1004A00002F0F4F9034600211846FFF7A1FFFB799B
:1004B000002B03D04FF0804300221A6400BF08379E
:1004C000BD4680BD80B584B000AF786039600C4B0C
:1004D000FB603B68022B01D10A4BFB607A68FB682A
:1004E0009A4204D908490948FFF7B8FE03E00649D3
:1004F0000648FFF7C5FE00BF1037BD4680BD00BFF0
:1005000080D543020024F4000202020000010040F2
:1005100080B582B000AF786039607B680B4A934247
:1005200009D93B68002B06D14FF480514FF0804031
:10053000FFF794FE05E04FF480514FF08040FFF745
:100540009FFE00BF0837BD4680BD00BF80F0FA02A5
:1005500080B584B000AF786039604FF080431B6C89
:10056000002B14BF01230023FB734FF0804341F69F
:1005700071321A6439687868FFF73AFF3968786829
:10058000FFF7A0FF39687868FFF7C2FFFB7B002BFD
:1005900003D04FF0804300221A6400BF1037BD46DD
:1005A00080BD000080B400AF044B5B6A1B0903F000
:1005B00003031846BD465DF8047B704700400E40BB
:1005C00080B483B000AF7860074B5B6A23F03002E1
:1005D0007B681B01044913434B6200BF0C37BD46C7
:1005E0005DF8047B704700BF00400E4080B483B0CC
:1005F00000AF78600A4BD3F8443103F00103002BBD
:1006000008D100BF064BD3F840217B681340002B74
:10061000F8D100E000BF0C37BD465DF8047B7047A1
:1006200000400E4080B500AF0321064800F01CF9E1
:100630000321054800F018F90321044800F014F9DB
:1006400000BF80BD404105005041070060410900E6
:1006500080B582B000AF02F023F93860FFF788FE62
:100660000346022B1AD13A68224B1344224AA2FBBA
:100670000323DB0D7B607B68002B02D07B68013B92
:100680007B6079681D4800F0EFF879681C4800F03D
:10069000EBF879681B4800F0E7F827E03A681A4B56
:1006A00013441A4AA2FB03231B0E7B607B68002BBA
:1006B00002D07B68013B7B607968104800F0D4F879
:1006C0007968104800F0D0F83A68114B1344114A89
:1006D000A2FB03239B0E7B607B68002B02D07B6810
:1006E000013B7B607968064800F0BEF800BF083720
:1006F000BD4680BDFF2C31016BCA5F6B40410500D8
:1007000050410700604109007FF0FA02893BE6553D
:10071000FFA14A04B5FA9BEE80B586B000AF7860C1
:100720000B46FB7000233B617B681B0A03F00F0341
:10073000013B0E2B7CD801A252F823F07907000070
:100740008507000031080000310800007F07000025
:10075000910700009B070000A5070000B1070000FB
:1007600007080000BD070000DF0700003108000097
:100770008B070000010800002F4B7B6146E02F4BE8
:100780007B6143E02E4B7B6140E02E4B7B613DE083
:100790002D4B7B6101233B6138E02C4B7B611023A7
:1007A0003B6133E02A4B7B614FF480733B612DE06A
:1007B000284B7B614FF480333B6127E0264B7B6104
:1007C000FB78002B14BF01230023DBB283F001036D
:1007D000DBB2FB70FB7803F00103FB7016E01F4BEC
:1007E0007B61FB78002B14BF01230023DBB283F075
:1007F0000103DBB2FB70FB7803F00103FB7005E043
:10080000174B7B6102E0174B7B6100BF7B681B0BC2
:1008100003F01F03FB603B69002B02D03869FFF730
:10082000E5FEFB781A46F9687869FFF7EBFC00E013
:1008300000BF1837BD4680BD00400E40B0400E409E
:10084000C0400E40C4400E40E0400E40E8400E4024
:10085000EC400E40F0400E4060410E4064410E40BE
:10086000F0410E4050410E4080B584B000AF78603A
:1008700039607B681B0903F00F03FB60FB68013BD9
:100880000B2B00F2D58101A252F823F0BD08000025
:10089000070900001F0900003F0900005B09000074
:1008A0007709000093090000C7090000D90A000079
:1008B000710B00009B0B0000150C0000FFF7E0FD22
:1008C000BA48FFF763FDFFF7ADFEB94BD3F800312F
:1008D00023F4F8523B681B02B5491343C1F80031B9
:1008E00001F0B4FFB860FFF743FD03461946B8684E
:1008F000FFF72EFE01F0D4FF03461846FFF746FD32
:10090000FFF7A6FE95E1AA4BD3F8143123F4F85271
:100910003B681B02A6491343C1F8143189E13868CA
:10092000FFF7CEFC3860A24BD3F8003123F04072C1
:100930003B681B069E491343C1F8003179E19C4B8B
:10094000D3F80C3123F4FF3323F480733A68120296
:1009500097491343C1F80C316BE1954BD3F818312B
:1009600023F4FF3323F480733A681202904913434F
:10097000C1F818315DE18E4BD3F81C3123F4FF33FD
:1009800023F480733A68120289491343C1F81C3179
:100990004FE1FFF775FD864BD3F8083123F4FF33A1
:1009A00023F480733A68120281491343C1F8083175
:1009B00001F04CFFB860FFF7DBFC03461946B8684E
:1009C000FFF7C6FD35E17B687A4A93424AD0794AFF
:1009D000934209D8784A934223D0784A93422FD041
:1009E000774A93420AD076E0764A934260D0764ABC
:1009F00093424AD0754A93425AD06CE03868FFF768
:100A000078FC38600420FFF7F1FD694BD3F8203102
:100A100023F470223B681B0465491343C1F820315D
:100A200059E04FF48020FFF7E1FD614BD3F83031FE
:100A300023F003025E493B681343C1F830314AE0BA
:100A40003868FFF756FC38600420FFF7CFFD584B9D
:100A5000D3F8203123F00F0255493B681343C1F806
:100A6000203138E03868FFF744FC38600420FFF795
:100A7000BDFD4F4BD3F8203123F0F0023B681B0142
:100A80004B491343C1F8203125E03868FFF731FCAA
:100A900038600420FFF7AAFD454BD3F8203123F43A
:100AA00040723B681B0242491343C1F8203112E0F7
:100AB0003868FFF71EFC38600420FFF797FD3C4BB9
:100AC000D3F8203123F4E0423B681B033849134339
:100AD000C1F8203100BFACE07B683D4A934218D09A
:100AE0003C4A934228D03C4A934200D03FE03868C9
:100AF000FFF7FFFB38604020FFF778FD2C4BD3F861
:100B0000283123F003022A493B681343C1F82831F6
:100B10002DE03868FFF7EDFB38604020FFF766FDF9
:100B2000234BD3F8283123F030023B681B012049C6
:100B30001343C1F828311AE03B687F2B02D83B6889
:100B40000E2B00BF3868FFF7D4FB0346043B3B6025
:100B50004020FFF74BFD164BD3F8283123F44052C9
:100B60003B681B0312491343C1F8283100BF60E002
:100B70007B68114A934200D00EE04FF48020FFF7CB
:100B800035FD0B4BD3F8303123F0030208493B68A5
:100B90001343C1F8303100BF4BE07B680F4A9342EA
:100BA00020D00F4A934228D033E000BF0148E8012B
:100BB00000400E4080161800A009140080061600A0
:100BC0008046120000362C0080262E0080002A006D
:100BD00090171C009037300090071A00B8003200C0
:100BE000B9003400154BD3F85C3123F003021349EC
:100BF0003B681343C1F85C310BE0104BD3F85C3118
:100C000023F440323B681B040C491343C1F85C31A8
:100C100000BF0EE0094BD3F8043123F4FF3323F473
:100C200080733A68120205491343C1F8043100E0A9
:100C300000BF00BF1037BD4680BD00BF00400E4062
:100C400080B485B000AF78600123FB737B6803F04C
:100C50000F03BB60BB68013B0B2B00F2748101A248
:100C600052F823F0950C0000F10C0000210D00005B
:100C7000990D0000690D0000C90D0000470F00002C
:100C8000ED0D00002F0E0000730E0000B30E0000EB
:100C9000F30E0000B34BD3F8943003F00703023B8C
:100CA000052B21D801A252F823F000BFD10C00007F
:100CB000CB0C0000C50C0000D70C0000E30C0000BA
:100CC000DD0C00000223FB7311E00323FB730EE035
:100CD0000423FB730BE00D23FB7308E00E23FB736F
:100CE00005E00A23FB7302E00523FB7300BF32E13A
:100CF0009C4BD3F8803003F00703022B06D0042B63
:100D000007D0012B08D10323FB7308E00223FB73F8
:100D100005E00C23FB7302E00123FB7300BF1AE123
:100D2000904BD3F8843003F00703013B032B17D813
:100D300001A252F823F000BF490D00004F0D000042
:100D40005B0D0000550D00000323FB730BE0022335
:100D5000FB7308E00C23FB7305E00623FB7302E042
:100D60000123FB7300BFF6E07E4BD3F8883003F01D
:100D70000703022B06D0042B07D0012B08D1032335
:100D8000FB7308E00223FB7305E00C23FB7302E016
:100D90000123FB7300BFDEE0724BD3F88C3003F00D
:100DA0000703022B06D0042B07D0012B08D1032305
:100DB000FB7308E00223FB7305E00C23FB7302E0E6
:100DC0000123FB7300BFC6E0664B1B6F03F00303F8
:100DD000002B04D0012B05D10923FB7305E0072369
:100DE000FB7302E00123FB7300BFB4E05D4BD3F85B
:100DF0005C3103F03003102B0CD0102B02D8002BE9
:100E000005D010E0202B08D0302B09D00BE00123B7
:100E1000FB730BE00723FB7308E00423FB7305E07F
:100E20000823FB7302E00123FB7300BF93E04D4BEB
:100E3000D3F85C3103F44013B3F5801F0FD0B3F542
:100E4000801F02D8002B07D085E0B3F5001F09D022
:100E5000B3F5401F09D07EE00123FB7308E00723B0
:100E6000FB7305E00423FB7302E00823FB7300BF60
:100E700071E03C4BD3F8603103F00303032B65D8DA
:100E800001A252F823F000BF990E00009F0E00004F
:100E9000A50E0000AB0E00000523FB7308E0042341
:100EA000FB7305E00723FB7302E00A23FB7300BF1B
:100EB0004CE02C4BD3F8643103F00303032B47D8E9
:100EC00001A252F823F000BFD90E0000DF0E00008F
:100ED000E50E0000EB0E00000523FB7308E0042381
:100EE000FB7305E00723FB7302E00A23FB7300BFDB
:100EF0002EE01C4BD3F8F03103F00703052B29D863
:100F000001A252F823F000BF210F0000270F0000BC
:100F10002D0F0000330F0000390F00003F0F0000BD
:100F20000A23FB730EE00423FB730BE00B23FB731C
:100F300008E00523FB7305E00223FB7302E00323B3
:100F4000FB7300BF06E00023FB7304E000BF02E078
:100F500000BF00E000BFFB7B18461437BD465DF8BC
:100F6000047B704700400E4080B58AB000AF7860C7
:100F70000B46FB7003237B62032387F82330002397
:100F8000BB6100237B617B68112B19D1FB78042B9B
:100F900003D101F0FFFC78610BE0FB78052B08D151
:100FA00000F028FC0246C44B9A4202D900F022FC11
:100FB00078617B69002B03D00021786901F06CFD1A
:100FC0007B6803F00F033B613B69013B0B2B00F295
:100FD000748201A252F823F0091000000F110000E2
:100FE0002F1100001311000021110000CD1100008D
:100FF000BB140000EB11000061120000F7120000AA
:101000007B130000FF130000FB78023B0C2B00F267
:10101000568201A252F823F04D1000005910000032
:101020006510000077100000BF140000BF1400001E
:10103000BF140000BF140000A1100000BF14000086
:10104000BF140000891000009510000004237B628B
:10105000002387F8233029E003237B62012387F8EC
:10106000233023E002237B62022387F82330934856
:10107000FFF78CF91AE001237B62032387F8233002
:101080008E48FFF783F911E005237B62032387F87D
:1010900023300BE007237B62072387F8233005E02A
:1010A00006237B62052387F8233000BF97F823309F
:1010B000072B06D097F8233001220121184600F0B3
:1010C0000BFCFFF7DDF9FFF7ADFA7B69002B01D0D0
:1010D000FFF736F97A4A7B6A536701F0B7FBF8608D
:1010E00001F0DEFB03461846FFF750F9FFF740F921
:1010F00003461946F868FFF72BFA7B69002B03D1EA
:101100000121002001F0C8FCFFF7A2FAE4E16D4BD9
:10111000BB61BB69002B01D0BB6900E06A4BBB61BE
:10112000BB69002B01D0BB6900E0684BBB61BB69A8
:10113000002B01D0BB6900E0654BBB61FB78013B34
:101140000B2B00F2BE8101A252F823F07D110000AA
:101150008311000093110000C3140000C3140000A9
:10116000A3110000C3140000C3140000C314000046
:10117000C3140000C3140000BF1100000023FB6172
:1011800020E001220121002000F0A6FB0223FB61E8
:1011900018E001220121012000F09EFB0123FB61E8
:1011A00010E001F07DFB03461846FFF7EFF801223F
:1011B00000214848FFF726F80323FB6102E00423DF
:1011C000FB6100BFBB69FA691A6085E1FB78072BF8
:1011D00002D0092B04D07FE1394B00221A6703E0CB
:1011E000374B01221A6700BF76E1FB78013B072BE2
:1011F00000F2698101A252F823F000BF1D12000025
:10120000C7140000C714000033120000C714000008
:10121000C714000023120000431200000023FB61EA
:1012200012E001220121042000F056FB0123FB61A2
:101230000AE001220121022000F04EFB0223FB61A3
:1012400002E00323FB6100BF1D4BD3F85C3123F0A8
:101250003002FB691B011A491343C1F85C313BE1C1
:10126000FB78013B072B00F2308101A252F823F0FA
:1012700091120000CB140000CB140000A712000054
:10128000CB140000CB14000097120000D91200000C
:101290000023FB6123E001220121042000F01CFB5C
:1012A0000123FB611BE001220121022000F014FB5D
:1012B0000223FB6113E000BF002D31010148E8016A
:1012C00000400E4080400E408C400E4088400E4052
:1012D00084400E40B0400E400323FB6100BF804BB2
:1012E000D3F85C3123F44012FB691B057C4913439E
:1012F000C1F85C31F0E0FB78043B062B00F2E7809C
:1013000001A252F823F000BF35130000251300009E
:10131000CF14000045130000CF140000CF140000CC
:101320005513000001220121032000F0D5FA00230B
:10133000FB6117E001220121022000F0CDFA012318
:10134000FB610FE001220121042000F0C5FA022315
:10135000FB6107E001220121052000F0BDFA032313
:10136000FB6100BF5E4BD3F8603123F003025C49A0
:10137000FB691343C1F86031AEE0FB78043B062BF8
:1013800000F2A78001A252F823F000BFB9130000B9
:10139000A9130000D3140000C9130000D3140000E7
:1013A000D3140000D913000001220121032000F012
:1013B00093FA0023FB6117E001220121022000F0D3
:1013C0008BFA0123FB610FE001220121042000F0D0
:1013D00083FA0223FB6107E001220121052000F0CE
:1013E0007BFA0323FB6100BF3D4BD3F8643123F04C
:1013F00003023B49FB691343C1F864316CE0FB789D
:10140000023B092B67D801A252F823F08514000093
:10141000951400004514000075140000D714000056
:10142000D7140000D7140000D714000035140000B2
:101430005514000001220121052000F04DFA00237F
:10144000FB612FE001220121022000F045FA012377
:10145000FB6127E001F09EFA214B5B6A204A43F0D2
:101460000803536201220121022000F035FA022311
:10147000FB6117E001220121032000F02DFA032374
:10148000FB610FE001220121002000F025FA042376
:10149000FB6107E001220121012000F01DFA052374
:1014A000FB6100BF0E4BD3F8F03123F007020C496B
:1014B000FB691343C1F8F0310EE000BF0CE000BF40
:1014C0000AE000BF08E000BF06E000BF04E000BF84
:1014D00002E000BF00E000BF2837BD4680BD00BF6E
:1014E00000400E4080B58AB000AF786000237B6278
:1014F0000023FB77FEF73CFF0346022B06D17B68F7
:101500001B686F4A934201D90023D5E000233B6258
:1015100018E07B681A686B493B6A1B010B441B6827
:101520009A420CD37B681A6866493B6A1B010B44DC
:1015300004331B689A4202D83B6A7B6205E03B6A2F
:1015400001333B623B6A172BE3D97B6A182B01D12D
:101550000023B1E05B4A7B6A1B01134408331B681C
:10156000BB61584A7B6A1B0113440C331B68002B78
:1015700019D0544A7B6A1B0113440C331B6818466C
:1015800000F0A6F8034603F07F037B617B69092B1B
:1015900003D97B69093B7B6101E000237B61BA6968
:1015A0007B691343BB617B681B68474A136011204A
:1015B000FFF746FB0346052B01D1FEF761FF112023
:1015C000FFF73EFB0346052B09D17B681B681846D5
:1015D000FEF7DCFE0123FB773C4B05225A673B4BB1
:1015E0004FF400521A6600BF384BD3F8903003F422
:1015F0004053002BF8D1354B4FF46032C3F8A8208C
:101600007B689B881B047A68D28811462F4A0B435B
:1016100053642E4ABB6913617B689B7ADB007A684E
:10162000527B002A01D0042200E000221A437B688A
:10163000DB7A5B0013437A68127B1146234A0B4323
:101640001364224B4FF480521A6600BF1F4BD3F82D
:10165000A03003F460333B613B69002BF6D01120CE
:10166000FFF7EEFA03460D2B05D1FB7F002B02D0CE
:10167000164B01225A671120FFF7E2FA0346052BA9
:1016800009D101F0E3F8F860FEF772FE034619464F
:10169000F868FEF75DFF01F003F903461846FEF710
:1016A00075FE0121002001F0F7F93B69B3F5004F09
:1016B00001D1012300E0002318462837BD4680BD34
:1016C000002D3101CC7700000C00002000400E40BE
:1016D00080B483B000AF78607B68374A934243D0D0
:1016E000354A934216D8354A93422DD0334A934215
:1016F00006D8334A934227D0324A934224D053E04B
:10170000314A934228D0314A934229D0304A9342F9
:101710001ED049E02F4A934236D02E4A934209D830
:101720002D4A934228D02D4A934229D02C4A9342E5
:101730001ED039E02B4A93422ED02B4A93422FD011
:101740002A4A934224D02FE0294BD3F880302CE052
:10175000274BD3F88C3028E0254BD3F8983024E081
:10176000234BD3F89C3020E0214BD3F8A0301CE071
:101770001F4BD3F8A83018E01D4BD3F8AC3014E061
:101780001B4BD3F8B03010E0194BD3F8B4300CE059
:10179000174BD3F8B83008E0154BD3F8BC3004E051
:1017A000134BD3F8C03000E0002318460C37BD4679
:1017B0005DF8047B704700BFC0EA210100093D00CD
:1017C00040420F0080841E00405DC6000024F400EB
:1017D000C0CF6A00006CDC020048E80180D54302FB
:1017E00080BA8C010090D00300A24A04007E560308
:1017F000B081E00F80B400AF034B1B681846BD46B4
:101800005DF8047B704700BF0C00002080B584B0F9
:1018100000AF78601120FFF713FA012200210220A7
:1018200000F05AF80023FB607B68DB7A012B0AD0BA
:10183000022B05D0002B00D008E00023FB6005E060
:101840000323FB6002E00123FB6000BF204B5B6AC7
:1018500023F003021E49FB6813434B620023FB6025
:1018600001F098F802461B4B9A4203D8FB6843F0FC
:101870000803FB60164B5B6A23F008021449FB68FF
:1018800013434B627B681B88DB027A6892881A4399
:101890000F4BDA620E4B1B6B1B0D1B057A685288CF
:1018A000D20213437A68D2881146094A0B43136364
:1018B0007B681B7A1A037B685B7A1B0113437A6887
:1018C000927A1A43024B5A6300BF1037BD4680BD5F
:1018D00000400E4040787D0180B588B000AF0346DF
:1018E000FB710B46BB7113467B71FB79052B00F234
:1018F000BF8001A252F823F05919000047190000D7
:101900002319000011190000351900006F1900009B
:1019100001237B6102233B610123FB610023BB6147
:1019200030E004237B6108233B610323FB61022336
:10193000BB6127E010237B6120233B610523FB6112
:101940000423BB611EE040237B6180233B610723AE
:10195000FB610623BB6115E04FF480737B614FF49C
:1019600000733B610923FB610823BB610AE04FF46C
:1019700080637B614FF400633B610B23FB610A23AF
:10198000BB6100BFBB79002B55D00023FB73FB79F3
:10199000022B11D1FEF706FE0346012B0CD1364B6C
:1019A000DB6B0123FB73354B5B6A03F00303032BF3
:1019B00002D10220FEF704FE304A7B69136600BFA5
:1019C000B9692F48FEF735FC0346002BF8D07B7928
:1019D000002B4ED000BFF9692948FEF72AFC0346C8
:1019E000002BF8D0FB79022B43D1FB7B002B40D09E
:1019F000224B5B6A03F00303032B03D00021022078
:101A000000F0F2F8022000F03DF8B8600122002159
:101A10000220FFF761FFB968022000F06DF8174A55
:101A20007B69136600BFF9691548FEF702FC03469F
:101A3000002BF8D01DE0114A3B69136600BF0F4B25
:101A4000D3F890300121BA6901FA02F21340002B59
:101A5000F5D17B79002B0CD000BF084BD3F8903028
:101A60000121FA6901FA02F21340002BF5D100E0DE
:101A700000BF2037BD4680BD00300E4000400E4004
:101A800090400E4080B485B000AF0346FB71FB79F7
:101A9000013B042B24D801A252F823F0B11A000014
:101AA000E11A0000BD1A0000D51A0000C91A000092
:101AB000104B1B6AC3F30803FB6014E00D4B1B695A
:101AC00003F07F03FB600EE00A4B9B6803F07F038B
:101AD000FB6008E0074B9B6903F07F03FB6002E0BB
:101AE0000023FB6000BFFB6818461437BD465DF855
:101AF000047B704700400E4080B582B000AF0346C3
:101B00003960FB71FB79013B042B63D801A252F8C9
:101B100023F000BF291B0000D51B0000571B00004D
:101B2000AB1B0000811B00003B68C3F308033B6054
:101B300000BF1A212A48FEF77CFB0346002BF8D190
:101B4000284B1B6A23F4FF7323F0010325493A68ED
:101B500013430B623FE03B6803F07F033B6000BF31
:101B600018211F48FEF765FB0346002BF8D11D4BDB
:101B70001B6923F07F021B493B6813430B612AE07A
:101B80003B6803F07F033B6000BF1E211448FEF753
:101B900050FB0346002BF8D1124B9B6823F07F02C9
:101BA00010493B6813438B6015E03B6803F07F03EB
:101BB0003B6000BF19210A48FEF73BFB0346002BA0
:101BC000F8D1084B9B6923F07F0206493B68134319
:101BD0008B6100E000BF00BF0837BD4680BD00BF7D
:101BE00040410E4000400E4080B584B000AF034637
:101BF0000A46FB711346BB71FEF7D4FC0346012B6A
:101C000003D14FF48003FB6009E0BB79002B03D1C3
:101C10004FF48003FB6002E0084BFB6000BF00BF95
:101C2000074BD3F89020FB681340FA689A42F7D12B
:101C3000012318461037BD4680BD00BFFF3F473A1D
:101C400000400E4080B487B000AFF860B9607A60A1
:101C5000FB6803F10473DA00BB6813449B007B61EB
:101C60007B697A681A6000BF1C37BD465DF8047B4B
:101C7000704780B485B000AF786039607B6803F14D
:101C8000C063FB60FB683A681A6000BF1437BD464A
:101C90005DF8047B704780B485B000AF7860396030
:101CA0007B6803F18063FB60FB683A681A6000BFE1
:101CB0001437BD465DF8047B704780B584B000AF33
:101CC000F860B9607A60B968F868FFF7E4FF79688E
:101CD000F868FFF7CEFF00BF1037BD4680BD00009B
:101CE00080B483B000AF7860044A7B68C2F82434C3
:101CF00000BF0C37BD465DF8047B7047008008408C
:101D000080B582B000AF03463960FB71FB79002BD0
:101D100016D0FB79012B13D0FB79022B10D0FB7965
:101D2000032B0DD0FB79042B0AD0FB79052B07D0B0
:101D3000FB79062B04D0FB79072B01D0FB79082B0C
:101D4000FA7913465B0013441B010C3303F1804303
:101D500003F5082301213A6801FA02F211461846F8
:101D6000FFF799FF00BF0837BD4680BD80B582B040
:101D700000AF03463960FB71FB79002B16D0FB796D
:101D8000012B13D0FB79022B10D0FB79032B0DD044
:101D9000FB79042B0AD0FB79052B07D0FB79062BA6
:101DA00004D0FB79072B01D0FB79082BFA79134675
:101DB0005B0013441B010C3303F1804303F508233C
:101DC00001213A6801FA02F211461846FFF751FF65
:101DD00000BF0837BD4680BD80B586B000AFB96092
:101DE0007A601A460346FB731346BB7300237B617C
:101DF000FB7B002B16D0FB7B012B13D0FB7B022B34
:101E000010D0FB7B032B0DD0FB7B042B0AD0FB7B7C
:101E1000052B07D0FB7B062B04D0FB7B072B01D0C7
:101E2000FB7B082B7B68072B0ED87B689B000F225F
:101E300002FA03F1FA7B7B689B0002FA03F31A466D
:101E40002B48FFF73AFF10E07B68083B7B617B691A
:101E50009B000F2202FA03F1FA7B7B699B0002FAD6
:101E600003F31A462348FFF728FF7B68072B10D897
:101E70007B689B00032202FA03F1BB6803F00302B4
:101E80007B689B0002FA03F31A461B48FFF715FF15
:101E90000FE07B699B00032202FA03F1BB6803F0A9
:101EA00003027B699B0002FA03F31A461348FFF70B
:101EB00004FFBB7B1A4679681148FFF7C3FE97F809
:101EC00020301A4679680F48FFF7BCFE01227B6874
:101ED00002FA03F31846FFF703FF97F824301A4677
:101EE00079680948FFF7AEFE00BF1837BD4680BDD0
:101EF0000084084004840840088408400C8408409A
:101F000010840840148408402884084080B584B0B8
:101F100000AFB9607B600346FB731346BB73FB7B6A
:101F2000002B16D0FB7B012B13D0FB7B022B10D098
:101F3000FB7B032B0DD0FB7B042B0AD0FB7B052BFB
:101F400007D0FB7B062B04D0FB7B072B01D0FB7B50
:101F5000082BBB7B002B0DD07B68002B05D0FB7BB7
:101F6000B9681846FFF702FF04E0FB7BB968184622
:101F7000FFF7C6FEBB68072B20D82E49FA7B134615
:101F80005B0013441B010B4404331A68BB689B00BD
:101F90000F2101FA03F3DB431340B97BBA689200C7
:101FA00001FA02F211462348FA7B194313465B00FB
:101FB00013441B0103440433196025E01D49FA7BD7
:101FC00013465B0013441B010B4408331A68BB68BB
:101FD00003F18043083B9B000F2101FA03F3DB432D
:101FE00002EA0301BA7BBB6803F18043083B9B0014
:101FF00002FA03F30F48FA7B194313465B001344BC
:102000001B01034408331960BB7B002B0DD17B6897
:10201000002B05D0FB7BB9681846FFF7A7FE04E04C
:10202000FB7BB9681846FFF76BFE00BF1037BD4653
:1020300080BD00BF0080084080B483B000AF7860EE
:1020400000BF7B681B6903F08003002BF9D07B681D
:10205000DB69DBB218460C37BD465DF8047B704780
:1020600080B483B000AF78600B46FB7000BF7B6824
:102070001B6903F04003002BF9D0FA787B685A63A0
:1020800000BF0C37BD465DF8047B704780B485B057
:1020900000AF786039607B6803F1C063FB60FB6868
:1020A0003A681A6000BF1437BD465DF8047B70477C
:1020B00080B485B000AF786039607B6803F18063DD
:1020C000FB60FB683A681A6000BF1437BD465DF8D4
:1020D000047B704780B582B000AF03463960FB7166
:1020E000FB79002B16D0FB79012B13D0FB79022B47
:1020F00010D0FB79032B0DD0FB79042B0AD0FB7990
:10210000052B07D0FB79062B04D0FB79072B01D0D8
:10211000FB79082BFA7913465B0013441B010C333F
:1021200003F1804303F5082301213A6801FA02F222
:1021300011461846FFF7BCFF00BF0837BD4680BDFB
:1021400080B582B000AF03463960FB71FB79002B8C
:1021500016D0FB79012B13D0FB79022B10D0FB7921
:10216000032B0DD0FB79042B0AD0FB79052B07D06C
:10217000FB79062B04D0FB79072B01D0FB79082BC8
:10218000FA7913465B0013441B010C3303F18043BF
:1021900003F5082301213A6801FA02F211461846B4
:1021A000FFF774FF00BF0837BD4680BD80B400AFA5
:1021B0004FF0804301225A64184BD3F8B030174ACD
:1021C00043F00103C2F8B030144BD3F8E030134AA7
:1021D00043F00803C2F8E030114B1B68104A43F487
:1021E000805313600D4BD3F8E0300C4A23F0080302
:1021F000C2F8E030094BD3F8B030084A23F00103AD
:10220000C2F8B030074B1B68064A43F4F84313602A
:1022100000BFBD465DF8047B704700BF00400E4024
:1022200034400540A4310E4080B588B000AF224A4A
:1022300007F1140307CA83E807000023FB7707F1BF
:1022400014031846FFF7E2FA012201210220FFF7EA
:1022500043FB3B1D00221A605A609A60DA60174BFC
:102260007B6040F60F633B8140F6C3137B81042300
:10227000BB7301237B743B1D1846FFF733F90346FC
:1022800083F00103DBB2002B03D004211120FEF701
:102290006BFE0B4BD3F80C31094A23F4FF3323F4C4
:1022A0008073C2F80C3101210648FEF735FA00BFF1
:1022B0002037BD4680BD00BF8479000000A24A04DB
:1022C00000400E404041050080B500AF01210D489F
:1022D000FEF722FA0023042201210020FFF716FE58
:1022E0000023042202210020FFF710FE0023042215
:1022F00004210320FFF70AFE02210020FFF720FF40
:1023000000BF80BD00550A0080B485B000AF786082
:102310000023FB6004E0FB68FB60FB680133FB60AB
:102320007B6840F60B2202FB03F2FB689A42F2D86C
:1023300000BF1437BD465DF8047B704780B5C0B060
:1023400000AFFFF733FFFFF76FFF00F02DFEFFF741
:10235000BBFF01F0B1F804F039F903F00BFF03F013
:10236000DBFF03F071FD03F029FE04F0C1FB00F078
:10237000C1FE00F02DFF03F065FB01F0CBF84FF438
:102380009670FFF7C1FF01F0CDF801F0DBF84FF4D4
:102390009670FFF7B9FF01F0DDF801F0EBF84FF4AC
:1023A0009670FFF7B1FF01F0EDF801F0FBF84FF484
:1023B0009670FFF7A9FF01F0FDF801F00BF94FF45B
:1023C0009670FFF7A1FF01F00DF901F01BF94FF432
:1023D0009670FFF799FF01F01DF901F02BF902F05B
:1023E00097F83B4600221A6004E03B461B685A1CE3
:1023F0003B461A603B461B68B34A9342F5DD042115
:102400000320FFF767FEB14803F000FFB04804F077
:1024100027F9B04803F0E0FFAF4803F0DDFF01F01B
:10242000D5F902F0A1FEAD4B1B78002B00F099818D
:10243000AA4B1B78313B472B00F2438101A252F893
:1024400023F000BFD7250000E3250000EF250000A2
:10245000FB2500000726000013260000C32600000D
:10246000C3260000C3260000C3260000C3260000C8
:10247000C3260000C3260000C3260000C3260000B8
:10248000C3260000C3260000C3260000C3260000A8
:10249000C3260000C3260000C3260000C326000098
:1024A000C3260000C3260000C3260000C326000088
:1024B000C3260000C3260000C3260000C326000078
:1024C000C3260000C3260000C3260000C326000068
:1024D0002B260000C3260000C3260000C3260000F0
:1024E000C3260000C3260000C3260000C326000048
:1024F000C3260000C3260000C3260000C326000038
:10250000C326000091260000C3260000C326000059
:10251000C3260000C3260000C3260000C326000017
:102520006525000059260000C3260000C3260000D0
:10253000C3260000C32600006F260000C32600004B
:10254000D1250000C3260000BD2600004326000060
:102550001F260000C3260000C3260000C32600007B
:10256000372600005E4803F037FF5E4803F034FF73
:102570005D4803F031FF5B4803F02EFF5B4803F03A
:102580002BFF5B4803F028FF5A4803F025FF5A4809
:1025900003F022FF594803F01FFF594803F01CFFC6
:1025A000584803F019FF584803F016FF574803F046
:1025B00013FF574803F010FF564803F00DFF49483A
:1025C00003F00AFF02F008FA464803F005FFC2E0F4
:1025D00001F0FCF8BFE000F0ADFF4F4803F0FCFE57
:1025E000B9E000F0BFFF4D4803F0F6FEB3E000F0A5
:1025F000D1FF4B4803F0F0FEADE000F0E3FF4948A7
:1026000003F0EAFEA7E000F0F5FF474803F0E4FE20
:10261000A1E001F007F8454803F0DEFE9BE002F080
:1026200077FC434803F0D8FE95E003F007FD4148EE
:1026300003F0D2FE8FE0404803F0CEFE00F048FDEC
:1026400089E03E4B1B78002B0CBF01230023DBB23B
:102650001A463A4B1A707EE0394B1B78002B0CBFA0
:1026600001230023DBB21A46354B1A7073E0354B59
:102670001B78002B0CBF01230023DBB21A46314B21
:102680001A70304B1B78002B64D004F045F861E0E1
:102690002D4803F0A1FE00F039FD0346184600F076
:1026A00015FE2A4803F098FE00F09EFD03461846EA
:1026B00000F00CFE264803F08FFE4CE003F05CFBBC
:1026C00049E000BF47E000BF9F860100907900000D
:1026D000A8790000C0790000E079000074070020AC
:1026E000087A0000107A0000347A0000487A00006E
:1026F0006C7A0000847A0000A07A0000C07A0000A2
:10270000D87A0000E87A0000107B0000307B0000DF
:10271000547B0000707B00008C7B0000947B0000E9
:102720009C7B0000A47B0000AC7B0000B47B00001D
:10273000BC7B0000CC7B0000E47B0000AD000020EF
:10274000AE000020AF000020F47B00000C7C0000F5
:10275000187C000000BF274803F03EFE264B0022F5
:102760001A70264B1B78012B7FF45BAE234B0022A3
:102770001A70234B1B680133214A1360204B1A68DF
:10278000204BA3FB02131B0B4FF4E15101FB03F39E
:10279000D31A002B01D103F0BFFF03F051F81A4BFD
:1027A0001B78012B02D1194803F016FE184B1B7839
:1027B000012B19D100F021FC03461A463B1D154997
:1027C000184604F093FB3B1D184603F005FE00F08D
:1027D0001EFC03461A463B1D0F49184604F086FBB3
:1027E0003B1D184603F0F8FD00F0ACFC00F018FDAE
:1027F00017E600BF1C7C0000740700207006002054
:1028000040010020C5B3A291AD000020247C00004F
:10281000AE000020287C0000407C00000648804775
:102820000649074A074B9A42BEBF51F8040B42F8CB
:10283000040BF8E7FDF7ACFCAD2900004C86000066
:10284000000000207C000020FEE700BF80B582B0C1
:1028500000AF00F025F878600A4BD3F808311B0A66
:10286000C3F308033B603B6801337A68B2FBF3F3C0
:102870007B60054A7B6813607B6818460837BD4655
:1028800080BD00BF00400E400800002080B400AFB3
:10289000024B1846BD465DF8047B704700A24A040F
:1028A00080B483B000AF334BD3F8943003F0070308
:1028B000023B042B49D801A252F823F0E128000082
:1028C000D9280000D128000041290000E928000093
:1028D000294B1B687B603CE04FF400437B6038E091
:1028E000264B1B687B6034E0224B9B681B0C03F07B
:1028F0001F03073B072B1FD801A252F823F000BF8C
:102900002129000039290000392900003929000057
:1029100027290000392900002D2900003329000053
:10292000174B7B600BE0174B7B6008E0164B7B601E
:1029300005E0164B7B6002E000237B6000BF08E0EF
:10294000134B1B685B087B6003E0114B1B687B60CB
:1029500000BF084BD3F800311B0A03F01F030133FB
:102960007A68B2FBF3F318460C37BD465DF8047B7A
:10297000704700BF00400E4004000020000000200F
:102980000024F4000048E801006CDC0280F0FA0248
:102990000C00002080B400AF034B1B681846BD46F6
:1029A0005DF8047B704700BF0000002080B400AFDA
:1029B000074B084A9A60064BD3F88830044A43F420
:1029C0007003C2F8883000BFBD465DF8047B7047D5
:1029D00000ED00E00000000080B485B000AF78603A
:1029E00039607B6803F10473DA003B6813449B0091
:1029F000FB60FB681B6818461437BD465DF8047B16
:102A00007047000080B400AF064B1B6803F0400322
:102A1000002B01D1012300E000231846BD465DF8DC
:102A2000047B70473C300E4080B500AFFFF7EAFFF3
:102A3000034683F00103DBB2002B08D100BF122153
:102A40000448FFF7C9FF0346002BF8D100E000BFA0
:102A500080BD00BF04300E4080B500AFFFF7E4FF3B
:102A6000034B5B681B0C03F00303DBB2184680BD0D
:102A700000300E4080B483B000AF0346FB71FB7999
:102A8000C3F10203102202FA03F318460C37BD46C5
:102A90005DF8047B7047000080B584B000AF7860BB
:102AA0000B46FB70FFF7AEFF034683F00103DBB27A
:102AB000002B28D17B68002B0FD1154BD3F80031A8
:102AC0001B0A03F01F030133BB60FFF7E9FE024658
:102AD000BB6802FB03F3FB6001E07B68FB600D4B0E
:102AE0001B78002B09D0FB680B4A934205D8FB7872
:102AF0001946022000F012F806E0FB781946002083
:102B000000F00CF800E000BF1037BD4680BD00BFEC
:102B100000400E4098000020002D310190B587B094
:102B200000AF03460A46FB711346BB71FFF76AFF0D
:102B3000034683F00103DBB2002B31D1FFF78CFF9A
:102B400003461A46FB7993422CD0184BD3F8003138
:102B50001B0A03F01F0301337B61FFF7A1FE3861FD
:102B60003B697A6902FB03F3FB60FB79022B03D11B
:102B700002213869FDF7ECFC0D4CFB791846FFF794
:102B800079FF03462361BB79002B01D0FFF74CFF8F
:102B9000FB79002B07D100213869FDF7D9FC02E051
:102BA00000BF00E000BF1C37BD4690BD00400E4096
:102BB00000300E4080B487B000AFF860B9607A6032
:102BC000FB6803F10473DA00BB6813449B007B616C
:102BD0007B697A681A6000BF1C37BD465DF8047BCC
:102BE0007047000080B582B000AF0346FB71FB79EF
:102BF0001A4600210348FFF7DDFF00BF0837BD4636
:102C000080BD00BF0020064080B483B000AF786074
:102C10007B681B78002B01D0012200E000227B683A
:102C20005B78002B01D0042300E0002313437A6873
:102C30009278002A01D0102200E0002213437A6823
:102C4000D278002A01D0202200E000221A437B68BB
:102C50001B791B021A437B685B791B031A437B6851
:102C60009B799B0313437A68D279002A02D04FF4F0
:102C7000004200E000221A437B681B7A1B041343C6
:102C80007A68527A002A02D04FF4003200E0002223
:102C9000044913430B6000BF0C37BD465DF8047B4D
:102CA000704700BF0020064080B483B000AF78605A
:102CB0007B681B4A934227D07B681A4A934223D0F1
:102CC0007B68194A93421FD07B68184A93421BD0F5
:102CD0007B68174A934217D07B68164A934213D0F9
:102CE0007B68154A93420FD07B68144A93420BD0FD
:102CF0007B68134A934207D07B68124A934203D001
:102D00007B68114A934201D1012300E0002303F0C4
:102D10000103DBB218460C37BD465DF8047B7047F3
:102D2000008001400084014000880140008C014087
:102D300000900140009401400098014000A0014033
:102D400000A4014000A8014000AC014080B584B05F
:102D500000AF786039607868FFF7A6FF0023FB605A
:102D60003B681B7883F00103DBB2002B02D07B6849
:102D700002225A607B6800225A623B689B781A06DE
:102D80003B68DB781B041A433B689B799B021A4320
:102D90003B68DB791B0213433A68127A13433A68A3
:102DA0005278002A01D0402200E0002213433A6802
:102DB000527A002A01D0802200E0002213433A68B0
:102DC000927A002A01D0202200E0002213433A68C0
:102DD000D27A002A01D0102200E0002213433A6880
:102DE000127B002A01D0082200E000221343FB607E
:102DF0003B681B79002B02D04FF4005200E0002208
:102E00003B685B79002B02D04FF0805300E0002339
:102E10001343FA681343FB607B68FA681A603B68E7
:102E20001B78002B02D07B6801225A6000BF10374C
:102E3000BD4680BD80B483B000AF0346FB7197F9F7
:102E40000730002B0BDBFB7903F01F02074997F9D2
:102E500007305B09012000FA02F241F8232000BF8D
:102E60000C37BD465DF8047B704700BF00E100E011
:102E700080B485B000AF786039607B6803F104737B
:102E8000DA003B6813449B00FB60FB681B68184634
:102E90001437BD465DF8047B7047000080B483B0F2
:102EA00000AF7860044A7B68C2F8243400BF0C3756
:102EB000BD465DF8047B70470080084080B483B055
:102EC00000AF7860074BD3F828247B68DB430549C3
:102ED0001340C1F8283400BF0C37BD465DF8047BB1
:102EE000704700BF0080084080B483B000AF7860B6
:102EF000064BD3F8282405497B681343C1F82834CE
:102F000000BF0C37BD465DF8047B70470080084069
:102F100080B400AF034BD3F81C341846BD465DF8AF
:102F2000047B70470080084080B582B000AF034644
:102F30003960FB71FB79002B16D0FB79012B13D084
:102F4000FB79022B10D0FB79032B0DD0FB79042BDE
:102F50000AD0FB79052B07D0FB79062B04D0FB792F
:102F6000072B01D0FB79082BFA7913465B00134439
:102F70001B011C3303F1804303F50823396818460D
:102F8000FFF776FF034618460837BD4680BD80B47C
:102F900083B000AF78607B685B6A18460C37BD462B
:102FA0005DF8047B7047000080B500AF01210D483B
:102FB000FDF7B2FB0023032200210020FEF7A6FF4D
:102FC0000023032203210020FEF7A0FF0023032299
:102FD00004210020FEF79AFF0320FFF72BFF00BF1C
:102FE00080BD00BF00550A0080B500AF0021002061
:102FF000FFF79AFF0346184680BD80B500AF032156
:103000000020FFF791FF0346DBB2184680BD80B574
:1030100000AF04210020FFF787FF0346DBB218460C
:1030200080BD000080B582B000AFFFF771FF78600F
:103030007868FFF733FF7B6803F00103002B35D07E
:103040001C4B1B78002B0CD01B48FFF7A0FF02463F
:103050001A4B1A60174B00221A70194B01221A8062
:1030600005E0174B1B8801339AB2154B1A80154B9C
:103070001B78002B18D01048FFF789FF0246124B2F
:103080001A60114B1A680D4B1B68D31A0C4A128830
:10309000B3FBF2F30D4A13600A4B00221A700B4B7C
:1030A0001B68184602F0E2FF01F06EFA00BF083715
:1030B000BD4680BD9900002000A001409C0000207A
:1030C000A40000209A000020A0000020A8000020FA
:1030D00080B500AF0120FFF7E1FE0120FFF704FFFC
:1030E00000BF80BD80B500AF0120FFF7E7FE00BF45
:1030F00080BD000080B400AF034B00221A7000BFF7
:10310000BD465DF8047B7047E400002080B400AF4A
:10311000034B1B781846BD465DF8047B704700BF23
:10312000E400002080B483B000AF0346FB71044A82
:10313000FB79137000BF0C37BD465DF8047B704708
:10314000E400002080B500AF1F4B1B78032B39D85B
:1031500001A252F823F000BF693100008131000064
:1031600093310000A5310000FFF751FF0346012B0A
:1031700021D1154B01221A70144803F02DF91AE0E1
:10318000FFF745FF0346002B17D10F4B00221A70A3
:1031900013E0FFF73CFF0346002B10D10A4B03223C
:1031A0001A700CE0FFF733FF0346012B09D1064BE1
:1031B00002221A7005E000BF04E000BF02E000BF79
:1031C00000E000BF00BF80BDE4000020547C000090
:1031D00080B400AF034B00221A7000BFBD465DF8FB
:1031E000047B7047E500002080B400AF034B1B78E0
:1031F0001846BD465DF8047B704700BFE50000201F
:1032000080B483B000AF0346FB71044AFB791370AE
:1032100000BF0C37BD465DF8047B7047E500002019
:1032200080B500AF264B1B78032B46D801A252F87D
:1032300023F000BF453200007732000089320000E1
:103240009B320000FFF7D9FE0346012B2ED11D4B08
:103250001B780133DAB21B4B1A701A4B1B78EF2B19
:1032600024D9174B01221A70164B00221A701648E7
:1032700003F0B2F81AE0FFF7C0FE0346002B17D1A7
:103280000F4B00221A7013E0FFF7B7FE0346002B26
:1032900010D10B4B03221A700CE0FFF7AEFE034671
:1032A000012B09D1064B02221A7005E000BF04E091
:1032B00000BF02E000BF00E000BF00BF80BD00BF54
:1032C000E5000020AC0000206C7C000080B582B0DE
:1032D00000AF0346FB71FB79032B1BD801A252F808
:1032E00023F000BFF5320000FD320000053300007E
:1032F0000D330000094803F06FF80BE0084803F0B5
:103300006BF807E0074803F067F803E0064803F0AE
:1033100063F800BF00BF0837BD4680BD847C000055
:10332000987C0000A47C0000B07C000080B485B0D4
:1033300000AF786039607B6803F1C063FB60FB68B5
:103340003A681A6000BF1437BD465DF8047B7047C9
:1033500080B485B000AF786039607B6803F180632A
:10336000FB60FB683A681A6000BF1437BD465DF821
:10337000047B704780B582B000AF03463960FB71B3
:10338000FB79002B16D0FB79012B13D0FB79022B94
:1033900010D0FB79032B0DD0FB79042B0AD0FB79DD
:1033A000052B07D0FB79062B04D0FB79072B01D026
:1033B000FB79082BFA7913465B0013441B010C338D
:1033C00003F1804303F5082301213A6801FA02F270
:1033D00011461846FFF7BCFF00BF0837BD4680BD49
:1033E00080B582B000AF03463960FB71FB79002BDA
:1033F00016D0FB79012B13D0FB79022B10D0FB796F
:10340000032B0DD0FB79042B0AD0FB79052B07D0B9
:10341000FB79062B04D0FB79072B01D0FB79082B15
:10342000FA7913465B0013441B010C3303F180430C
:1034300003F5082301213A6801FA02F21146184601
:10344000FFF774FF00BF0837BD4680BD80B483B06E
:1034500000AF03463960FB71FB79002B16D0FB7976
:10346000012B13D0FB79022B10D0FB79032B0DD04D
:10347000FB79042B0AD0FB79052B07D0FB79062BAF
:1034800004D0FB79072B01D0FB79082B01223B6884
:1034900002FA03F30749FA79184613465B0013440E
:1034A0001B010B441833186000BF0C37BD465DF894
:1034B000047B70470080084080B500AF01211448AC
:1034C000FDF72AF90023042208210020FEF71EFD43
:1034D0000023042205210320FEF718FD0023042207
:1034E00006210320FEF712FD0023042208210320F9
:1034F000FEF70CFD0023042202210320FEF706FD47
:103500000023042203210320FEF700FD00BF80BD3D
:1035100000550A0080B500AF08210020FFF760FFCA
:1035200000BF80BD80B500AF08210020FFF722FF5B
:1035300000BF80BD80B500AF08210020FFF786FFE7
:1035400000BF80BD80B500AF05210320FFF748FF15
:1035500000BF80BD80B500AF05210320FFF70AFF43
:1035600000BF80BD80B500AF05210320FFF76EFFCF
:1035700000BF80BD80B500AF06210320FFF730FFFC
:1035800000BF80BD80B500AF06210320FFF7F2FE2B
:1035900000BF80BD80B500AF06210320FFF756FFB6
:1035A00000BF80BD80B500AF08210320FFF718FFE2
:1035B00000BF80BD80B500AF08210320FFF7DAFE11
:1035C00000BF80BD80B500AF08210320FFF73EFF9C
:1035D00000BF80BD80B500AF02210320FFF700FFD0
:1035E00000BF80BD80B500AF02210320FFF7C2FEFF
:1035F00000BF80BD80B500AF02210320FFF726FF8A
:1036000000BF80BD80B500AF03210320FFF7E8FEB7
:1036100000BF80BD80B500AF03210320FFF7AAFEE5
:1036200000BF80BD80B500AF03210320FFF70EFF70
:1036300000BF80BD80B483B000AF634B0F221A700F
:10364000614B03225A70604B01229A705E4B02223A
:10365000DA705D4B00221A715B4B00225A715A4B93
:1036600000229A710023FB7107E0FB79564A13444C
:103670000022DA71FB790133FB71FB790E2BF4D94F
:103680000023FB713EE0FA794F4913465B00134477
:103690005B000B44163300221A70FA794A4913462C
:1036A0005B0013445B000B44173300221A70FA7955
:1036B000454913465B0013445B000B44183300225A
:1036C0001A70FA79404913465B0013445B000B44BF
:1036D000193300221A70FA793B4913465B001344F0
:1036E0005B000B441A3300221A70FA7936491346EC
:1036F0005B0013445B000B441B3300221A70FB7900
:103700000133FB71FB79092BBDD92F4B03225A756D
:103710002D4B0F229A752C4BFF22DA752A4BFF2274
:103720001A76294B07225A76274B02229A76264B85
:103730000222DA76244B0F221A77234BFF225A7784
:10374000214B02229A77204B0822DA771E4B022265
:1037500083F820201C4B022283F821201A4B0F22D1
:1037600083F82220184B0F2283F82320164BFF22C8
:1037700083F82420144B022283F82520124B0922BF
:1037800083F82620104B022283F827200E4B0F22AD
:1037900083F828200C4B002283F829200A4B0222B0
:1037A00083F82A20084B042283F82B20064B04229E
:1037B00083F82C20044B022283F82D2000BF0C3705
:1037C000BD465DF8047B7047E800002080B5C0B0BE
:1037D00000AF00237B6007F10803F62200211846A2
:1037E00003F07BFBBE4802F0F7FDBE4802F0F4FD9B
:1037F000BD4802F0F1FDBD4802F0EEFDBC4802F00C
:10380000EBFDBC4B1B781A463B1DBB49184603F029
:103810006DFB3B1D184602F0DFFDB64B5B781A4688
:103820003B1DB649184603F061FB3B1D184602F0EC
:10383000D3FDB04B9B781A463B1DB149184603F0A7
:1038400055FB3B1D184602F0C7FDAA4BDB781A4614
:103850003B1DAC49184603F049FB3B1D184602F0DE
:10386000BBFDA44B1B791A463B1DA749184603F024
:103870003DFB3B1D184602F0AFFD9E4B5B791A469F
:103880003B1DA249184603F031FB3B1D184602F0D0
:10389000A3FD984B9B791A463B1D9D49184603F0A2
:1038A00025FB3B1D184602F097FD9A4802F094FD57
:1038B000002387F8FF3010E097F8FF305A1C3B1DBB
:1038C0009549184603F012FB3B1D184602F084FD93
:1038D00097F8FF30013387F8FF3097F8FF300E2B51
:1038E000EAD98E4802F078FD002387F8FF301EE009
:1038F00097F8FF307F4A1344DB79002B0FD097F8FD
:10390000FF307C4A1344DB791A463B1D8249184636
:1039100003F0ECFA3B1D184602F05EFD02E0804821
:1039200002F05AFD97F8FF30013387F8FF3097F81F
:10393000FF300E2BDCD97B4802F04EFD7A4802F0B6
:103940004BFD002387F8FF30002387F8FF30A9E004
:1039500097F8FF20674913465B0013445B000B4454
:1039600016331B78002B00F0988097F8FF206149F0
:1039700013465B0013445B000B4416331B781A4656
:103980003B1D6A49184603F0B1FA3B1D184602F088
:1039900023FD97F8FF20574913465B0013445B0053
:1039A0000B4417331B78FF2B03D1614802F014FD41
:1039B00013E097F8FF204F4913465B0013445B0068
:1039C0000B4417331B781A463B1D5A49184603F01F
:1039D0008DFA3B1D184602F0FFFC97F8FF20454981
:1039E00013465B0013445B000B4418331B78FF2B1A
:1039F00003D14F4802F0F0FC13E097F8FF203D4957
:103A000013465B0013445B000B4418331B781A46C3
:103A10003B1D4849184603F069FA3B1D184602F061
:103A2000DBFC97F8FF20334913465B0013445B002F
:103A30000B4419331B781A463B1D3F49184603F0C7
:103A400055FA3B1D184602F0C7FC97F8FF2029499C
:103A500013465B0013445B000B441A331B781A4671
:103A60003B1D3449184603F041FA3B1D184602F04D
:103A7000B3FC97F8FF201F4913465B0013445B001B
:103A80000B441B331B781A463B1D2C49184603F088
:103A90002DFA3B1D184602F09FFC97F8FF300133CA
:103AA00087F8FF3097F8FF30092B7FF651AF1048A9
:103AB00002F092FC224B1A683B1D2249184603F083
:103AC00015FA3B1D184602F087FC02F055F908482C
:103AD00002F082FC00BF07F58077BD4680BD00BFC5
:103AE000BC7C0000F47C0000007D0000047D000030
:103AF000207D0000E8000020547D0000687D00006B
:103B0000787D0000887D0000987D0000A87D000081
:103B1000B87D0000C87D0000007E0000087E000027
:103B2000107E0000147E0000487E0000707E0000C1
:103B30007C7E0000847E00008C7E0000987E000069
:103B400040010020A47E000090B48AB000AF03467C
:103B5000FB710B46BB7113467B715D4B07F108048B
:103B60000FCB84E80F0000237B6259E059497A6A41
:103B700013465B0013445B000B4416331B78FA7941
:103B80009A424AD153497A6A13465B0013445B0058
:103B90000B4417331B78FB764E497A6A13465B0059
:103BA00013445B000B4418331B78BB76FB7EFF2B62
:103BB00009D1BB7EFF2B06D1BB68B3F1FF3F2CD1EF
:103BC0007B6ABB6029E0FB7EFF2B0AD1BA7E7B7942
:103BD0009A4206D1FB68B3F1FF3F1ED17B6AFB60BE
:103BE0001BE0FA7EBB799A4209D1BB7EFF2B06D13E
:103BF0003B69B3F1FF3F10D17B6A3B610DE0FA7E78
:103C0000BB799A4209D1BA7E7B799A4205D17B6908
:103C1000B3F1FF3F01D17B6A7B617B6A01337B6239
:103C20007B6A092BA2DD4FF0FF333B620323FB616C
:103C300015E0FB699B0007F12802134453F8203C70
:103C4000B3F1FF3F08D0FB699B0007F12802134442
:103C500053F8203C3B6205E0FB69013BFB61FB69DB
:103C6000002BE6DA3B6AB3F1FF3F0AD11A4B002280
:103C70001A70194B00225A70174B00229A700123B8
:103C800021E014493A6A13465B0013445B000B447D
:103C900019331A78104B1A700E493A6A13465B00B2
:103CA00013445B000B441A331A780B4B5A700949C2
:103CB0003A6A13465B0013445B000B441B331A78CB
:103CC000054B9A70002318462837BD4690BC7047B4
:103CD000B87E0000E80000203C01002090B5CFB085
:103CE00002AF314802F092FA304B1B7819462F4B45
:103CF0001B781A462D4B1344DB791C462B4B5B7803
:103D00001A462A4B5B7938460193009223460A46AD
:103D1000274903F0EBF83B46184602F077FA234BAD
:103D20009B791A46214B5B783846224903F0DEF82E
:103D30003B46184602F06AFA1C4B9B781A461B4B0E
:103D4000DB7838461C4903F0D1F83B46184602F0B0
:103D50005DFA1A4802F05AFA194802F057FA00239D
:103D600087F82F3113E097F82F31104A1344DB798D
:103D70001A463B461349184603F0B8F83B46184626
:103D800002F044FA97F82F31013387F82F3197F872
:103D90002F310E2BE7D90C4802F038FA00BF07F597
:103DA0009A77BD4690BD00BFC87E0000E8000020A5
:103DB000DC7E0000F47E0000087F00001C7F000015
:103DC000247F0000887F0000907F0000F0B5D1B014
:103DD00004AF002387F82F315FE097F82F21344993
:103DE00013465B0013445B000B4416331B78002B17
:103DF00058D097F82F212E4913465B0013445B00DF
:103E00000B4416331B789C4697F82F2128491346FC
:103E10005B0013445B000B4417331B789E4697F8F6
:103E20002F21234913465B0013445B000B441833D6
:103E30001B781C4697F82F211D4913465B0013443D
:103E40005B000B4419331B781D4697F82F21184946
:103E500013465B0013445B000B441A331B781E4669
:103E600097F82F21124913465B0013445B000B4463
:103E70001B331B78384603930296019500947346D2
:103E800062460C4903F032F83B46184602F0BEF990
:103E900097F82F31013387F82F3197F82F31092BFD
:103EA0009BD900E000BF00BF07F59A77BD46F0BD83
:103EB000E8000020B480000080B584B000AF034665
:103EC000FB71694A07F1080392E8030018600433A4
:103ED0001980664B1B78042B00F2BA8001A252F8BD
:103EE00023F000BFF93E0000093F0000453F0000FD
:103EF000673F0000AB3F0000FB793F2B40F0AC80F8
:103F00005A4B01221A70A7E0FB79362B0AD0502BAE
:103F10000FD0302B11D1564802F078F9534B0022C4
:103F20001A700EE0534802F071F9504B00221A70DB
:103F300007E04E4B02221A7003E04C4B00221A702D
:103F400000BF8CE0FB79432B09D14B4802F05EF9AE
:103F5000464B03221A70494B00221A707FE0434BF4
:103F600000221A707BE0454B1B7807F110021344C6
:103F700013F8083CFA799A4210D1404B1B78013370
:103F8000DAB23E4B1A703D4B1B78052B66D13C488C
:103F900002F03CF9354B04221A705FE0394802F018
:103FA00035F9324B00221A7058E0FB79702B11D092
:103FB000702B04DC212B31D0652B05D035E0792B1B
:103FC0001DD07A2B0CD030E0FFF788FE274B04225F
:103FD0001A7039E0FFF7FAFE244B04221A7033E01E
:103FE000294802F013F9FB7919462848FEF738F8FA
:103FF000274802F00BF91D4B04221A7024E02248D6
:1040000002F004F9FB7919462048FEF729F8204808
:1040100002F0FCF8154B04221A7015E01D4802F05E
:10402000F5F8124B00221A700EE0174802F0EEF875
:10403000FB7919461548FEF713F8154802F0E6F823
:10404000154802F0E3F800BF144802F0DFF806E07C
:10405000064B00221A7002E000BF00E000BF00BF64
:104060001037BD4680BD00BF44810000B000002075
:10407000D4800000D8800000E0800000B100002063
:104080000C810000148100001C81000000400140F0
:1040900020810000248100002C8100003C81000070
:1040A00080B483B000AF78607B680D4A93420BD038
:1040B0007B680C4A934207D07B680B4A934203D03B
:1040C0007B680A4A934202D14FF0FF3301E04FF67A
:1040D000FF7318460C37BD465DF8047B704700BF80
:1040E00000A0014000A4014000A8014000AC014034
:1040F00080B582B000AF786039607868FFF7D0FF94
:104100007B683A685A6200BF0837BD4680BD80B4FC
:1041100085B000AF786039607B6803F1C063FB60F5
:10412000FB683A681A6000BF1437BD465DF8047B2F
:10413000704780B485B000AF786039607B6803F168
:104140008063FB60FB683A681A6000BF1437BD46A5
:104150005DF8047B7047000080B483B000AF7860E6
:10416000044A7B68C2F8243400BF0C37BD465DF8B2
:10417000047B70470080084080B582B000AF0346E2
:104180003960FB71FB79002B16D0FB79012B13D022
:10419000FB79022B10D0FB79032B0DD0FB79042B7C
:1041A0000AD0FB79052B07D0FB79062B04D0FB79CD
:1041B000072B01D0FB79082BFA7913465B001344D7
:1041C0001B010C3303F1804303F5082301213A68F6
:1041D00001FA02F211461846FFF7ABFF00BF08379D
:1041E000BD4680BD80B582B000AF03463960FB712B
:1041F000FB79002B16D0FB79012B13D0FB79022B16
:1042000010D0FB79032B0DD0FB79042B0AD0FB795E
:10421000052B07D0FB79062B04D0FB79072B01D0A7
:10422000FB79082BFA7913465B0013441B010C330E
:1042300003F1804303F5082301213A6801FA02F2F1
:1042400011461846FFF763FF00BF0837BD4680BD23
:1042500080B483B000AF03463960FB71FB79002B5B
:1042600016D0FB79012B13D0FB79022B10D0FB79F0
:10427000032B0DD0FB79042B0AD0FB79052B07D03B
:10428000FB79062B04D0FB79072B01D0FB79082B97
:1042900001223B6802FA03F30749FA7918461346EC
:1042A0005B0013441B010B441833186000BF0C372C
:1042B000BD465DF8047B70470080084080B485B03F
:1042C00000AF78600B46FB70FB78002B02D0FB78C8
:1042D000202B01D900230DE0FB78013BFB73FB7B16
:1042E0007A6822FA03F303F00103002B01D00123C3
:1042F00000E0002318461437BD465DF8047B704784
:1043000080B487B000AF78607B6823F001037B61E5
:10431000124BFB6000233B6113E03B69C3F11F03B9
:104320007A6922FA03F303F00103002B06D0FA683E
:104330003B6922FA03F37A6953407B613B6901339D
:104340003B613B69142BE8DD7A6940F2FE73134050
:1043500018461C37BD465DF8047B7047000020ED11
:1043600080B485B000AF78600023FB600023BB60A1
:104370000DE07A68BB6822FA03F303F00103002B17
:1043800002D0FB680133FB60BB680133BB60BB68D4
:104390001F2BEEDDFB6803F00103002B0CBF012394
:1043A0000023DBB218461437BD465DF8047B704726
:1043B00080B584B000AF786039603B6800221A7025
:1043C0007868FFF79DFF0346002B07D17868FFF759
:1043D000C7FF0346002B01D07B6821E00023FB6070
:1043E0001AE00122FB6802FA03F37A685340BB60CB
:1043F000B868FFF785FF0346002B0AD1B868FFF7BE
:10440000AFFF0346002B04D03B6801221A70BB6843
:1044100006E0FB680133FB60FB681F2BE1DD7B6876
:1044200018461037BD4680BD80B48DB000AF7860AF
:104430007B68002B63D040F269737B610023FB62D1
:1044400055E07B68FA6A53F822303B613B692F4A9A
:10445000934248D03B69DB0AFB60FB689B02BB626E
:1044600014237B6211E07B6A0A3301229A40BB6A03
:104470001340002B06D07A697B6A02FA03F3BA6A0A
:104480005340BB627B6A013B7B627B6A002BEADAAA
:10449000FB68DA02BB6A590040F2FE730B4013431B
:1044A0003B623B6AFB610023FB760CE0FB695BB27D
:1044B00003F001035AB297F91B3053405BB2FB760D
:1044C000FB695B08FB61FB69002BEFD1FB7E002BD6
:1044D00003D03B6A43F001033B627B68FA6A396AA6
:1044E00043F8221000E000BFFB6A0133FB627B68E7
:1044F000B3F880321A46FB6A9342A2DB00E000BFA9
:104500003437BD465DF8047B704700BF97C1897A98
:1045100080B582B002AF164B00221A70154B0022F4
:1045200083F88222134B0022A3F88022124B002230
:104530001A70124B00221A60114B00221A70114B94
:1045400000221A700123019301230093012300220A
:1045500000210020FDF740FC0120FFF7FDFDFEF7E4
:10456000B7FD01F02BFD01F053FD00BFBD4680BD3E
:10457000B2000020D8030020C1000020B4000020B9
:10458000990000209A00002080B400AF044BDB6942
:10459000034A5B08536200BFBD465DF8047B704769
:1045A0000084014080B500AF084B00221A70022140
:1045B0000020FFF717FEFEF7CDFFFEF7E3FFFFF742
:1045C000A7FF034B00221A7000BF80BDC10000206E
:1045D000B200002080B582B000AF0346FB71FB79CA
:1045E000012B07D101210020FFF7FCFD074801F056
:1045F000F3FE06E001210020FFF7BEFD044801F0B4
:10460000EBFE00BF0837BD4680BD00BF4C810000F7
:104610005081000080B500AF574B1B78032B00F290
:10462000A88001A252F823F0654700003946000037
:1046300077460000C1460000504B1B889BB20133F7
:104640009AB24E4B1A8001210020FFF701FE4B4B1E
:104650001B889BB2B3F5107F40F08680474B002249
:104660001A80474B00221A80434B02221A70454899
:1046700001F0B2FE78E0414B1B889BB201339AB245
:104680003E4B1A803D4B1B889BB2DBB2C3F121032A
:10469000DBB219463C48FFF711FE03461846FFF708
:1046A00099FF364B1B889BB2202B5FD1334B0022E6
:1046B0001A80314B03221A70324801F08DFE55E00A
:1046C0002E4B1B889BB201339AB22C4B1A802C4B79
:1046D0001B889BB21A462D4B53F82220274B1B8870
:1046E0009BB2DBB2C3F12103DBB219461046FFF7E0
:1046F000E5FD03461846FFF76DFF204B1B889BB274
:10470000202B35D11D4B00221A801D4B1B889BB2DC
:1047100001339AB21A4B1A801A4801F05DFE1B4B06
:10472000B3F88022164B1B889BB29A4208D8FFF739
:1047300039FF174801F050FE164801F04DFE17E012
:104740000F4B1B889BB203F00F039BB2002B0FD1C2
:104750000A4B00221A80084B02221A70094801F005
:104760003BFE05E000BF04E000BF02E000BF00E048
:1047700000BF00BF80BD00BFC1000020C2000020FC
:10478000C400002054810000D815D27C44010020D0
:10479000588100007C81000080B582B000AFFEF738
:1047A00023FC0346002B14BF01230023DBB2FB7163
:1047B0007E4B1B685A00FB7913437C4A13607C4B89
:1047C0001B78DBB2042B00F2EE8001A252F823F03A
:1047D000E54700002948000063480000B548000094
:1047E00091490000FEF7A6FE704B1B68B3F1AA3F8B
:1047F00005D06E4B1B68B3F1553F40F0CD806C4B3C
:1048000001221A7001F04CFC6A4B00221A80002130
:104810006948FFF76DFC694B00221A80684B012242
:104820001A70FEF777FEB7E0624B1B889BB201332C
:104830009AB2604B1A805D4B1B68B3F1AA3F00F03F
:10484000AD805A4B1B68B3F1553F00F0A780584B21
:1048500002221A705B4B01221A70564B00221A80FA
:104860009CE0524B1B68584A93420FD1504B032295
:104870001A70504B00221A80544B01221A70544B6C
:104880000022A3F88022FEF72DFC89E0494B1B880B
:104890009BB201339AB2474B1A80464B1B889BB29E
:1048A0001F2B7DD901F0FCFBFEF712FC404B0022D0
:1048B0001A7075E03F4B1B889BB201339AB23D4B97
:1048C0001A80424B1B78002B09D13A4B1B889BB2B4
:1048D000012B04D1FEF7FCFB3E4B00225A623B4BFE
:1048E0001B78002B06D1334B1B889BB2022B01D1C6
:1048F000FEF7F8FB2F4B1B889BB21F2B52D92D4B79
:1049000000221A80314B1B78002B10D1274B1B68DB
:104910002D4A93421ED02E4B012283F88222244B33
:1049200000221A7001F0BCFBFEF7D2FB3BE0284BE3
:10493000B3F880329F2B0DD8254BB3F880325A1C28
:1049400091B2234AA2F880121946184B1B68204ADC
:1049500042F821301D4B1B780133DAB21B4B1A7021
:104960001A4B1B78102B02D9184B00221A70184BC7
:10497000B3F880329F2B15D9154B012283F8822280
:104980000B4B00221A7001F08BFBFEF7A1FB09E034
:10499000FFF740FE00BF06E000BF04E000BF02E0FA
:1049A00000BF00E000BF0837BD4680BDB400002056
:1049B000B2000020B800002000A00140A4000020A8
:1049C000990000209A000020D815D27CD000002049
:1049D000D80300200084014080B500AF194801F0E1
:1049E000FBFC194B1B78DBB2042B21D801A252F837
:1049F00023F000BF094A0000114A0000194A0000D4
:104A0000214A0000294A0000104801F0E5FC13E0AB
:104A10000F4801F0E1FC0FE00E4801F0DDFC0BE077
:104A20000D4801F0D9FC07E00C4801F0D5FC03E08B
:104A30000B4801F0D1FC00BF0A4801F0CDFC00BFDB
:104A400080BD00BF84810000B20000209081000082
:104A5000A0810000B0810000C0810000D081000072
:104A6000E4810000EC81000080B588B000AF786080
:104A700039607B68DB0AC3F313033B610023FB61EE
:104A800060E0344B1B685B00324A1360FB69C3F182
:104A900013033A6922FA03F303F00103002B05D054
:104AA0002C4B1B6843F001032A4A13602A4B1B78E6
:104AB0000133DAB2284B1A70274B1B78072B3ED1F3
:104AC0000023FB7600237B6118E001227B6902FA58
:104AD00003F31A461F4B1B681340002B0BD07B6956
:104AE000C3F10603012202FA03F35AB297F91B300D
:104AF00013435BB2FB767B6901337B617B69062BD9
:104B0000E3DDFB7E1F2B14D9FB7E7E2B11D838688A
:104B100002F00CFAF860FB68772B0AD83A68FB6859
:104B20001344FA7E1A70FB6801333A68134400227A
:104B30001A70084B00221A60074B00221A70FB699A
:104B40000133FB61FB69132B9BDD00BF2037BD46A2
:104B500080BD00BFBC000020C000002080B483B036
:104B600000AF78607B68002B78D07B689B681B0C5B
:104B7000DBB203F01F03DAB27B6883F887227B681D
:104B80005B685B0EDBB203F03F03DAB27B6883F84D
:104B900085227B681B681B0EDBB203F00F03DAB2C1
:104BA0007B6883F886227B681B681B0CDBB203F0F2
:104BB0001F03DAB27B6883F888227B689B689B0EB0
:104BC000DBB203F01F03DAB27B6883F889227B68CB
:104BD0001B681B0BDBB203F00F03DAB27B6883F8B0
:104BE0008A227B685B681B0CDBB203F01F03DAB21E
:104BF0007B6883F88B227B681B685B0DDBB203F05C
:104C00000703DAB27B6883F88C227B681B681B0F72
:104C1000DBB203F00303DAB27B6883F88D227B6892
:104C20009B685B0DDBB203F01F03DAB27B6883F88D
:104C30008E227B685B68DB0ADBB203F01F03DAB20B
:104C40007B6883F88F227B685B685B0DDBB203F0C7
:104C50000F03DAB27B6883F8902200E000BF0C37C4
:104C6000BD465DF8047B704780B487B000AF7860C4
:104C70007B68002B00F0AD807B681B687B617B69E3
:104C800023F040537B617B6923F070637B617B6918
:104C900023F460037B617B6923F4F8137B617B69F8
:104CA00023F470437B617B6893F88D321B0703F01C
:104CB00040537A6913437B617B6893F886321B0605
:104CC00003F070637A6913437B617B6893F88C32DD
:104CD0005B0503F460037A6913437B617B6893F897
:104CE00088321B0403F4F8137A6913437B617B68F1
:104CF00093F88A321B039BB27A6913437B617B680A
:104D00007A691A607B685B683B613B6923F0FC430E
:104D10003B613B6923F0F0733B613B6923F4F8137B
:104D20003B613B6923F478433B617B6893F88532B0
:104D30005B0603F0FC433A6913433B617B6893F8DD
:104D400090325B0503F0F0733A6913433B617B6873
:104D500093F88B321B0403F4F8133A6913433B6155
:104D60007B6893F88F32DB029BB23A6913433B6155
:104D70007B683A695A607B689B68FB60FB6823F03C
:104D8000F843FB60FB6823F07873FB60FB6823F457
:104D9000F813FB607B6893F889329B0603F0F843B5
:104DA000FA681343FB607B6893F88E325B0503F06F
:104DB0007873FA681343FB607B6893F887321B04AF
:104DC00003F4F813FA681343FB607B68FA689A608F
:104DD00000E000BF1C37BD465DF8047B7047000053
:104DE00080B5AEB002AF78607B68002B00F08980A0
:104DF0007B6893F88932013B002B00DA03339B1068
:104E0000DBB2033387F8AE307B6893F88932013B1D
:104E10005A4203F0030302F0030258BF5342C3F1A6
:104E20000303DBB21A4692001344DBB20B3387F85C
:104E3000AD307B6893F8913287F8AF30FEF7DDF83C
:104E40000346012B04D197F8AF30103387F8AF3009
:104E5000FEF7DDF80346012B04D197F8AF30083395
:104E600087F8AF3097F8AE207B6853F8221097F898
:104E7000AD301F2202FA03F3DB4397F8AE2019404E
:104E80007B6843F8221097F8AE207B6853F8221015
:104E900097F8AF3003F01F0297F8AD3002FA03F332
:104EA00097F8AE2019437B6843F822107B68DB6AD1
:104EB000DB0D87F8AC3097F8AC30013387F8AC30B5
:104EC0007B68DB6A23F0FF427B68DA627B68DA6A20
:104ED00097F8AC30DB051A437B68DA6297F8AF20AD
:104EE00097F8AE1097F8AD3007F10C0000930B4621
:104EF000064901F0FBFF07F10C03184601F06CFABC
:104F000000E000BFB037BD4680BD00BFF0810000AB
:104F100090B5ABB002AFFEF715FB01F08FF8FEF7CE
:104F2000E1F87B4B04221A707A4B93F88F32002BF6
:104F300053D1FEF7EBF80346012B0FD1754B93F8D5
:104F40008922744B83F88F22724B0C2283F89022B3
:104F50000220FEF7E7F8704801F03EFAFEF7D6F8B7
:104F60000346032B0FD16B4B93F88922694B83F8CF
:104F70008F22684B042283F890220020FEF7D2F89B
:104F8000664801F029FAFEF72FF90346012B0FD1ED
:104F9000604B93F889225F4B83F88F225D4B0B2285
:104FA00083F890220220FEF72BF95D4801F014FAF5
:104FB000FEF71AF90346032B0FD1564B93F88922BB
:104FC000544B83F88F22534B032283F89022002006
:104FD000FEF716F9534801F0FFF94E48FFF744FE7B
:104FE0004C4B93F88C32012B02D14A48FFF7F8FE64
:104FF0004848FFF719FA4C4801F0EEF94B4801F028
:10500000EBF9444B93F88C32012B04D0022B0AD0DD
:10501000002B04D00BE0464801F0DEF907E04548DC
:1050200001F0DAF903E0444801F0D6F900BF394B4A
:1050300093F886321946374B93F889321C46354B24
:1050400093F888321A46334B93F88A3238460193E4
:10505000009223460A46394901F048FF3B4618466C
:1050600001F0BAF92B4B93F887321A46294B93F883
:1050700085321946274B93F88B32384600930B46FE
:105080002F4901F033FF3B46184601F0A5F92D4B9F
:105090001B781A462B4B5B7819462A4B9B7838466F
:1050A00000930B46284901F021FF3B46184601F0CA
:1050B00093F9264801F090F9254B93F88D32012B96
:1050C0000BD0022B05D0002B0BD1224801F084F924
:1050D00007E0214801F080F903E0204801F07CF965
:1050E00000BF1F4B01221A701E4B00221A800121A3
:1050F0000020FFF741F802210020FFF73DF800F003
:10510000CFFF00F085FF00BFA437BD4690BD00BFB4
:10511000B200002044010020188200003C82000000
:105120005C82000080820000A0820000C882000033
:10513000D0820000D8820000E0820000EC820000F3
:10514000108300003C010020308300005C830000DD
:10515000D8030020708300007C8300008883000057
:10516000C1000020C200002090B5D9B002AFB64BFC
:1051700093F88232DBB283F00103DBB2002B40F004
:10518000568307F10803184680231A46002101F0D0
:10519000A4FEAE4B00221A60AD4B00221A70AD483F
:1051A00001F01AF9A84B012283F883220023A7F803
:1051B000563181E0B7F85631A34A52F82330C7F888
:1051C0003031D7F83031A44A93420ED1B7F8563176
:1051D0005A1C07F18803A149184601F087FE07F120
:1051E0008803184601F0F8F861E0FB1D00221A70F0
:1051F000FB1D1946D7F83001FFF7DAF8C7F82C0184
:10520000D7F82C01FFF77CF80346002B08D1D7F81C
:105210002C01FFF7A5F80346002B01D0012300E085
:10522000002387F82B3197F82B3103F0010387F81F
:105230002B3197F82B31002B07D0B7F85631824924
:10524000D7F82C2141F8232003E07F4B002283F87C
:105250008322B7F85631591CB7F856317A4A52F8BA
:10526000234097F82B31002B01D07D4B00E07D4B84
:10527000FA1D1278002A01D07B4A00E07B4A07F130
:1052800088000192009323460A46794901F02EFED8
:1052900007F18803184601F09FF8B7F85631022B42
:1052A00005D1694B93F88322674B83F88422B7F8C2
:1052B00056310133A7F85631634BB3F88032B7F853
:1052C00056219A42FFF476AF5F48FFF747FC5E4BEA
:1052D00093F88332002B0ED05B4B93F885321B0181
:1052E000594AB2F8802293420CBF01230023DAB25C
:1052F000554B83F88322544B93F88332002B05D00F
:105300005C4801F069F8FEF735F910E05A4801F001
:1053100063F84D4B93F88432002B05D0574801F0C9
:105320005BF8FEF727F902E0554801F055F8464BC7
:1053300093F88C32012B04D0022B0AD0002B04D01E
:105340000BE0504801F048F807E04F4801F044F8FE
:1053500003E04E4801F040F800BF3B4B93F8863223
:105360001946394B93F889321C46374B93F88832EB
:105370001A46354B93F88A3207F188000193009260
:1053800023460A46424901F0B1FD07F18803184659
:1053900001F022F82C4B93F887321A462A4B93F8E7
:1053A00085321946284B93F88B3207F18800009319
:1053B0000B46384901F09AFD07F18803184601F0C1
:1053C0000BF8354B1B684FF000041A4623461CA10E
:1053D000D1E9000101F0BEFB03460C46C7F84C3191
:1053E000D7F84C312D4AA2FB03239C09D7F84C2156
:1053F0002A4BA3FB02139B094FF47A7101FB03F3C1
:10540000D31A07F188002246254901F06FFD07F104
:105410008803184600F0E0FF224800F0DDFF0A4B49
:1054200093F88D32012B43D0022B05D0002B43D1B2
:105430001D4800F0D1FF3FE01C4800F0CDFF3BE0ED
:1054400000D088C310000000D8030020BC0000205A
:10545000C00000209483000097C1897AAC830000CB
:10546000BC830000C0830000C4830000CC83000024
:10547000D0830000E4830000F0830000FC83000080
:1054800008840000D0820000D8820000E082000082
:10549000EC82000014840000A8000020D34D6210AC
:1054A00034840000448400005084000058840000CC
:1054B000C44800F091FF00BFC34B93F88E321A46E8
:1054C000C14B93F88F321946BF4B93F8903207F1D6
:1054D000880000930B46BD4901F008FD07F18803E1
:1054E000184600F079FFBA4800F076FF00F044FC5F
:1054F000B54B93F88332002B00F0CD80B24B93F87C
:105500008C32002B40F0C78007F1080300221A708C
:10551000B04B00221A60B04B00221A70002387F8AB
:1055200055310323A7F8523197E0B7F85231A64A14
:1055300052F82330C7F84831D7F84831A74A934288
:1055400000F08380BB1D00221A70BB1D1946D7F8DE
:105550004801FEF72DFFC7F84401D7F84401FEF7D4
:10556000CFFE0346002B72D1D7F84401FEF7F8FEB8
:10557000034683F00103DBB2002B68D1D7F8443136
:10558000002B56DB97F85531002B11D0944800F0D2
:1055900023FF07F108031B78002B02D007F1080353
:1055A00000E0904B184600F017FF8F4800F014FF02
:1055B000B7F85231DBB203F00F0387F8433197F8A5
:1055C00043315B0887F84231D7F844315B0BC3F3B2
:1055D0001103C7F83C31D7F83C31DA0097F8423173
:1055E00003F007031343C7F83831D7F84431DB0A17
:1055F000DBB203F0030387F8373197F8373107F14F
:105600008800D7F83821794901F070FC07F1880348
:10561000184600F0E1FE07F1080300221A706D4BF6
:1056200000221A606C4B00221A70012387F8553152
:105630000EE097F85531002B0AD007F10803194600
:10564000D7F84401FFF710FA02E000BF00E000BF06
:10565000B7F852310133A7F852315B4BB3F88032BF
:10566000B7F852219A42FFF460AF97F85531002BFA
:1056700011D05B4800F0B0FE07F108031B78002B47
:1056800002D007F1080300E0564B184600F0A4FED4
:10569000554800F0A1FE564800F09EFE4A4B0022FD
:1056A00083F88222484B93F88C32022B00F0B480AE
:1056B000454B93F88332002B00F0B680424B93F8B1
:1056C0008822414B93F88632013B4A490B44DB79EF
:1056D0009A4252D13C4B93F886023B4B93F88A1284
:1056E000394B93F889321A46FEF72EFA0346002BFF
:1056F0003FD1FDF757FF404A334B104619464FF450
:1057000025731A4601F0DEFB3B4B93F88D32012BDB
:1057100005D13A4B9A78384B83F8882204E0374B0E
:105720001A78354B83F88822274B93F88632013B51
:10573000304A1344DA79304B83F889222E4B93F8A0
:105740008D32022B0ED12E4B01221A70294B9B78E1
:1057500001331A462B4B1A60264B5B7801331A46ED
:10576000294B1A60244B012283F89122FFF7D0FBCA
:105770005AE0264800F030FE56E0254800F02CFEA6
:105780001F4B1B78012B03D01D4B1B78022B4BD1D9
:105790000D4B93F88622184B93F886329A4243D1E8
:1057A000094B93F88922144B93F888329A423BD1E3
:1057B000134B00221A70FDF7FDFE164800F00CFE98
:1057C00032E000BF60840000D80300206C84000039
:1057D00098840000BC000020C000002097C1897A96
:1057E000A0840000A8840000EC810000B4840000C4
:1057F000CC840000E8000020440100203C0100208F
:10580000C6000020C8000020CC000020DC8400007E
:105810000C85000018850000074B93F88432002B9C
:1058200002D0064800F0D8FDFDF7ACFE00E000BF56
:1058300007F5AE77BD4690BDD80300202C8500004B
:1058400080B500AF4A4B1B78DBB2002B40F08D8057
:10585000484B1B78012B03D0022B41D0002B84E056
:10586000454B1B68013B444A1360434B1B68002BAC
:1058700078D1424B1B68013B404A13603F4B1B6889
:10588000002B1DD13B4B02221A703D4B5A783D4BE9
:1058900083F888223C4BDB7801331A46374B1A6079
:1058A000394B5B7801331A46334B1A60374800F0A6
:1058B00093FD344B032283F89122FFF729FB51E03B
:1058C000314B5B7801331A462B4B1A60304800F09D
:1058D00083FD2C4B022283F89122FFF719FB41E054
:1058E000254B1B68013B244A1360234B1B68002B8C
:1058F0003AD1224B1B68013B204A13601F4B1B68A7
:10590000002B1FD11B4B00221A701D4B9A781D4B88
:1059100083F888221B4B012283F88D22174B00222B
:105920001A60154B00221A601A4800F055FD154BFD
:1059300093F891320433DAB2124B83F89122FFF7D5
:10594000E7FA11E0104B5B7801331A460A4B1A60F4
:10595000114800F041FD0B4B032283F89122FFF721
:10596000D7FA01E000BF00E000BF00BF80BD00BF6C
:10597000B2000020C6000020CC000020C80000209B
:105980003C01002044010020E80000205085000078
:10599000608500006C8500007C85000080B400AF4D
:1059A000034B5B691846BD465DF8047B704700BF3A
:1059B0000020064080B483B000AF7860044A7B6862
:1059C000536100BF0C37BD465DF8047B704700BFD4
:1059D0000020064080B400AF034B044A9A6300BF26
:1059E000BD465DF8047B7047002006401751FFFF5D
:1059F00080B400AF034B1B691846BD465DF8047BBD
:105A0000704700BF0020064080B483B000AF7860CC
:105A1000044A7B68136100BF0C37BD465DF8047B08
:105A2000704700BF0020064080B400AF044B4AF628
:105A3000E8629A6300BFBD465DF8047B704700BF13
:105A40000020064080B584B000AF01211348FAF76A
:105A500063FE03211248FBF787FA01211148FAF788
:105A60005BFEFFF7E1FF104A3B1D07CA03C31A8024
:105A700001233B7100237B710023BB710023FB7169
:105A800000237B720F233B7201233B733B1D18469F
:105A9000FDF7BAF800BF1037BD4680BD30053E00A7
:105AA00005002400A00914008C850000F0B593B017
:105AB00004AF78607B68002B00F0C6807B685B7960
:105AC0001D467B681B791E467B68DB781A467B681F
:105AD0001B7819467B685B781C467B689B7807F1CE
