:100000000000082079260000A5260000A526000093
:10001000A5260000A5260000A5260000A5260000B4
:10002000A5260000A5260000A5260000A5260000A4
:10003000A5260000A4260000A5260000A526000095
:10004000A5260000A5260000A5260000A526000084
:10005000A5260000DD200000B1230000A526000039
:10006000A5260000A5260000A5260000A526000064
:10007000A5260000A5260000F5200000A52600000A
:10008000A5260000A5260000A5260000A526000044
:10009000A526000021240000A526000091240000D0
:1000A000A5260000A5260000A5260000A526000024
:1000B000A5260000A5260000A5260000A526000014
:1000C000A5260000A5260000A5260000A526000004
:1000D000A5260000A5260000A5260000A5260000F4
:1000E000A5260000A5260000A5260000A5260000E4
:1000F000A5260000A5260000A5260000A5260000D4
:10010000A5260000A5260000A5260000A5260000C3
:10011000A5260000A5260000A5260000A5260000B3
:10012000A5260000A5260000A5260000A5260000A3
:10013000A5260000A5260000A5260000A526000093
:10014000A5260000A5260000A5260000A526000083
:1001500010B5054C237833B9044B13B10448AFF301
:1001600000800123237010BD7800002000000000F3
:10017000402C000008B5034B1BB103490348AFF303
:10018000008008BD000000007C000020402C000022
:10019000154B002B08BF134B9D46A3F5803A002159
:1001A0008B460F461348144A121A02F069FC0F4B93
:1001B000002B00D098470E4B002B00D09847002012
:1001C000002104000D000D48002802D00C48AFF3B8
:1001D000008002F031FC2000290002F0AFF902F0AB
:1001E00017FC00BF0000080000000820000000000D
:1001F0000000000078000020A003002000000000A4
:100200000000000080B487B000AFF860B9607A6089
:10021000FB6803F10473DA00BB6813449B007B6145
:100220007B697A681A6000BF1C37BD465DF8047BA5
:10023000704780B485B000AF786039607B6803F1A7
:100240000473DA003B6813449B00FB60FB681B6887
:1002500018461437BD465DF8047B704780B485B0FE
:1002600000AF786039607B6803F1C063FB60FB68B6
:100270003A681A6000BF1437BD465DF8047B7047CA
:1002800080B485B000AF786039607B6803F180632B
:10029000FB60FB683A681A6000BF1437BD465DF822
:1002A000047B704780B483B000AF786001227B6824
:1002B00002FA03F318460C37BD465DF8047B70471D
:1002C00080B485B000AF78607B68002B03D07B687A
:1002D000B3F5004F00BF7B68B3FA83F3DBB2C3F121
:1002E0001F03FB60FB6818461437BD465DF8047BAE
:1002F000704780B584B000AF78607B680133B3FA93
:1003000083F3DBB2C3F11F03FB60F868FFF7CAFF9A
:10031000FB6818461037BD4680BD000080B400AFB2
:10032000064B1B6803F04003002B01D1012300E0C2
:1003300000231846BD465DF8047B70473C300E40F4
:1003400080B500AFFFF7EAFF034683F00103DBB29D
:10035000002B08D100BF12210448FFF76AFF0346B3
:10036000002BF8D100E000BF80BD00BF04300E407C
:1003700080B500AFFFF7E4FF034B5B681B0C03F095
:100380000303DBB2184680BD00300E4080B584B058
:1003900000AF78600123FB607B68124A934204D867
:1003A0000023FB600023BB6008E07B680E4A934299
:1003B00002D80123BB6001E00223BB60FA68102170
:1003C0000A48FFF71FFF094BD3F8003123F04072B2
:1003D000BB681B0605491343C1F8003100BF103745
:1003E000BD4680BD0048E8010090D00300400E40AB
:1003F00080B485B000AF786039604FF080435B68AF
:1004000003F04073FB600023BB6012E01B4ABB6833
:10041000DB0013441A793B68DBB29A4206D1174AD3
:10042000BB6852F833307A689A4206D9BB68013308
:10043000BB60BB68062BE9D900E000BFBB68072B97
:1004400002D10323FB6005E00C4ABB68DB001344C8
:100450005B79FB60FB681B06FB604FF080435B68C9
:1004600023F040724FF08041FB6813434B6000BFA4
:100470001437BD465DF8047B704700BFAC2A00000E
:1004800080B582B000AF4FF080431B6C002B14BFCF
:1004900001230023FB714FF0804341F671321A644F
:1004A00002F022F9034600211846FFF7A1FFFB796D
:1004B000002B03D04FF0804300221A6400BF08379E
:1004C000BD4680BD80B584B000AF786039600C4B0C
:1004D000FB603B68022B01D10A4BFB607A68FB682A
:1004E0009A4204D908490948FFF7B8FE03E00649D3
:1004F0000648FFF7C5FE00BF1037BD4680BD00BFF0
:1005000080D543020024F4000202020000010040F2
:1005100080B582B000AF786039607B680B4A934247
:1005200009D93B68002B06D14FF480514FF0804031
:10053000FFF794FE05E04FF480514FF08040FFF745
:100540009FFE00BF0837BD4680BD00BF80F0FA02A5
:1005500080B584B000AF786039604FF080431B6C89
:10056000002B14BF01230023FB734FF0804341F69F
:1005700071321A6439687868FFF73AFF3968786829
:10058000FFF7A0FF39687868FFF7C2FFFB7B002BFD
:1005900003D04FF0804300221A6400BF1037BD46DD
:1005A00080BD000080B400AF044B5B6A1B0903F000
:1005B00003031846BD465DF8047B704700400E40BB
:1005C00080B483B000AF7860074B5B6A23F03002E1
:1005D0007B681B01044913434B6200BF0C37BD46C7
:1005E0005DF8047B704700BF00400E4080B483B0CC
:1005F00000AF78600A4BD3F8443103F00103002BBD
:1006000008D100BF064BD3F840217B681340002B74
:10061000F8D100E000BF0C37BD465DF8047B7047A1
:1006200000400E4080B500AF0321064800F01CF9E1
:100630000321054800F018F90321044800F014F9DB
:1006400000BF80BD404105005041070060410900E6
:1006500080B582B000AF02F051F83860FFF788FE35
:100660000346022B1AD13A68224B1344224AA2FBBA
:100670000323DB0D7B607B68002B02D07B68013B92
:100680007B6079681D4800F0EFF879681C4800F03D
:10069000EBF879681B4800F0E7F827E03A681A4B56
:1006A00013441A4AA2FB03231B0E7B607B68002BBA
:1006B00002D07B68013B7B607968104800F0D4F879
:1006C0007968104800F0D0F83A68114B1344114A89
:1006D000A2FB03239B0E7B607B68002B02D07B6810
:1006E000013B7B607968064800F0BEF800BF083720
:1006F000BD4680BDFF2C31016BCA5F6B40410500D8
:1007000050410700604109007FF0FA02893BE6553D
:10071000FFA14A04B5FA9BEE80B586B000AF7860C1
:100720000B46FB7000233B617B681B0A03F00F0341
:10073000013B0E2B7CD801A252F823F07907000070
:100740008507000031080000310800007F07000025
:10075000910700009B070000A5070000B1070000FB
:1007600007080000BD070000DF0700003108000097
:100770008B070000010800002F4B7B6146E02F4BE8
:100780007B6143E02E4B7B6140E02E4B7B613DE083
:100790002D4B7B6101233B6138E02C4B7B611023A7
:1007A0003B6133E02A4B7B614FF480733B612DE06A
:1007B000284B7B614FF480333B6127E0264B7B6104
:1007C000FB78002B14BF01230023DBB283F001036D
:1007D000DBB2FB70FB7803F00103FB7016E01F4BEC
:1007E0007B61FB78002B14BF01230023DBB283F075
:1007F0000103DBB2FB70FB7803F00103FB7005E043
:10080000174B7B6102E0174B7B6100BF7B681B0BC2
:1008100003F01F03FB603B69002B02D03869FFF730
:10082000E5FEFB781A46F9687869FFF7EBFC00E013
:1008300000BF1837BD4680BD00400E40B0400E409E
:10084000C0400E40C4400E40E0400E40E8400E4024
:10085000EC400E40F0400E4060410E4064410E40BE
:10086000F0410E4050410E4080B584B000AF78603A
:1008700039607B681B0903F00F03FB60FB68013BD9
:100880000B2B00F2D58101A252F823F0BD08000025
:10089000070900001F0900003F0900005B09000074
:1008A0007709000093090000C7090000D90A000079
:1008B000710B00009B0B0000150C0000FFF7E0FD22
:1008C000BA48FFF763FDFFF7ADFEB94BD3F800312F
:1008D00023F4F8523B681B02B5491343C1F80031B9
:1008E00001F0E2FEB860FFF743FD03461946B86821
:1008F000FFF72EFE01F002FF03461846FFF746FD04
:10090000FFF7A6FE95E1AA4BD3F8143123F4F85271
:100910003B681B02A6491343C1F8143189E13868CA
:10092000FFF7CEFC3860A24BD3F8003123F04072C1
:100930003B681B069E491343C1F8003179E19C4B8B
:10094000D3F80C3123F4FF3323F480733A68120296
:1009500097491343C1F80C316BE1954BD3F818312B
:1009600023F4FF3323F480733A681202904913434F
:10097000C1F818315DE18E4BD3F81C3123F4FF33FD
:1009800023F480733A68120289491343C1F81C3179
:100990004FE1FFF775FD864BD3F8083123F4FF33A1
:1009A00023F480733A68120281491343C1F8083175
:1009B00001F07AFEB860FFF7DBFC03461946B86821
:1009C000FFF7C6FD35E17B687A4A93424AD0794AFF
:1009D000934209D8784A934223D0784A93422FD041
:1009E000774A93420AD076E0764A934260D0764ABC
:1009F00093424AD0754A93425AD06CE03868FFF768
:100A000078FC38600420FFF7F1FD694BD3F8203102
:100A100023F470223B681B0465491343C1F820315D
:100A200059E04FF48020FFF7E1FD614BD3F83031FE
:100A300023F003025E493B681343C1F830314AE0BA
:100A40003868FFF756FC38600420FFF7CFFD584B9D
:100A5000D3F8203123F00F0255493B681343C1F806
:100A6000203138E03868FFF744FC38600420FFF795
:100A7000BDFD4F4BD3F8203123F0F0023B681B0142
:100A80004B491343C1F8203125E03868FFF731FCAA
:100A900038600420FFF7AAFD454BD3F8203123F43A
:100AA00040723B681B0242491343C1F8203112E0F7
:100AB0003868FFF71EFC38600420FFF797FD3C4BB9
:100AC000D3F8203123F4E0423B681B033849134339
:100AD000C1F8203100BFACE07B683D4A934218D09A
:100AE0003C4A934228D03C4A934200D03FE03868C9
:100AF000FFF7FFFB38604020FFF778FD2C4BD3F861
:100B0000283123F003022A493B681343C1F82831F6
:100B10002DE03868FFF7EDFB38604020FFF766FDF9
:100B2000234BD3F8283123F030023B681B012049C6
:100B30001343C1F828311AE03B687F2B02D83B6889
:100B40000E2B00BF3868FFF7D4FB0346043B3B6025
:100B50004020FFF74BFD164BD3F8283123F44052C9
:100B60003B681B0312491343C1F8283100BF60E002
:100B70007B68114A934200D00EE04FF48020FFF7CB
:100B800035FD0B4BD3F8303123F0030208493B68A5
:100B90001343C1F8303100BF4BE07B680F4A9342EA
:100BA00020D00F4A934228D033E000BF0148E8012B
:100BB00000400E4080161800A009140080061600A0
:100BC0008046120000362C0080262E0080002A006D
:100BD00090171C009037300090071A00B8003200C0
:100BE000B9003400154BD3F85C3123F003021349EC
:100BF0003B681343C1F85C310BE0104BD3F85C3118
:100C000023F440323B681B040C491343C1F85C31A8
:100C100000BF0EE0094BD3F8043123F4FF3323F473
:100C200080733A68120205491343C1F8043100E0A9
:100C300000BF00BF1037BD4680BD00BF00400E4062
:100C400080B485B000AF78600123FB737B6803F04C
:100C50000F03BB60BB68013B0B2B00F2748101A248
:100C600052F823F0950C0000F10C0000210D00005B
:100C7000990D0000690D0000C90D0000470F00002C
:100C8000ED0D00002F0E0000730E0000B30E0000EB
:100C9000F30E0000B34BD3F8943003F00703023B8C
:100CA000052B21D801A252F823F000BFD10C00007F
:100CB000CB0C0000C50C0000D70C0000E30C0000BA
:100CC000DD0C00000223FB7311E00323FB730EE035
:100CD0000423FB730BE00D23FB7308E00E23FB736F
:100CE00005E00A23FB7302E00523FB7300BF32E13A
:100CF0009C4BD3F8803003F00703022B06D0042B63
:100D000007D0012B08D10323FB7308E00223FB73F8
:100D100005E00C23FB7302E00123FB7300BF1AE123
:100D2000904BD3F8843003F00703013B032B17D813
:100D300001A252F823F000BF490D00004F0D000042
:100D40005B0D0000550D00000323FB730BE0022335
:100D5000FB7308E00C23FB7305E00623FB7302E042
:100D60000123FB7300BFF6E07E4BD3F8883003F01D
:100D70000703022B06D0042B07D0012B08D1032335
:100D8000FB7308E00223FB7305E00C23FB7302E016
:100D90000123FB7300BFDEE0724BD3F88C3003F00D
:100DA0000703022B06D0042B07D0012B08D1032305
:100DB000FB7308E00223FB7305E00C23FB7302E0E6
:100DC0000123FB7300BFC6E0664B1B6F03F00303F8
:100DD000002B04D0012B05D10923FB7305E0072369
:100DE000FB7302E00123FB7300BFB4E05D4BD3F85B
:100DF0005C3103F03003102B0CD0102B02D8002BE9
:100E000005D010E0202B08D0302B09D00BE00123B7
:100E1000FB730BE00723FB7308E00423FB7305E07F
:100E20000823FB7302E00123FB7300BF93E04D4BEB
:100E3000D3F85C3103F44013B3F5801F0FD0B3F542
:100E4000801F02D8002B07D085E0B3F5001F09D022
:100E5000B3F5401F09D07EE00123FB7308E00723B0
:100E6000FB7305E00423FB7302E00823FB7300BF60
:100E700071E03C4BD3F8603103F00303032B65D8DA
:100E800001A252F823F000BF990E00009F0E00004F
:100E9000A50E0000AB0E00000523FB7308E0042341
:100EA000FB7305E00723FB7302E00A23FB7300BF1B
:100EB0004CE02C4BD3F8643103F00303032B47D8E9
:100EC00001A252F823F000BFD90E0000DF0E00008F
:100ED000E50E0000EB0E00000523FB7308E0042381
:100EE000FB7305E00723FB7302E00A23FB7300BFDB
:100EF0002EE01C4BD3F8F03103F00703052B29D863
:100F000001A252F823F000BF210F0000270F0000BC
:100F10002D0F0000330F0000390F00003F0F0000BD
:100F20000A23FB730EE00423FB730BE00B23FB731C
:100F300008E00523FB7305E00223FB7302E00323B3
:100F4000FB7300BF06E00023FB7304E000BF02E078
:100F500000BF00E000BFFB7B18461437BD465DF8BC
:100F6000047B704700400E4080B58AB000AF7860C7
:100F70000B46FB7003237B62032387F82330002397
:100F8000BB6100237B617B68112B19D1FB78042B9B
:100F900003D101F02DFC78610BE0FB78052B08D123
:100FA00000F0A0FA0246C44B9A4202D900F09AFA25
:100FB00078617B69002B03D00021786901F09AFCED
:100FC0007B6803F00F033B613B69013B0B2B00F295
:100FD000748201A252F823F0091000000F110000E2
:100FE0002F1100001311000021110000CD1100008D
:100FF000BB140000EB11000061120000F7120000AA
:101000007B130000FF130000FB78023B0C2B00F267
:10101000568201A252F823F04D1000005910000032
:101020006510000077100000BF140000BF1400001E
:10103000BF140000BF140000A1100000BF14000086
:10104000BF140000891000009510000004237B628B
:10105000002387F8233029E003237B62012387F8EC
:10106000233023E002237B62022387F82330934856
:10107000FFF78CF91AE001237B62032387F8233002
:101080008E48FFF783F911E005237B62032387F87D
:1010900023300BE007237B62072387F8233005E02A
:1010A00006237B62052387F8233000BF97F823309F
:1010B000072B06D097F8233001220121184600F0B3
:1010C00083FAFFF7DDF9FFF7ADFA7B69002B01D05A
:1010D000FFF736F97A4A7B6A536701F0E5FAF86060
:1010E00001F00CFB03461846FFF750F9FFF740F9F3
:1010F00003461946F868FFF72BFA7B69002B03D1EA
:101100000121002001F0F6FBFFF7A2FAE4E16D4BAC
:10111000BB61BB69002B01D0BB6900E06A4BBB61BE
:10112000BB69002B01D0BB6900E0684BBB61BB69A8
:10113000002B01D0BB6900E0654BBB61FB78013B34
:101140000B2B00F2BE8101A252F823F07D110000AA
:101150008311000093110000C3140000C3140000A9
:10116000A3110000C3140000C3140000C314000046
:10117000C3140000C3140000BF1100000023FB6172
:1011800020E001220121002000F01EFA0223FB6171
:1011900018E001220121012000F016FA0123FB6171
:1011A00010E001F0ABFA03461846FFF7EFF8012212
:1011B00000214848FFF726F80323FB6102E00423DF
:1011C000FB6100BFBB69FA691A6085E1FB78072BF8
:1011D00002D0092B04D07FE1394B00221A6703E0CB
:1011E000374B01221A6700BF76E1FB78013B072BE2
:1011F00000F2698101A252F823F000BF1D12000025
:10120000C7140000C714000033120000C714000008
:10121000C714000023120000431200000023FB61EA
:1012200012E001220121042000F0CEF90123FB612C
:101230000AE001220121022000F0C6F90223FB612D
:1012400002E00323FB6100BF1D4BD3F85C3123F0A8
:101250003002FB691B011A491343C1F85C313BE1C1
:10126000FB78013B072B00F2308101A252F823F0FA
:1012700091120000CB140000CB140000A712000054
:10128000CB140000CB14000097120000D91200000C
:101290000023FB6123E001220121042000F094F9E6
:1012A0000123FB611BE001220121022000F08CF9E7
:1012B0000223FB6113E000BF002D31010148E8016A
:1012C00000400E4080400E408C400E4088400E4052
:1012D00084400E40B0400E400323FB6100BF804BB2
:1012E000D3F85C3123F44012FB691B057C4913439E
:1012F000C1F85C31F0E0FB78043B062B00F2E7809C
:1013000001A252F823F000BF35130000251300009E
:10131000CF14000045130000CF140000CF140000CC
:101320005513000001220121032000F04DF9002394
:10133000FB6117E001220121022000F045F90123A1
:10134000FB610FE001220121042000F03DF902239E
:10135000FB6107E001220121052000F035F903239C
:10136000FB6100BF5E4BD3F8603123F003025C49A0
:10137000FB691343C1F86031AEE0FB78043B062BF8
:1013800000F2A78001A252F823F000BFB9130000B9
:10139000A9130000D3140000C9130000D3140000E7
:1013A000D3140000D913000001220121032000F012
:1013B0000BF90023FB6117E001220121022000F05C
:1013C00003F90123FB610FE001220121042000F059
:1013D000FBF80223FB6107E001220121052000F058
:1013E000F3F80323FB6100BF3D4BD3F8643123F0D6
:1013F00003023B49FB691343C1F864316CE0FB789D
:10140000023B092B67D801A252F823F08514000093
:10141000951400004514000075140000D714000056
:10142000D7140000D7140000D714000035140000B2
:101430005514000001220121052000F0C5F8002309
:10144000FB612FE001220121022000F0BDF8012301
:10145000FB6127E001F0CCF9214B5B6A204A43F0A5
:101460000803536201220121022000F0ADF802239B
:10147000FB6117E001220121032000F0A5F80323FE
:10148000FB610FE001220121002000F09DF8042300
:10149000FB6107E001220121012000F095F80523FE
:1014A000FB6100BF0E4BD3F8F03123F007020C496B
:1014B000FB691343C1F8F0310EE000BF0CE000BF40
:1014C0000AE000BF08E000BF06E000BF04E000BF84
:1014D00002E000BF00E000BF2837BD4680BD00BF6E
:1014E00000400E4080B400AF034B1B681846BD4659
:1014F0005DF8047B704700BF0C00002080B584B00D
:1015000000AF78601120FFF79BFB01220021022031
:1015100000F05AF80023FB607B68DB7A012B0AD0CD
:10152000022B05D0002B00D008E00023FB6005E073
:101530000323FB6002E00123FB6000BF204B5B6ADA
:1015400023F003021E49FB6813434B620023FB6038
:1015500001F04EF902461B4B9A4203D8FB6843F058
:101560000803FB60164B5B6A23F008021449FB6812
:1015700013434B627B681B88DB027A6892881A43AC
:101580000F4BDA620E4B1B6B1B0D1B057A685288E2
:10159000D20213437A68D2881146094A0B43136377
:1015A0007B681B7A1A037B685B7A1B0113437A689A
:1015B000927A1A43024B5A6300BF1037BD4680BD72
:1015C00000400E4040787D0180B588B000AF0346F2
:1015D000FB710B46BB7113467B71FB79052B00F247
:1015E000BF8001A252F823F0491600003716000010
:1015F0001316000001160000251600005F160000FB
:1016000001237B6102233B610123FB610023BB615A
:1016100030E004237B6108233B610323FB61022349
:10162000BB6127E010237B6120233B610523FB6125
:101630000423BB611EE040237B6180233B610723C1
:10164000FB610623BB6115E04FF480737B614FF4AF
:1016500000733B610923FB610823BB610AE04FF47F
:1016600080637B614FF400633B610B23FB610A23C2
:10167000BB6100BFBB79002B55D00023FB73FB7906
:10168000022B11D1FEF78EFF0346012B0CD1364BF6
:10169000DB6B0123FB73354B5B6A03F00303032B06
:1016A00002D10220FEF78CFF304A7B69136600BF2F
:1016B000B9692F48FEF7BDFD0346002BF8D07B79B2
:1016C000002B4ED000BFF9692948FEF7B2FD034652
:1016D000002BF8D0FB79022B43D1FB7B002B40D0B1
:1016E000224B5B6A03F00303032B03D0002102208B
:1016F00000F0F2F8022000F03DF8B860012200216D
:101700000220FFF761FFB968022000F06DF8174A68
:101710007B69136600BFF9691548FEF78AFD034629
:10172000002BF8D01DE0114A3B69136600BF0F4B38
:10173000D3F890300121BA6901FA02F21340002B6C
:10174000F5D17B79002B0CD000BF084BD3F890303B
:101750000121FA6901FA02F21340002BF5D100E0F1
:1017600000BF2037BD4680BD00300E4000400E4017
:1017700090400E4080B485B000AF0346FB71FB790A
:10178000013B042B24D801A252F823F0A11700003A
:10179000D1170000AD170000C5170000B9170000F1
:1017A000104B1B6AC3F30803FB6014E00D4B1B696D
:1017B00003F07F03FB600EE00A4B9B6803F07F039E
:1017C000FB6008E0074B9B6903F07F03FB6002E0CE
:1017D0000023FB6000BFFB6818461437BD465DF868
:1017E000047B704700400E4080B582B000AF0346D6
:1017F0003960FB71FB79013B042B63D801A252F8DD
:1018000023F000BF19180000C51800004718000099
:101810009B180000711800003B68C3F308033B608D
:1018200000BF1A212A48FEF704FD0346002BF8D119
:10183000284B1B6A23F4FF7323F0010325493A6800
:1018400013430B623FE03B6803F07F033B6000BF44
:1018500018211F48FEF7EDFC0346002BF8D11D4B65
:101860001B6923F07F021B493B6813430B612AE08D
:101870003B6803F07F033B6000BF1E211448FEF766
:10188000D8FC0346002BF8D1124B9B6823F07F0253
:1018900010493B6813438B6015E03B6803F07F03FE
:1018A0003B6000BF19210A48FEF7C3FC0346002B2A
:1018B000F8D1084B9B6923F07F0206493B6813432C
:1018C0008B6100E000BF00BF0837BD4680BD00BF90
:1018D00040410E4000400E4080B584B000AF03464A
:1018E0000A46FB711346BB71FEF75CFE0346012BF3
:1018F00003D14FF48003FB6009E0BB79002B03D1D7
:101900004FF48003FB6002E0084BFB6000BF00BFA8
:10191000074BD3F89020FB681340FA689A42F7D13E
:10192000012318461037BD4680BD00BFFF3F473A30
:1019300000400E4080B485B000AF786039607B68AD
:1019400003F1C063FB60FB683A681A6000BF14379C
:10195000BD465DF8047B704780B485B000AF786009
:1019600039607B6803F18063FB60FB683A681A604A
:1019700000BF1437BD465DF8047B704780B582B068
:1019800000AF03463960FB71FB79002B16D0FB7961
:10199000012B13D0FB79022B10D0FB79032B0DD038
:1019A000FB79042B0AD0FB79052B07D0FB79062B9A
:1019B00004D0FB79072B01D0FB79082BFA79134669
:1019C0005B0013441B010C3303F1804303F5082330
:1019D00001213A6801FA02F211461846FFF7BCFFEE
:1019E00000BF0837BD4680BD80B582B000AF03465A
:1019F0003960FB71FB79002B16D0FB79012B13D0DA
:101A0000FB79022B10D0FB79032B0DD0FB79042B33
:101A10000AD0FB79052B07D0FB79062B04D0FB7984
:101A2000072B01D0FB79082BFA7913465B0013448E
:101A30001B010C3303F1804303F5082301213A68AD
:101A400001FA02F211461846FFF774FF00BF08378B
:101A5000BD4680BD80B584B000AFB9607B600346F1
:101A6000FB731346BB73FB7B002B16D0FB7B012B58
:101A700013D0FB7B022B10D0FB7B032B0DD0FB7B09
:101A8000042B0AD0FB7B052B07D0FB7B062B04D055
:101A9000FB7B072B01D0FB7B082BBB7B002B0DD0E6
:101AA0007B68002B05D0FB7BB9681846FFF79CFFCD
:101AB00004E0FB7BB9681846FFF760FFBB68072BA3
:101AC00020D82E49FA7B13465B0013441B010B44BC
:101AD00004331A68BB689B000F2101FA03F3DB4350
:101AE0001340B97BBA68920001FA02F2114623480A
:101AF000FA7B194313465B0013441B010344043370
:101B0000196025E01D49FA7B13465B0013441B0155
:101B10000B4408331A68BB6803F18043083B9B0001
:101B20000F2101FA03F3DB4302EA0301BA7BBB682E
:101B300003F18043083B9B0002FA03F30F48FA7B52
:101B4000194313465B0013441B0103440833196017
:101B5000BB7B002B0DD17B68002B05D0FB7BB968CC
:101B60001846FFF741FF04E0FB7BB9681846FFF712
:101B700005FF00BF1037BD4680BD00BF0080084094
:101B800080B483B000AF786000BF7B681B6903F04E
:101B90008003002BF9D07B68DB69DBB218460C3779
:101BA000BD465DF8047B704780B483B000AF7860B9
:101BB0000B46FB7000BF7B681B6903F04003002BE2
:101BC000F9D0FA787B685A6300BF0C37BD465DF8E0
:101BD000047B704780B483B000AF0346FB7197F974
:101BE0000730002B0BDBFB7903F01F02074997F945
:101BF00007305B09012000FA02F241F8232000BF00
:101C00000C37BD465DF8047B704700BF00E100E083
:101C100080B483B000AF0346FB7197F90730002B07
:101C20000CDBFB7903F01F02074997F907305B09CA
:101C3000012000FA02F2603341F8232000BF0C3784
:101C4000BD465DF8047B704700E100E080B485B0DC
:101C500000AF786039607B6803F10473DA003B6899
:101C600013449B00FB60FB681B6818461437BD4695
:101C70005DF8047B704780B485B000AF7860396050
:101C80007B6803F1C063FB60FB683A681A6000BFC1
:101C90001437BD465DF8047B704780B485B000AF53
:101CA000786039607B6803F18063FB60FB683A68A9
:101CB0001A6000BF1437BD465DF8047B704780B5DD
:101CC00082B000AF03463960FB71FB79002B16D060
:101CD000FB79012B13D0FB79022B10D0FB79032B5E
:101CE0000DD0FB79042B0AD0FB79052B07D0FB79AB
:101CF000062B04D0FB79072B01D0FB79082BFA794E
:101D000013465B0013441B011C3303F1804303F5AE
:101D1000082339681846FFF799FF03461846083725
:101D2000BD4680BD80B582B000AF03463960FB710F
:101D3000FB79002B16D0FB79012B13D0FB79022BFA
:101D400010D0FB79032B0DD0FB79042B0AD0FB7943
:101D5000052B07D0FB79062B04D0FB79072B01D08C
:101D6000FB79082BFA7913465B0013441B010C33F3
:101D700003F1804303F5082301213A6801FA02F2D6
:101D800011461846FFF789FF00BF0837BD4680BDE2
:101D900080B582B000AF03463960FB71FB79002B40
:101DA00016D0FB79012B13D0FB79022B10D0FB79D5
:101DB000032B0DD0FB79042B0AD0FB79052B07D020
:101DC000FB79062B04D0FB79072B01D0FB79082B7C
:101DD000FA7913465B0013441B010C3303F1804373
:101DE00003F5082301213A6801FA02F21146184668
:101DF000FFF741FF00BF0837BD4680BD80B483B008
:101E000000AF03463960FB71FB79002B16D0FB79DC
:101E1000012B13D0FB79022B10D0FB79032B0DD0B3
:101E2000FB79042B0AD0FB79052B07D0FB79062B15
:101E300004D0FB79072B01D0FB79082B01223B68EA
:101E400002FA03F30749FA79184613465B00134474
:101E50001B010B441833186000BF0C37BD465DF8FA
:101E6000047B70470080084080B400AF4FF080438F
:101E700001225A64184BD3F8B030174A43F00103DB
:101E8000C2F8B030144BD3F8E030134A43F00803E3
:101E9000C2F8E030114B1B68104A43F480531360C2
:101EA0000D4BD3F8E0300C4A23F00803C2F8E030C1
:101EB000094BD3F8B030084A23F00103C2F8B03020
:101EC000074B1B68064A43F4F843136000BFBD4646
:101ED0005DF8047B704700BF00400E403440054071
:101EE000A4310E4080B483B000AF786039607B6865
:101EF0003A689A6400BF0C37BD465DF8047B7047B2
:101F000080B483B000AF786039607B68DA6C3B687E
:101F10001A437B68DA6400BF0C37BD465DF8047B6A
:101F20007047000080B584B000AF134A3B1D07CA5C
:101F300083E807000023FB733B1D1846FFF7DEFA1A
:101F4000012201210220FFF73FFB04211120FFF7AE
:101F50000BF80A4BD3F80C31084A23F4FF3323F46F
:101F60008073C2F80C3101210548FEF7D5FB00BF94
:101F70001037BD4680BD00BFE42A000000400E407F
:101F80004041050080B500AF01210848FEF7C4FBC1
:101F90000023032203210020FFF75CFD002303221E
:101FA00004210020FFF756FD00BF80BD00550A0048
:101FB00080B500AF01211448FEF7AEFB00230422D8
:101FC00001210020FFF746FD00230422022100200A
:101FD000FFF740FD0023042208210020FFF73AFD0F
:101FE0000023042205210320FFF734FD00230422EF
:101FF00006210320FFF72EFD0023042208210320E1
:10200000FFF728FD00BF80BD00550A0080B500AF76
:1020100005210320FFF7F2FE00BF80BD80B582B02E
:1020200000AF01211348FEF777FB134B00221A6023
:10203000114B00225A6245F68C337B600E4A7B6856
:10204000D3610D4B4FF020621A600B4B40F6F772D4
:102050005A61094B01229A610520FFF7D9FD05203D
:10206000FFF7B8FD044B01225A6000BF0837BD4698
:1020700080BD00BF000206000080014080B582B034
:1020800000AF01211348FEF747FB134B00221A60F3
:10209000114B00225A6240F2E1437B600E4A7B689A
:1020A000D3610D4B4FF080621A600B4B40F6F77214
:1020B0005A61094B01229A610E20FFF7A9FD0E20FB
:1020C000FFF788FD044B01225A6000BF0837BD4668
:1020D00080BD00BF001204000084014080B500AF45
:1020E000034B01225A61FFF791FF00BF80BD00BF83
:1020F0000080014080B500AF044B01225A610121EC
:102100000020FFF77BFE00BF80BD00BF00840140C0
:1021100080B487B000AFF860B9607A6010237B614B
:102120007B689A00BB68796901FB03F3B2FBF3F3A8
:10213000043B9B013B61FB683A695A6100BF1C3755
:10214000BD465DF8047B704780B500AF0121214892
:10215000FEF7E2FA01212048FEF7DEFA012304220D
:102160000A210420FFF776FC002301220B21042022
:10217000FFF770FC194B40F6AA62DA60174B002299
:102180001A60164B41F205025A60154A4FF4E131CC
:102190001248FFF7BDFF114B03225A670F4B9B6F8D
:1021A0000E4A23F4E06323F0070393670B4B0522E9
:1021B000DA600C490948FFF795FE04210748FFF74C
:1021C0009FFE0620FFF724FD0620FFF703FD00BF5A
:1021D00080BD00BF0072040000550A0000000140ED
:1021E00000366E01FFFF010080B500AF01212148DC
:1021F000FEF792FA0123042204210220FFF72AFCB1
:102200000023012205210220FFF724FC1A4B40F68F
:10221000AA62DA60184B00221A60174B41F20502DD
:102220005A60164A4FF416511348FFF771FF124BCC
:1022300003225A67104B9B6F23F4E06323F00703DC
:102240000D4A43F4806343F0040393670A4B05226D
:10225000DA600B490848FFF745FE04210648FFF7FE
:102260004FFE1520FFF7D4FC1520FFF7B3FC00BF8D
:1022700080BD00BF004E04000040014000366E01EA
:10228000FFFF010080B500AF01212148FEF744FAAD
:10229000012304220C210420FFF7DCFB0023012290
:1022A0000D210420FFF7D6FB1A4B40F6AA62DA6034
:1022B000184B00221A60174B41F205025A60164A69
:1022C0004FF4E1311348FFF723FF124B03225A6703
:1022D000104B9B6F23F4E06323F007030D4A43F494
:1022E000806343F0040393670A4B0522DA600B49CD
:1022F0000848FFF7F7FD04210648FFF701FE172005
:10230000FFF786FC1720FFF765FC00BF80BD00BF0C
:10231000005E04000044014000366E01FFFF010032
:1023200080B582B000AF786007E07B685A1C7A60A5
:102330001B7819460548FFF737FC7B681B78002B94
:10234000F3D100BF0837BD4680BD00BF000001408B
:1023500080B582B000AF786007E07B685A1C7A6075
:102360001B7819460548FFF71FFC7B681B78002B7C
:10237000F3D100BF0837BD4680BD00BF004001401B
:1023800080B582B000AF786007E07B685A1C7A6045
:102390001B7819460548FFF707FC7B681B78002B64
:1023A000F3D100BF0837BD4680BD00BF00440140E7
:1023B00080B582B000AF1648FFF7E2FB0346FB7121
:1023C000FB790D2B10D1134B1B889BB21A46124B75
:1023D000002199541048FFF7A3FF1048FFF7A0FF12
:1023E0000C4B00221A800FE00A4B1B889BB2FE2B7D
:1023F0000AD8084B1B889BB25A1C91B2054A11801F
:102400001946054AFB79535400BF0837BD4680BDC5
:102410000000014094000020A0020020F02A0000EB
:1024200080B582B000AF1648FFF7AAFB0346FB71E8
:10243000FB790D2B10D1134B1B889BB21A46124B04
:10244000002199541048FFF783FF1048FFF780FFE1
:102450000C4B00221A800FE00A4B1B889BB2FE2B0C
:102460000AD8084B1B889BB25A1C91B2054A1180AE
:102470001946054AFB79535400BF0837BD4680BD55
:102480000040014096000020A0000020F02A00003B
:1024900080B582B000AF1648FFF772FB0346FB71B0
:1024A000FB790D2B10D1134B1B889BB21A46124B94
:1024B000002199541048FFF763FF1048FFF760FFB1
:1024C0000C4B00221A800FE00A4B1B889BB2FE2B9C
:1024D0000AD8084B1B889BB25A1C91B2054A11803E
:1024E0001946054AFB79535400BF0837BD4680BDE5
:1024F0000044014098000020A0010020F02A0000C4
:1025000080B487B000AF786040F25A337B617B695A
:102510007A6802FB03F33B610023FB6004E0FB6885
:10252000FB60FB680133FB60FB683A699A42F6D8AE
:1025300000BF1C37BD465DF8047B704780B582B094
:1025400000AFFFF791FCFFF7EDFCFFF71BFDFFF776
:102550002FFDFFF7F9FDFFF747FEFFF793FEFFF7AB
:102560005DFDFFF78BFD00237B6002E07B6801339C
:102570007B607B68314A9342F8DD3148FFF7E8FE23
:102580003048FFF7FDFE3048FFF7CAFE2F48FFF73F
:10259000F7FE2F48FFF7F4FE2E48FFF7F1FE2E4816
:1025A000FFF7EEFE2D48FFF7EBFE2D48FFF7E8FEA4
:1025B00008210020FFF7ECFB02210020FFF7E8FBD9
:1025C000FA20FFF79DFF08210020FFF7ABFB022157
:1025D0000020FFF7A7FBFA20FFF792FF2148FFF743
:1025E000CFFE03210020FFF76AFB0346002B07D034
:1025F0001D48FFF7C5FE06210320FFF7C9FB06E0D3
:102600001A48FFF7BDFE06210320FFF78BFB0421CC
:102610000020FFF754FB0346002B07D01448FFF7B8
:10262000AFFE08210320FFF7B3FBC1E71148FFF716
:10263000A7FE08210320FFF775FBB9E79F8601007D
:10264000F42A0000142B0000382B0000582B000047
:10265000782B0000942B0000B42B0000D02B00003E
:10266000F02B0000F02A00000C2C0000182C0000B9
:10267000242C0000302C0000064880470649074AF9
:10268000074B9A42BEBF51F8040B42F8040BF8E71F
:10269000FDF77EFD092800004C2C00000000002002
:1026A00078000020FEE700BF80B582B000AF00F0E8
:1026B00025F878600A4BD3F808311B0AC3F30803E6
:1026C0003B603B6801337A68B2FBF3F37B60054AF9
:1026D0007B6813607B6818460837BD4680BD00BF25
:1026E00000400E400800002080B400AF024B1846A6
:1026F000BD465DF8047B704700A24A0480B483B0F5
:1027000000AF334BD3F8943003F00703023B042BA4
:1027100049D801A252F823F03D27000035270000D8
:102720002D2700009D27000045270000294B1B682E
:102730007B603CE04FF400437B6038E0264B1B6835
:102740007B6034E0224B9B681B0C03F01F03073BAC
:10275000072B1FD801A252F823F000BF7D270000ED
:10276000952700009527000095270000832700008B
:1027700095270000892700008F270000174B7B60FA
:102780000BE0174B7B6008E0164B7B6005E0164BB7
:102790007B6002E000237B6000BF08E0134B1B68F6
:1027A0005B087B6003E0114B1B687B6000BF084B3C
:1027B000D3F800311B0A03F01F0301337A68B2FB20
:1027C000F3F318460C37BD465DF8047B704700BF35
:1027D00000400E4004000020000000200024F4000F
:1027E0000048E801006CDC0280F0FA020C000020D6
:1027F00080B400AF034B1B681846BD465DF8047BF0
:10280000704700BF0000002080B400AF074B084AAB
:102810009A60064BD3F88830044A43F47003C2F838
:10282000883000BFBD465DF8047B704700ED00E0D6
:102830000000000080B485B000AF786039607B682C
:1028400003F10473DA003B6813449B00FB60FB68F0
:102850001B6818461437BD465DF8047B70470000BE
:1028600080B400AF064B1B6803F04003002B01D17E
:10287000012300E000231846BD465DF8047B704745
:102880003C300E4080B500AFFFF7EAFF034683F00F
:102890000103DBB2002B08D100BF12210448FFF76F
:1028A000C9FF0346002BF8D100E000BF80BD00BF88
:1028B00004300E4080B500AFFFF7E4FF034B5B68C8
:1028C0001B0C03F00303DBB2184680BD00300E4042
:1028D00080B483B000AF0346FB71FB79C3F1020300
:1028E000102202FA03F318460C37BD465DF8047B4C
:1028F0007047000080B584B000AF78600B46FB7075
:10290000FFF7AEFF034683F00103DBB2002B28D1B3
:102910007B68002B0FD1154BD3F800311B0A03F055
:102920001F030133BB60FFF7E9FE0246BB6802FBF1
:1029300003F3FB6001E07B68FB600D4B1B78002B11
:1029400009D0FB680B4A934205D8FB781946022050
:1029500000F012F806E0FB781946002000F00CF8B1
:1029600000E000BF1037BD4680BD00BF00400E40F4
:102970009C000020002D310190B587B000AF0346C8
:102980000A46FB711346BB71FFF76AFF034683F0EB
:102990000103DBB2002B31D1FFF78CFF03461A464F
:1029A000FB7993422CD0184BD3F800311B0A03F06B
:1029B0001F0301337B61FFF7A1FE38613B697A6930
:1029C00002FB03F3FB60FB79022B03D10221386980
:1029D000FDF7BEFD0D4CFB791846FFF779FF034666
:1029E0002361BB79002B01D0FFF74CFFFB79002B53
:1029F00007D100213869FDF7ABFD02E000BF00E020
:102A000000BF1C37BD4690BD00400E4000300E4058
:102A100008B5074B044613B10021AFF30080054B06
:102A20001868836A03B19847204600F031F800BF68
:102A3000000000003C2C000070B50D4E0D4CA41B96
:102A4000A4100025A54209D10B4E0C4C00F022F831
:102A5000A41BA4100025A54205D170BD56F8253051
:102A600098470135EEE756F8253098470135F2E7EB
:102A70007000002070000020700000207400002012
:102A800002440346934200D1704703F8011BF9E763
:102A9000FEE700BFF8B500BFF8BC08BC9E46704713
:102AA000F8B500BFF8BC08BC9E46704780A812016C
:102AB00000000000005125020001000080F93703EA
:102AC0000002000000A24A0400030000C0CF6A0018
:102AD00002000000809FD50002010000002D31019E
:102AE0000202000000000000000600010D080E00B8
:102AF0000D0A000054434920434F4D312D412028F9
:102B0000554152543029202D2051464E36340D0A5D
:102B10000000000054434920434F4D322D422028ED
:102B2000554152543129202D2051464E36342044EF
:102B300045425547310D0A0054434920434F4D3318
:102B40002D43202855534152543029202D205146E1
:102B50004E36340D0A0000004846584F3A2045785A
:102B60007465726E69206B72797374616C20323493
:102B7000204D487A0D0A00004C45443220626C69B1
:102B80006B616E692031487A202854494D45523096
:102B9000290D0A004C454433203D20737461762092
:102BA0004F6E426174746572792028504133290D4B
:102BB0000A0000004C454434203D207374617620A7
:102BC00054616D7065722028504134290D0A00004F
:102BD000545820706F727420285041312920746F2E
:102BE00067676C652031323030487A0D0A0000008A
:102BF0005541525431207679706973756A65202782
:102C00002A272031323030487A0D0A00426174653B
:102C100072793A31202000004261746572793A304D
:102C20002020000054616D7065723A312020000050
:102C300054616D7065723A30202000001000002051
:042C40000000000090
:082C44004CD5FF7F01000000E8
:102C4C0080F0FA0200800000C0EA2101C0EA2101F4
:102C5C000000000000000000000000000000000068
:102C6C000000000000000000000000000000000058
:102C7C000000000000000000000000000000000048
:102C8C000000000000000000000000000000000038
:102C9C000000000000000000000000000000000028
:102CAC000000000000000000000000000000000018
:082CBC00750100005101000048
:04000003000026795A
:00000001FF
