:1000000000000820CD270000F9270000F927000094
:10001000F9270000F9270000F9270000F927000060
:10002000F9270000F9270000F9270000F927000050
:10003000F9270000F8270000F9270000F927000041
:10004000F9270000F9270000F9270000B13000006F
:10005000F9270000155B000051650000F92700003A
:10006000F9270000F9270000F9270000F927000010
:10007000F9270000F9270000B95C0000F92700000B
:10008000F9270000F9270000F9270000F9270000F0
:10009000F9270000A15E0000F9270000B960000008
:1000A000F9270000F9270000F9270000F9270000D0
:1000B000F9270000F9270000F9270000F9270000C0
:1000C000F9270000F9270000F9270000F9270000B0
:1000D000F9270000F9270000F9270000F9270000A0
:1000E000F9270000F9270000F9270000F927000090
:1000F000F9270000F9270000F9270000F927000080
:10010000F9270000F9270000F9270000F92700006F
:10011000F9270000F9270000F9270000F92700005F
:10012000F9270000F9270000F9270000F92700004F
:10013000F9270000F9270000F9270000F92700003F
:10014000F9270000F9270000F9270000F92700002F
:1001500010B5054C237833B9044B13B10448AFF301
:1001600000800123237010BD7C00002000000000EF
:10017000747F000008B5034B1BB103490348AFF37C
:10018000008008BD0000000080000020747F000097
:10019000154B002B08BF134B9D46A3F5803A002159
:1001A0008B460F461348144A121A06F0B2FC0F4B46
:1001B000002B00D098470E4B002B00D09847002012
:1001C000002104000D000D48002802D00C48AFF3B8
:1001D000008006F06FFC2000290002F0AFF806F066
:1001E00055FC00BF000008000000082000000000CF
:1001F000000000007C0000207C0A002000000000BD
:100200000000000080B487B000AFF860B9607A6089
:10021000FB6803F10473DA00BB6813449B007B6145
:100220007B697A681A6000BF1C37BD465DF8047BA5
:10023000704780B485B000AF786039607B6803F1A7
:100240000473DA003B6813449B00FB60FB681B6887
:1002500018461437BD465DF8047B704780B485B0FE
:1002600000AF786039607B6803F1C063FB60FB68B6
:100270003A681A6000BF1437BD465DF8047B7047CA
:1002800080B485B000AF786039607B6803F180632B
:10029000FB60FB683A681A6000BF1437BD465DF822
:1002A000047B704780B483B000AF786001227B6824
:1002B00002FA03F318460C37BD465DF8047B70471D
:1002C00080B485B000AF78607B68002B03D07B687A
:1002D000B3F5004F00BF7B68B3FA83F3DBB2C3F121
:1002E0001F03FB60FB6818461437BD465DF8047BAE
:1002F000704780B584B000AF78607B680133B3FA93
:1003000083F3DBB2C3F11F03FB60F868FFF7CAFF9A
:10031000FB6818461037BD4680BD000080B400AFB2
:10032000064B1B6803F04003002B01D1012300E0C2
:1003300000231846BD465DF8047B70473C300E40F4
:1003400080B500AFFFF7EAFF034683F00103DBB29D
:10035000002B08D100BF12210448FFF76AFF0346B3
:10036000002BF8D100E000BF80BD00BF04300E407C
:1003700080B500AFFFF7E4FF034B5B681B0C03F095
:100380000303DBB2184680BD00300E4080B584B058
:1003900000AF78600123FB607B68124A934204D867
:1003A0000023FB600023BB6008E07B680E4A934299
:1003B00002D80123BB6001E00223BB60FA68102170
:1003C0000A48FFF71FFF094BD3F8003123F04072B2
:1003D000BB681B0605491343C1F8003100BF103745
:1003E000BD4680BD0048E8010090D00300400E40AB
:1003F00080B485B000AF786039604FF080435B68AF
:1004000003F04073FB600023BB6012E01B4ABB6833
:10041000DB0013441A793B68DBB29A4206D1174AD3
:10042000BB6852F833307A689A4206D9BB68013308
:10043000BB60BB68062BE9D900E000BFBB68072B97
:1004400002D10323FB6005E00C4ABB68DB001344C8
:100450005B79FB60FB681B06FB604FF080435B68C9
:1004600023F040724FF08041FB6813434B6000BFA4
:100470001437BD465DF8047B704700BF8C750000E3
:1004800080B582B000AF4FF080431B6C002B14BFCF
:1004900001230023FB714FF0804341F671321A644F
:1004A00002F0CCF9034600211846FFF7A1FFFB79C3
:1004B000002B03D04FF0804300221A6400BF08379E
:1004C000BD4680BD80B584B000AF786039600C4B0C
:1004D000FB603B68022B01D10A4BFB607A68FB682A
:1004E0009A4204D908490948FFF7B8FE03E00649D3
:1004F0000648FFF7C5FE00BF1037BD4680BD00BFF0
:1005000080D543020024F4000202020000010040F2
:1005100080B582B000AF786039607B680B4A934247
:1005200009D93B68002B06D14FF480514FF0804031
:10053000FFF794FE05E04FF480514FF08040FFF745
:100540009FFE00BF0837BD4680BD00BF80F0FA02A5
:1005500080B584B000AF786039604FF080431B6C89
:10056000002B14BF01230023FB734FF0804341F69F
:1005700071321A6439687868FFF73AFF3968786829
:10058000FFF7A0FF39687868FFF7C2FFFB7B002BFD
:1005900003D04FF0804300221A6400BF1037BD46DD
:1005A00080BD000080B400AF044B5B6A1B0903F000
:1005B00003031846BD465DF8047B704700400E40BB
:1005C00080B483B000AF7860074B5B6A23F03002E1
:1005D0007B681B01044913434B6200BF0C37BD46C7
:1005E0005DF8047B704700BF00400E4080B483B0CC
:1005F00000AF78600A4BD3F8443103F00103002BBD
:1006000008D100BF064BD3F840217B681340002B74
:10061000F8D100E000BF0C37BD465DF8047B7047A1
:1006200000400E4080B500AF0321064800F01CF9E1
:100630000321054800F018F90321044800F014F9DB
:1006400000BF80BD404105005041070060410900E6
:1006500080B582B000AF02F0FBF83860FFF788FE8B
:100660000346022B1AD13A68224B1344224AA2FBBA
:100670000323DB0D7B607B68002B02D07B68013B92
:100680007B6079681D4800F0EFF879681C4800F03D
:10069000EBF879681B4800F0E7F827E03A681A4B56
:1006A00013441A4AA2FB03231B0E7B607B68002BBA
:1006B00002D07B68013B7B607968104800F0D4F879
:1006C0007968104800F0D0F83A68114B1344114A89
:1006D000A2FB03239B0E7B607B68002B02D07B6810
:1006E000013B7B607968064800F0BEF800BF083720
:1006F000BD4680BDFF2C31016BCA5F6B40410500D8
:1007000050410700604109007FF0FA02893BE6553D
:10071000FFA14A04B5FA9BEE80B586B000AF7860C1
:100720000B46FB7000233B617B681B0A03F00F0341
:10073000013B0E2B7CD801A252F823F07907000070
:100740008507000031080000310800007F07000025
:10075000910700009B070000A5070000B1070000FB
:1007600007080000BD070000DF0700003108000097
:100770008B070000010800002F4B7B6146E02F4BE8
:100780007B6143E02E4B7B6140E02E4B7B613DE083
:100790002D4B7B6101233B6138E02C4B7B611023A7
:1007A0003B6133E02A4B7B614FF480733B612DE06A
:1007B000284B7B614FF480333B6127E0264B7B6104
:1007C000FB78002B14BF01230023DBB283F001036D
:1007D000DBB2FB70FB7803F00103FB7016E01F4BEC
:1007E0007B61FB78002B14BF01230023DBB283F075
:1007F0000103DBB2FB70FB7803F00103FB7005E043
:10080000174B7B6102E0174B7B6100BF7B681B0BC2
:1008100003F01F03FB603B69002B02D03869FFF730
:10082000E5FEFB781A46F9687869FFF7EBFC00E013
:1008300000BF1837BD4680BD00400E40B0400E409E
:10084000C0400E40C4400E40E0400E40E8400E4024
:10085000EC400E40F0400E4060410E4064410E40BE
:10086000F0410E4050410E4080B584B000AF78603A
:1008700039607B681B0903F00F03FB60FB68013BD9
:100880000B2B00F2D58101A252F823F0BD08000025
:10089000070900001F0900003F0900005B09000074
:1008A0007709000093090000C7090000D90A000079
:1008B000710B00009B0B0000150C0000FFF7E0FD22
:1008C000BA48FFF763FDFFF7ADFEB94BD3F800312F
:1008D00023F4F8523B681B02B5491343C1F80031B9
:1008E00001F08CFFB860FFF743FD03461946B86876
:1008F000FFF72EFE01F0ACFF03461846FFF746FD5A
:10090000FFF7A6FE95E1AA4BD3F8143123F4F85271
:100910003B681B02A6491343C1F8143189E13868CA
:10092000FFF7CEFC3860A24BD3F8003123F04072C1
:100930003B681B069E491343C1F8003179E19C4B8B
:10094000D3F80C3123F4FF3323F480733A68120296
:1009500097491343C1F80C316BE1954BD3F818312B
:1009600023F4FF3323F480733A681202904913434F
:10097000C1F818315DE18E4BD3F81C3123F4FF33FD
:1009800023F480733A68120289491343C1F81C3179
:100990004FE1FFF775FD864BD3F8083123F4FF33A1
:1009A00023F480733A68120281491343C1F8083175
:1009B00001F024FFB860FFF7DBFC03461946B86876
:1009C000FFF7C6FD35E17B687A4A93424AD0794AFF
:1009D000934209D8784A934223D0784A93422FD041
:1009E000774A93420AD076E0764A934260D0764ABC
:1009F00093424AD0754A93425AD06CE03868FFF768
:100A000078FC38600420FFF7F1FD694BD3F8203102
:100A100023F470223B681B0465491343C1F820315D
:100A200059E04FF48020FFF7E1FD614BD3F83031FE
:100A300023F003025E493B681343C1F830314AE0BA
:100A40003868FFF756FC38600420FFF7CFFD584B9D
:100A5000D3F8203123F00F0255493B681343C1F806
:100A6000203138E03868FFF744FC38600420FFF795
:100A7000BDFD4F4BD3F8203123F0F0023B681B0142
:100A80004B491343C1F8203125E03868FFF731FCAA
:100A900038600420FFF7AAFD454BD3F8203123F43A
:100AA00040723B681B0242491343C1F8203112E0F7
:100AB0003868FFF71EFC38600420FFF797FD3C4BB9
:100AC000D3F8203123F4E0423B681B033849134339
:100AD000C1F8203100BFACE07B683D4A934218D09A
:100AE0003C4A934228D03C4A934200D03FE03868C9
:100AF000FFF7FFFB38604020FFF778FD2C4BD3F861
:100B0000283123F003022A493B681343C1F82831F6
:100B10002DE03868FFF7EDFB38604020FFF766FDF9
:100B2000234BD3F8283123F030023B681B012049C6
:100B30001343C1F828311AE03B687F2B02D83B6889
:100B40000E2B00BF3868FFF7D4FB0346043B3B6025
:100B50004020FFF74BFD164BD3F8283123F44052C9
:100B60003B681B0312491343C1F8283100BF60E002
:100B70007B68114A934200D00EE04FF48020FFF7CB
:100B800035FD0B4BD3F8303123F0030208493B68A5
:100B90001343C1F8303100BF4BE07B680F4A9342EA
:100BA00020D00F4A934228D033E000BF0148E8012B
:100BB00000400E4080161800A009140080061600A0
:100BC0008046120000362C0080262E0080002A006D
:100BD00090171C009037300090071A00B8003200C0
:100BE000B9003400154BD3F85C3123F003021349EC
:100BF0003B681343C1F85C310BE0104BD3F85C3118
:100C000023F440323B681B040C491343C1F85C31A8
:100C100000BF0EE0094BD3F8043123F4FF3323F473
:100C200080733A68120205491343C1F8043100E0A9
:100C300000BF00BF1037BD4680BD00BF00400E4062
:100C400080B485B000AF78600123FB737B6803F04C
:100C50000F03BB60BB68013B0B2B00F2748101A248
:100C600052F823F0950C0000F10C0000210D00005B
:100C7000990D0000690D0000C90D0000470F00002C
:100C8000ED0D00002F0E0000730E0000B30E0000EB
:100C9000F30E0000B34BD3F8943003F00703023B8C
:100CA000052B21D801A252F823F000BFD10C00007F
:100CB000CB0C0000C50C0000D70C0000E30C0000BA
:100CC000DD0C00000223FB7311E00323FB730EE035
:100CD0000423FB730BE00D23FB7308E00E23FB736F
:100CE00005E00A23FB7302E00523FB7300BF32E13A
:100CF0009C4BD3F8803003F00703022B06D0042B63
:100D000007D0012B08D10323FB7308E00223FB73F8
:100D100005E00C23FB7302E00123FB7300BF1AE123
:100D2000904BD3F8843003F00703013B032B17D813
:100D300001A252F823F000BF490D00004F0D000042
:100D40005B0D0000550D00000323FB730BE0022335
:100D5000FB7308E00C23FB7305E00623FB7302E042
:100D60000123FB7300BFF6E07E4BD3F8883003F01D
:100D70000703022B06D0042B07D0012B08D1032335
:100D8000FB7308E00223FB7305E00C23FB7302E016
:100D90000123FB7300BFDEE0724BD3F88C3003F00D
:100DA0000703022B06D0042B07D0012B08D1032305
:100DB000FB7308E00223FB7305E00C23FB7302E0E6
:100DC0000123FB7300BFC6E0664B1B6F03F00303F8
:100DD000002B04D0012B05D10923FB7305E0072369
:100DE000FB7302E00123FB7300BFB4E05D4BD3F85B
:100DF0005C3103F03003102B0CD0102B02D8002BE9
:100E000005D010E0202B08D0302B09D00BE00123B7
:100E1000FB730BE00723FB7308E00423FB7305E07F
:100E20000823FB7302E00123FB7300BF93E04D4BEB
:100E3000D3F85C3103F44013B3F5801F0FD0B3F542
:100E4000801F02D8002B07D085E0B3F5001F09D022
:100E5000B3F5401F09D07EE00123FB7308E00723B0
:100E6000FB7305E00423FB7302E00823FB7300BF60
:100E700071E03C4BD3F8603103F00303032B65D8DA
:100E800001A252F823F000BF990E00009F0E00004F
:100E9000A50E0000AB0E00000523FB7308E0042341
:100EA000FB7305E00723FB7302E00A23FB7300BF1B
:100EB0004CE02C4BD3F8643103F00303032B47D8E9
:100EC00001A252F823F000BFD90E0000DF0E00008F
:100ED000E50E0000EB0E00000523FB7308E0042381
:100EE000FB7305E00723FB7302E00A23FB7300BFDB
:100EF0002EE01C4BD3F8F03103F00703052B29D863
:100F000001A252F823F000BF210F0000270F0000BC
:100F10002D0F0000330F0000390F00003F0F0000BD
:100F20000A23FB730EE00423FB730BE00B23FB731C
:100F300008E00523FB7305E00223FB7302E00323B3
:100F4000FB7300BF06E00023FB7304E000BF02E078
:100F500000BF00E000BFFB7B18461437BD465DF8BC
:100F6000047B704700400E4080B58AB000AF7860C7
:100F70000B46FB7003237B62032387F82330002397
:100F8000BB6100237B617B68112B19D1FB78042B9B
:100F900003D101F0D7FC78610BE0FB78052B08D179
:100FA00000F028FC0246C44B9A4202D900F022FC11
:100FB00078617B69002B03D00021786901F044FD42
:100FC0007B6803F00F033B613B69013B0B2B00F295
:100FD000748201A252F823F0091000000F110000E2
:100FE0002F1100001311000021110000CD1100008D
:100FF000BB140000EB11000061120000F7120000AA
:101000007B130000FF130000FB78023B0C2B00F267
:10101000568201A252F823F04D1000005910000032
:101020006510000077100000BF140000BF1400001E
:10103000BF140000BF140000A1100000BF14000086
:10104000BF140000891000009510000004237B628B
:10105000002387F8233029E003237B62012387F8EC
:10106000233023E002237B62022387F82330934856
:10107000FFF78CF91AE001237B62032387F8233002
:101080008E48FFF783F911E005237B62032387F87D
:1010900023300BE007237B62072387F8233005E02A
:1010A00006237B62052387F8233000BF97F823309F
:1010B000072B06D097F8233001220121184600F0B3
:1010C0000BFCFFF7DDF9FFF7ADFA7B69002B01D0D0
:1010D000FFF736F97A4A7B6A536701F08FFBF860B5
:1010E00001F0B6FB03461846FFF750F9FFF740F949
:1010F00003461946F868FFF72BFA7B69002B03D1EA
:101100000121002001F0A0FCFFF7A2FAE4E16D4B01
:10111000BB61BB69002B01D0BB6900E06A4BBB61BE
:10112000BB69002B01D0BB6900E0684BBB61BB69A8
:10113000002B01D0BB6900E0654BBB61FB78013B34
:101140000B2B00F2BE8101A252F823F07D110000AA
:101150008311000093110000C3140000C3140000A9
:10116000A3110000C3140000C3140000C314000046
:10117000C3140000C3140000BF1100000023FB6172
:1011800020E001220121002000F0A6FB0223FB61E8
:1011900018E001220121012000F09EFB0123FB61E8
:1011A00010E001F055FB03461846FFF7EFF8012267
:1011B00000214848FFF726F80323FB6102E00423DF
:1011C000FB6100BFBB69FA691A6085E1FB78072BF8
:1011D00002D0092B04D07FE1394B00221A6703E0CB
:1011E000374B01221A6700BF76E1FB78013B072BE2
:1011F00000F2698101A252F823F000BF1D12000025
:10120000C7140000C714000033120000C714000008
:10121000C714000023120000431200000023FB61EA
:1012200012E001220121042000F056FB0123FB61A2
:101230000AE001220121022000F04EFB0223FB61A3
:1012400002E00323FB6100BF1D4BD3F85C3123F0A8
:101250003002FB691B011A491343C1F85C313BE1C1
:10126000FB78013B072B00F2308101A252F823F0FA
:1012700091120000CB140000CB140000A712000054
:10128000CB140000CB14000097120000D91200000C
:101290000023FB6123E001220121042000F01CFB5C
:1012A0000123FB611BE001220121022000F014FB5D
:1012B0000223FB6113E000BF002D31010148E8016A
:1012C00000400E4080400E408C400E4088400E4052
:1012D00084400E40B0400E400323FB6100BF804BB2
:1012E000D3F85C3123F44012FB691B057C4913439E
:1012F000C1F85C31F0E0FB78043B062B00F2E7809C
:1013000001A252F823F000BF35130000251300009E
:10131000CF14000045130000CF140000CF140000CC
:101320005513000001220121032000F0D5FA00230B
:10133000FB6117E001220121022000F0CDFA012318
:10134000FB610FE001220121042000F0C5FA022315
:10135000FB6107E001220121052000F0BDFA032313
:10136000FB6100BF5E4BD3F8603123F003025C49A0
:10137000FB691343C1F86031AEE0FB78043B062BF8
:1013800000F2A78001A252F823F000BFB9130000B9
:10139000A9130000D3140000C9130000D3140000E7
:1013A000D3140000D913000001220121032000F012
:1013B00093FA0023FB6117E001220121022000F0D3
:1013C0008BFA0123FB610FE001220121042000F0D0
:1013D00083FA0223FB6107E001220121052000F0CE
:1013E0007BFA0323FB6100BF3D4BD3F8643123F04C
:1013F00003023B49FB691343C1F864316CE0FB789D
:10140000023B092B67D801A252F823F08514000093
:10141000951400004514000075140000D714000056
:10142000D7140000D7140000D714000035140000B2
:101430005514000001220121052000F04DFA00237F
:10144000FB612FE001220121022000F045FA012377
:10145000FB6127E001F076FA214B5B6A204A43F0FA
:101460000803536201220121022000F035FA022311
:10147000FB6117E001220121032000F02DFA032374
:10148000FB610FE001220121002000F025FA042376
:10149000FB6107E001220121012000F01DFA052374
:1014A000FB6100BF0E4BD3F8F03123F007020C496B
:1014B000FB691343C1F8F0310EE000BF0CE000BF40
:1014C0000AE000BF08E000BF06E000BF04E000BF84
:1014D00002E000BF00E000BF2837BD4680BD00BF6E
:1014E00000400E4080B58AB000AF786000237B6278
:1014F0000023FB77FEF73CFF0346022B06D17B68F7
:101500001B686F4A934201D90023D5E000233B6258
:1015100018E07B681A686B493B6A1B010B441B6827
:101520009A420CD37B681A6866493B6A1B010B44DC
:1015300004331B689A4202D83B6A7B6205E03B6A2F
:1015400001333B623B6A172BE3D97B6A182B01D12D
:101550000023B1E05B4A7B6A1B01134408331B681C
:10156000BB61584A7B6A1B0113440C331B68002B78
:1015700019D0544A7B6A1B0113440C331B6818466C
:1015800000F0A6F8034603F07F037B617B69092B1B
:1015900003D97B69093B7B6101E000237B61BA6968
:1015A0007B691343BB617B681B68474A136011204A
:1015B000FFF746FB0346052B01D1FEF761FF112023
:1015C000FFF73EFB0346052B09D17B681B681846D5
:1015D000FEF7DCFE0123FB773C4B05225A673B4BB1
:1015E0004FF400521A6600BF384BD3F8903003F422
:1015F0004053002BF8D1354B4FF46032C3F8A8208C
:101600007B689B881B047A68D28811462F4A0B435B
:1016100053642E4ABB6913617B689B7ADB007A684E
:10162000527B002A01D0042200E000221A437B688A
:10163000DB7A5B0013437A68127B1146234A0B4323
:101640001364224B4FF480521A6600BF1F4BD3F82D
:10165000A03003F460333B613B69002BF6D01120CE
:10166000FFF7EEFA03460D2B05D1FB7F002B02D0CE
:10167000164B01225A671120FFF7E2FA0346052BA9
:1016800009D101F0BBF8F860FEF772FE0346194677
:10169000F868FEF75DFF01F0DBF803461846FEF739
:1016A00075FE0121002001F0CFF93B69B3F5004F31
:1016B00001D1012300E0002318462837BD4680BD34
:1016C000002D31010C7400000C00002000400E4081
:1016D00080B483B000AF78607B68374A934243D0D0
:1016E000354A934216D8354A93422DD0334A934215
:1016F00006D8334A934227D0324A934224D053E04B
:10170000314A934228D0314A934229D0304A9342F9
:101710001ED049E02F4A934236D02E4A934209D830
:101720002D4A934228D02D4A934229D02C4A9342E5
:101730001ED039E02B4A93422ED02B4A93422FD011
:101740002A4A934224D02FE0294BD3F880302CE052
:10175000274BD3F88C3028E0254BD3F8983024E081
:10176000234BD3F89C3020E0214BD3F8A0301CE071
:101770001F4BD3F8A83018E01D4BD3F8AC3014E061
:101780001B4BD3F8B03010E0194BD3F8B4300CE059
:10179000174BD3F8B83008E0154BD3F8BC3004E051
:1017A000134BD3F8C03000E0002318460C37BD4679
:1017B0005DF8047B704700BFC0EA210100093D00CD
:1017C00040420F0080841E00405DC6000024F400EB
:1017D000C0CF6A00006CDC020048E80180D54302FB
:1017E00080BA8C010090D00300A24A04007E560308
:1017F000B081E00F80B400AF034B1B681846BD46B4
:101800005DF8047B704700BF0C00002080B584B0F9
:1018100000AF78601120FFF713FA012200210220A7
:1018200000F05AF80023FB607B68DB7A012B0AD0BA
:10183000022B05D0002B00D008E00023FB6005E060
:101840000323FB6002E00123FB6000BF204B5B6AC7
:1018500023F003021E49FB6813434B620023FB6025
:1018600001F070F802461B4B9A4203D8FB6843F024
:101870000803FB60164B5B6A23F008021449FB68FF
:1018800013434B627B681B88DB027A6892881A4399
:101890000F4BDA620E4B1B6B1B0D1B057A685288CF
:1018A000D20213437A68D2881146094A0B43136364
:1018B0007B681B7A1A037B685B7A1B0113437A6887
:1018C000927A1A43024B5A6300BF1037BD4680BD5F
:1018D00000400E4040787D0180B588B000AF0346DF
:1018E000FB710B46BB7113467B71FB79052B00F234
:1018F000BF8001A252F823F05919000047190000D7
:101900002319000011190000351900006F1900009B
:1019100001237B6102233B610123FB610023BB6147
:1019200030E004237B6108233B610323FB61022336
:10193000BB6127E010237B6120233B610523FB6112
:101940000423BB611EE040237B6180233B610723AE
:10195000FB610623BB6115E04FF480737B614FF49C
:1019600000733B610923FB610823BB610AE04FF46C
:1019700080637B614FF400633B610B23FB610A23AF
:10198000BB6100BFBB79002B55D00023FB73FB79F3
:10199000022B11D1FEF706FE0346012B0CD1364B6C
:1019A000DB6B0123FB73354B5B6A03F00303032BF3
:1019B00002D10220FEF704FE304A7B69136600BFA5
:1019C000B9692F48FEF735FC0346002BF8D07B7928
:1019D000002B4ED000BFF9692948FEF72AFC0346C8
:1019E000002BF8D0FB79022B43D1FB7B002B40D09E
:1019F000224B5B6A03F00303032B03D00021022078
:101A000000F0F2F8022000F03DF8B8600122002159
:101A10000220FFF761FFB968022000F06DF8174A55
:101A20007B69136600BFF9691548FEF702FC03469F
:101A3000002BF8D01DE0114A3B69136600BF0F4B25
:101A4000D3F890300121BA6901FA02F21340002B59
:101A5000F5D17B79002B0CD000BF084BD3F8903028
:101A60000121FA6901FA02F21340002BF5D100E0DE
:101A700000BF2037BD4680BD00300E4000400E4004
:101A800090400E4080B485B000AF0346FB71FB79F7
:101A9000013B042B24D801A252F823F0B11A000014
:101AA000E11A0000BD1A0000D51A0000C91A000092
:101AB000104B1B6AC3F30803FB6014E00D4B1B695A
:101AC00003F07F03FB600EE00A4B9B6803F07F038B
:101AD000FB6008E0074B9B6903F07F03FB6002E0BB
:101AE0000023FB6000BFFB6818461437BD465DF855
:101AF000047B704700400E4080B582B000AF0346C3
:101B00003960FB71FB79013B042B63D801A252F8C9
:101B100023F000BF291B0000D51B0000571B00004D
:101B2000AB1B0000811B00003B68C3F308033B6054
:101B300000BF1A212A48FEF77CFB0346002BF8D190
:101B4000284B1B6A23F4FF7323F0010325493A68ED
:101B500013430B623FE03B6803F07F033B6000BF31
:101B600018211F48FEF765FB0346002BF8D11D4BDB
:101B70001B6923F07F021B493B6813430B612AE07A
:101B80003B6803F07F033B6000BF1E211448FEF753
:101B900050FB0346002BF8D1124B9B6823F07F02C9
:101BA00010493B6813438B6015E03B6803F07F03EB
:101BB0003B6000BF19210A48FEF73BFB0346002BA0
:101BC000F8D1084B9B6923F07F0206493B68134319
:101BD0008B6100E000BF00BF0837BD4680BD00BF7D
:101BE00040410E4000400E4080B584B000AF034637
:101BF0000A46FB711346BB71FEF7D4FC0346012B6A
:101C000003D14FF48003FB6009E0BB79002B03D1C3
:101C10004FF48003FB6002E0084BFB6000BF00BF95
:101C2000074BD3F89020FB681340FA689A42F7D12B
:101C3000012318461037BD4680BD00BFFF3F473A1D
:101C400000400E4080B487B000AFF860B9607A60A1
:101C5000FB6803F10473DA00BB6813449B007B61EB
:101C60007B697A681A6000BF1C37BD465DF8047B4B
:101C7000704780B485B000AF786039607B6803F14D
:101C8000C063FB60FB683A681A6000BF1437BD464A
:101C90005DF8047B704780B485B000AF7860396030
:101CA0007B6803F18063FB60FB683A681A6000BFE1
:101CB0001437BD465DF8047B704780B584B000AF33
:101CC000F860B9607A60B968F868FFF7E4FF79688E
:101CD000F868FFF7CEFF00BF1037BD4680BD00009B
:101CE00080B483B000AF7860044A7B68C2F82434C3
:101CF00000BF0C37BD465DF8047B7047008008408C
:101D000080B582B000AF03463960FB71FB79002BD0
:101D100016D0FB79012B13D0FB79022B10D0FB7965
:101D2000032B0DD0FB79042B0AD0FB79052B07D0B0
:101D3000FB79062B04D0FB79072B01D0FB79082B0C
:101D4000FA7913465B0013441B010C3303F1804303
:101D500003F5082301213A6801FA02F211461846F8
:101D6000FFF799FF00BF0837BD4680BD80B582B040
:101D700000AF03463960FB71FB79002B16D0FB796D
:101D8000012B13D0FB79022B10D0FB79032B0DD044
:101D9000FB79042B0AD0FB79052B07D0FB79062BA6
:101DA00004D0FB79072B01D0FB79082BFA79134675
:101DB0005B0013441B010C3303F1804303F508233C
:101DC00001213A6801FA02F211461846FFF751FF65
:101DD00000BF0837BD4680BD80B586B000AFB96092
:101DE0007A601A460346FB731346BB7300237B617C
:101DF000FB7B002B16D0FB7B012B13D0FB7B022B34
:101E000010D0FB7B032B0DD0FB7B042B0AD0FB7B7C
:101E1000052B07D0FB7B062B04D0FB7B072B01D0C7
:101E2000FB7B082B7B68072B0ED87B689B000F225F
:101E300002FA03F1FA7B7B689B0002FA03F31A466D
:101E40002B48FFF73AFF10E07B68083B7B617B691A
:101E50009B000F2202FA03F1FA7B7B699B0002FAD6
:101E600003F31A462348FFF728FF7B68072B10D897
:101E70007B689B00032202FA03F1BB6803F00302B4
:101E80007B689B0002FA03F31A461B48FFF715FF15
:101E90000FE07B699B00032202FA03F1BB6803F0A9
:101EA00003027B699B0002FA03F31A461348FFF70B
:101EB00004FFBB7B1A4679681148FFF7C3FE97F809
:101EC00020301A4679680F48FFF7BCFE01227B6874
:101ED00002FA03F31846FFF703FF97F824301A4677
:101EE00079680948FFF7AEFE00BF1837BD4680BDD0
:101EF0000084084004840840088408400C8408409A
:101F000010840840148408402884084080B584B0B8
:101F100000AFB9607B600346FB731346BB73FB7B6A
:101F2000002B16D0FB7B012B13D0FB7B022B10D098
:101F3000FB7B032B0DD0FB7B042B0AD0FB7B052BFB
:101F400007D0FB7B062B04D0FB7B072B01D0FB7B50
:101F5000082BBB7B002B0DD07B68002B05D0FB7BB7
:101F6000B9681846FFF702FF04E0FB7BB968184622
:101F7000FFF7C6FEBB68072B20D82E49FA7B134615
:101F80005B0013441B010B4404331A68BB689B00BD
:101F90000F2101FA03F3DB431340B97BBA689200C7
:101FA00001FA02F211462348FA7B194313465B00FB
:101FB00013441B0103440433196025E01D49FA7BD7
:101FC00013465B0013441B010B4408331A68BB68BB
:101FD00003F18043083B9B000F2101FA03F3DB432D
:101FE00002EA0301BA7BBB6803F18043083B9B0014
:101FF00002FA03F30F48FA7B194313465B001344BC
:102000001B01034408331960BB7B002B0DD17B6897
:10201000002B05D0FB7BB9681846FFF7A7FE04E04C
:10202000FB7BB9681846FFF76BFE00BF1037BD4653
:1020300080BD00BF0080084080B483B000AF7860EE
:1020400000BF7B681B6903F08003002BF9D07B681D
:10205000DB69DBB218460C37BD465DF8047B704780
:1020600080B483B000AF78600B46FB7000BF7B6824
:102070001B6903F04003002BF9D0FA787B685A63A0
:1020800000BF0C37BD465DF8047B704780B485B057
:1020900000AF786039607B6803F1C063FB60FB6868
:1020A0003A681A6000BF1437BD465DF8047B70477C
:1020B00080B485B000AF786039607B6803F18063DD
:1020C000FB60FB683A681A6000BF1437BD465DF8D4
:1020D000047B704780B582B000AF03463960FB7166
:1020E000FB79002B16D0FB79012B13D0FB79022B47
:1020F00010D0FB79032B0DD0FB79042B0AD0FB7990
:10210000052B07D0FB79062B04D0FB79072B01D0D8
:10211000FB79082BFA7913465B0013441B010C333F
:1021200003F1804303F5082301213A6801FA02F222
:1021300011461846FFF7BCFF00BF0837BD4680BDFB
:1021400080B582B000AF03463960FB71FB79002B8C
:1021500016D0FB79012B13D0FB79022B10D0FB7921
:10216000032B0DD0FB79042B0AD0FB79052B07D06C
:10217000FB79062B04D0FB79072B01D0FB79082BC8
:10218000FA7913465B0013441B010C3303F18043BF
:1021900003F5082301213A6801FA02F211461846B4
:1021A000FFF774FF00BF0837BD4680BD80B400AFA5
:1021B0004FF0804301225A64184BD3F8B030174ACD
:1021C00043F00103C2F8B030144BD3F8E030134AA7
:1021D00043F00803C2F8E030114B1B68104A43F487
:1021E000805313600D4BD3F8E0300C4A23F0080302
:1021F000C2F8E030094BD3F8B030084A23F00103AD
:10220000C2F8B030074B1B68064A43F4F84313602A
:1022100000BFBD465DF8047B704700BF00400E4024
:1022200034400540A4310E4080B588B000AF224A4A
:1022300007F1140307CA83E807000023FB7707F1BF
:1022400014031846FFF7E2FA012201210220FFF7EA
:1022500043FB3B1D00221A605A609A60DA60174BFC
:102260007B6040F60F633B8140F6C3137B81042300
:10227000BB7301237B743B1D1846FFF733F90346FC
:1022800083F00103DBB2002B03D004211120FEF701
:102290006BFE0B4BD3F80C31094A23F4FF3323F4C4
:1022A0008073C2F80C3101210648FEF735FA00BFF1
:1022B0002037BD4680BD00BFC475000000A24A049F
:1022C00000400E404041050080B500AF01210D489F
:1022D000FEF722FA0023042201210020FFF716FE58
:1022E0000023042202210020FFF710FE0023042215
:1022F00004210320FFF70AFE02210020FFF720FF40
:1023000000BF80BD00550A0080B485B000AF786082
:102310000023FB6004E0FB68FB60FB680133FB60AB
:102320007B6840F60B2202FB03F2FB689A42F2D86C
:1023300000BF1437BD465DF8047B704780B5C0B060
:1023400000AFFFF733FFFFF76FFF00F073FEFFF7FB
:10235000BBFF01F0F7F803F06FFF03F03DFD03F062
:1023600033FE03F0A3FB03F05BFC04F0DDF900F0A7
:1023700007FF00F073FF03F0B5F901F011F94FF416
:102380009670FFF7C1FF01F013F901F021F94FF446
:102390009670FFF7B9FF01F023F901F031F94FF41E
:1023A0009670FFF7B1FF01F033F901F041F94FF4F6
:1023B0009670FFF7A9FF01F043F901F051F94FF4CE
:1023C0009670FFF7A1FF01F053F901F061F94FF4A6
:1023D0009670FFF799FF01F063F901F071F901F0D0
:1023E000D5FE3B4600221A6004E03B461B685A1C9F
:1023F0003B461A603B461B68CC4A9342F5DD0421FC
:102400000320FFF767FECA4803F032FDC94803F016
:102410005DFFC94803F038FEC84803F035FE01F0FF
:102420001BFA02F0F1FCC64B1B78002B00F04A812E
:10243000C34B1B78313B472B00F23D8101A252F880
:1024400023F000BFD7250000E3250000EF250000A2
:10245000FB2500000726000013260000B726000019
:10246000B7260000B7260000B7260000B7260000F8
:10247000B7260000B7260000B7260000B7260000E8
:10248000B7260000B7260000B7260000B7260000D8
:10249000B7260000B7260000B7260000B7260000C8
:1024A000B7260000B7260000B7260000B7260000B8
:1024B000B7260000B7260000B7260000B7260000A8
:1024C000B7260000B7260000B7260000B726000098
:1024D0002B260000B7260000B7260000B726000014
:1024E000B7260000B7260000B7260000B726000078
:1024F000B7260000B7260000B7260000B726000068
:10250000B726000085260000B7260000B726000089
:10251000B7260000B7260000B7260000B726000047
:102520006525000059260000B7260000B7260000E8
:10253000B7260000B72600006F260000B72600006F
:10254000D1250000B7260000B12600004326000078
:102550001F260000B7260000B7260000B72600009F
:1025600037260000774803F08FFD774803F08CFD95
:10257000764803F089FD744803F086FD744803F043
:1025800083FD744803F080FD734803F07DFD7348BC
:1025900003F07AFD724803F077FD724803F074FD92
:1025A000714803F071FD714803F06EFD704803F04F
:1025B0006BFD704803F068FD6F4803F065FD6248ED
:1025C00003F062FD02F056F85F4803F05DFD73E032
:1025D00001F042F970E000F0F3FF684803F054FDA9
:1025E0006AE001F005F8664803F04EFD64E001F092
:1025F00017F8644803F048FD5EE001F029F86248EE
:1026000003F042FD58E001F03BF8604803F03CFD68
:1026100052E001F04DF85E4803F036FD4CE002F068
:10262000C5FA5C4803F030FD46E003F039FB5A4838
:1026300003F02AFD40E0594803F026FD00F08EFD2E
:102640003AE0574B1B78002B0CBF01230023DBB271
:102650001A46534B1A702FE0524B1B78002B0CBFBD
:1026600001230023DBB21A464E4B1A7024E04E4B76
:102670001B78002B0CBF01230023DBB21A464A4B08
:102680001A7019E0494803F0FFFC00F085FD03468D
:10269000184600F061FE464803F0F6FC00F0EAFD43
:1026A0000346184600F058FE424803F0EDFC03E0F4
:1026B00003F094F900E000BF3F4803F0E5FC204B35
:1026C00000221A703D4B1B78012B7FF4AAAE3B4BC6
:1026D00000221A7002F004FF314B1B78012B02D14B
:1026E000374803F0D1FC2F4B1B78012B19D100F098
:1026F000CAFC03461A463B1D3249184604F012FA3A
:102700003B1D184603F0C0FC00F0C7FC03461A4608
:102710003B1D2D49184604F005FA3B1D184603F0F1
:10272000B3FC00F055FD00F0C1FD7AE69F86010084
:10273000D0750000E87500000076000020760000EB
:10274000740800204876000050760000747600007F
:1027500088760000AC760000C4760000E0760000C9
:1027600000770000187700002877000050770000FD
:102770007077000094770000B0770000CC770000FD
:10278000D4770000DC770000E4770000EC770000ED
:10279000F4770000FC7700000C780000247800003B
:1027A000AD000020AE000020AF0000203478000013
:1027B0004C780000587800005C780000700600201B
:1027C0006478000068780000807800000648804740
:1027D0000649074A074B9A42BEBF51F8040B42F81C
:1027E000040BF8E7FDF7D4FC5D290000807F0000B2
:1027F000000000207C000020FEE700BF80B582B012
:1028000000AF00F025F878600A4BD3F808311B0AB6
:10281000C3F308033B603B6801337A68B2FBF3F310
:102820007B60054A7B6813607B6818460837BD46A5
:1028300080BD00BF00400E400800002080B400AF03
:10284000024B1846BD465DF8047B704700A24A045F
:1028500080B483B000AF334BD3F8943003F0070358
:10286000023B042B49D801A252F823F09128000022
:102870008928000081280000F12800009928000024
:10288000294B1B687B603CE04FF400437B6038E0E1
:10289000264B1B687B6034E0224B9B681B0C03F0CB
:1028A0001F03073B072B1FD801A252F823F000BFDC
:1028B000D1280000E9280000E9280000E9280000EC
:1028C000D7280000E9280000DD280000E3280000E8
:1028D000174B7B600BE0174B7B6008E0164B7B606F
:1028E00005E0164B7B6002E000237B6000BF08E040
:1028F000134B1B685B087B6003E0114B1B687B601C
:1029000000BF084BD3F800311B0A03F01F0301334B
:102910007A68B2FBF3F318460C37BD465DF8047BCA
:10292000704700BF00400E4004000020000000205F
:102930000024F4000048E801006CDC0280F0FA0298
:102940000C00002080B400AF034B1B681846BD4646
:102950005DF8047B704700BF0000002080B400AF2A
:10296000074B084A9A60064BD3F88830044A43F470
:102970007003C2F8883000BFBD465DF8047B704725
:1029800000ED00E00000000080B485B000AF78608A
:1029900039607B6803F10473DA003B6813449B00E1
:1029A000FB60FB681B6818461437BD465DF8047B66
:1029B0007047000080B400AF064B1B6803F0400373
:1029C000002B01D1012300E000231846BD465DF82D
:1029D000047B70473C300E4080B500AFFFF7EAFF44
:1029E000034683F00103DBB2002B08D100BF1221A4
:1029F0000448FFF7C9FF0346002BF8D100E000BFF1
:102A000080BD00BF04300E4080B500AFFFF7E4FF8B
:102A1000034B5B681B0C03F00303DBB2184680BD5D
:102A200000300E4080B483B000AF0346FB71FB79E9
:102A3000C3F10203102202FA03F318460C37BD4615
:102A40005DF8047B7047000080B584B000AF78600B
:102A50000B46FB70FFF7AEFF034683F00103DBB2CA
:102A6000002B28D17B68002B0FD1154BD3F80031F8
:102A70001B0A03F01F030133BB60FFF7E9FE0246A8
:102A8000BB6802FB03F3FB6001E07B68FB600D4B5E
:102A90001B78002B09D0FB680B4A934205D8FB78C2
:102AA0001946022000F012F806E0FB7819460020D3
:102AB00000F00CF800E000BF1037BD4680BD00BF3D
:102AC00000400E4098000020002D310190B587B0E5
:102AD00000AF03460A46FB711346BB71FFF76AFF5E
:102AE000034683F00103DBB2002B31D1FFF78CFFEB
:102AF00003461A46FB7993422CD0184BD3F8003189
:102B00001B0A03F01F0301337B61FFF7A1FE38614D
:102B10003B697A6902FB03F3FB60FB79022B03D16B
:102B200002213869FDF714FD0D4CFB791846FFF7BB
:102B300079FF03462361BB79002B01D0FFF74CFFDF
:102B4000FB79002B07D100213869FDF701FD02E078
:102B500000BF00E000BF1C37BD4690BD00400E40E6
:102B600000300E4080B400AF044B4AF6E8629A632E
:102B700000BFBD465DF8047B704700BF00200640E3
:102B800080B487B000AFF860B9607A60FB6803F189
:102B90000473DA00BB6813449B007B617B697A682D
:102BA0001A6000BF1C37BD465DF8047B704700000B
:102BB00080B582B000AF0346FB71FB791A46002155
:102BC0000348FFF7DDFF00BF0837BD4680BD00BFEB
:102BD0000020064080B483B000AF78607B681B782B
:102BE000002B01D0012200E000227B685B78002BE3
:102BF00001D0042300E0002313437A689278002A6E
:102C000001D0102200E0002213437A68D278002A13
:102C100001D0202200E000221A437B681B791B02AE
:102C20001A437B685B791B031A437B689B799B0380
:102C300013437A68D279002A02D04FF4004200E0B0
:102C400000221A437B681B7A1B0413437A68527A6A
:102C5000002A02D04FF4003200E00022044913435E
:102C60000B6000BF0C37BD465DF8047B704700BFAA
:102C70000020064080B582B000AFFFF773FF224B03
:102C800000221A60204B00225A601F4B00229A60DB
:102C90001D4B00221A611C4B00225A611A4B002264
:102CA0005A62194B40F2FF721A6200F02FF8164B6D
:102CB0000022DA6300237B601FE0134A7B68043341
:102CC0001B01134400221A600F4A7B6804331B0166
:102CD0001344043300221A600B4A7B681B0113441F
:102CE000483300221A60084A7B681B0113444C33A6
:102CF00000221A607B6801337B607B68022BDCD981
:102D000000BF0837BD4680BD0020064080B400AF3C
:102D100000BF074B1B6B03F02003002BF9D1044BC2
:102D20000122DA6200BFBD465DF8047B704700BF38
:102D30000020064080B483B000AF78607B681B4AF7
:102D4000934227D07B681A4A934223D07B68194A62
:102D500093421FD07B68184A93421BD07B68174A66
:102D6000934217D07B68164A934213D07B68154A6A
:102D700093420FD07B68144A93420BD07B68134A6E
:102D8000934207D07B68124A934203D07B68114A72
:102D9000934201D1012300E0002303F00103DBB2E1
:102DA00018460C37BD465DF8047B70470080014033
:102DB0000084014000880140008C014000900140E7
:102DC000009401400098014000A0014000A401408F
:102DD00000A8014000AC014080B584B000AF78602D
:102DE00039607868FFF7A6FF0023FB603B681B781B
:102DF00083F00103DBB2002B02D07B6802225A6011
:102E00007B6800225A623B689B781A063B68DB7835
:102E10001B041A433B689B799B021A433B68DB798E
:102E20001B0213433A68127A13433A685278002A15
:102E300001D0402200E0002213433A68527A002A6F
:102E400001D0802200E0002213433A68927A002ADF
:102E500001D0202200E0002213433A68D27A002AEF
:102E600001D0102200E0002213433A68127B002AAE
:102E700001D0082200E000221343FB603B681B796D
:102E8000002B02D04FF4005200E000223B685B7937
:102E9000002B02D04FF0805300E000231343FA6868
:102EA0001343FB607B68FA681A603B681B78002B51
:102EB00002D07B6801225A6000BF1037BD4680BD3A
:102EC00080B483B000AF0346FB7197F90730002B45
:102ED0000BDBFB7903F01F02074997F907305B0909
:102EE000012000FA02F241F8232000BF0C37BD4652
:102EF0005DF8047B704700BF00E100E080B485B05E
:102F000000AF786039607B6803F10473DA003B68D6
:102F100013449B00FB60FB681B6818461437BD46D2
:102F20005DF8047B7047000080B483B000AF786028
:102F3000044A7B68C2F8243400BF0C37BD465DF8F4
:102F4000047B70470080084080B483B000AF786095
:102F5000074BD3F828247B68DB4305491340C1F8AD
:102F6000283400BF0C37BD465DF8047B704700BFB6
:102F70000080084080B483B000AF7860064BD3F87F
:102F8000282405497B681343C1F8283400BF0C3757
:102F9000BD465DF8047B70470080084080B400AFF8
:102FA000034BD3F81C341846BD465DF8047B7047CC
:102FB0000080084080B582B000AF03463960FB71E5
:102FC000FB79002B16D0FB79012B13D0FB79022B58
:102FD00010D0FB79032B0DD0FB79042B0AD0FB79A1
:102FE000052B07D0FB79062B04D0FB79072B01D0EA
:102FF000FB79082BFA7913465B0013441B011C3341
:1030000003F1804303F5082339681846FFF776FF7C
:10301000034618460837BD4680BD80B483B000AF74
:1030200078607B685B6A18460C37BD465DF8047BA8
:103030007047000080B500AF01210D48FDF76CFB23
:103040000023032200210020FEF760FF002303225B
:1030500003210020FEF75AFF002303220421002051
:10306000FEF754FF0320FFF72BFF00BF80BD00BF1A
:1030700000550A0080B500AF00210020FFF79AFF3D
:103080000346184680BD80B500AF03210020FFF73E
:1030900091FF0346DBB2184680BD80B500AF042126
:1030A0000020FFF787FF0346DBB2184680BD000013
:1030B00080B582B000AFFFF771FF78607868FFF7E6
:1030C00033FF7B6803F00103002B35D01C4B1B78CA
:1030D000002B0CD01B48FFF7A0FF02461A4B1A60CA
:1030E000174B00221A70194B01221A8005E0174B6A
:1030F0001B8801339AB2154B1A80154B1B78002B95
:1031000018D01048FFF789FF0246124B1A60114B86
:103110001A680D4B1B68D31A0C4A1288B3FBF2F3E2
:103120000D4A13600A4B00221A700B4B1B6818469D
:1031300002F0CEFD01F066F800BF0837BD4680BD45
:103140009900002000A001409C000020A400002065
:103150009A000020A0000020A800002080B500AF49
:103160000120FFF7E1FE0120FFF704FF00BF80BD53
:1031700080B500AF0120FFF7E7FE00BF80BD000073
:1031800080B400AF034B00221A7000BFBD465DF84B
:10319000047B7047E800002080B400AF034B1B782D
:1031A0001846BD465DF8047B704700BFE80000206C
:1031B00080B483B000AF0346FB71044AFB791370FF
:1031C00000BF0C37BD465DF8047B7047E800002067
:1031D00080B500AF1F4B1B78032B39D801A252F8E2
:1031E00023F000BFF53100000D3200001F32000057
:1031F00031320000FFF751FF0346012B21D1154B5F
:1032000001221A70144802F03FFF1AE0FFF745FF51
:103210000346002B17D10F4B00221A7013E0FFF763
:103220003CFF0346002B10D10A4B03221A700CE01E
:10323000FFF733FF0346012B09D1064B02221A7018
:1032400005E000BF04E000BF02E000BF00E000BFF7
:1032500000BF80BDE80000209478000080B400AF7B
:10326000034B00221A7000BFBD465DF8047B704717
:10327000E900002080B400AF034B1B781846BD4620
:103280005DF8047B704700BFE900002080B483B084
:1032900000AF0346FB71044AFB79137000BF0C3783
:1032A000BD465DF8047B7047E900002080B500AFA3
:1032B000264B1B78032B46D801A252F823F000BFFF
:1032C000D132000003330000153300002733000023
:1032D000FFF7D9FE0346012B2ED11D4B1B7801337E
:1032E000DAB21B4B1A701A4B1B78EF2B24D9174BF1
:1032F00001221A70164B00221A70164802F0C4FE02
:103300001AE0FFF7C0FE0346002B17D10F4B002237
:103310001A7013E0FFF7B7FE0346002B10D10B4BDA
:1033200003221A700CE0FFF7AEFE0346012B09D111
:10333000064B02221A7005E000BF04E000BF02E065
:1033400000BF00E000BF00BF80BD00BFE90000205B
:10335000AC000020AC78000080B582B000AF03461E
:10336000FB71FB79032B1BD801A252F823F000BF9D
:10337000813300008933000091330000993300004D
:10338000094802F081FE0BE0084802F07DFE07E0EC
:10339000074802F079FE03E0064802F075FE00BF20
:1033A00000BF0837BD4680BDC4780000D878000053
:1033B000E4780000F078000080B485B000AF786059
:1033C00039607B6803F1C063FB60FB683A681A6090
:1033D00000BF1437BD465DF8047B704780B485B0EC
:1033E00000AF786039607B6803F18063FB60FB6845
:1033F0003A681A6000BF1437BD465DF8047B704719
:1034000080B582B000AF03463960FB71FB79002BB9
:1034100016D0FB79012B13D0FB79022B10D0FB794E
:10342000032B0DD0FB79042B0AD0FB79052B07D099
:10343000FB79062B04D0FB79072B01D0FB79082BF5
:10344000FA7913465B0013441B010C3303F18043EC
:1034500003F5082301213A6801FA02F211461846E1
:10346000FFF7BCFF00BF0837BD4680BD80B582B006
:1034700000AF03463960FB71FB79002B16D0FB7956
:10348000012B13D0FB79022B10D0FB79032B0DD02D
:10349000FB79042B0AD0FB79052B07D0FB79062B8F
:1034A00004D0FB79072B01D0FB79082BFA7913465E
:1034B0005B0013441B010C3303F1804303F5082325
:1034C00001213A6801FA02F211461846FFF774FF2B
:1034D00000BF0837BD4680BD80B483B000AF03464F
:1034E0003960FB71FB79002B16D0FB79012B13D0CF
:1034F000FB79022B10D0FB79032B0DD0FB79042B29
:103500000AD0FB79052B07D0FB79062B04D0FB7979
:10351000072B01D0FB79082B01223B6802FA03F349
:103520000749FA79184613465B0013441B010B4404
:103530001833186000BF0C37BD465DF8047B704738
:103540000080084080B500AF01211448FDF7E4F881
:103550000023042208210020FEF7D8FC00230422C7
:1035600005210320FEF7D2FC0023042206210320BC
:10357000FEF7CCFC0023042208210320FEF7C6FC42
:103580000023042202210320FEF7C0FC00230422B2
:1035900003210320FEF7BAFC00BF80BD00550A00DE
:1035A00080B500AF08210020FFF760FF00BF80BD9D
:1035B00080B500AF08210020FFF722FF00BF80BDCB
:1035C00080B500AF08210020FFF786FF00BF80BD57
:1035D00080B500AF05210320FFF748FF00BF80BD85
:1035E00080B500AF05210320FFF70AFF00BF80BDB3
:1035F00080B500AF05210320FFF76EFF00BF80BD3F
:1036000080B500AF06210320FFF730FF00BF80BD6B
:1036100080B500AF06210320FFF7F2FE00BF80BD9A
:1036200080B500AF06210320FFF756FF00BF80BD25
:1036300080B500AF08210320FFF718FF00BF80BD51
:1036400080B500AF08210320FFF7DAFE00BF80BD80
:1036500080B500AF08210320FFF73EFF00BF80BD0B
:1036600080B500AF02210320FFF700FF00BF80BD3F
:1036700080B500AF02210320FFF7C2FE00BF80BD6E
:1036800080B500AF02210320FFF726FF00BF80BDF9
:1036900080B500AF03210320FFF7E8FE00BF80BD27
:1036A00080B500AF03210320FFF7AAFE00BF80BD55
:1036B00080B500AF03210320FFF70EFF00BF80BDE0
:1036C00080B483B000AF634B0F221A70614B0322AA
:1036D0005A70604B01229A705E4B0222DA705D4B89
:1036E00000221A715B4B00225A715A4B00229A71C8
:1036F0000023FB7107E0FB79564A13440022DA717C
:10370000FB790133FB71FB790E2BF4D90023FB719C
:103710003EE0FA794F4913465B0013445B000B44CB
:10372000163300221A70FA794A4913465B00134493
:103730005B000B44173300221A70FA79454913468F
:103740005B0013445B000B44183300221A70FA79B3
:10375000404913465B0013445B000B4419330022BD
:103760001A70FA793B4913465B0013445B000B4423
:103770001A3300221A70FA79364913465B00134453
:103780005B000B441B3300221A70FB790133FB7181
:10379000FB79092BBDD92F4B1D225A752D4B0F22BA
:1037A0009A752C4BFF22DA752A4BFF221A76294B89
:1037B00007225A76274B02229A76264B0222DA7685
:1037C000244B0F221A77234BFF225A77214B0222D8
:1037D0009A77204B0822DA771E4B022283F82020AA
:1037E0001C4B022283F821201A4B0F2283F822203F
:1037F000184B002283F82320164BFF2283F8242045
:10380000144B092283F82520124B022283F826202C
:10381000104B022283F827200E4B0F2283F828201A
:103820000C4B002283F829200A4B022283F82A201D
:10383000084B042283F82B20064B042283F82C200B
:10384000044B022283F82D2000BF0C37BD465DF8E3
:10385000047B7047EC00002080B5C0B000AF0023AF
:103860007B6007F10803F6220021184603F051F9A6
:10387000B04802F009FCB04B1B781A463B1DAF491B
:10388000184603F04FF93B1D184602F0FDFBAA4B0A
:103890005B781A463B1DAA49184603F043F93B1DC5
:1038A000184602F0F1FBA44B9B781A463B1DA54934
:1038B000184603F037F93B1D184602F0E5FB9E4B16
:1038C000DB781A463B1DA049184603F02BF93B1D37
:1038D000184602F0D9FB984B1B791A463B1D9B49B1
:1038E000184603F01FF93B1D184602F0CDFB924B22
:1038F0005B791A463B1D9649184603F013F93B1DA8
:10390000184602F0C1FB8C4B9B791A463B1D91492E
:10391000184603F007F93B1D184602F0B5FB8E4828
:1039200002F0B2FB002387F8FF3010E097F8FF3079
:103930005A1C3B1D8949184603F0F4F83B1D1846F4
:1039400002F0A2FB97F8FF30013387F8FF3097F8B9
:10395000FF300E2BEAD9824802F096FB002387F84D
:10396000FF301EE097F8FF30734A1344DB79002BD9
:103970000FD097F8FF30704A1344DB791A463B1D8D
:103980007649184603F0CEF83B1D184602F07CFB42
:1039900002E0744802F078FB97F8FF30013387F8B3
:1039A000FF3097F8FF300E2BDCD96F4802F06CFB2C
:1039B0006E4802F069FB002387F8FF30002387F888
:1039C000FF30A9E097F8FF205B4913465B001344E2
:1039D0005B000B4416331B78002B00F0988097F89F
:1039E000FF20554913465B0013445B000B4416331C
:1039F0001B781A463B1D5E49184603F093F83B1DA1
:103A0000184602F041FB97F8FF204B4913465B0034
:103A100013445B000B4417331B78FF2B03D155482D
:103A200002F032FB13E097F8FF20434913465B0096
:103A300013445B000B4417331B781A463B1D4E4959
:103A4000184603F06FF83B1D184602F01DFB97F86F
:103A5000FF20394913465B0013445B000B441833C5
:103A60001B78FF2B03D1434802F00EFB13E097F8BD
:103A7000FF20314913465B0013445B000B441833AD
:103A80001B781A463B1D3C49184603F04BF83B1D7A
:103A9000184602F0F9FA97F8FF20274913465B0011
:103AA00013445B000B4419331B781A463B1D334902
:103AB000184603F037F83B1D184602F0E5FA97F870
:103AC000FF201D4913465B0013445B000B441A336F
:103AD0001B781A463B1D2849184603F023F83B1D66
:103AE000184602F0D1FA97F8FF20134913465B00FD
:103AF00013445B000B441B331B781A463B1D2049C3
:103B0000184603F00FF83B1D184602F0BDFA97F86F
:103B1000FF30013387F8FF3097F8FF30092B7FF62D
:103B200051AF184802F0B0FA00BF07F58077BD46E4
:103B300080BD00BFFC780000EC0000200C79000084
:103B400020790000307900004079000050790000B1
:103B5000607900007079000080790000B879000079
:103B6000C0790000C8790000CC790000007A00001C
:103B7000287A0000347A00003C7A0000447A000081
:103B8000507A00005C7A000090B48AB000AF03461F
:103B9000FB710B46BB7113467B715D4B07F108044B
:103BA0000FCB84E80F0000237B6259E059497A6A01
:103BB00013465B0013445B000B4416331B78FA7901
:103BC0009A424AD153497A6A13465B0013445B0018
:103BD0000B4417331B78FB764E497A6A13465B0019
:103BE00013445B000B4418331B78BB76FB7EFF2B22
:103BF00009D1BB7EFF2B06D1BB68B3F1FF3F2CD1AF
:103C00007B6ABB6029E0FB7EFF2B0AD1BA7E7B7901
:103C10009A4206D1FB68B3F1FF3F1ED17B6AFB607D
:103C20001BE0FA7EBB799A4209D1BB7EFF2B06D1FD
:103C30003B69B3F1FF3F10D17B6A3B610DE0FA7E37
:103C4000BB799A4209D1BA7E7B799A4205D17B69C8
:103C5000B3F1FF3F01D17B6A7B617B6A01337B62F9
:103C60007B6A092BA2DD4FF0FF333B620323FB612C
:103C700015E0FB699B0007F12802134453F8203C30
:103C8000B3F1FF3F08D0FB699B0007F12802134402
:103C900053F8203C3B6205E0FB69013BFB61FB699B
:103CA000002BE6DA3B6AB3F1FF3F0AD11A4B002240
:103CB0001A70194B00225A70174B00229A70012378
:103CC00021E014493A6A13465B0013445B000B443D
:103CD00019331A78104B1A700E493A6A13465B0072
:103CE00013445B000B441A331A780B4B5A70094982
:103CF0003A6A13465B0013445B000B441B331A788B
:103D0000054B9A70002318462837BD4690BC704773
:103D1000907A0000EC0000204001002080B483B0C5
:103D200000AF78607B680D4A93420BD07B680C4AE9
:103D3000934207D07B680B4A934203D07B680A4AC0
:103D4000934202D14FF0FF3301E04FF6FF73184664
:103D50000C37BD465DF8047B704700BF00A00140F2
:103D600000A4014000A8014000AC014080B582B031
:103D700000AF786039607868FFF7D0FF7B683A68F9
:103D80005A6200BF0837BD4680BD80B485B000AF21
:103D9000786039607B6803F1C063FB60FB683A6858
:103DA0001A6000BF1437BD465DF8047B704780B4CD
:103DB00085B000AF786039607B6803F18063FB6099
:103DC000FB683A681A6000BF1437BD465DF8047B93
:103DD0007047000080B483B000AF7860044A7B680D
:103DE000C2F8243400BF0C37BD465DF8047B704731
:103DF0000080084080B582B000AF03463960FB7197
:103E0000FB79002B16D0FB79012B13D0FB79022B09
:103E100010D0FB79032B0DD0FB79042B0AD0FB7952
:103E2000052B07D0FB79062B04D0FB79072B01D09B
:103E3000FB79082BFA7913465B0013441B010C3302
:103E400003F1804303F5082301213A6801FA02F2E5
:103E500011461846FFF7ABFF00BF0837BD4680BDCF
:103E600080B582B000AF03463960FB71FB79002B4F
:103E700016D0FB79012B13D0FB79022B10D0FB79E4
:103E8000032B0DD0FB79042B0AD0FB79052B07D02F
:103E9000FB79062B04D0FB79072B01D0FB79082B8B
:103EA000FA7913465B0013441B010C3303F1804382
:103EB00003F5082301213A6801FA02F21146184677
:103EC000FFF763FF00BF0837BD4680BD80B483B0F5
:103ED00000AF03463960FB71FB79002B16D0FB79EC
:103EE000012B13D0FB79022B10D0FB79032B0DD0C3
:103EF000FB79042B0AD0FB79052B07D0FB79062B25
:103F000004D0FB79072B01D0FB79082B01223B68F9
:103F100002FA03F30749FA79184613465B00134483
:103F20001B010B441833186000BF0C37BD465DF809
:103F3000047B70470080084080B485B000AF786093
:103F40000B46FB70FB78002B02D0FB78202B01D9AD
:103F500000230DE0FB78013BFB73FB7B7A6822FAC0
:103F600003F303F00103002B01D0012300E0002341
:103F700018461437BD465DF8047B704780B487B09F
:103F800000AF78607B6823F001037B61124BFB601C
:103F900000233B6113E03B69C3F11F037A6922FAF6
:103FA00003F303F00103002B06D0FA683B6922FA01
:103FB00003F37A6953407B613B6901333B613B69A1
:103FC000142BE8DD7A6940F2FE73134018461C3763
:103FD000BD465DF8047B7047000020ED80B485B0DD
:103FE00000AF78600023FB600023BB600DE07A68BF
:103FF000BB6822FA03F303F00103002B02D0FB6835
:104000000133FB60BB680133BB60BB681F2BEEDD77
:10401000FB6803F00103002B0CBF01230023DBB27C
:1040200018461437BD465DF8047B704780B584B0F0
:1040300000AF786039603B6800221A707868FFF73B
:104040009DFF0346002B07D17868FFF7C7FF0346A3
:10405000002B01D07B6821E00023FB601AE00122E5
:10406000FB6802FA03F37A685340BB60B868FFF755
:1040700085FF0346002B0AD1B868FFF7AFFF034660
:10408000002B04D03B6801221A70BB6806E0FB6875
:104090000133FB60FB681F2BE1DD7B68184610379E
:1040A000BD4680BD80B48DB000AF78607B68002BCA
:1040B00063D040F269737B610023FB6255E07B684B
:1040C000FA6A53F822303B613B692F4A934248D049
:1040D0003B69DB0AFB60FB689B02BB6214237B62CB
:1040E00011E07B6A0A3301229A40BB6A1340002B1D
:1040F00006D07A697B6A02FA03F3BA6A5340BB625C
:104100007B6A013B7B627B6A002BEADAFB68DA029E
:10411000BB6A590040F2FE730B4013433B623B6A9B
:10412000FB610023FB760CE0FB695BB203F001034B
:104130005AB297F91B3053405BB2FB76FB695B08C0
:10414000FB61FB69002BEFD1FB7E002B03D03B6AA8
:1041500043F001033B627B68FA6A396A43F8221034
:1041600000E000BFFB6A0133FB627B68B3F880327A
:104170001A46FB6A9342A2DB00E000BF3437BD461B
:104180005DF8047B704700BF97C1897A80B582B023
:1041900002AF164B00221A70154B002283F88222C0
:1041A000134B0022A3F88022124B00221A70124BEC
:1041B00000221A60114B00221A70114B00221A7053
:1041C00001230193012300930123002200210020F9
:1041D000FDF702FE0120FFF7FDFDFEF7BFFF01F036
:1041E0001FFD01F047FD00BFBD4680BDB0000020AF
:1041F000D8030020C1000020B40000209900002056
:104200009A00002080B400AF044BDB69034A5B08CE
:10421000536200BFBD465DF8047B704700840140D7
:1042200080B500AF084B00221A7002210020FFF772
:1042300017FEFFF7D5F9FFF7EBF9FFF7A7FF034BE1
:1042400000221A7000BF80BDC1000020B000002015
:1042500080B582B000AF0346FB71FB79012B07D11B
:1042600001210020FFF7FCFD074801F00DFF06E0EB
:1042700001210020FFF7BEFD044801F005FF00BF4B
:104280000837BD4680BD00BFA07A0000A47A0000B8
:1042900080B500AF574B1B78032B00F2A88001A21A
:1042A00052F823F0E1430000B5420000F342000061
:1042B0003D430000504B1B889BB201339AB24E4BDA
:1042C0001A8001210020FFF701FE4B4B1B889BB297
:1042D000B3F5107F40F08680474B00221A80474B91
:1042E00000221A80434B02221A70454801F0CCFE8E
:1042F00078E0414B1B889BB201339AB23E4B1A8047
:104300003D4B1B889BB2DBB2C3F12103DBB21946E4
:104310003C48FFF711FE03461846FFF799FF364B5E
:104320001B889BB2202B5FD1334B00221A80314B6C
:1043300003221A70324801F0A7FE55E02E4B1B886D
:104340009BB201339AB22C4B1A802C4B1B889BB228
:104350001A462D4B53F82220274B1B889BB2DBB209
:10436000C3F12103DBB219461046FFF7E5FD034612
:104370001846FFF76DFF204B1B889BB2202B35D1D1
:104380001D4B00221A801D4B1B889BB201339AB231
:104390001A4B1A801A4801F077FE1B4BB3F88022A3
:1043A000164B1B889BB29A4208D8FFF739FF174873
:1043B00001F06AFE164801F067FE17E00F4B1B88FC
:1043C0009BB203F00F039BB2002B0FD10A4B0022CC
:1043D0001A80084B02221A70094801F055FE05E0C8
:1043E00000BF04E000BF02E000BF00E000BF00BF6C
:1043F00080BD00BFC1000020C2000020C40000201A
:10440000A87A0000D815D27C44010020AC7A0000C4
:10441000D07A000080B5AAB000AFFEF72BFE0346AD
:10442000002B14BF01230023DBB287F8A730854B94
:104430001B685A0097F8A7301343824A1360824BD7
:104440001B78DBB2042B00F2FA8001A252F823F0B1
:1044500065440000A9440000E34400003745000023
:1044600029460000FFF7ACF8764B1B68B3F1AA3F72
:1044700005D0744B1B68B3F1553F40F0D980724BA7
:1044800001221A7001F03EFC704B00221A800021BC
:104490006F48FFF76BFC6F4B00221A806E4B0122B6
:1044A0001A70FFF77DF8C3E0684B1B889BB201339D
:1044B0009AB2664B1A80634B1B68B3F1AA3F00F0B7
:1044C000B980604B1B68B3F1553F00F0B3805E4B81
:1044D00002221A70614B01221A705C4B00221A8072
:1044E000A8E0584B1B685E4A93420FD1564B0322FB
:1044F0001A70564B00221A805A4B01221A705A4BDE
:104500000022A3F88022FEF733FE95E04F4B1B8874
:104510009BB201339AB24D4B1A804C4B1B889BB215
:104520001F2B40F2898001F0EDFBFEF717FE464B92
:1045300000221A7080E0454B1B889BB201339AB26F
:10454000424B1A80474B1B78002B09D13F4B1B88ED
:104550009BB2012B04D1FEF701FE444B00225A62AC
:10456000404B1B78002B06D1384B1B889BB2022B8B
:1045700001D1FEF7FDFD354B1B889BB21F2B5DD98A
:10458000324B00221A80374B1B78002B1BD12D4B4E
:104590001B68334A934229D0334B012283F882228D
:1045A000294B00221A70314BDA693B1D30491846FD
:1045B00002F0B8FA3B1D184601F066FD01F0A2FBBF
:1045C000FEF7CCFD3BE0284BB3F880329F2B0DD893
:1045D000254BB3F880325A1C91B2234AA2F88012BC
:1045E0001946184B1B68204A42F821301D4B1B7896
:1045F0000133DAB21B4B1A701A4B1B78102B02D9FD
:10460000184B00221A70184BB3F880329F2B15D923
:10461000154B012283F882220B4B00221A7001F005
:1046200071FBFEF79BFD09E0FFF732FE00BF06E0DD
:1046300000BF04E000BF02E000BF00E000BFA837F9
:10464000BD4680BDB4000020B0000020B8000020AE
:1046500000A00140A4000020990000209A00002042
:10466000D815D27CD0000020D8030020008401405F
:10467000D87A000080B500AF194801F005FD194B4C
:104680001B78DBB2042B21D801A252F823F000BF23
:10469000A5460000AD460000B5460000BD4600003E
:1046A000C5460000104801F0EFFC13E00F4801F090
:1046B000EBFC0FE00E4801F0E7FC0BE00D4801F0C9
:1046C000E3FC07E00C4801F0DFFC03E00B4801F0DD
:1046D000DBFC00BF0A4801F0D7FC00BF80BD00BF73
:1046E000EC7A0000B0000020F87A0000087B00009F
:1046F000187B0000287B0000387B00004C7B00000A
:10470000547B000080B588B000AF786039607B686A
:10471000DB0AC3F313033B610023FB6160E0344B0E
:104720001B685B00324A1360FB69C3F113033A69EB
:1047300022FA03F303F00103002B05D02C4B1B6876
:1047400043F001032A4A13602A4B1B780133DAB283
:10475000284B1A70274B1B78072B3ED10023FB7682
:1047600000237B6118E001227B6902FA03F31A46F9
:104770001F4B1B681340002B0BD07B69C3F1060352
:10478000012202FA03F35AB297F91B3013435BB2CA
:10479000FB767B6901337B617B69062BE3DDFB7E66
:1047A0001F2B14D9FB7E7E2B11D8386802F0DAF962
:1047B000F860FB68772B0AD83A68FB681344FA7EE6
:1047C0001A70FB6801333A68134400221A70084BD0
:1047D00000221A60074B00221A70FB690133FB614B
:1047E000FB69132B9BDD00BF2037BD4680BD00BF9A
:1047F000BC000020C000002080B483B000AF78600F
:104800007B68002B78D07B689B681B0CDBB203F0C5
:104810001F03DAB27B6883F887227B685B685B0ED4
:10482000DBB203F03F03DAB27B6883F885227B6852
:104830001B681B0EDBB203F00F03DAB27B6883F850
:1048400086227B681B681B0CDBB203F01F03DAB205
:104850007B6883F888227B689B689B0EDBB203F041
:104860001F03DAB27B6883F889227B681B681B0B05
:10487000DBB203F00F03DAB27B6883F88A227B682D
:104880005B681B0CDBB203F01F03DAB27B6883F8B2
:104890008B227B681B685B0DDBB203F00703DAB287
:1048A0007B6883F88C227B681B681B0FDBB203F0EC
:1048B0000303DAB27B6883F88D227B689B685B0D0B
:1048C000DBB203F01F03DAB27B6883F88E227B68C9
:1048D0005B68DB0ADBB203F01F03DAB27B6883F8A4
:1048E0008F227B685B685B0DDBB203F00F03DAB2EB
:1048F0007B6883F8902200E000BF0C37BD465DF86E
:10490000047B704780B487B000AF78607B68002B71
:1049100000F0AD807B681B687B617B6923F04053AE
:104920007B617B6923F070637B617B6923F46003A7
:104930007B617B6923F4F8137B617B6923F470430B
:104940007B617B6893F88D321B0703F040537A69D3
:1049500013437B617B6893F886321B0603F0706318
:104960007A6913437B617B6893F88C325B0503F4AF
:1049700060037A6913437B617B6893F888321B0478
:1049800003F4F8137A6913437B617B6893F88A32E6
:104990001B039BB27A6913437B617B687A691A6057
:1049A0007B685B683B613B6923F0FC433B613B698F
:1049B00023F0F0733B613B6923F4F8133B613B69DF
:1049C00023F478433B617B6893F885325B0603F000
:1049D000FC433A6913433B617B6893F890325B0573
:1049E00003F0F0733A6913433B617B6893F88B32B1
:1049F0001B0403F4F8133A6913433B617B6893F893
:104A00008F32DB029BB23A6913433B617B683A69A0
:104A10005A607B689B68FB60FB6823F0F843FB608F
:104A2000FB6823F07873FB60FB6823F4F813FB60EA
:104A30007B6893F889329B0603F0F843FA681343C6
:104A4000FB607B6893F88E325B0503F07873FA683D
:104A50001343FB607B6893F887321B0403F4F8135D
:104A6000FA681343FB607B68FA689A6000E000BF55
:104A70001C37BD465DF8047B7047000080B5AEB0C2
:104A800002AF78607B68002B00F089807B6893F828
:104A90008932013B002B00DA03339B10DBB2033376
:104AA00087F8AE307B6893F88932013B5A4203F0B5
:104AB000030302F0030258BF5342C3F10303DBB206
:104AC0001A4692001344DBB20B3387F8AD307B6893
:104AD00093F8913287F8AF30FEF7D5FA0346012BF1
:104AE00004D197F8AF30103387F8AF30FEF7D5FA1E
:104AF0000346012B04D197F8AF30083387F8AF3065
:104B000097F8AE207B6853F8221097F8AD301F223B
:104B100002FA03F3DB4397F8AE2019407B6843F8B1
:104B2000221097F8AE207B6853F8221097F8AF3028
:104B300003F01F0297F8AD3002FA03F397F8AE20A6
:104B400019437B6843F822107B68DB6ADB0D87F82A
:104B5000AC3097F8AC30013387F8AC307B68DB6A57
:104B600023F0FF427B68DA627B68DA6A97F8AC3040
:104B7000DB051A437B68DA6297F8AF2097F8AE102E
:104B800097F8AD3007F10C0000930B46064901F091
:104B9000C9FF07F10C03184601F076FA00E000BFE8
:104BA000B037BD4680BD00BF587B000090B5ABB0AC
:104BB00002AFFEF70DFD01F073F8FEF7D9FA7B4B5B
:104BC00004221A707A4B93F88F32002B53D1FEF7E0
:104BD000E3FA0346012B0FD1754B93F88922744BEE
:104BE00083F88F22724B0C2283F890220220FEF76A
:104BF000DFFA704801F048FAFEF7CEFA0346032BBD
:104C00000FD16B4B93F88922694B83F88F22684B45
:104C1000042283F890220020FEF7CAFA664801F0C9
:104C200033FAFEF727FB0346012B0FD1604B93F8B5
:104C300089225F4B83F88F225D4B0B2283F89022F1
:104C40000220FEF723FB5D4801F01EFAFEF712FB7F
:104C50000346032B0FD1564B93F88922544B83F80C
:104C60008F22534B032283F890220020FEF70EFB85
:104C7000534801F009FA4E48FFF744FE4C4B93F8B5
:104C80008C32012B02D14A48FFF7F8FE4848FFF763
:104C900009FA4C4801F0F8F94B4801F0F5F9444B9A
:104CA00093F88C32012B04D0022B0AD0002B04D0B5
:104CB0000BE0464801F0E8F907E0454801F0E4F967
:104CC00003E0444801F0E0F900BF394B93F8863225
:104CD0001946374B93F889321C46354B93F8883286
:104CE0001A46334B93F88A32384601930092234692
:104CF0000A46394901F016FF3B46184601F0C4F94F
:104D00002B4B93F887321A46294B93F88532194674
:104D1000274B93F88B32384600930B462F4901F00E
:104D200001FF3B46184601F0AFF92D4B1B781A46A0
:104D30002B4B5B7819462A4B9B78384600930B46E1
:104D4000284901F0EFFE3B46184601F09DF9264840
:104D500001F09AF9254B93F88D32012B0BD0022BE1
:104D600005D0002B0BD1224801F08EF907E0214835
:104D700001F08AF903E0204801F086F900BF1F4BDB
:104D800001221A701E4B00221A8001210020FFF719
:104D900031F802210020FFF72DF800F0B3FF00F0FA
:104DA00069FF00BFA437BD4690BD00BFB000002022
:104DB00044010020807B0000A47B0000C47B000035
:104DC000E87B0000087C0000307C0000387C00009C
:104DD000407C0000487C0000547C0000787C00008F
:104DE00040010020987C0000C47C0000D803002013
:104DF000D87C0000E47C0000F07C0000C1000020B2
:104E0000C20000200000000090B5D9B002AFB64B40
:104E100093F88232DBB283F00103DBB2002B40F067
:104E2000568307F10803184680231A46002101F033
:104E300070FEAE4B00221A60AD4B00221A70AD48D6
:104E400001F022F9A84B012283F883220023A7F85E
:104E5000563181E0B7F85631A34A52F82330C7F8EB
:104E60003031D7F83031A44A93420ED1B7F85631D9
:104E70005A1C07F18803A149184601F053FE07F1B7
:104E80008803184601F000F961E0FB1D00221A704A
:104E9000FB1D1946D7F83001FFF7C8F8C7F82C01F9
:104EA000D7F82C01FFF76AF80346002B08D1D7F892
:104EB0002C01FFF793F80346002B01D0012300E0FB
:104EC000002387F82B3197F82B3103F0010387F883
:104ED0002B3197F82B31002B07D0B7F85631824988
:104EE000D7F82C2141F8232003E07F4B002283F8E0
:104EF0008322B7F85631591CB7F856317A4A52F81E
:104F0000234097F82B31002B01D07D4B00E07D4BE7
:104F1000FA1D1278002A01D07B4A00E07B4A07F193
:104F200088000192009323460A46794901F0FAFD70
:104F300007F18803184601F0A7F8B7F85631022B9D
:104F400005D1694B93F88322674B83F88422B7F825
:104F500056310133A7F85631634BB3F88032B7F8B6
:104F600056219A42FFF476AF5F48FFF745FC5E4B4F
:104F700093F88332002B0ED05B4B93F885321B01E4
:104F8000594AB2F8802293420CBF01230023DAB2BF
:104F9000554B83F88322544B93F88332002B05D072
:104FA0005C4801F071F8FEF72BFB10E05A4801F065
:104FB0006BF84D4B93F88432002B05D0574801F025
:104FC00063F8FEF71DFB02E0554801F05DF8464B23
:104FD00093F88C32012B04D0022B0AD0002B04D082
:104FE0000BE0504801F050F807E04F4801F04CF852
:104FF00003E04E4801F048F800BF3B4B93F886327F
:105000001946394B93F889321C46374B93F888324E
:105010001A46354B93F88A3207F1880001930092C3
:1050200023460A46424901F07DFD07F188031846F0
:1050300001F02AF82C4B93F887321A462A4B93F842
:1050400085321946284B93F88B3207F1880000937C
:105050000B46384901F066FD07F18803184601F058
:1050600013F8354B1B684FF000041A4623461CA169
:10507000D1E9000101F08AFB03460C46C7F84C3128
:10508000D7F84C312D4AA2FB03239C09D7F84C21B9
:105090002A4BA3FB02139B094FF47A7101FB03F324
:1050A000D31A07F188002246254901F03BFD07F19C
:1050B0008803184600F0E8FF224800F0E5FF0A4B9D
:1050C00093F88D32012B43D0022B05D0002B43D116
:1050D0001D4800F0D9FF3FE01C4800F0D5FF3BE041
:1050E00000D088C310000000D8030020BC000020BE
:1050F000C0000020FC7C000097C1897A147D00006C
:10510000247D0000287D00002C7D0000347D0000FF
:10511000387D00004C7D0000587D0000647D00005B
:10512000707D0000387C0000407C0000487C00005E
:10513000547C00007C7D0000A8000020D34D62104C
:105140009C7D0000AC7D0000B87D0000C07D0000AB
:10515000C44800F099FF00BFC34B93F88E321A4643
:10516000C14B93F88F321946BF4B93F8903207F139
:10517000880000930B46BD4901F0D4FC07F1880379
:10518000184600F081FFBA4800F07EFF00F026FCD0
:10519000B54B93F88332002B00F0CD80B24B93F8DF
:1051A0008C32002B40F0C78007F1080300221A70F0
:1051B000B04B00221A60B04B00221A70002387F80F
:1051C00055310323A7F8523197E0B7F85231A64A78
:1051D00052F82330C7F84831D7F84831A74A9342EC
:1051E00000F08380BB1D00221A70BB1D1946D7F842
:1051F0004801FEF71BFFC7F84401D7F84401FEF74A
:10520000BDFE0346002B72D1D7F84401FEF7E6FE3F
:10521000034683F00103DBB2002B68D1D7F8443199
:10522000002B56DB97F85531002B11D0944800F035
:105230002BFF07F108031B78002B02D007F10803AE
:1052400000E0904B184600F01FFF8F4800F01CFF55
:10525000B7F85231DBB203F00F0387F8433197F808
:1052600043315B0887F84231D7F844315B0BC3F315
:105270001103C7F83C31D7F83C31DA0097F84231D6
:1052800003F007031343C7F83831D7F84431DB0A7A
:10529000DBB203F0030387F8373197F8373107F1B2
:1052A0008800D7F83821794901F03CFC07F18803E0
:1052B000184600F0E9FE07F1080300221A706D4B52
:1052C00000221A606C4B00221A70012387F85531B6
:1052D0000EE097F85531002B0AD007F10803194664
:1052E000D7F84401FFF70EFA02E000BF00E000BF6C
:1052F000B7F852310133A7F852315B4BB3F8803223
:10530000B7F852219A42FFF460AF97F85531002B5D
:1053100011D05B4800F0B8FE07F108031B78002BA2
:1053200002D007F1080300E0564B184600F0ACFE2F
:10533000554800F0A9FE564800F0A6FE4A4B002250
:1053400083F88222484B93F88C32022B00F0B48011
:10535000454B93F88332002B00F0B680424B93F814
:105360008822414B93F88632013B4A490B44DB7952
:105370009A4252D13C4B93F886023B4B93F88A12E7
:10538000394B93F889321A46FEF7FEFB0346002B91
:105390003FD1FEF74DF9404A334B104619464FF4C2
:1053A00025731A4601F0AAFB3B4B93F88D32012B73
:1053B00005D13A4B9A78384B83F8882204E0374B72
:1053C0001A78354B83F88822274B93F88632013BB5
:1053D000304A1344DA79304B83F889222E4B93F804
:1053E0008D32022B0ED12E4B01221A70294B9B7845
:1053F00001331A462B4B1A60264B5B7801331A4651
:10540000294B1A60244B012283F89122FFF7CEFB2F
:105410005AE0264800F038FE56E0254800F034FEF9
:105420001F4B1B78012B03D01D4B1B78022B4BD13C
:105430000D4B93F88622184B93F886329A4243D14B
:10544000094B93F88922144B93F888329A423BD146
:10545000134B00221A70FEF7F3F8164800F014FE02
:1054600032E000BFC87D0000D8030020D47D0000DA
:10547000007E0000BC000020C000002097C1897A97
:10548000087E0000107E0000547B00001C7E00009F
:10549000347E0000EC000020440100204001002088
:1054A000C6000020C8000020CC000020447E000080
:1054B000747E0000807E0000074B93F88432002B3E
:1054C00002D0064800F0E0FDFEF7A2F800E000BFC1
:1054D00007F5AE77BD4690BDD8030020947E00004E
:1054E00080B500AF4A4B1B78DBB2002B40F08D80BB
:1054F000484B1B78012B03D0022B41D0002B84E0BA
:10550000454B1B68013B444A1360434B1B68002B0F
:1055100078D1424B1B68013B404A13603F4B1B68EC
:10552000002B1DD13B4B02221A703D4B5A783D4B4C
:1055300083F888223C4BDB7801331A46374B1A60DC
:10554000394B5B7801331A46334B1A60374800F009
:105550009BFD344B032283F89122FFF727FB51E098
:10556000314B5B7801331A462B4B1A60304800F000
:105570008BFD2C4B022283F89122FFF717FB41E0B1
:10558000254B1B68013B244A1360234B1B68002BEF
:105590003AD1224B1B68013B204A13601F4B1B680A
:1055A000002B1FD11B4B00221A701D4B9A781D4BEC
:1055B00083F888221B4B012283F88D22174B00228F
:1055C0001A60154B00221A601A4800F05DFD154B59
:1055D00093F891320433DAB2124B83F89122FFF739
:1055E000E5FA11E0104B5B7801331A460A4B1A605A
:1055F000114800F049FD0B4B032283F89122FFF77D
:10560000D5FA01E000BF00E000BF00BF80BD00BFD1
:10561000B0000020C6000020CC000020C800002000
:105620004001002044010020EC000020B87E000072
:10563000C87E0000D47E0000E47E000080B400AF8D
:10564000034B5B691846BD465DF8047B704700BF9D
:105650000020064080B483B000AF7860044A7B68C5
:10566000536100BF0C37BD465DF8047B704700BF37
:105670000020064080B400AF034B044A9A6300BF89
:10568000BD465DF8047B7047002006401751FFFFC0
:1056900080B400AF034B1B691846BD465DF8047B20
:1056A000704700BF0020064080B483B000AF786030
:1056B000044A7B68136100BF0C37BD465DF8047B6C
:1056C000704700BF0020064080B400AF044B4AF68C
:1056D000E8629A6300BFBD465DF8047B704700BF77
:1056E0000020064080B584B000AF01211648FBF7CA
:1056F00013F803211548FBF737FC01211448FBF789
:105700000BF8FDF7B7FAFFF7DFFF124A3B1D07CA98
:1057100003C31A8000233B7100237B710023BB71FC
:105720000023FB7100237B720F233B7201233B7329
:105730003B1D1846FDF74EFA0120FDF739FA00BF70
:105740001037BD4680BD00BF30053E000500240077
:10575000A0091400F47E000080B584B000AF78602A
:105760007B68002B00F0A3807B689A78524BA3FBE8
:105770000213D9080B469B000B445B00D31ADBB223
:1057800019467B689B784C4AA2FB0323DB08DBB2FB
:105790001B0141EA03007B685A78474BA3FB0213C5
:1057A000D9080B469B000B445B00D31ADBB21B02EB
:1057B00040EA03027B685B783F49A1FB0313DB08E7
:1057C000DBB21B0342EA03007B681A783A4BA3FB67
:1057D0000213D9080B469B000B445B00D31ADBB2C3
:1057E0001B0440EA03027B681B783349A1FB0313C7
:1057F000DB08DBB21B051343FB607B68DA782E4BBA
:10580000A3FB0213D9080B469B000B445B00D31A81
:10581000DBB219467B68DB78274AA2FB0323DB084F
:10582000DBB21B0141EA03007B681A79224BA3FB20
:105830000213D9080B469B000B445B00D31ADBB262
:105840001B0240EA03027B681B791B49A1FB03137F
:10585000DB08DBB21B0342EA03007B685A79164B74
:10586000A3FB0213D9080B469B000B445B00D31A21
:10587000DBB21B0440EA03027B685B790E49A1FBA3
:105880000313DB08DBB21B051343BB600020FDF7ED
:105890008FF9FFF719FFF868FFF706FFB868FFF701
:1058A000D9FEFFF7E7FE0120FDF782F900E000BF17
:1058B0001037BD4680BD00BFCDCCCCCC80B584B008
:1058C00000AF78607B68002B00F08380FFF7E0FE7C
:1058D000F860FFF7B3FEB860FB681B09DBB203F0AA
:1058E0000703DBB21A46920013445B00DAB2FB688E
:1058F000DBB203F00F03DBB21344DAB27B689A70B9
:10590000FB681B0BDBB203F00703DBB21A46920005
:1059100013445B00DAB2FB681B0ADBB203F00F032F
:10592000DBB21344DAB27B685A70FB681B0DDBB242
:1059300003F00303DBB21A46920013445B00DAB2B1
:10594000FB681B0CDBB203F00F03DBB21344DAB2CB
:105950007B681A70BB681B09DBB203F00303DBB280
:105960001A46920013445B00DAB2BB68DBB203F064
:105970000F03DBB21344DAB27B68DA70BB681B0B2F
:10598000DBB203F00103DBB21A46920013445B0062
:10599000DAB2BB681B0ADBB203F00F03DBB21344BD
:1059A000DAB27B681A71BB681B0DDBB203F00F0320
:1059B000DBB21A46920013445B00DAB2BB681B0CE0
:1059C000DBB203F00F03DBB21344DAB27B685A7127
:1059D00000E000BF1037BD4680BD0000F0B591B0BB
:1059E00004AF07F128031846FFF768FF97F82D303A
:1059F0001D4697F82C301E4697F82B3097F8282034
:105A000097F8291097F82A00044638460394029123
:105A10000192009333462A46054901F083F83B463C
:105A2000184600F031FB00BF3437BD46F0BD00BF63
:105A3000007F000080B483B000AF0346FB7197F98C
:105A40000730002B0BDBFB7903F01F02074997F9A6
:105A500007305B09012000FA02F241F8232000BF61
:105A60000C37BD465DF8047B704700BF00E100E0E5
:105A700080B483B000AF0346FB7197F90730002B69
:105A80000CDBFB7903F01F02074997F907305B092C
:105A9000012000FA02F2603341F8232000BF0C37E6
:105AA000BD465DF8047B704700E100E080B500AFC3
:105AB00001211448FAF730FE134B00221A60124BF2
:105AC00000225A62104B42F25422DA610E4B4FF020
:105AD00020621A600C4B40F6F7725A610A4B0122A1
