S01600003378554152545F6F6E5F51465036342E7333370B
S1130000000008209D260000C9260000C926000023
S1130010C9260000C9260000C9260000C926000020
S1130020C9260000C9260000C9260000C926000010
S1130030C9260000C8260000C9260000C926000001
S1130040C9260000C9260000C92600004923000073
S1130050C926000099370000A13F0000C92600000E
S1130060C9260000C9260000C9260000C9260000D0
S1130070C9260000C9260000A5390000C9260000D1
S1130080C9260000C9260000C9260000C9260000B0
S1130090C9260000453B0000C92600005D3D000064
S11300A0C9260000C9260000C9260000C926000090
S11300B0C9260000C9260000C9260000C926000080
S11300C0C9260000C9260000C9260000C926000070
S11300D0C9260000C9260000C9260000C926000060
S11300E0C9260000C9260000C9260000C926000050
S11300F0C9260000C9260000C9260000C926000040
S1130100C9260000C9260000C9260000C92600002F
S1130110C9260000C9260000C9260000C92600001F
S1130120C9260000C9260000C9260000C92600000F
S1130130C9260000C9260000C9260000C9260000FF
S1130140C9260000C9260000C9260000C9260000EF
S113015010B5054C237833B9044B13B10448AFF3FD
S113016000800123237010BD7C00002000000000EB
S1130170E04D000008B5034B1BB103490348AFF33E
S1130180008008BD0000000080000020E04D000059
S1130190154B002B08BF134B9D46A3F5803A002155
S11301A08B460F461348144A121A03F069FF0F4B8B
S11301B0002B00D098470E4B002B00D0984700200E
S11301C0002104000D000D48002802D00C48AFF3B4
S11301D0008003F031FF2000290002F0C9F803F089
S11301E017FF00BF00000800000008200000000006
S11301F0000000007C0000205406002000000000E5
S11302000000000080B487B000AFF860B9607A6085
S1130210FB6803F10473DA00BB6813449B007B6141
S11302207B697A681A6000BF1C37BD465DF8047BA1
S1130230704780B485B000AF786039607B6803F1A3
S11302400473DA003B6813449B00FB60FB681B6883
S113025018461437BD465DF8047B704780B485B0FA
S113026000AF786039607B6803F1C063FB60FB68B2
S11302703A681A6000BF1437BD465DF8047B7047C6
S113028080B485B000AF786039607B6803F1806327
S1130290FB60FB683A681A6000BF1437BD465DF81E
S11302A0047B704780B483B000AF786001227B6820
S11302B002FA03F318460C37BD465DF8047B704719
S11302C080B485B000AF78607B68002B03D07B6876
S11302D0B3F5004F00BF7B68B3FA83F3DBB2C3F11D
S11302E01F03FB60FB6818461437BD465DF8047BAA
S11302F0704780B584B000AF78607B680133B3FA8F
S113030083F3DBB2C3F11F03FB60F868FFF7CAFF96
S1130310FB6818461037BD4680BD000080B400AFAE
S1130320064B1B6803F04003002B01D1012300E0BE
S113033000231846BD465DF8047B70473C300E40F0
S113034080B500AFFFF7EAFF034683F00103DBB299
S1130350002B08D100BF12210448FFF76AFF0346AF
S1130360002BF8D100E000BF80BD00BF04300E4078
S113037080B500AFFFF7E4FF034B5B681B0C03F091
S11303800303DBB2184680BD00300E4080B584B054
S113039000AF78600123FB607B68124A934204D863
S11303A00023FB600023BB6008E07B680E4A934295
S11303B002D80123BB6001E00223BB60FA6810216C
S11303C00A48FFF71FFF094BD3F8003123F04072AE
S11303D0BB681B0605491343C1F8003100BF103741
S11303E0BD4680BD0048E8010090D00300400E40A7
S11303F080B485B000AF786039604FF080435B68AB
S113040003F04073FB600023BB6012E01B4ABB682F
S1130410DB0013441A793B68DBB29A4206D1174ACF
S1130420BB6852F833307A689A4206D9BB68013304
S1130430BB60BB68062BE9D900E000BFBB68072B93
S113044002D10323FB6005E00C4ABB68DB001344C4
S11304505B79FB60FB681B06FB604FF080435B68C5
S113046023F040724FF08041FB6813434B6000BFA0
S11304701437BD465DF8047B704700BF004B000095
S113048080B582B000AF4FF080431B6C002B14BFCB
S113049001230023FB714FF0804341F671321A644B
S11304A002F034F9034600211846FFF7A1FFFB7957
S11304B0002B03D04FF0804300221A6400BF08379A
S11304C0BD4680BD80B584B000AF786039600C4B08
S11304D0FB603B68022B01D10A4BFB607A68FB6826
S11304E09A4204D908490948FFF7B8FE03E00649CF
S11304F00648FFF7C5FE00BF1037BD4680BD00BFEC
S113050080D543020024F4000202020000010040EE
S113051080B582B000AF786039607B680B4A934243
S113052009D93B68002B06D14FF480514FF080402D
S1130530FFF794FE05E04FF480514FF08040FFF741
S11305409FFE00BF0837BD4680BD00BF80F0FA02A1
S113055080B584B000AF786039604FF080431B6C85
S1130560002B14BF01230023FB734FF0804341F69B
S113057071321A6439687868FFF73AFF3968786825
S1130580FFF7A0FF39687868FFF7C2FFFB7B002BF9
S113059003D04FF0804300221A6400BF1037BD46D9
S11305A080BD000080B400AF044B5B6A1B0903F0FC
S11305B003031846BD465DF8047B704700400E40B7
S11305C080B483B000AF7860074B5B6A23F03002DD
S11305D07B681B01044913434B6200BF0C37BD46C3
S11305E05DF8047B704700BF00400E4080B483B0C8
S11305F000AF78600A4BD3F8443103F00103002BB9
S113060008D100BF064BD3F840217B681340002B70
S1130610F8D100E000BF0C37BD465DF8047B70479D
S113062000400E4080B500AF0321064800F01CF9DD
S11306300321054800F018F90321044800F014F9D7
S113064000BF80BD404105005041070060410900E2
S113065080B582B000AF02F063F83860FFF788FE1F
S11306600346022B1AD13A68224B1344224AA2FBB6
S11306700323DB0D7B607B68002B02D07B68013B8E
S11306807B6079681D4800F0EFF879681C4800F039
S1130690EBF879681B4800F0E7F827E03A681A4B52
S11306A013441A4AA2FB03231B0E7B607B68002BB6
S11306B002D07B68013B7B607968104800F0D4F875
S11306C07968104800F0D0F83A68114B1344114A85
S11306D0A2FB03239B0E7B607B68002B02D07B680C
S11306E0013B7B607968064800F0BEF800BF08371C
S11306F0BD4680BDFF2C31016BCA5F6B40410500D4
S113070050410700604109007FF0FA02893BE65539
S1130710FFA14A04B5FA9BEE80B586B000AF7860BD
S11307200B46FB7000233B617B681B0A03F00F033D
S1130730013B0E2B7CD801A252F823F0790700006C
S11307408507000031080000310800007F07000021
S1130750910700009B070000A5070000B1070000F7
S113076007080000BD070000DF0700003108000093
S11307708B070000010800002F4B7B6146E02F4BE4
S11307807B6143E02E4B7B6140E02E4B7B613DE07F
S11307902D4B7B6101233B6138E02C4B7B611023A3
S11307A03B6133E02A4B7B614FF480733B612DE066
S11307B0284B7B614FF480333B6127E0264B7B6100
S11307C0FB78002B14BF01230023DBB283F0010369
S11307D0DBB2FB70FB7803F00103FB7016E01F4BE8
S11307E07B61FB78002B14BF01230023DBB283F071
S11307F00103DBB2FB70FB7803F00103FB7005E03F
S1130800174B7B6102E0174B7B6100BF7B681B0BBE
S113081003F01F03FB603B69002B02D03869FFF72C
S1130820E5FEFB781A46F9687869FFF7EBFC00E00F
S113083000BF1837BD4680BD00400E40B0400E409A
S1130840C0400E40C4400E40E0400E40E8400E4020
S1130850EC400E40F0400E4060410E4064410E40BA
S1130860F0410E4050410E4080B584B000AF786036
S113087039607B681B0903F00F03FB60FB68013BD5
S11308800B2B00F2D58101A252F823F0BD08000021
S1130890070900001F0900003F0900005B09000070
S11308A07709000093090000C7090000D90A000075
S11308B0710B00009B0B0000150C0000FFF7E0FD1E
S11308C0BA48FFF763FDFFF7ADFEB94BD3F800312B
S11308D023F4F8523B681B02B5491343C1F80031B5
S11308E001F0F4FEB860FFF743FD03461946B8680B
S11308F0FFF72EFE01F014FF03461846FFF746FDEE
S1130900FFF7A6FE95E1AA4BD3F8143123F4F8526D
S11309103B681B02A6491343C1F8143189E13868C6
S1130920FFF7CEFC3860A24BD3F8003123F04072BD
S11309303B681B069E491343C1F8003179E19C4B87
S1130940D3F80C3123F4FF3323F480733A68120292
S113095097491343C1F80C316BE1954BD3F8183127
S113096023F4FF3323F480733A681202904913434B
S1130970C1F818315DE18E4BD3F81C3123F4FF33F9
S113098023F480733A68120289491343C1F81C3175
S11309904FE1FFF775FD864BD3F8083123F4FF339D
S11309A023F480733A68120281491343C1F8083171
S11309B001F08CFEB860FFF7DBFC03461946B8680B
S11309C0FFF7C6FD35E17B687A4A93424AD0794AFB
S11309D0934209D8784A934223D0784A93422FD03D
S11309E0774A93420AD076E0764A934260D0764AB8
S11309F093424AD0754A93425AD06CE03868FFF764
S1130A0078FC38600420FFF7F1FD694BD3F82031FE
S1130A1023F470223B681B0465491343C1F8203159
S1130A2059E04FF48020FFF7E1FD614BD3F83031FA
S1130A3023F003025E493B681343C1F830314AE0B6
S1130A403868FFF756FC38600420FFF7CFFD584B99
S1130A50D3F8203123F00F0255493B681343C1F802
S1130A60203138E03868FFF744FC38600420FFF791
S1130A70BDFD4F4BD3F8203123F0F0023B681B013E
S1130A804B491343C1F8203125E03868FFF731FCA6
S1130A9038600420FFF7AAFD454BD3F8203123F436
S1130AA040723B681B0242491343C1F8203112E0F3
S1130AB03868FFF71EFC38600420FFF797FD3C4BB5
S1130AC0D3F8203123F4E0423B681B033849134335
S1130AD0C1F8203100BFACE07B683D4A934218D096
S1130AE03C4A934228D03C4A934200D03FE03868C5
S1130AF0FFF7FFFB38604020FFF778FD2C4BD3F85D
S1130B00283123F003022A493B681343C1F82831F2
S1130B102DE03868FFF7EDFB38604020FFF766FDF5
S1130B20234BD3F8283123F030023B681B012049C2
S1130B301343C1F828311AE03B687F2B02D83B6885
S1130B400E2B00BF3868FFF7D4FB0346043B3B6021
S1130B504020FFF74BFD164BD3F8283123F44052C5
S1130B603B681B0312491343C1F8283100BF60E0FE
S1130B707B68114A934200D00EE04FF48020FFF7C7
S1130B8035FD0B4BD3F8303123F0030208493B68A1
S1130B901343C1F8303100BF4BE07B680F4A9342E6
S1130BA020D00F4A934228D033E000BF0148E80127
S1130BB000400E4080161800A0091400800616009C
S1130BC08046120000362C0080262E0080002A0069
S1130BD090171C009037300090071A00B8003200BC
S1130BE0B9003400154BD3F85C3123F003021349E8
S1130BF03B681343C1F85C310BE0104BD3F85C3114
S1130C0023F440323B681B040C491343C1F85C31A4
S1130C1000BF0EE0094BD3F8043123F4FF3323F46F
S1130C2080733A68120205491343C1F8043100E0A5
S1130C3000BF00BF1037BD4680BD00BF00400E405E
S1130C4080B485B000AF78600123FB737B6803F048
S1130C500F03BB60BB68013B0B2B00F2748101A244
S1130C6052F823F0950C0000F10C0000210D000057
S1130C70990D0000690D0000C90D0000470F000028
S1130C80ED0D00002F0E0000730E0000B30E0000E7
S1130C90F30E0000B34BD3F8943003F00703023B88
S1130CA0052B21D801A252F823F000BFD10C00007B
S1130CB0CB0C0000C50C0000D70C0000E30C0000B6
S1130CC0DD0C00000223FB7311E00323FB730EE031
S1130CD00423FB730BE00D23FB7308E00E23FB736B
S1130CE005E00A23FB7302E00523FB7300BF32E136
S1130CF09C4BD3F8803003F00703022B06D0042B5F
S1130D0007D0012B08D10323FB7308E00223FB73F4
S1130D1005E00C23FB7302E00123FB7300BF1AE11F
S1130D20904BD3F8843003F00703013B032B17D80F
S1130D3001A252F823F000BF490D00004F0D00003E
S1130D405B0D0000550D00000323FB730BE0022331
S1130D50FB7308E00C23FB7305E00623FB7302E03E
S1130D600123FB7300BFF6E07E4BD3F8883003F019
S1130D700703022B06D0042B07D0012B08D1032331
S1130D80FB7308E00223FB7305E00C23FB7302E012
S1130D900123FB7300BFDEE0724BD3F88C3003F009
S1130DA00703022B06D0042B07D0012B08D1032301
S1130DB0FB7308E00223FB7305E00C23FB7302E0E2
S1130DC00123FB7300BFC6E0664B1B6F03F00303F4
S1130DD0002B04D0012B05D10923FB7305E0072365
S1130DE0FB7302E00123FB7300BFB4E05D4BD3F857
S1130DF05C3103F03003102B0CD0102B02D8002BE5
S1130E0005D010E0202B08D0302B09D00BE00123B3
S1130E10FB730BE00723FB7308E00423FB7305E07B
S1130E200823FB7302E00123FB7300BF93E04D4BE7
S1130E30D3F85C3103F44013B3F5801F0FD0B3F53E
S1130E40801F02D8002B07D085E0B3F5001F09D01E
S1130E50B3F5401F09D07EE00123FB7308E00723AC
S1130E60FB7305E00423FB7302E00823FB7300BF5C
S1130E7071E03C4BD3F8603103F00303032B65D8D6
S1130E8001A252F823F000BF990E00009F0E00004B
S1130E90A50E0000AB0E00000523FB7308E004233D
S1130EA0FB7305E00723FB7302E00A23FB7300BF17
S1130EB04CE02C4BD3F8643103F00303032B47D8E5
S1130EC001A252F823F000BFD90E0000DF0E00008B
S1130ED0E50E0000EB0E00000523FB7308E004237D
S1130EE0FB7305E00723FB7302E00A23FB7300BFD7
S1130EF02EE01C4BD3F8F03103F00703052B29D85F
S1130F0001A252F823F000BF210F0000270F0000B8
S1130F102D0F0000330F0000390F00003F0F0000B9
S1130F200A23FB730EE00423FB730BE00B23FB7318
S1130F3008E00523FB7305E00223FB7302E00323AF
S1130F40FB7300BF06E00023FB7304E000BF02E074
S1130F5000BF00E000BFFB7B18461437BD465DF8B8
S1130F60047B704700400E4080B58AB000AF7860C3
S1130F700B46FB7003237B62032387F82330002393
S1130F80BB6100237B617B68112B19D1FB78042B97
S1130F9003D101F03FFC78610BE0FB78052B08D10D
S1130FA000F028FC0246C44B9A4202D900F022FC0D
S1130FB078617B69002B03D00021786901F0ACFCD7
S1130FC07B6803F00F033B613B69013B0B2B00F291
S1130FD0748201A252F823F0091000000F110000DE
S1130FE02F1100001311000021110000CD11000089
S1130FF0BB140000EB11000061120000F7120000A6
S11310007B130000FF130000FB78023B0C2B00F263
S1131010568201A252F823F04D100000591000002E
S11310206510000077100000BF140000BF1400001A
S1131030BF140000BF140000A1100000BF14000082
S1131040BF140000891000009510000004237B6287
S1131050002387F8233029E003237B62012387F8E8
S1131060233023E002237B62022387F82330934852
S1131070FFF78CF91AE001237B62032387F82330FE
S11310808E48FFF783F911E005237B62032387F879
S113109023300BE007237B62072387F8233005E026
S11310A006237B62052387F8233000BF97F823309B
S11310B0072B06D097F8233001220121184600F0AF
S11310C00BFCFFF7DDF9FFF7ADFA7B69002B01D0CC
S11310D0FFF736F97A4A7B6A536701F0F7FAF8604A
S11310E001F01EFB03461846FFF750F9FFF740F9DD
S11310F003461946F868FFF72BFA7B69002B03D1E6
S11311000121002001F008FCFFF7A2FAE4E16D4B95
S1131110BB61BB69002B01D0BB6900E06A4BBB61BA
S1131120BB69002B01D0BB6900E0684BBB61BB69A4
S1131130002B01D0BB6900E0654BBB61FB78013B30
S11311400B2B00F2BE8101A252F823F07D110000A6
S11311508311000093110000C3140000C3140000A5
S1131160A3110000C3140000C3140000C314000042
S1131170C3140000C3140000BF1100000023FB616E
S113118020E001220121002000F0A6FB0223FB61E4
S113119018E001220121012000F09EFB0123FB61E4
S11311A010E001F0BDFA03461846FFF7EFF80122FC
S11311B000214848FFF726F80323FB6102E00423DB
S11311C0FB6100BFBB69FA691A6085E1FB78072BF4
S11311D002D0092B04D07FE1394B00221A6703E0C7
S11311E0374B01221A6700BF76E1FB78013B072BDE
S11311F000F2698101A252F823F000BF1D12000021
S1131200C7140000C714000033120000C714000004
S1131210C714000023120000431200000023FB61E6
S113122012E001220121042000F056FB0123FB619E
S11312300AE001220121022000F04EFB0223FB619F
S113124002E00323FB6100BF1D4BD3F85C3123F0A4
S11312503002FB691B011A491343C1F85C313BE1BD
S1131260FB78013B072B00F2308101A252F823F0F6
S113127091120000CB140000CB140000A712000050
S1131280CB140000CB14000097120000D912000008
S11312900023FB6123E001220121042000F01CFB58
S11312A00123FB611BE001220121022000F014FB59
S11312B00223FB6113E000BF002D31010148E80166
S11312C000400E4080400E408C400E4088400E404E
S11312D084400E40B0400E400323FB6100BF804BAE
S11312E0D3F85C3123F44012FB691B057C4913439A
S11312F0C1F85C31F0E0FB78043B062B00F2E78098
S113130001A252F823F000BF35130000251300009A
S1131310CF14000045130000CF140000CF140000C8
S11313205513000001220121032000F0D5FA002307
S1131330FB6117E001220121022000F0CDFA012314
S1131340FB610FE001220121042000F0C5FA022311
S1131350FB6107E001220121052000F0BDFA03230F
S1131360FB6100BF5E4BD3F8603123F003025C499C
S1131370FB691343C1F86031AEE0FB78043B062BF4
S113138000F2A78001A252F823F000BFB9130000B5
S1131390A9130000D3140000C9130000D3140000E3
S11313A0D3140000D913000001220121032000F00E
S11313B093FA0023FB6117E001220121022000F0CF
S11313C08BFA0123FB610FE001220121042000F0CC
S11313D083FA0223FB6107E001220121052000F0CA
S11313E07BFA0323FB6100BF3D4BD3F8643123F048
S11313F003023B49FB691343C1F864316CE0FB7899
S1131400023B092B67D801A252F823F0851400008F
S1131410951400004514000075140000D714000052
S1131420D7140000D7140000D714000035140000AE
S11314305514000001220121052000F04DFA00237B
S1131440FB612FE001220121022000F045FA012373
S1131450FB6127E001F0DEF9214B5B6A204A43F08F
S11314600803536201220121022000F035FA02230D
S1131470FB6117E001220121032000F02DFA032370
S1131480FB610FE001220121002000F025FA042372
S1131490FB6107E001220121012000F01DFA052370
S11314A0FB6100BF0E4BD3F8F03123F007020C4967
S11314B0FB691343C1F8F0310EE000BF0CE000BF3C
S11314C00AE000BF08E000BF06E000BF04E000BF80
S11314D002E000BF00E000BF2837BD4680BD00BF6A
S11314E000400E4080B58AB000AF786000237B6274
S11314F00023FB77FEF73CFF0346022B06D17B68F3
S11315001B686F4A934201D90023D5E000233B6254
S113151018E07B681A686B493B6A1B010B441B6823
S11315209A420CD37B681A6866493B6A1B010B44D8
S113153004331B689A4202D83B6A7B6205E03B6A2B
S113154001333B623B6A172BE3D97B6A182B01D129
S11315500023B1E05B4A7B6A1B01134408331B6818
S1131560BB61584A7B6A1B0113440C331B68002B74
S113157019D0544A7B6A1B0113440C331B68184668
S113158000F0A6F8034603F07F037B617B69092B17
S113159003D97B69093B7B6101E000237B61BA6964
S11315A07B691343BB617B681B68474A1360112046
S11315B0FFF746FB0346052B01D1FEF761FF11201F
S11315C0FFF73EFB0346052B09D17B681B681846D1
S11315D0FEF7DCFE0123FB773C4B05225A673B4BAD
S11315E04FF400521A6600BF384BD3F8903003F41E
S11315F04053002BF8D1354B4FF46032C3F8A82088
S11316007B689B881B047A68D28811462F4A0B4357
S113161053642E4ABB6913617B689B7ADB007A684A
S1131620527B002A01D0042200E000221A437B6886
S1131630DB7A5B0013437A68127B1146234A0B431F
S11316401364224B4FF480521A6600BF1F4BD3F829
S1131650A03003F460333B613B69002BF6D01120CA
S1131660FFF7EEFA03460D2B05D1FB7F002B02D0CA
S1131670164B01225A671120FFF7E2FA0346052BA5
S113168009D101F023F8F860FEF772FE034619460B
S1131690F868FEF75DFF01F043F803461846FEF7CD
S11316A075FE0121002001F037F93B69B3F5004FC5
S11316B001D1012300E0002318462837BD4680BD30
S11316C0002D3101804900000C00002000400E4034
S11316D080B483B000AF78607B68374A934243D0CC
S11316E0354A934216D8354A93422DD0334A934211
S11316F006D8334A934227D0324A934224D053E047
S1131700314A934228D0314A934229D0304A9342F5
S11317101ED049E02F4A934236D02E4A934209D82C
S11317202D4A934228D02D4A934229D02C4A9342E1
S11317301ED039E02B4A93422ED02B4A93422FD00D
S11317402A4A934224D02FE0294BD3F880302CE04E
S1131750274BD3F88C3028E0254BD3F8983024E07D
S1131760234BD3F89C3020E0214BD3F8A0301CE06D
S11317701F4BD3F8A83018E01D4BD3F8AC3014E05D
S11317801B4BD3F8B03010E0194BD3F8B4300CE055
S1131790174BD3F8B83008E0154BD3F8BC3004E04D
S11317A0134BD3F8C03000E0002318460C37BD4675
S11317B05DF8047B704700BFC0EA210100093D00C9
S11317C040420F0080841E00405DC6000024F400E7
S11317D0C0CF6A00006CDC020048E80180D54302F7
S11317E080BA8C010090D00300A24A04007E560304
S11317F0B081E00F80B400AF034B1B681846BD46B0
S11318005DF8047B704700BF0C00002080B584B0F5
S113181000AF78601120FFF713FA012200210220A3
S113182000F05AF80023FB607B68DB7A012B0AD0B6
S1131830022B05D0002B00D008E00023FB6005E05C
S11318400323FB6002E00123FB6000BF204B5B6AC3
S113185023F003021E49FB6813434B620023FB6021
S113186000F0D8FF02461B4B9A4203D8FB6843F0B2
S11318700803FB60164B5B6A23F008021449FB68FB
S113188013434B627B681B88DB027A6892881A4395
S11318900F4BDA620E4B1B6B1B0D1B057A685288CB
S11318A0D20213437A68D2881146094A0B43136360
S11318B07B681B7A1A037B685B7A1B0113437A6883
S11318C0927A1A43024B5A6300BF1037BD4680BD5B
S11318D000400E4040787D0180B588B000AF0346DB
S11318E0FB710B46BB7113467B71FB79052B00F230
S11318F0BF8001A252F823F05919000047190000D3
S11319002319000011190000351900006F19000097
S113191001237B6102233B610123FB610023BB6143
S113192030E004237B6108233B610323FB61022332
S1131930BB6127E010237B6120233B610523FB610E
S11319400423BB611EE040237B6180233B610723AA
S1131950FB610623BB6115E04FF480737B614FF498
S113196000733B610923FB610823BB610AE04FF468
S113197080637B614FF400633B610B23FB610A23AB
S1131980BB6100BFBB79002B55D00023FB73FB79EF
S1131990022B11D1FEF706FE0346012B0CD1364B68
S11319A0DB6B0123FB73354B5B6A03F00303032BEF
S11319B002D10220FEF704FE304A7B69136600BFA1
S11319C0B9692F48FEF735FC0346002BF8D07B7924
S11319D0002B4ED000BFF9692948FEF72AFC0346C4
S11319E0002BF8D0FB79022B43D1FB7B002B40D09A
S11319F0224B5B6A03F00303032B03D00021022074
S1131A0000F0F2F8022000F03DF8B8600122002155
S1131A100220FFF761FFB968022000F06DF8174A51
S1131A207B69136600BFF9691548FEF702FC03469B
S1131A30002BF8D01DE0114A3B69136600BF0F4B21
S1131A40D3F890300121BA6901FA02F21340002B55
S1131A50F5D17B79002B0CD000BF084BD3F8903024
S1131A600121FA6901FA02F21340002BF5D100E0DA
S1131A7000BF2037BD4680BD00300E4000400E4000
S1131A8090400E4080B485B000AF0346FB71FB79F3
S1131A90013B042B24D801A252F823F0B11A000010
S1131AA0E11A0000BD1A0000D51A0000C91A00008E
S1131AB0104B1B6AC3F30803FB6014E00D4B1B6956
S1131AC003F07F03FB600EE00A4B9B6803F07F0387
S1131AD0FB6008E0074B9B6903F07F03FB6002E0B7
S1131AE00023FB6000BFFB6818461437BD465DF851
S1131AF0047B704700400E4080B582B000AF0346BF
S1131B003960FB71FB79013B042B63D801A252F8C5
S1131B1023F000BF291B0000D51B0000571B000049
S1131B20AB1B0000811B00003B68C3F308033B6050
S1131B3000BF1A212A48FEF77CFB0346002BF8D18C
S1131B40284B1B6A23F4FF7323F0010325493A68E9
S1131B5013430B623FE03B6803F07F033B6000BF2D
S1131B6018211F48FEF765FB0346002BF8D11D4BD7
S1131B701B6923F07F021B493B6813430B612AE076
S1131B803B6803F07F033B6000BF1E211448FEF74F
S1131B9050FB0346002BF8D1124B9B6823F07F02C5
S1131BA010493B6813438B6015E03B6803F07F03E7
S1131BB03B6000BF19210A48FEF73BFB0346002B9C
S1131BC0F8D1084B9B6923F07F0206493B68134315
S1131BD08B6100E000BF00BF0837BD4680BD00BF79
S1131BE040410E4000400E4080B584B000AF034633
S1131BF00A46FB711346BB71FEF7D4FC0346012B66
S1131C0003D14FF48003FB6009E0BB79002B03D1BF
S1131C104FF48003FB6002E0084BFB6000BF00BF91
S1131C20074BD3F89020FB681340FA689A42F7D127
S1131C30012318461037BD4680BD00BFFF3F473A19
S1131C4000400E4080B487B000AFF860B9607A609D
S1131C50FB6803F10473DA00BB6813449B007B61E7
S1131C607B697A681A6000BF1C37BD465DF8047B47
S1131C70704780B485B000AF786039607B6803F149
S1131C80C063FB60FB683A681A6000BF1437BD4646
S1131C905DF8047B704780B485B000AF786039602C
S1131CA07B6803F18063FB60FB683A681A6000BFDD
S1131CB01437BD465DF8047B704780B584B000AF2F
S1131CC0F860B9607A60B968F868FFF7E4FF79688A
S1131CD0F868FFF7CEFF00BF1037BD4680BD000097
S1131CE080B483B000AF7860044A7B68C2F82434BF
S1131CF000BF0C37BD465DF8047B70470080084088
S1131D0080B582B000AF03463960FB71FB79002BCC
S1131D1016D0FB79012B13D0FB79022B10D0FB7961
S1131D20032B0DD0FB79042B0AD0FB79052B07D0AC
S1131D30FB79062B04D0FB79072B01D0FB79082B08
S1131D40FA7913465B0013441B010C3303F18043FF
S1131D5003F5082301213A6801FA02F211461846F4
S1131D60FFF799FF00BF0837BD4680BD80B582B03C
S1131D7000AF03463960FB71FB79002B16D0FB7969
S1131D80012B13D0FB79022B10D0FB79032B0DD040
S1131D90FB79042B0AD0FB79052B07D0FB79062BA2
S1131DA004D0FB79072B01D0FB79082BFA79134671
S1131DB05B0013441B010C3303F1804303F5082338
S1131DC001213A6801FA02F211461846FFF751FF61
S1131DD000BF0837BD4680BD80B586B000AFB9608E
S1131DE07A601A460346FB731346BB7300237B6178
S1131DF0FB7B002B16D0FB7B012B13D0FB7B022B30
S1131E0010D0FB7B032B0DD0FB7B042B0AD0FB7B78
S1131E10052B07D0FB7B062B04D0FB7B072B01D0C3
S1131E20FB7B082B7B68072B0ED87B689B000F225B
S1131E3002FA03F1FA7B7B689B0002FA03F31A4669
S1131E402B48FFF73AFF10E07B68083B7B617B6916
S1131E509B000F2202FA03F1FA7B7B699B0002FAD2
S1131E6003F31A462348FFF728FF7B68072B10D893
S1131E707B689B00032202FA03F1BB6803F00302B0
S1131E807B689B0002FA03F31A461B48FFF715FF11
S1131E900FE07B699B00032202FA03F1BB6803F0A5
S1131EA003027B699B0002FA03F31A461348FFF707
S1131EB004FFBB7B1A4679681148FFF7C3FE97F805
S1131EC020301A4679680F48FFF7BCFE01227B6870
S1131ED002FA03F31846FFF703FF97F824301A4673
S1131EE079680948FFF7AEFE00BF1837BD4680BDCC
S1131EF00084084004840840088408400C84084096
S1131F0010840840148408402884084080B584B0B4
S1131F1000AFB9607B600346FB731346BB73FB7B66
S1131F20002B16D0FB7B012B13D0FB7B022B10D094
S1131F30FB7B032B0DD0FB7B042B0AD0FB7B052BF7
S1131F4007D0FB7B062B04D0FB7B072B01D0FB7B4C
S1131F50082BBB7B002B0DD07B68002B05D0FB7BB3
S1131F60B9681846FFF702FF04E0FB7BB96818461E
S1131F70FFF7C6FEBB68072B20D82E49FA7B134611
S1131F805B0013441B010B4404331A68BB689B00B9
S1131F900F2101FA03F3DB431340B97BBA689200C3
S1131FA001FA02F211462348FA7B194313465B00F7
S1131FB013441B0103440433196025E01D49FA7BD3
S1131FC013465B0013441B010B4408331A68BB68B7
S1131FD003F18043083B9B000F2101FA03F3DB4329
S1131FE002EA0301BA7BBB6803F18043083B9B0010
S1131FF002FA03F30F48FA7B194313465B001344B8
S11320001B01034408331960BB7B002B0DD17B6893
S1132010002B05D0FB7BB9681846FFF7A7FE04E048
S1132020FB7BB9681846FFF76BFE00BF1037BD464F
S113203080BD00BF0080084080B483B000AF7860EA
S113204000BF7B681B6903F08003002BF9D07B6819
S1132050DB69DBB218460C37BD465DF8047B70477C
S113206080B483B000AF78600B46FB7000BF7B6820
S11320701B6903F04003002BF9D0FA787B685A639C
S113208000BF0C37BD465DF8047B704780B485B053
S113209000AF786039607B6803F18063FB60FB68A4
S11320A03A681A6000BF1437BD465DF8047B704778
S11320B080B483B000AF7860044A7B68C2F82434EB
S11320C000BF0C37BD465DF8047B704700800840B4
S11320D080B400AF034BD3F81C341846BD465DF8FA
S11320E0047B70470080084080B582B000AF03468F
S11320F03960FB71FB79002B16D0FB79012B13D0CF
S1132100FB79022B10D0FB79032B0DD0FB79042B28
S11321100AD0FB79052B07D0FB79062B04D0FB7979
S1132120072B01D0FB79082BFA7913465B00134483
S11321301B010C3303F1804303F5082301213A68A2
S113214001FA02F211461846FFF7A0FF00BF083754
S1132150BD4680BD80B483B000AF03463960FB71D7
S1132160FB79002B16D0FB79012B13D0FB79022BC2
S113217010D0FB79032B0DD0FB79042B0AD0FB790B
S1132180052B07D0FB79062B04D0FB79072B01D054
S1132190FB79082B01223B6802FA03F30749FA7919
S11321A0184613465B0013441B010B441833186094
S11321B000BF0C37BD465DF8047B704700800840C3
S11321C080B400AF4FF0804301225A64184BD3F817
S11321D0B030174A43F00103C2F8B030144BD3F8BF
S11321E0E030134A43F00803C2F8E030114B1B6897
S11321F0104A43F4805313600D4BD3F8E0300C4A7B
S113220023F00803C2F8E030094BD3F8B030084A91
S113221023F00103C2F8B030074B1B68064A43F4AD
S1132220F843136000BFBD465DF8047B704700BFF0
S113223000400E4034400540A4310E4080B588B0C3
S113224000AF224A07F1140307CA83E807000023FA
S1132250FB7707F114031846FFF7D8FA012201218E
S11322600220FFF739FB3B1D00221A605A609A6076
S1132270DA60174B7B6040F60F633B8140F6C31373
S11322807B810423BB7301237B743B1D1846FFF73A
S113229029F9034683F00103DBB2002B03D00421A8
S11322A01120FEF761FE0B4BD3F80C31094A23F4DD
S11322B0FF3323F48073C2F80C3101210648FEF782
S11322C02BFA00BF2037BD4680BD00BF384B00004D
S11322D000A24A0400400E404041050080B500AF12
S11322E001210B48FEF718FA0023042201210020E3
S11322F0FFF70CFE0023042202210020FFF706FE54
S11323000023042204210320FFF700FE00BF80BD48
S113231000550A0080B485B000AF78600023FB60EC
S113232004E0FB68FB60FB680133FB607B6840F6FC
S11323300B2202FB03F2FB689A42F2D800BF143767
S1132340BD465DF8047B704780B582B000AFFFF7EF
S1132350BFFE78607868FFF7ABFE7B6803F001038B
S1132360002B01D000F0ECFE00BF0837BD4680BD55
S113237080B5C0B000AF00237B6007F10803F622EC
S11323800021184601F07CFEFFF71AFFFFF756FF05
S113239000F0B6FBFFF7A2FF00F0A2FC01F09EFDE7
S11323A001F06CFB01F062FC01F0C2F901F0AEFA3D
S11323B000F0A2FE3B4600221A6004E03B461B6884
S11323C05A1C3B461A603B461B689D4A9342F5DD06
S11323D000F0B4FC4FF49670FFF79CFF00F0B6FCDD
S11323E000F0C4FC4FF49670FFF794FF00F0C6FCB5
S11323F000F0D4FC4FF49670FFF78CFF00F0D6FC8D
S113240000F0E4FC4FF49670FFF784FF00F0E6FC64
S113241000F0F4FC4FF49670FFF77CFF00F0F6FC3C
S113242000F004FD4FF49670FFF774FF00F006FD12
S113243004210320FFF758FE824801F06BFB824819
S113244001F074FC814801F071FC814801F090FDB9
S113245000F0DEFF7F4B1B78002B00F0E8807D4B03
S11324601B78313B432B00F2DB8001A252F823F0AE
S1132470B9250000CD250000D9250000E525000080
S1132480F1250000FD250000212600002126000082
S1132490212600002126000021260000212600001C
S11324A0212600002126000021260000212600000C
S11324B021260000212600002126000021260000FC
S11324C021260000212600002126000021260000EC
S11324D021260000212600002126000021260000DC
S11324E021260000212600002126000021260000CC
S11324F021260000212600002126000015260000C8
S113250021260000212600002126000021260000AB
S1132510212600002126000021260000212600009B
S1132520212600002126000021260000212600008B
S1132530212600002126000021260000212600007B
S1132540212600002126000021260000812500000C
S1132550212600002126000021260000212600005B
S1132560212600002126000021260000212600004B
S11325702126000021260000212600000926000053
S1132580354801F0D3FB354801F0D0FB344801F065
S1132590CDFB324801F0CAFB324801F0C7FB324898
S11325A001F0C4FB314801F0C1FB314801F0BEFB2E
S11325B02A4801F0BBFB34E000F0D0FB04210320E7
S11325C0FFF7C8FD2B4801F0B1FB2AE000F0DEFB69
S11325D0294801F0ABFB24E000F0F0FB274801F0B0
S11325E0A5FB1EE000F002FC254801F09FFB18E06B
S11325F000F014FC234801F099FB12E000F026FCE3
S1132600214801F093FB0CE001F0AAF91F4801F006
S11326108DFB06E001F0BAF91D4801F087FB00E0EC
S113262000BF1C4801F082FB0A4B00221A701A4BAF
S11326301B78012B7FF40CAF174B00221A7007E7AD
S11326409F860100444B00005C4B00007C4B000063
S1132650A44B00004C050020BC4B0000C44B000000
S1132660E84B0000FC4B0000144C0000344C00000C
S1132670544C0000704C0000784C0000804C00006A
S1132680884C0000904C0000984C0000A04C0000C6
S1132690BC4C0000D44C000048030020064880478E
S11326A00649074A074B9A42BEBF51F8040B42F849
S11326B0040BF8E7FDF76CFD2D280000EC4D00003D
S11326C0000000207C000020FEE700BF80B582B03F
S11326D000AF00F025F878600A4BD3F808311B0AE4
S11326E0C3F308033B603B6801337A68B2FBF3F33E
S11326F07B60054A7B6813607B6818460837BD46D3
S113270080BD00BF00400E400800002080B400AF30
S1132710024B1846BD465DF8047B704700A24A048C
S113272080B483B000AF334BD3F8943003F0070385
S1132730023B042B49D801A252F823F06127000080
S11327405927000051270000C12700006927000015
S1132750294B1B687B603CE04FF400437B6038E00E
S1132760264B1B687B6034E0224B9B681B0C03F0F8
S11327701F03073B072B1FD801A252F823F000BF09
S1132780A1270000B9270000B9270000B9270000DD
S1132790A7270000B9270000AD270000B3270000D9
S11327A0174B7B600BE0174B7B6008E0164B7B609C
S11327B005E0164B7B6002E000237B6000BF08E06D
S11327C0134B1B685B087B6003E0114B1B687B6049
S11327D000BF084BD3F800311B0A03F01F03013379
S11327E07A68B2FBF3F318460C37BD465DF8047BF8
S11327F0704700BF00400E4004000020000000208D
S11328000024F4000048E801006CDC0280F0FA02C5
S11328100C00002080B400AF034B1B681846BD4673
S11328205DF8047B704700BF0000002080B400AF57
S1132830074B084A9A60064BD3F88830044A43F49D
S11328407003C2F8883000BFBD465DF8047B704752
S113285000ED00E00000000080B485B000AF7860B7
S113286039607B6803F10473DA003B6813449B000E
S1132870FB60FB681B6818461437BD465DF8047B93
S11328807047000080B400AF064B1B6803F04003A0
S1132890002B01D1012300E000231846BD465DF85A
S11328A0047B70473C300E4080B500AFFFF7EAFF71
S11328B0034683F00103DBB2002B08D100BF1221D1
S11328C00448FFF7C9FF0346002BF8D100E000BF1E
S11328D080BD00BF04300E4080B500AFFFF7E4FFB9
S11328E0034B5B681B0C03F00303DBB2184680BD8B
S11328F000300E4080B483B000AF0346FB71FB7917
S1132900C3F10203102202FA03F318460C37BD4642
S11329105DF8047B7047000080B584B000AF786038
S11329200B46FB70FFF7AEFF034683F00103DBB2F7
S1132930002B28D17B68002B0FD1154BD3F8003125
S11329401B0A03F01F030133BB60FFF7E9FE0246D5
S1132950BB6802FB03F3FB6001E07B68FB600D4B8B
S11329601B78002B09D0FB680B4A934205D8FB78EF
S11329701946022000F012F806E0FB781946002000
S113298000F00CF800E000BF1037BD4680BD00BF6A
S113299000400E4098000020002D310190B587B012
S11329A000AF03460A46FB711346BB71FFF76AFF8B
S11329B0034683F00103DBB2002B31D1FFF78CFF18
S11329C003461A46FB7993422CD0184BD3F80031B6
S11329D01B0A03F01F0301337B61FFF7A1FE38617B
S11329E03B697A6902FB03F3FB60FB79022B03D199
S11329F002213869FDF7ACFD0D4CFB791846FFF751
S1132A0079FF03462361BB79002B01D0FFF74CFF0C
S1132A10FB79002B07D100213869FDF799FD02E00D
S1132A2000BF00E000BF1C37BD4690BD00400E4013
S1132A3000300E4080B483B000AF0346FB7197F9B9
S1132A400730002B0BDBFB7903F01F02074997F9D2
S1132A5007305B09012000FA02F241F8232000BF8D
S1132A600C37BD465DF8047B704700BF00E100E011
S1132A7080B485B000AF786039607B6803F104737B
S1132A80DA003B6813449B00FB60FB681B68184634
S1132A901437BD465DF8047B704780B582B000AF43
S1132AA003463960FB71FB79002B16D0FB79012BAF
S1132AB013D0FB79022B10D0FB79032B0DD0FB79BB
S1132AC0042B0AD0FB79052B07D0FB79062B04D005
S1132AD0FB79072B01D0FB79082BFA7913465B00AD
S1132AE013441B011C3303F1804303F508233968A5
S1132AF01846FFF7BDFF034618460837BD4680BD9C
S1132B0080B500AF01210D48FDF706FE0023032226
S1132B1000210020FFF7FAF90023032203210020FB
S1132B20FFF7F4F90023032204210020FFF7EEF954
S1132B300320FFF77FFF00BF80BD00BF00550A00E0
S1132B4080B500AF00210020FFF7A7FF0346184619
S1132B5080BD80B485B000AF786039607B6803F1D4
S1132B60C063FB60FB683A681A6000BF1437BD4657
S1132B705DF8047B704780B485B000AF786039603D
S1132B807B6803F18063FB60FB683A681A6000BFEE
S1132B901437BD465DF8047B704780B582B000AF42
S1132BA003463960FB71FB79002B16D0FB79012BAE
S1132BB013D0FB79022B10D0FB79032B0DD0FB79BA
S1132BC0042B0AD0FB79052B07D0FB79062B04D004
S1132BD0FB79072B01D0FB79082BFA7913465B00AC
S1132BE013441B010C3303F1804303F50823012133
S1132BF03A6801FA02F211461846FFF7BCFF00BF1B
S1132C000837BD4680BD80B582B000AF0346396049
S1132C10FB71FB79002B16D0FB79012B13D0FB79C8
S1132C20022B10D0FB79032B0DD0FB79042B0AD097
S1132C30FB79052B07D0FB79062B04D0FB79072BF6
S1132C4001D0FB79082BFA7913465B0013441B016E
S1132C500C3303F1804303F5082301213A6801FA98
S1132C6002F211461846FFF774FF00BF0837BD464D
S1132C7080BD000080B483B000AF03463960FB71AF
S1132C80FB79002B16D0FB79012B13D0FB79022B97
S1132C9010D0FB79032B0DD0FB79042B0AD0FB79E0
S1132CA0052B07D0FB79062B04D0FB79072B01D029
S1132CB0FB79082B01223B6802FA03F30749FA79EE
S1132CC0184613465B0013441B010B441833186069
S1132CD000BF0C37BD465DF8047B70470080084098
S1132CE080B500AF01211448FDF716FD002304222E
S1132CF008210020FFF70AF90023042205210320FC
S1132D00FFF704F90023042206210320FFF7FEF84D
S1132D100023042208210320FFF7F8F800230422EB
S1132D2002210320FFF7F2F80023042203210320E9
S1132D30FFF7ECF800BF80BD00550A0080B500AF76
S1132D4008210020FFF75FFF00BF80BD80B500AF02
S1132D5008210020FFF721FF00BF80BD80B500AF30
S1132D6008210020FFF786FF00BF80BD80B500AFBB
S1132D7005210320FFF747FF00BF80BD80B500AFEA
S1132D8005210320FFF709FF00BF80BD80B500AF18
S1132D9005210320FFF76EFF00BF80BD80B500AFA3
S1132DA006210320FFF72FFF00BF80BD80B500AFD1
S1132DB006210320FFF7F1FE00BF80BD80B500AF00
S1132DC006210320FFF756FF00BF80BD80B500AF8A
S1132DD008210320FFF717FF00BF80BD80B500AFB7
S1132DE008210320FFF7D9FE00BF80BD80B500AFE6
S1132DF008210320FFF73EFF00BF80BD80B500AF70
S1132E0002210320FFF7FFFE00BF80BD80B500AFA5
S1132E1002210320FFF7C1FE00BF80BD80B500AFD3
S1132E2002210320FFF726FF00BF80BD80B500AF5D
S1132E3003210320FFF7E7FE00BF80BD80B500AF8C
S1132E4003210320FFF7A9FE00BF80BD80B500AFBA
S1132E5003210320FFF70EFF00BF80BD80B485B0BF
S1132E6000AF786039607B6803F1C063FB60FB6886
S1132E703A681A6000BF1437BD465DF8047B70479A
S1132E8080B485B000AF786039607B6803F18063FB
S1132E90FB60FB683A681A6000BF1437BD465DF8F2
S1132EA0047B704780B483B000AF7860074BD3F8DD
S1132EB028247B68DB4305491340C1F8283400BF4C
S1132EC00C37BD465DF8047B704700BF00800840A6
S1132ED080B483B000AF7860064BD3F8282405494A
S1132EE07B681343C1F8283400BF0C37BD465DF836
S1132EF0047B70470080084080B582B000AF034671
S1132F003960FB71FB79002B16D0FB79012B13D0B0
S1132F10FB79022B10D0FB79032B0DD0FB79042B0A
S1132F200AD0FB79052B07D0FB79062B04D0FB795B
S1132F30072B01D0FB79082BFA7913465B00134465
S1132F401B010C3303F1804303F5082301213A6884
S1132F5001FA02F211461846FFF792FF00BF083744
S1132F60BD4680BD80B582B000AF03463960FB71B9
S1132F70FB79002B16D0FB79012B13D0FB79022BA4
S1132F8010D0FB79032B0DD0FB79042B0AD0FB79ED
S1132F90052B07D0FB79062B04D0FB79072B01D036
S1132FA0FB79082BFA7913465B0013441B010C339D
S1132FB003F1804303F5082301213A6801FA02F280
S1132FC011461846FFF74AFF00BF0837BD4680BDCB
S1132FD080B487B000AF78607B6823F001037B6125
S1132FE0124BFB6000233B6113E03B69C3F11F03F9
S1132FF07A6922FA03F303F00103002B06D0FA687E
S11330003B6922FA03F37A6953407B613B690133DC
S11330103B613B69142BE8DD7A6940F2FE7313408F
S113302018461C37BD465DF8047B7047000020ED50
S113303080B485B000AF78600023FB600023BB60E0
S11330400DE07A68BB6822FA03F303F00103002B56
S113305002D0FB680133FB60BB680133BB60BB6813
S11330601F2BEEDDFB6803F00103002B0CBF0123D3
S11330700023DBB218461437BD465DF8047B704765
S113308080B584B000AF786039603B6800221A7064
S11330907868FFF79DFF0346002B07D17868FFF798
S11330A0C7FF0346002B01D07B6821E00023FB60AF
S11330B01AE00122FB6802FA03F37A685340BB600A
S11330C0B868FFF785FF0346002B0AD1B868FFF7FD
S11330D0AFFF0346002B04D03B6801221A70BB6883
S11330E006E0FB680133FB60FB681F2BE1DD7B68B6
S11330F018461037BD4680BD80B582B002AF0D4B77
S113310000221A700C4B002283F882220A4B002200
S1133110A3F88022094B02225A6001230193012360
S113312000930123002200210020FEF755FE00BF7A
S1133130BD4680BD99000020C000002000840140ED
S113314080B400AF0A4B1B78DBB2022B0AD0094BC8
S113315002225A60074BDB69064A5B085362054B3F
S113316001225A6000BFBD465DF8047B704700BF72
S1133170990000200084014080B582B000AFFFF7C1
S1133180DFFC0346002B14BF01230023DBB2FB71D9
S11331905B4B1B685A00FB791343594A1360FB7954
S11331A0012B04D102210020FFF7DCFE03E0022101
S11331B00020FFF7A1FE534B1B78DBB2012B17D085
S11331C0022B2DD0002B40F097804D4B1B689BB2F7
S11331D04AF6AA22934207D0494B1B689BB245F298
S11331E05552934240F08380464B01221A707EE090
S11331F0434B1B68444A93427BD1424B02221A70D0
S1133200424B00221A80424B01221A70414B002289
S1133210A3F880220120FFF745FEFFF78FFD68E049
S11332203A4B1B889BB201339AB2384B1A80374B06
S11332301B889BB21F2B5ED9344B00221A80FFF7E8
S1133240ADFD04210320FFF78DFE314B1B78002BCD
S113325016D12B4B1B682C4A934226D02D4B0122AE
S113326083F88222274B00221A702B4B02225A60C9
S11332700120FFF72DFEFFF799FDFFF75FFD3BE00F
S1133280244BB3F880329BB29F2B0ED8214BB3F85A
S113329080329BB25A1C91B21E4AA2F8801219467F
S11332A0174B1B681B4A42F82130194B1B7801331A
S11332B0DAB2174B1A70164B1B78102B02D9144B29
S11332C000221A70134BB3F880329BB29F2B12D991
S11332D0104B012283F882220A4B00221A700E4BF3
S11332E002225A600120FFF7F3FD00BF03E000BF94
S11332F002E000BF00E000BF0837BD4680BD00BF4C
S11333009C00002099000020D815D27CA000002049
S1133310A9000020C00000200084014080B588B0CE
S113332000AF786039607B68DB0AC3F313033B6149
S11333300023FB6160E0344B1B685B00324A13607E
S1133340FB69C3F113033A6922FA03F303F001039F
S1133350002B05D02C4B1B6843F001032A4A136051
S11333602A4B1B780133DAB2284B1A70274B1B788F
S1133370072B3ED10023FB7600237B6118E001225A
S11333807B6902FA03F31A461F4B1B681340002B98
S11333900BD07B69C3F10603012202FA03F35AB28C
S11333A097F91B3013435BB2FB767B6901337B6176
S11333B07B69062BE3DDFB7E1F2B14D9FB7E7E2B62
S11333C011D8386800F084FEF860FB68772B0AD8BF
S11333D03A68FB681344FA7E1A70FB6801333A6852
S11333E0134400221A70084B00221A60074B002273
S11333F01A70FB690133FB61FB69132B9BDD00BF72
S11334002037BD4680BD00BFA4000020A8000020D6
S113341080B5D6B002AF984B93F88232DBB283F01A
S11334200103DBB2002B40F0218107F108031846A9
S113343080231A46002100F023FE904B00221A60DC
S11334408F4B00221A708F4800F070FC0023A7F8FD
S11334504E3161E0B7F84E31874A52F82330C7F84D
S11334603031D7F83031884A93420DD1B7F84E2124
S113347007F188038549184600F00AFE07F188031E
S1133480184600F053FC42E0FB1D00221A70FB1D9D
S11334901946D7F83001FFF7F3FDC7F82C01D7F828
S11334A02C01FFF795FD0346002B08D1D7F82C011A
S11334B0FFF7BEFD0346002B01D0012300E00023EB
S11334C087F82B3197F82B3103F0010387F82B3160
S11334D0B7F84E1197F82B31002B01D06C4B00E05C
S11334E06C4BFA1D1278002A01D06B4A00E06B4A3B
S11334F007F1880001920093D7F830310A466849F1
S113350000F0C6FD07F18803184600F00FFCB7F879
S11335104E310133A7F84E31574BB3F880329BB28A
S1133520B7F84E219A4295D35E4800F0FFFB002382
S1133530A7F84C3179E0B7F84C314F4A52F82330B0
S1133540C7F84831D7F848314F4A934265D0BB1D7C
S113355000221A70BB1D1946D7F84801FFF790FDE9
S1133560C7F84401D7F84401FFF732FD0346002BA6
S113357055D1D7F84401FFF75BFD034683F00103FF
S1133580DBB2002B4BD1D7F84431002B3DDBB7F82D
S11335904C31DBB203F00F0387F8433197F8433122
S11335A05B0887F84231D7F844315B0BC3F311034E
S11335B0C7F83C31D7F83C31DA0097F8423103F0D0
S11335C007031343C7F83831D7F84431DB0ADBB2B9
S11335D003F0030387F8373197F8373107F1880090
S11335E0D7F83821304900F053FD07F18803184615
S11335F000F09CFB07F1080300221A701F4B002205
S11336001A601F4B00221A700AE007F108031946DA
S1133610D7F84401FFF782FE02E000BF00E000BFDC
S1133620B7F84C310133A7F84C31134BB3F880325F
S11336309BB2B7F84C219A42FFF47DAF07F108031F
S11336401B78002B0AD0194800F070FB07F108031F
S1133650184600F06BFB164800F068FB154800F0B4
S113366065FB054B002283F8822200E000BF07F5CA
S1133670A877BD4680BD00BFC0000020A400002084
S1133680A8000020DC4C000097C1897AFC4C0000A3
S11336900C4D0000104D0000144D00001C4D0000A6
S11336A0204D0000384D0000544D0000704D0000C6
S11336B07C4D0000804D000080B483B000AF034611
S11336C0FB7197F90730002B0BDBFB7903F01F022A
S11336D0074997F907305B09012000FA02F241F823
S11336E0232000BF0C37BD465DF8047B704700BF44
S11336F000E100E080B483B000AF0346FB7197F9AA
S11337000730002B0CDBFB7903F01F02074997F904
S113371007305B09012000FA02F2603341F82320EC
S113372000BF0C37BD465DF8047B704700E100E044
S113373080B500AF01211448FCF7EEFF134B0022C3
S11337401A60124B00225A62104B42F25422DA6180
S11337500E4B4FF020621A600C4B40F6F7725A6120
S11337600A4B01229A610520FFF7C4FF0520FFF7E9
S1133770A3FF064B01225A60054B00221A70054B29
S113378000221A6000BF80BD0002060000800140D4
S1133790480300204403002080B500AF0D4B0122F4
S11337A05A610D4B1B78DBB20133DBB20A4A19466E
S11337B01170072B0CD9084B00221A70FFF7E6FA98
S11337C0064B01221A70064B1B680133044A13602E
S11337D000BF80BD00800140AA00002048030020F3
S11337E04403002080B483B000AF0346FB7197F913
S11337F00730002B0BDBFB7903F01F02074997F915
S113380007305B09012000FA02F241F8232000BFCF
S11338100C37BD465DF8047B704700BF00E100E053
S113382080B483B000AF0346FB7197F90730002BD7
S113383010DBFB7903F01F02094997F907305B0994
S1133840012000FA02F2203341F82320BFF34F8F06
S1133850BFF36F8F00BF0C37BD465DF8047B704724
S113386000E100E080B483B000AF0346FB7197F938
S11338700730002B0CDBFB7903F01F02074997F993
S113388007305B09012000FA02F2603341F823207B
S113389000BF0C37BD465DF8047B704700E100E0D3
S11338A080B483B000AF03463960FB71FB79002B11
S11338B016D0FB79012B13D0FB79022B10D0FB79A6
S11338C0032B0DD0FB79042B0AD0FB79052B07D0F1
S11338D0FB79062B04D0FB79072B01D0FB79082B4D
S11338E001223B6802FA03F30749FA7918461346A2
S11338F05B0013441B010B441833186000BF0C37E2
S1133900BD465DF8047B70470080084080B500AF79
S113391001211148FCF700FF104B00221A600F4BE5
S113392000225A620D4B40F6A562DA610B4B4FF050
S113393080621A60094B40F6F7725A61074B012204
S11339409A610E20FFF78EFF0E20FFF74BFF034B0B
S113395002225A6000BF80BD0012040000840140AE
S113396080B500AF084B00225A62074B40F6F7724D
S11339705A610E20FFF776FF0E20FFF733FF024B4C
S113398001225A6000BF80BD0084014080B500AFB1
S1133990034B02225A600E20FFF742FF00BF80BD96
S11339A00084014080B500AF054B01225A61FFF746
S11339B0E3FB01210020FFF773FF00BF80BD00BFC0
S11339C00084014080B483B000AF0346FB7197F9D3
S11339D00730002B0BDBFB7903F01F02074997F933
S11339E007305B09012000FA02F241F8232000BFEE
S11339F00C37BD465DF8047B704700BF00E100E072
S1133A0080B483B000AF0346FB7197F90730002BF5
S1133A100CDBFB7903F01F02074997F907305B09B8
S1133A20012000FA02F2603341F8232000BF0C3772
S1133A30BD465DF8047B704700E100E080B483B0CC
S1133A4000AF786039607B683A689A6400BF0C37CD
S1133A50BD465DF8047B704780B483B000AF7860E6
S1133A6039607B68DA6C3B681A437B68DA6400BFB0
S1133A700C37BD465DF8047B7047000080B500AF8D
S1133A8001211F48FCF748FE01211E48FCF744FEB3
S1133A900123042204210220FEF738FA0023012224
S1133AA005210220FEF732FA174B40F6AA62DA60CB
S1133AB0154B00221A60144B41F205025A60134A56
S1133AC04FF41651104800F0ECF90F4B03225A67DB
S1133AD00D4B40F204429A670B4B0522DA600C4905
S1133AE00948FFF7ABFF04210748FFF7B5FF15208E
S1133AF0FFF786FF1520FFF765FF00BF80BD00BFFD
S1133B00004E040000550A000040014000A24A048F
S1133B10FFFF010080B582B000AF786007E07B68EA
S1133B205A1C7A601B7819460548FEF799FA7B6897
S1133B301B78002BF3D100BF0837BD4680BD00BF02
S1133B400040014080B582B000AF1648FEF774FA19
S1133B500346FB71FB790D2B10D1134B1B889BB2D1
S1133B601A46124B002199541048FFF7D3FF10480E
S1133B70FFF7D0FF0C4B00221A800FE00A4B1B8882
S1133B809BB2FE2B0AD8084B1B889BB25A1C91B2DD
S1133B90054A11801946054AFB79535400BF08377A
S1133BA0BD4680BD00400140AC0000204C03002015
S1133BB0984D000080B483B000AF0346FB7197F9C1
S1133BC00730002B0BDBFB7903F01F02074997F941
S1133BD007305B09012000FA02F241F8232000BFFC
S1133BE00C37BD465DF8047B704700BF00E100E080
S1133BF080B483B000AF0346FB7197F90730002B04
S1133C000CDBFB7903F01F02074997F907305B09C6
S1133C10012000FA02F2603341F8232000BF0C3780
S1133C20BD465DF8047B704700E100E080B483B0DA
S1133C3000AF786039607B683A689A6400BF0C37DB
S1133C40BD465DF8047B704780B483B000AF7860F4
S1133C5039607B68DA6C3B681A437B68DA6400BFBE
S1133C600C37BD465DF8047B7047000080B500AF9B
S1133C7001212048FCF750FD01211F48FCF74CFDB1
S1133C80012304220C210420FEF740F90023012221
S1133C900D210420FEF73AF9184B40F6AA62DA60C7
S1133CA0164B00221A60154B41F205025A60144A61
S1133CB04FF4E131114800F0F4F8104B03225A6735
S1133CC00E4B40F204429A670C4B0522DA600D4910
S1133CD00A48FFF7ABFF04210848FFF7B5FF172098
S1133CE0FFF786FF1720FFF765FF074B00221A70C6
S1133CF000BF80BD005E040000550A00004401407E
S1133D0000A24A04FFFF01004C05002080B582B0E8
S1133D1000AF0346FB71FB7919460348FEF7A0F98F
S1133D2000BF0837BD4680BD0044014080B582B065
S1133D3000AF786007E07B685A1C7A601B781946EC
S1133D400548FEF78DF97B681B78002BF3D100BF83
S1133D500837BD4680BD00BF0044014080B582B035
S1133D6000AF1D48FEF768F90346FB71FB790D2B84
S1133D701AD11A4B1B889BB21A46194B002199542D
S1133D801848FFF7D3FF154B1B889BB2FE2B07D8AF
S1133D90124B1B889BB2013B114AD25C124B1A7026
S1133DA00E4B00221A8013E0FB791846FFF7AEFF92
S1133DB00A4B1B889BB2FE2B0AD8084B1B889BB26C
S1133DC05A1C91B2054A11801946054AFB7953548D
S1133DD000BF0837BD4680BD00440140AE0000204E
S1133DE04C0400209C4D00004C05002080B483B09E
S1133DF000AF0346FB7197F90730002B0BDBFB790F
S1133E0003F01F02074997F907305B09012000FA04
S1133E1002F241F8232000BF0C37BD465DF8047B55
S1133E20704700BF00E100E080B483B000AF0346F8
S1133E30FB7197F90730002B0CDBFB7903F01F02B1
S1133E40074997F907305B09012000FA02F2603351
S1133E5041F8232000BF0C37BD465DF8047B704752
S1133E6000E100E080B483B000AF786039607B6823
S1133E703A689A6400BF0C37BD465DF8047B70470E
S1133E8080B483B000AF786039607B68DA6C3B68DB
S1133E901A437B68DA6400BF0C37BD465DF8047BC7
S1133EA0704780B487B000AFF860B9607A601023BF
S1133EB07B617B689A00BB68796901FB03F3B2FB01
S1133EC0F3F3043B9B013B61FB683A695A6100BF11
S1133ED01C37BD465DF8047B7047000080B500AF19
S1133EE001211E48FCF718FC01211D48FCF714FCB5
S1133EF0012304220A210420FEF708F800230122EA
S1133F000B210420FEF702F8164B40F6AA62DA6091
S1133F10144B00221A60134B41F205025A60124AF4
S1133F204FF4E1310F48FFF7BCFF0E4B03225A67F1
S1133F300C4B00229A670B4B0522DA600B490948A7
S1133F40FFF790FF04210748FFF79AFF0620FFF7C9
S1133F506BFF0620FFF74AFF00BF80BD007204001C
S1133F6000550A000000014000A24A04FFFF0100BE
S1133F7080B582B000AF786007E07B685A1C7A6035
S1133F801B7819460548FEF76BF87B681B78002BF5
S1133F90F3D100BF0837BD4680BD00BF000001401B
S1133FA080B582B000AF1648FEF746F80346FB71B1
S1133FB0FB790D2B10D1134B1B889BB21A46124B65
S1133FC0002199541048FFF7D3FF1048FFF7D0FFA2
S1133FD00C4B00221A800FE00A4B1B889BB2FE2B6D
S1133FE00AD8084B1B889BB25A1C91B2054A11800F
S1133FF01946054AFB79535400BF0837BD4680BDB6
S113400000000140B000002050050020A44D000035
S113401008B5074B044613B10021AFF30080054BEC
S11340201868836A03B19847204600F09BFC00BFE0
S113403000000000A84D000070B50D4E0D4CA41BEF
S1134040A4100025A54209D10B4E0C4C00F08CFCA9
S1134050A41BA4100025A54205D170BD56F8253037
S113406098470135EEE756F8253098470135F2E7D1
S113407074000020740000207400002078000020E8
S113408002440346934200D1704703F8011BF9E749
S11340900EB400B59CB01DAB029006906FF00041C9
S11340A0094807910491094953F8042B05910068C4
S11340B0019302A900F06EF8029B00221A701CB052
S11340C05DF804EB03B07047100000200802FFFF06
S11340D0034613F8012B002AFBD1181A0138704744
S11340E02DE9F0478E689E4282460C4690469946DA
S11340F037D88A8912F4906F31D0256809696F1A0C
S11341006569022305EB450595FBF3F509F1010308
S11341103B449D4238BF1D46530530D5294600F027
S113412079FB064650B90C23CAF80030A38943F042
S11341304003A3814FF0FF30BDE8F0873A46216980
S113414000F0F6FAA38923F4906343F08003A3817B
S1134150266165613E44ED1B2660A5604E464E45D2
S113416000D94E4632464146206800F0ECFAA36876
S11341709B1BA36023681E4426600020DCE72A46BC
S113418000F0A2FB06460028E2D12169504600F067
S1134190F3FAC8E72DE9F04F9DB0804603938B896D
S11341A01D060C4616460FD50B696BB9402100F06D
S11341B031FB2060206128B90C23C8F800304FF08F
S11341C0FF30C7E0402363610023099320238DF867
S11341D0293030238DF82A304FF0010B37463D4605
S11341E015F8013B0BB1252B3ED1B7EB060A0BD0DA
S11341F05346324621464046FFF772FF013000F035
S1134200A480099B534409933B78002B00F09D80C4
S113421000234FF0FF32CDE90523049307938DF873
S113422053301A932F46052217F8011B4F4800F00C
S11342302FFA049BD0B9D90644BF20228DF853200D
S11342401A0744BF2B228DF853202A782A2A15D026
S1134250079A2F4600200A25394611F8013B303BC6
S1134260092B4DD9B8B10FE02F46B8E73F4A801A61
S11342700BFA00F0184304903D46D3E7039A111D4E
S113428012680391002A01DB079204E0524243F0D2
S11342900203079204933B782E2B0CD17B782A2BB4
S11342A033D1039B1A1D1B680392002BB8BF4FF038
S11342B0FF33023705932E4D39780322284600F048
S11342C0E7F938B14023401B03FA00F0049B034391
S11342D001370493397827488DF8281006227E1C6C
S11342E000F0D6F9002838D0234B13BB039B0733C7
S11342F023F0070308330393099B4B4409936DE7A9
S113430005FB023201200F46A6E70023013705937F
S113431019460A25384610F8012B303A092A03D9E0
S1134320002BC8D00591C6E705FB012101230746F0
S1134330F0E703AB00932246104B04A94046AFF3C9
S11343400080B0F1FF3F8146D6D1A3895B063FF5DB
S113435036AF09981DB0BDE8F08F03AB0093224639
S1134360064B04A9404600F081F8EAE7AC4D000092
S1134370B24D0000B64D000000000000E140000016
S11343802DE9F04791461F468A680B69DDF82080C5
S11343909342B8BF1346C9F8003091F8432006464B
S11343A00C4612B10133C9F800302368990642BFA4
S11343B0D9F800300233C9F80030256815F0060535
S11343C007D104F1190AE368D9F800209B1AAB421B
S11343D028DC94F843302268003318BF0123920686
S11343E02DD404F1430239463046C047013020D071
S11343F02368E568D9F8002003F00603042B08BFFE
S1134400AD1AA36822690CBF25EAE575002593421D
S1134410C4BF9B1AED184FF000091A344D451AD148
S1134420002008E00123524639463046C047013097
S113443003D14FF0FF30BDE8F0870135C3E7E11841
S11344405A1C302081F84300224494F8451082F825
S113445043100233C5E70123224639463046C0479C
S11344600130E6D009F10109D8E700002DE9F04355
S113447001F1430C0C46097E85B06E2917460646A9
S113448098460C9A00F0B38022D8632936D00AD813
S1134490002900F0B980582900F0838004F1420516
S11344A084F8421032E0642901D06929F6D12068E9
S11344B01368050603F104012AD51B681160002B5B
S11344C003DA2D225B4284F843206F480A2239E044
S11344D0732900F09D8008D86F2920D07029DDD180
S11344E0236843F02003236003E0752917D078295B
S11344F0D4D1782384F84530644855E01368191DF5
S11345001B68116004F1420584F8423001238CE0F9
S11345101B68116010F0400F18BF1BB2CFE713687F
S11345202568181D1060280601D51B6802E068067E
S1134530FBD51B8854486F2914BF0A220822002186
S113454084F843106568A560002DC0F29580216849
S113455021F004012160002B3DD1002D40F08E801C
S11345606546082A0BD12368DB0708D523696268EE
S11345709A42DEBF302305F8013C05F1FF35ACEB70
S113458005032361CDF800803B4603AA214630464B
S1134590FFF7F6FE01304DD14FF0FF3005B0BDE816
S11345A0F083394884F84510136821681D1D1B6881
S11345B015600A060BD5CA0744BF41F020012160EB
S11345C01BB9226822F0200222601022B7E74D06B0
S11345D048BF9BB2EFE76546B3FBF2F102FB113330
S11345E0C35C05F8013D0B460029F5D1B9E7136812
S11345F025686169181D106028061B6801D51960BB
S113460002E06A06FBD51980002323616546B9E7F9
S11346101368191D11601D6862680021284600F0A6
S113462037F808B1401B606063682361002384F895
S11346304330A7E723692A4639463046C04701304C
S1134640AAD023689B0713D4E068039B9842B8BFA1
S11346501846A3E701234A4639463046C04701308D
S11346609AD00135E368039A9B1AAB42F2DCEBE77C
S1134670002504F11909F5E7002BACD1037884F87F
S1134680423004F142056CE7BD4D0000CE4D000000
S113469001F0FF01102A2BDB10F0070F08D010F8EF
S11346A0013B013A8B422DD010F0070F42B3F6D1F3
S11346B0F0B441EA012141EA014122F007047FF00C
S11346C000070023F0E80256083C85EA010586EA63
S11346D0010685FA47F5A3FA87F586FA47F6A5FA9F
S11346E087F68EB9EED1F0BC01F0FF0102F00702AB
S11346F032B110F8013B013A83EA010313B1F8D156
S11347000020704701387047002D06BF3546033836
S1134710073815F0010F07D1013015F4807F02BF6F
S1134720013015F4C03F0130F0BC0138704700BFC0
S113473010B5431E0A44914200D110BD11F8014B3B
S113474003F8014FF7E7884210B501EB020307D8DD
S1134750421E99420AD011F8014B02F8014FF8E7C2
S11347608342F5D98118D21AD34200D110BD13F86F
S1134770014D01F8014DF7E738B50546002945D04C
S113478051F8043C0C1F002BB8BFE41800F0D2F819
S11347901F4A1368104633B9636014602846BDE8A5
S11347A0384000F0C8B8A3420CD92168621893427B
S11347B004BF1A685B68636004BF52182260046017
S11347C0ECE713465A680AB1A242FAD91968581894
S11347D0A0420BD120680144581882421960DDD1EF
S11347E0106852685A6001441960D7E702D90C2353
S11347F02B60D3E7206821188A4204BF11685268ED
S1134800626004BF091821605C60C7E738BD00BF5F
S1134810B400002070B5CD1C25F0030508350C2D1F
S113482038BF0C25002D064601DBA94203D90C2311
S11348303360002070BD00F07DF8214A14682146E1
S113484091B9204C23681BB9304600F063F820600E
S11348502946304600F05EF8431C24D10C23336013
S1134860304600F068F8E4E70B685B1B18D40B2BA8
S11348700FD90B60CD50CC18304600F05CF804F131
S11348800B00231D20F00700C31AD3D05A42E25074
S1134890D0E78C424B6816BF636013600C46EBE7AD
S11348A00C464968CCE7C41C24F00304A04205D09C
S11348B0211A304600F02EF80130CFD02560DBE716
S11348C0B4000020B8000020F8B5074614460E4690
S11348D021B91146BDE8F840FFF79CBF22B9FFF7A4
S11348E04BFF25462846F8BD00F026F8A0420FD21B
S11348F021463846FFF78EFF05460028F2D03146A0
S11349002246FFF715FF31463846FFF735FFE9E742
S11349103546E7E738B5064C0023054608462360CC
S113492000F012F8431C02D1236803B12B6038BD98
S1134930500600207047704751F8043C181F002BA4
S1134940BCBF0B58C0187047044A05491368002BB4
S113495008BF0B461844106018467047BC0000207E
S113496058060020FEE700BFF8B500BFF8BC08BC3D
S11349709E467047F8B500BFF8BC08BC9E46704719
S1134980601F0D0090051000001F60BC40420F0026
S11349909005100000881300351F61BC0000000062
S11349A00088130040951600351FA2BC00000000CB
S11349B04095160040771B00351F23AD0000000012
S11349C040771B0030322000001F60BA80841E0034
S11349D03032200000102700351F61BA00000000AB
S11349E00010270090512D00351FA2BA00000000CE
S11349F090512D0080EE3600351F23AB00000000DF
S1134A0080EE360060644000001F60B800093D007D
S1134A106064400000204E00351F61B800000000B3
S1134A2000204E00107C5A00351FA2B80000000080
S1134A30107C5A0000BF7200001F23A9C0CF6A0077
S1134A4000BF720080439100351F249900000000CC
S1134A5080439100C00DB400351F2599000000006B
S1134A60C00DB40000BADB00001F2699405DC600EB
S1134A7000BADB0080730601001F27990024F400AC
S1134A808073060120992C01001F4899C0EA210176
S1134A9020992C01C0286B01351F499900000000A2
S1134AA0C0286B0160EDB501001F4A9980BA8C01E2
S1134AB060EDB50180011302001F6B990048E80105
S1134AC08001130280138D02001F6C9980D543026C
S1134AD080138D02805A1303001F6D99006CDC0251
S1134AE0805A130320289B03001F8E99007E5603CF
S1134AF020289B0300A24A04001F8FA90090D00322
S1134B0080A81201000000000051250200010000ED
S1134B1080F937030002000000A24A0400030000E9
S1134B20C0CF6A0002000000809FD500020100008F
S1134B30002D310102020000000000000006000107
S1134B400D080E0054434920434F4D312D41202878
S1134B505541525430290D0A0000000054434920A5
S1134B60434F4D322D422028554152543129202D96
S1134B702044454255470D0A000000004846584F5E
S1134B803A203530204D487A206B72797374616C09
S1134B902C2044504C4C3A203732204D487A0D0A90
S1134BA00000000054434920434F4D332D43202837
S1134BB0555341525430290D0A00000068656C7049
S1134BC00D0A0000202D2D2D2D2D2D2D2D2D2D2DBB
S1134BD02D2D2D2D2D2D2D2D2D2D2D2D2D2D2D2D01
S1134BE02D2D2D2D2D0D0A002054434920636F6D6A
S1134BF06D616E64733A0D0A0000000020312E2EA0
S1134C0036203A20546F67676C65204C45440D0A82
S1134C10000000002074203A2073746172742074C0
S1134C20696D6572312054582031323030487A0D24
S1134C300A0000002054203A2073746F70207469B5
S1134C406D6572312054582031323030487A0D0A63
S1134C50000000002068203A20446973706C617978
S1134C6020746869732068656C700D0A0000000088
S1134C704C454431000000004C4544320000000023
S1134C804C454433000000004C454434000000000F
S1134C904C454420525800004C45442054580000D0
S1134CA053746172742074696D6572312054582094
S1134CB031323030487A0D0A0000000053746F70AE
S1134CC02074696D65723120545820313230304877
S1134CD07A0D0A000D0A5443493E20000D0A3E3E57
S1134CE03E20504F43534147204D53472053544196
S1134CF05254203C3C3C0D0A00000000575B253018
S1134D0033645D3A2049444C450D0A004F4B200062
S1134D10455252005B46495845445D00000000007E
S1134D20575B253033645D3A20253038582025738D
S1134D302025730D0A0000000D0A2D2D2D20494E4B
S1134D4054455250524554414345202D2D2D0D0AB2
S1134D50000000004144524553413A202530376C4D
S1134D6075202846756E6B6365202564290D0A003D
S1134D705445585420203A20000000000D0A000039
S1134D803E3E3E204D534720454E44203C3C3C0D86
S1134D900A5443313E2000000D0A00000D0A54431A
S1134DA0493E20000D0A000014000020232D302B62
S1134DB02000686C4C006566674546470030313218
S1134DC0333435363738394142434445460030316F
S1134DD032333435363738396162636465660000CE
S1074DE000000000CB
S10B4DE4ACB3FF7F01000000E5
S1134DEC80F0FA0200800000C0EA2101C0EA21012F
S1134DFC140000200000000000000000000000006F
S1134E0C0000000000000000000000000000000092
S1134E1C0000000000000000000000000000000082
S1134E2C0000000000000000000000000000000072
S1134E3C0000000000000000000000000000000062
S1134E4C0000000000000000000000000000000052
S10F4E5C0000000075010000510100007E
S903269D39
